:100000000C9435050C94610A0C9412080C9452055A
:100010000C9452050C9452050C9452050C94520504
:100020000C9452050C9452050C9452050C945205F4
:100030000C9452050C943F0A0C9452050C945205F2
:100040000C949C080C9452050C94410D0C946F0D6B
:100050000C9452050C9452050C9452050C945205C4
:100060000C9452050C9452058205850588058B0574
:100070008E05910594050D07100717071A071D0730
:10008000200723072C102F10361039103C103F107A
:100090004210556E62656B616E6E740057617274CA
:1000A000652061756620446174656E00456D7066FB
:1000B000616E676520446174656E00496E6974699C
:1000C000616C7369657265004B65696E205374617C
:1000D000747573004552522D50756C73646175656B
:1000E00072004552522D4461756572506572696F98
:1000F0006465004552522D5061722E204461747522
:100100006D004552522D5061722E204D696E7574EE
:1001100065004552522D5061722E205374756E64E5
:1001200065006F6B00536100467200446F004D69BB
:10013000004469004D6F00536F0053616D7374612B
:1001400067004672656974616700446F6E6E657220
:1001500073746167004D697474776F6368004469F4
:10016000656E73746167004D6F6E74616700536FE5
:100170006E6E746167002053656B756E64656E000A
:10018000732067657365747A742E0D0A0041757368
:1001900067616E6773696D70756C7365696E7465A0
:1001A0007276616C207775726465206175663A209D
:1001B0000030306D732067657365747A742E0D0A94
:1001C0000041757367616E6773696D70756C7377E5
:1001D0006569746520777572646520617566202095
:1001E0002020203A0041757367616E6773696D70F6
:1001F000756C7377656974652061656E6465726E90
:100200002028696E203130306D732C206D6F65674A
:100210006C696368652057657274653A20327C3377
:100220007C347C2E2E2E2E7C3830293A20004175CD
:100230007300416B746976002D3E706175736500C3
:1002400046616C736368652045696E676162652EFF
:100250000D0A0073796E6368726F6E6973696572F7
:1002600065204E6562656E756872656E20617566A3
:100270002000204D696E757465286E29207A7520DE
:1002800073796E6368726F6E6973696572656E000B
:100290002C2067657261646520656D7066616E67AC
:1002A000656E6573204269743A20004552524F5280
:1002B0000D0A004F4B0D0A006F6B0D0A0055687256
:1002C00020616E676568616C74656E2E0D0A00555D
:1002D0006872206765737461727465742E0D0A000C
:1002E000556E6775656C7469676573205A656974C6
:1002F000666F726D61740D0A004B6F6D6D616E6497
:100300006F20657869737469657274206E696368BB
:10031000742E0D0A00313268205374756E64656E58
:10032000204D6F64757320616B74697669657274B2
:100330002E0D0A00323468205374756E64656E2089
:100340004D6F64757320616B746976696572742E84
:100350000D0A003132205374756E64656E003234BC
:10036000205374756E64656E003132205374756E5F
:1003700064656E2E20417566203234205374756E8C
:1003800064656E207365747A656E3F20286A7C6EA2
:10039000293A20003234205374756E64656E2E2025
:1003A000417566203132205374756E64656E20731A
:1003B00065747A656E3F20286A7C6E293A20005366
:1003C000796E636D6F6475732069737420004443A4
:1003D0004637372053796E6368726F6E6973617444
:1003E000696F6E206175732E0D0A004443463737DE
:1003F0002053796E6368726F6E69736174696F6E92
:100400002065696E2E0D0A006175732E2045696E98
:10041000736368616C74656E3F20286A7C6E293A4C
:100420002000616E2E20417573736368616C746582
:100430006E3F20286A7C6E293A20004443462053B0
:100440007963686E726F6E69737461696F6E20692B
:10045000737420004E6F6368206B65696E6520447D
:100460004346373720446174656E20656D70666160
:100470006E67656E2E0073696E6420616E676568D5
:10048000616C74656E2E205374617274656E203FCA
:1004900020286A7C6E293A20006C617566656E2E94
:1004A00020416E68616C74656E203F20286A7C6E06
:1004B000293A20004E6562656E75687228656E295E
:1004C00020004269747465204443463737207A75AA
:1004D00065727374206465616B74697669657265B1
:1004E0006E210D0A005374656C6C65204E65626563
:1004F0006E756872656E20617566202878783A7826
:1005000078293A20005374656C6C65204E656265ED
:100510006E756872656E206578616B7420617566B2
:10052000202878783A7878293A20005A656974202A
:100530006175662064656E204E6562656E756872D1
:10054000656E202878783A7878293A20001B5B334A
:10055000373B316D41757367616E6773696D707597
:100560006C73696E74657276616C1B5B37433A20FD
:100570001B5B303B33376D001B5B33373B316D41C9
:10058000757367616E6773696D70756C7377656994
:1005900074651B5B3130433A201B5B303B33376D56
:1005A000001B5B33373B316D4C434420446973700F
:1005B0006C6179206973741B5B3134433A201B5B97
:1005C000303B33376D000D0A1B5B33373B316D53C6
:1005D000796E6368726F6E69736174696F6E736D43
:1005E0006F6475731B5B38433A201B5B303B3337BA
:1005F0006D000D0A1B5B33373B316D444346373783
:10060000206C65747A746572204B6F6D706C6574C4
:1006100074656D7066616E673A201B5B303B3337E3
:100620006D000D0A1B5B33373B316D444346373752
:10063000205374617475731B5B3137433A201B5B25
:10064000303B33376D000D0A1B5B33373B316D4454
:1006500043463737204C65747A746573204572675A
:1006600065626E69731B5B37433A201B5B303B331B
:10067000376D00616B746976696572740D0A1B5B76
:1006800033373B316D4C65747A746573204443464F
:10069000373720456D7066616E6773646174756D80
:1006A0001B5B32433A201B5B303B33376D000D0A36
:1006B0001B5B33373B316D44434637371B5B32346A
:1006C000433A201B5B303B33376D001B5B33373BBA
:1006D000316D5A65697420617566204E6562656E7C
:1006E000756872656E206265690D0A6C65747A744E
:1006F000656D205370616E6E756E6773617573669C
:10070000616C6C1B5B35433A201B5B303B33376DB0
:10071000001B5B33373B316D4C65747A7465722016
:100720005370616E6E756E677361757366616C6C24
:100730001B5B35433A201B5B303B33376D000D0AA2
:100740001B5B33373B316D5374617475731B5B32C4
:1007500033433A201B5B303B33376D001B5B333731
:100760003B316D5A65697420617566204E6562651E
:100770006E756872656E1B5B3130433A201B5B30CF
:100780003B33376D001B5B33373B316D4669726D10
:10079000776172651B5B3231433A201B5B303B3320
:1007A000376D00201B5B33373B316D5665726675C4
:1007B000656762617265204B6F6D6D616E646F730A
:1007C0003A0D0A201B5B33373B316D646366201B97
:1007D0005B303B33376D2D3E2053796E6368726F0B
:1007E0006E69736174696F6E206D6974204443464D
:1007F0003737206A617C6E65696E2E0D0A201B5B9F
:1008000033373B316D736D74201B5B303B33376D79
:100810002D3E204D75747465727568722061756621
:10082000205A65697420766F6E204E6562656E751C
:100830006872656E207374656C6C656E2E0D0A208F
:100840001B5B33373B316D6E7374201B5B303B3366
:10085000376D2D3E204E6562656E756872656E203F
:10086000617566206578616B7420646965736520C5
:100870005A656974207374656C6C656E284E696383
:10088000687420696D204443463737204D6F647586
:1008900073292E0D0A201B5B33373B316D61737456
:1008A000201B5B303B33376D2D3E204E6562656EFD
:1008B000756872656E206175662064696573652070
:1008C0005A656974207374656C6C656E2E205A6568
:1008D000697420646965206461667565722062656B
:1008E0006EF67469677420776972642C2077697278
:1008F000642068696E7A7561646469657274202821
:100900004E6963687420696D204443463737204D33
:100910006F647573292E0D0A201B5B33373B316DD5
:10092000707374201B5B303B33376D2D3E204D754B
:10093000747465722D20756E64204E6562656E75E7
:100940006872656E20616E68616C74656E2E2853E6
:10095000796E6368726F6E69736174696F6E206619
:10096000756E6B74696F6E696572742077656974F2
:100970006572292E0D0A201B5B33373B316D737373
:100980006D201B5B303B33376D2D3E2053796E63FA
:100990006D6F647573203132682F3234682073654F
:1009A000747A656E2E0D0A201B5B33373B316D73F5
:1009B0007077201B5B303B33376D2D3E20417573C4
:1009C00067616E6773696D70756C7377656974655F
:1009D0002061656E6465726E283230302D3830309B
:1009E000306D73292E0D0A201B5B33373B316D733D
:1009F000746174201B5B303B33376D2D3E2047659F
:100A000073616D7473746174757320616E7A656956
:100A100067656E2E0D0A000D0A48696C6665206DCB
:100A20006974201B5B33373B316D3F1B5B303B33BD
:100A3000376D206F646572201B5B33373B316D6807
:100A4000656C701B5B303B33376D20756E64206DB9
:100A500069742072657475726E20616E7363686C60
:100A600069657373656E2E0D0A0011241FBECFEFEA
:100A7000D8E0DEBFCDBF12E0A0E0B1E0E2E8F8E3ED
:100A800002C005900D92A23FB107D9F724E0A2EF72
:100A9000B2E001C01D92A232B207E1F70E94FB0D45
:100AA0000C943F1C0C940000E0E1F1E01286529897
:100AB0005A9AA9E6B0E08C9181608C93E89A82E022
:100AC000828786E081870895E9E6F0E080818E7F65
:100AD0008083E898E1E8F0E08081887F8083EFE61A
:100AE000F0E080818E7F80835A9A0895E82FCB01B1
:100AF0004E2F50E047305105D8F4FA01EC5CFF4F1F
:100B00000C94911962E271E011C062E171E00EC0D3
:100B100062E071E00BC063EF70E008C062EE70E06D
:100B200005C064ED70E002C068EC70E00C94D01A6F
:100B30000895CF93DF93FC0101900020E9F73197EE
:100B4000E81BF90B20E130E02E1B310937FF02C012
:100B50002F5F3F4F35952795283058F4623048F481
:100B6000EC01822F0E94C80CCE01DF91CF910C9432
:100B7000ED0CDF91CF910895FF920F931F93CF93C8
:100B8000DF9300D0CDB7DEB78B0163E672E00E9441
:100B9000D71A009719F480E090E02CC04AE050E0AA
:100BA000BE016F5F7F4F0E94AB19F62EE981FA817B
:100BB00080818111F0CF87E18F1568F363E672E0E1
:100BC00080E090E00E94D71A009729F34AE050E0B5
:100BD000BE016F5F7F4F0E94AB19E981FA8190815E
:100BE0009111D9CF6C33B8F6F801F082618312828B
:100BF00081E090E00F900F90DF91CF911F910F91C6
:100C0000FF900895FF920F931F93CF93DF9300D02F
:100C100000D0CDB7DEB7F82E8B0119821A821B8265
:100C20001C824AE0BE016F5F7F4F90E00E943D1B37
:100C300089E08F1560F065E372E0C8010E94F01A48
:100C4000BE016F5F7F4FC8010E94DC1A06C0BE0163
:100C50006F5F7F4FC8010E94F01A0F900F900F90A6
:100C60000F90DF91CF911F910F91FF900895EF9218
:100C7000FF920F931F93CF93DF9300D01F92CDB7B6
:100C8000DEB78C017B0119821A821B82BE016F5F65
:100C90007F4FF70180810E940206BE016F5F7F4F88
:100CA000C8010E94F01A63E672E0C8010E94DC1AD3
:100CB000BE016F5F7F4FF70181810E940206BE0176
:100CC0006F5F7F4FC8010E94DC1A63E672E0C801C3
:100CD0000E94DC1ABE016F5F7F4FF70182810E9484
:100CE0000206BE016F5F7F4FC8010E94DC1A80912F
:100CF0005C01811105C068E372E0C8010E94C51A59
:100D00000F900F900F90DF91CF911F910F91FF9057
:100D1000EF900895CF92DF92EF92FF920F931F937F
:100D2000CF93DF937C01EB01FC0101900020E9F7F8
:100D30008C010E1B1F0B0F5E1F4F16950795C02EC3
:100D4000188290E1D92E67E672E0CE010E94DC1A8B
:100D5000DA94D110F8CFC7FC1AC0C00FD11D07FD1F
:100D6000DA95DE012A2F2C1B022E000C330BF70123
:100D700001900020E9F73197EE19FF092E173F0780
:100D800030F4F701E20FF31F80818D93EBCFDF91F9
:100D9000CF911F910F91FF90EF90DF90CF9008952A
:100DA00080911A01811103C06BEB70E00CC081309F
:100DB00019F46CEA70E007C0823019F46CE970E055
:100DC00002C062E970E08CE293E00C94D01A0F93B9
:100DD0001F93CF93DF93CDB7DEB72A970FB6F89462
:100DE000DEBF0FBECDBF8C0119821A821B821C820E
:100DF000FE01359686E0DF011D928A95E9F7D8015C
:100E00001396EC914E2F50E0FA013197E730F1053F
:100E1000E8F4E55CFF4F0C94911967E671E002C0BD
:100E20006EE571E085E291E00E94D01A15C065E59B
:100E300071E0F8CF6AE471E0F5CF62E471E0F2CFDF
:100E40006AE371E0EFCF6EE671E0ECCF6DE272E045
:100E500085E291E00E94F01A67E672E085E291E097
:100E60000E94DC1ABE016F5F7F4FF80182810E94F1
:100E70000206BE016F5F7F4F85E291E00E94DC1A9F
:100E800061E372E085E291E00E94DC1ABE016F5FCF
:100E90007F4FD80111968C910E940206BE016F5FB0
:100EA0007F4F85E291E00E94DC1A61E372E085E207
:100EB00091E00E94DC1AF80180814AE0BE016F5F78
:100EC0007F4F90E00E943D1BD8018C918A3018F42E
:100ED00063E372E002C067E372E085E291E00E94A2
:100EE000DC1ABE016F5F7F4F85E291E00E94DC1A41
:100EF00067E672E085E291E00E94DC1ABE016F5F56
:100F00007F4FF80184810E940206BE016F5F7F4F10
:100F100085E291E00E94DC1A63E672E085E291E0EE
:100F20000E94DC1ABE016F5F7F4FD80115968C912D
:100F30000E940206BE016F5F7F4F85E291E00E9432
:100F4000DC1A67E672E085E291E00E94DC1AF801A3
:100F50008781882319F06AE372E002C06EE372E0D1
:100F600085E291E02A960FB6F894DEBF0FBECDBFA2
:100F7000DF91CF911F910F910C94DC1A0F931F9367
:100F8000CF93DF9300D0CDB7DEB74AE050E0BE018B
:100F90006F5F7F4F0E94AB19E981FA812081211197
:100FA0000FC08B019C0102501109210931090F3436
:100FB00011052105310520F46093F80281E001C09C
:100FC00080E00F900F90DF91CF911F910F910895C6
:100FD000811108C080915A018B3320F48F5F809378
:100FE0005A01089510925A0180915901909120015F
:100FF00080FF03C09093F40202C09093F5028B33FC
:1010000020F48F5F809359010895109259018091C7
:101010005801873120F48F5F809358010895109212
:10102000580108951F920F920FB60F9211242F931B
:101030003F934F935F936F937F938F939F93AF9360
:10104000BF93EF93FF934B995BC0609158018CE085
:1010500090E00E94AE1B609159018BE090E00E94ED
:10106000AE1B80911801882349F1609114018AE038
:1010700090E00E94AE1B6091150189E090E00E9413
:10108000AE1B6091120188E090E00E94AE1B60915F
:10109000110187E090E00E94AE1B6091100186E094
:1010A00090E00E94AE1B6091130185E090E00E94E9
:1010B000AE1B6091170184E090E00FC06091580171
:1010C0008AE090E00E94AE1B6091590189E090E0B7
:1010D0000E94AE1B6FEF88E090E00E94AE1B8091F3
:1010E00000018823C1F00E94D30C60E086E991E002
:1010F0000E94990561E089E891E00E9499050BC082
:1011000083E390E00E94990D80910001882319F0FB
:101110008CE00E94080DFF91EF91BF91AF919F91DC
:101120008F917F916F915F914F913F912F910F9090
:101130000FBE0F901F9018951F920F920FB60F922F
:1011400011242F933F934F935F936F937F938F93CC
:101150009F93AF93BF93EF93FF93809190039091F0
:10116000910384332CE0920734F401969093910319
:101170008093900323C11092910310929003809169
:10118000F502882341F05F985E9A8091F5028150C4
:101190008093F50201C05E988091F402882341F0AB
:1011A0005E985F9A8091F40281508093F40201C0AE
:1011B0005F9880918F03893020F48F5F80938F0335
:1011C000F1C010928F0380915B038823F1F080912E
:1011D00059038B3320F48F5F8093590316C010920C
:1011E0005903809158038B3320F48F5F8093580309
:1011F0000CC01092580380915703873120F48F5F01
:101200008093570302C0109257033091F20220914D
:1012100058018091570390915901409158035CE324
:101220003323C9F0259F90011124290F311D5CE360
:10123000859FC0011124840F911D8217930714F418
:1012400080569A4F821B930B833625E09207A4F1B8
:10125000805A954031C0259F90011124290F311DDE
:101260005CE3859FC0011124840F911D213D42E064
:10127000340714F0205D3240813D52E0950714F0B0
:10128000805D9240A9012817390744F440535D4F0F
:10129000481B590B4E3351056CF405C0481B590BC4
:1012A0004E3351052CF488279927841B950B04C0D5
:1012B00080539D4F821B930B9093F7028093F6020D
:1012C0004B9B3DC080915A03882359F18091F602CF
:1012D0009091F7020097A1F094F180918D03909185
:1012E0008E031816190634F081E00E94E8078091F9
:1012F0001F0190E0019790938E0380938D031FC090
:10130000809157038093580180915803809359012D
:101310008091590380935A0110925A0310925B03F3
:101320000EC080915C01882351F080911F0190E0F4
:1013300090938E0380938D0380E00E94E807809154
:101340003D03882321F0815080933D0308C085E050
:1013500080933D0380913F038F5F80933F03809193
:101360001801882319F081508093180180911B0186
:1013700090911C01A0911D01B0911E018F3F2FEF94
:101380009207A207B20759F00196A11DB11D8093E3
:101390001B0190931C01A0931D01B0931E0181E0DD
:1013A00080933E0380918F0365E00E947119911133
:1013B00005C05D9B02C05D9801C05D9AFF91EF91F1
:1013C000BF91AF919F918F917F916F915F914F915D
:1013D0003F912F910F900FBE0F901F901895EF9295
:1013E000FF920F931F93CF93DF9300D01F92CDB73F
:1013F000DEB77C010E94B20D8C019A838983882715
:101400009B71892B81F50D3039F48EED92E00E94AD
:10141000E00D6CE673E004C0033051F463E472E065
:10142000C7010E94F01A10926C0381E090E01DC089
:10143000802F0B830E94CB0DECE6F3E0019000209F
:10144000E9F73197EC56F3409B81B09760F4005276
:101450000F3510F09D3039F4BE016F5F7F4F8CE681
:1014600093E00E94DC1A80E090E00F900F900F90C4
:10147000DF91CF911F910F91FF90EF9008951F92F0
:101480000F920FB60F9211248F939F93EF93FF93B8
:10149000E1E8F0E08081887F8083EFE6F0E0808102
:1014A0008E7F80838FEF9FEF9093850080938400E1
:1014B000FF91EF919F918F910F900FBE0F901F9012
:1014C00018951F920F920FB60F9211242F933F93EE
:1014D0004F935F936F937F938F939F93AF93EF930C
:1014E000FF9350911A014A9B5EC080918100887FD2
:1014F0008093810080916F008E7F80936F00809138
:1015000084009091850090936B0380936A031092FE
:101510008500109284008091810085608093810015
:1015200080916F00816080936F0020916A033091F9
:101530006B035130A9F48091680390916903820F85
:10154000931F9093670380936603855F9C418F315F
:10155000934030F084E08093190182E080931A0177
:101560002D5136432F3A344008F08CC18091180138
:10157000883398F08091F302882379F080911401E8
:10158000809357038091150180935803109259035B
:1015900081E080935A0380935B031092920381E071
:1015A00080931A016FC180918100887F80938100B0
:1015B00080916F008E7F80936F0080918400909166
:1015C00085009093690380936803109285001092C0
:1015D00084008091810085608093810080916F00FC
:1015E000816080936F00513009F04CC18091680395
:1015F000909169039C012152354040919203233F11
:10160000314030F4E42FF0E0ED56FC4F508311C030
:10161000885792408B32914030F4E42FF0E0ED5641
:10162000FC4F108206C085E08093190182E0809310
:101630001A0180911A01813009F021C14A3308F45E
:101640001EC18091A503809317018091A803E9EA48
:10165000F3E0982F26E02E0F319193272E13FCCF25
:101660002091AF0392132AC02091AB0338E0239F4F
:10167000B00111249091AA0354E0959F9001112488
:10168000262B822B2091A903220F282B8091AE03B9
:1016900094E0899FB00111249091AD03892F90E0CF
:1016A000880F991F862B972B3091AC03832B3AE040
:1016B000839F200D11242093150103C082E08093A5
:1016C0001A019091B0035091B103892F8527309171
:1016D000B20383276091B3038627A091B4038A27BE
:1016E0002091B50382277091B60387131BC08091A8
:1016F0001A018130B9F488E0689FF001112484E078
:10170000389FB00111246E2B962B550F952B30E08E
:10171000220F331F2A2B5AE0259F900D11249093FE
:10172000140103C082E080931A018091B703E8EBB3
:10173000F3E0982F25E12E0F319193272E13FCCF44
:101740002091CD03921395C090911A01913009F028
:1017500090C02091BA0398E0299FB0011124909184
:10176000B90354E0959F90011124262B822B909170
:10177000B803990F892B2091BC0330E0220F331F4F
:101780009091BB03292B6AE0269F800D1124809342
:1017900012018091BF0324E0829FC0011124909127
:1017A000BE03990F892B9091BD03892B8093130160
:1017B0008091C30338E0839FB00111242091C203BC
:1017C00054E0259FC0011124862B2091C003982F3F
:1017D000922B8091C103880F892B9091C4036AE0FA
:1017E000969F800D1124809311016091CC0388E0B5
:1017F000689FB00111248091CB0324E0829FC00137
:101800001124682B792B8091C903682B8091CA031E
:1018100090E0880F991F682B792B8091C80338E0DE
:10182000839FF00111242091C70354E0259FC0013C
:1018300011248E2B2091C503982F922B8091C603E3
:10184000880F892B9AE0699F800D112480931001E5
:101850008BE3809318011092190182E080931A01A2
:1018600010921B0110921C0110921D0110921E017A
:1018700006C083E08093190182E080931A014F5FD4
:1018800040939203FF91EF91AF919F918F917F9140
:101890006F915F914F913F912F910F900FBE0F90DD
:1018A0001F901895439A00C043980895CF93DF93F3
:1018B0001F92CDB7DEB7662311F0459A01C0459857
:1018C00044983A9A399A389A229A2A984098419894
:1018D000429887FD2A9A86FD409A85FD419A84FDAB
:1018E000429A89830E94520C2A98409841984298C3
:1018F000898183FD2A9A82FD409A81FD419A80FD6B
:10190000429A0E94520C429A419A409A2A9A0F9007
:10191000DF91CF9108954598449A3A98399838982C
:101920002298439A00C0329B02C080E101C080E04F
:1019300031998062309980641A998068439800C018
:10194000439A00C0329981603199826030998460F5
:101950001A998860439808950E948B0C87FDFCCFEC
:1019600084E090E00197F1F70C948B0CCF93C82F93
:101970000E94AC0C60E08C2FCF910C94560CCF934E
:10198000C82F0E94AC0C61E08C2FCF910C94560CA8
:10199000611102C0805801C080540C94B60C0E94A2
:1019A000AC0C90E0089581E00C94B60C82E00C94AD
:1019B000B60CCF93C82F0E94AC0CCA3049F48034C7
:1019C00010F080E001C080E48058CF910C94B60CF8
:1019D00061E08C2FCF910C94560CCF93DF93EC01E8
:1019E0008991882319F00E94D90CFACFDF91CF9109
:1019F0000895CF93DF93FC018491EF012196882312
:101A000021F00E94D90CFE01F7CFDF91CF9108950C
:101A10001F93CF93DF93182F3A9A399A389A229AC4
:101A20003D9A3C9A3B9AE0E0FDE73197F1F7419A05
:101A3000429A0E94520CE0E0F7E23197F1F70E94DF
:101A4000520CC0E8D0E0FE013197F1F70E94520C31
:101A5000FE013197F1F742980E94520C2197F1F75D
:101A600088E20E94B60C88E00E94B60C0E94D30C5B
:101A700086E00E94B60C812FDF91CF911F910C94CC
:101A8000B60C1F920F920FB60F9211242F938F93C3
:101A90009F93EF93FF938091C0009091C60088714F
:101AA000E091D103EF5FEF712091D003E21739F09D
:101AB000E093D103F0E0EC52FC4F908301C082E050
:101AC0009091CF03892B8093CF03FF91EF919F914A
:101AD0008F912F910F900FBE0F901F9018951F920E
:101AE0000F920FB60F9211248F939F93EF93FF9352
:101AF0009091D3038091D203981769F0E091D203BB
:101B0000EF5FEF71E093D203F0E0EC50FC4F808187
:101B10008093C60005C08091C1008F7D8093C10075
:101B2000FF91EF919F918F910F900FBE0F901F909B
:101B300018951092D3031092D2031092D1031092F1
:101B4000D00397FF04C022E02093C0009F779093BA
:101B5000C5008093C40088E98093C10086E080932B
:101B6000C20008959091D1038091D003981781F01D
:101B7000E091D003EF5FEF71E093D003F0E0EC521F
:101B8000FC4F80819091CF031092CF0390E0089595
:101B900080E091E008959091D3039F5F9F71209121
:101BA000D2039217E1F3E92FF0E0EC50FC4F808371
:101BB0009093D3038091C10080628093C100089507
:101BC000CF93DF93EC018991882319F00E94CB0D0C
:101BD000FACFDF91CF910895CF93DF93FC018491E9
:101BE000EF012196882321F00E94CB0DFE01F7CF53
:101BF000DF91CF910895F999FECF8BE090E00E949C
:101C0000A61B809359018C3340F48CE090E00E9435
:101C1000A61B80935801883120F010925801109231
:101C2000590181E090E00E94A61B882319F01092D0
:101C30005C0103C081E080935C0183E090E00E943E
:101C4000A61B8093F30282E090E00E94A61B809383
:101C5000F20280E090E00E94A61B80932001825057
:101C60008F3418F084E0809320018091200190E06F
:101C700001966AE070E00E947D196F5F60931F011A
:101C8000789483E390E00E94990D85E492E00E94AD
:101C9000E00D8AE492E00E94E00D82E592E00E946D
:101CA000E00D87E691E00E94E00D87E692E00E9459
:101CB000E00D88E791E00E94E00D8EED92E00E9439
:101CC000E00D85E492E00E94E00D81E691E00E9443
:101CD000E00D8AB1806E8AB98AB1877E8AB95C9A32
:101CE00080916900846080936900E99A16BC85B58B
:101CF000816085BD80916E00816080936E008091CF
:101D0000F30281110E9454054C9B1FC08CE00E947D
:101D1000080D60E080E00E94C80C0E94D30C81E0B6
:101D20008093000160E087E691E00E94990561E000
:101D300088E791E00E94990517E0CAE0D0E002E050
:101D400025E0F22E36E0E32E7DC01092000188B12E
:101D5000817C88B987B18E6387B9EECF4B9BFECF6C
:101D600080913F03811112C068E571E087E491E042
:101D70000E9437066AE073E08FE192E00E948A06D3
:101D800069EF72E087E491E00E948A0680913F0348
:101D9000813009F45CC080913F03823009F47AC03D
:101DA00080913F03833009F489C080913F038430E0
:101DB00009F49DC080913F03853009F4B2C0809141
:101DC0003F03863009F4F4C080913F03873009F463
:101DD000A2C180913F03883010F010923F038091A0
:101DE0003E038111B2C180913E038111C4C160E103
:101DF00087E493E00E94EF09892B09F4AFCF63E4F5
:101E000072E087E493E00E94E71A892B09F00DC283
:101E10001092400389E692E00E94E00D1092470381
:101E200064E472E087E493E00E94F01A10924103A8
:101E30001092160480914003811190CF81E691E0C9
:101E40000E94E00D84E0D82E93E0C92E87CF8091C8
:101E50005A038823E1F06AE073E08EE092E00E948A
:101E60008A064AE06BE173E08091F6029091F702F6
:101E70000E943D1B6EED71E08BE193E00E94DC1A45
:101E800069EF72E08BE193E00E948A0684CF0093B1
:101E90003F0381CF6AE073E08DEF91E00E948A06F4
:101EA0008091F30269EF72E0882319F088EE91E0E7
:101EB00002C082ED91E00E948A0672CF6AE073E070
:101EC0008EEE91E00E948A068091F302882349F009
:101ED0000E94D00669EF72E08CE293E00E948A06CD
:101EE00064CF80913F038F5F80933F035ECF8091EB
:101EF000F302882399F06AE073E082EC91E00E949B
:101F00008A066BE173E0809119010E94760569EF02
:101F100072E08BE193E00E948A064CCFF0923F037F
:101F200049CF8091F302882309F43FC080911A01C0
:101F30008130D9F5B0909203BA942AE32B15A8F119
:101F40006AE073E082EB91E00E948A0667E572E046
:101F50008BE193E00E94F01A6CE273E08B2D0E94FB
:101F600002066CE273E08BE193E00E94DC1A6CE500
:101F700072E08BE193E00E94DC1AE0919203F0E0C2
:101F8000EE56FC4F8081813019F46FEC72E002C094
:101F900065E372E08BE193E00E94DC1A69EF72E086
:101FA0008BE193E00E948A060ACFE0923F0307CFBD
:101FB0008091F302882309F4ABC080911801882333
:101FC00009F4A6C06EE572E08BE193E00E94F01A7E
:101FD0006CE273E0809114010E9402066CE273E0EF
:101FE0008BE193E00E94DC1A63E672E08BE193E000
:101FF0000E94DC1A6CE273E0809115010E940206D7
:102000006CE273E08BE193E00E94DC1A67E672E019
:102010008BE193E00E94DC1A80911701882319F06C
:102020006AE372E002C06EE372E08BE193E00E942B
:10203000DC1A6AE073E08BE193E00E948A06E0918B
:1020400013018E2F90E0FC013197E730F105E8F4A1
:10205000EE5BFF4F0C94911964E371E002C061E301
:1020600071E08BE193E00E94D01A15C06EE271E03E
:10207000F8CF6BE271E0F5CF68E271E0F2CF65E294
:1020800071E0EFCF67E371E0ECCF6DE272E08BE1DE
:1020900093E00E94F01A65E672E08BE193E00E9403
:1020A000DC1A6CE273E0809112010E9402066CE27D
:1020B00073E08BE193E00E94DC1A61E372E08BE154
:1020C00093E00E94DC1A6CE273E0809111010E949F
:1020D00002066CE273E08BE193E00E94DC1A61E39C
:1020E00072E08BE193E00E94DC1A6CE273E0809175
:1020F00010010E9402066CE273E08BE193E00E9403
:10210000DC1A69EF72E08BE193E00E948A065CCEF4
:1021100010933F0359CE6AE073E086EA91E00E9493
:102120008A068091F202882319F06EE573E002C0FE
:1021300063E573E08BE193E00E94D01A69EF72E0EF
:102140008BE193E00E948A0644CE809100018823AF
:1021500009F449CE60E080E00E94C80C8AE093E078
:102160000E94ED0C61E080E00E94C80C89EF92E0D3
:102170000E94ED0C57C080910001811138CE8091F2
:10218000F302882309F443C080911A01882341F0A7
:10219000813021F0823021F4419902C0419A01C07E
:1021A0004198809119019FEF980F923020F09CEF99
:1021B000980F923018F4429A43980BC0811107C0CF
:1021C00080911801882319F04298439A02C04398DD
:1021D000429880911B0190911C01A0911D01B0912A
:1021E0001E01813821E5920721E0A207B10558F4CC
:1021F00081519E40A109B10980379344A140B105A6
:1022000020F4449B02C0449806C0449A04C04198FC
:1022100044984398429880915A03813011F4459A2A
:1022200001C0459810923E03E2CD62E772E087E478
:1022300093E00E94D71A46E050E0BC0181E493E0AD
:102240000E94071B62E772E080E090E00E94D71ACC
:10225000009781F04AE050E0BC0186E194E00E94E2
:10226000071B64E772E081E493E00E94E71A892B80
:10227000A9F408C01092160480914003882309F441
:102280004AC4D0C668E571E086E194E00E94BC05CE
:10229000892B09F075C08BEA92E04AC469E772E0C5
:1022A00081E493E00E94E71A892B71F467E573E0FB
:1022B00086E194E00E94BC05892B69F381E080935C
:1022C0005A0380935B035CC06EE772E081E493E0A5
:1022D0000E94E71A892B71F467E573E086E194E0C8
:1022E0000E94BC05892BB9F210925B0381E08093B8
:1022F0005A0346C063E872E081E493E00E94E71A63
:10230000892B31F56FEC72E086E194E00E94E71AC8
:10231000892B59F481E08093F30261E083E090E03F
:102320000E94AE1B0E9454052BC065E372E086E15B
:1023300094E00E94E71A892B09F0ADCF1092F302C6
:1023400060E083E090E00E94AE1B0E94640518C02C
:1023500068E872E081E493E00E94E71A892B01F5B6
:102360006FEC72E086E194E00E94E71A892B59F441
:1023700081E08093F20261E082E090E00E94AE1B77
:1023800083EB92E0D5C365E372E086E194E00E94BE
:10239000E71A892B09F07FCF1092F20260E0ECCFB0
:1023A0006DE872E081E493E00E94E71A892BC1F4A2
:1023B00086E194E00E94BE07882309F46CCF209147
:1023C000F80220932001822F90E00196BE010E9426
:1023D0007D196F5F60931F01622F80E090E0CECF88
:1023E00062E972E081E493E00E94E71A892BE1F44C
:1023F0006FEC72E086E194E00E94E71A892B21F4E9
:1024000010925C0161E00DC065E372E086E194E04A
:102410000E94E71A892B09F03ECF81E080935C018E
:1024200060E081E090E0AACF67E972E081E493E0A8
:102430000E94E71A892B09F0F3CC6DE972E086E17E
:1024400094E00E94E71A892B99F467E671E08BE12A
:1024500093E00E94F01A8BE193E00E94E00D61E2AC
:1024600071E08BE193E00E94F01A68E771E03FC0F1
:1024700060EA72E086E194E00E94E71A892B09F095
:1024800047C0809158014AE06CE273E090E00E94FE
:102490003D1B6CE273E08BE193E00E94F01A42E096
:1024A00050E061E271E08BE193E00E94F71A8091C5
:1024B00059014AE06CE273E090E00E943D1B6CE23F
:1024C00073E08BE193E00E94DC1A42E050E061E2AD
:1024D00071E08BE193E00E94F71A80915A014AE083
:1024E0006CE273E090E00E943D1B6CE273E08BE1D4
:1024F00093E00E94DC1A42E050E063E271E08BE17D
:1025000093E00E94F71A8BE193E00E94E00D38CF30
:1025100064EA72E086E194E00E94E71A892B79F57B
:10252000809157034AE06CE273E090E00E943D1B0B
:102530006CE273E08BE193E00E94F01A42E050E01D
:1025400061E271E08BE193E00E94F71A80915803F9
:102550004AE06CE273E090E00E943D1B6CE273E0A5
:102560008BE193E00E94DC1A42E050E061E271E00E
:102570008BE193E00E94F71A80915903B0CF68EA8B
:1025800072E086E194E00E94E71A892B09F016C1F7
:10259000809110014AE06CE273E090E00E943D1BE4
:1025A0006CE273E08BE193E00E94F01A42E050E0AD
:1025B00061E271E08BE193E00E94F71A80911101D2
:1025C0004AE06CE273E090E00E943D1B6CE273E035
:1025D0008BE193E00E94DC1A42E050E061E271E09E
:1025E0008BE193E00E94F71A8BE193E00E94E00DEB
:1025F000809112014AE06CE273E090E00E943D1B82
:102600006CE273E08BE193E00E94F01A42E050E04C
:1026100061E271E08BE193E00E94F71A809113016F
:102620004AE06CE273E090E00E943D1B6CE273E0D4
:102630008BE193E00E94DC1A42E050E061E271E03D
:102640008BE193E00E94F71A809114014AE06CE25A
:1026500073E090E00E943D1B6CE273E08BE193E03D
:102660000E94DC1A42E050E061E271E08BE193E00D
:102670000E94F71A8BE193E00E94E00D8091150112
:102680004AE06CE273E090E00E943D1B6CE273E074
:102690008BE193E00E94F01A42E050E061E271E0C9
:1026A0008BE193E00E94F71A809116014AE06CE2F8
:1026B00073E090E00E943D1B6CE273E08BE193E0DD
:1026C0000E94DC1A42E050E061E271E08BE193E0AD
:1026D0000E94F71A809117014AE06CE273E090E0E3
:1026E0000E943D1B6CE273E08BE193E00E94DC1AD8
:1026F00042E050E061E271E08BE193E00E94F71A62
:102700008BE193E00E94E00D809118014AE06CE2B9
:1027100073E090E00E943D1B6CE273E08BE193E07C
:102720000E94F01A42E050E061E271E08BE193E038
:102730000E94F71A809119014AE06CE273E090E080
:102740000E943D1B6CE273E08BE193E00E94DC1A77
:1027500042E050E061E271E08BE193E00E94F71A01
:1027600080911A014AE06CE273E090E00E943D1B08
:102770006CE273E08BE193E00E94DC1A42E050E0EF
:1027800061E271E08BE193E00E94F71A8BE193E044
:102790000E94E00D60911B0170911C0180911D0150
:1027A00090911E012AE04CE253E00E94481B6CE22B
:1027B00073E08BE193E00E94F01A9DCE6CEA72E028
:1027C00086E194E00E94E71A892B09F049C08091C4
:1027D00092034AE06CE273E090E00E943D1B6CE2E1
:1027E00073E08BE193E00E94F01A42E050E061E276
:1027F00071E08BE193E00E94F71A8BE193E00E9475
:10280000E00D1092F802E091F802EC3330F5F0E0C0
:10281000ED56FC4F80814AE06CE273E090E00E944C
:102820003D1B6CE273E08BE193E00E94F01A809113
:10283000F8028B3341F042E050E061E271E08BE15D
:1028400093E00E94F71A8BE193E00E94E00D8091E3
:10285000F8028F5F8093F802D6CF83E291E055CEE5
:1028600060EB72E086E194E00E94E71A892B09F0A0
:1028700097C086E090E00E94A61B4AE06CE273E0FD
:1028800090E00E943D1B6CE273E08BE193E00E94BC
:10289000F01A42E050E061E271E08BE193E00E94C7
:1028A000F71A87E090E00E94A61B4AE06CE273E012
:1028B00090E00E943D1B6CE273E08BE193E00E948C
:1028C000DC1A42E050E061E271E08BE193E00E94AB
:1028D000F71A88E090E00E94A61B4AE06CE273E0E1
:1028E00090E00E943D1B6CE273E08BE193E00E945C
:1028F000DC1A42E050E061E271E08BE193E00E947B
:10290000F71A8BE193E00E94E00D85E090E00E94D1
:10291000A61B4AE06CE273E090E00E943D1B6CE273
:1029200073E08BE193E00E94F01A42E050E061E234
:1029300071E08BE193E00E94F71A8AE090E00E9438
:10294000A61B4AE06CE273E090E00E943D1B6CE243
:1029500073E08BE193E00E94DC1A42E050E061E218
:1029600071E08BE193E00E94F71A89E090E00E9409
:10297000A61B4AE06CE273E090E00E943D1B6CE213
:1029800073E08BE193E00E94DC1A42E050E061E2E8
:1029900071E08BE193E00E94F71A84E090E0B8C008
:1029A00064EB72E086E194E00E94E71A892B09F05B
:1029B0008CC080915C014AE06CE273E090E00E9480
:1029C0003D1B6CE273E08BE193E00E94F01A42E061
:1029D00050E061E271E08BE193E00E94F71A809190
:1029E0005B034AE06CE273E090E00E943D1B6CE206
:1029F00073E08BE193E00E94DC1A42E050E061E278
:102A000071E08BE193E00E94F71A80915A034AE04B
:102A10006CE273E090E00E943D1B6CE273E08BE19E
:102A200093E00E94DC1A42E050E061E271E08BE149
:102A300093E00E94F71A8BE193E00E94E00D4AE0D8
:102A40006CE273E08091F6029091F7020E943D1BC8
:102A50006CE273E08BE193E00E94F01A42E050E0F8
:102A600061E271E08BE193E00E94F71A8091F3023A
:102A70004AE06CE273E090E00E943D1B6CE273E080
:102A80008BE193E00E94DC1A42E050E061E271E0E9
:102A90008BE193E00E94F71A8091F2024AE06CE227
:102AA00073E090E00E943D1B6CE273E08BE193E0E9
:102AB0000E94DC1A42E050E061E271E08BE193E0B9
:102AC0000E94F71A809120010ACD68EB72E086E13E
:102AD00094E00E94E71A892B09F0DDCB8CE090E0AE
:102AE0000E94A61B4AE06CE273E090E00E943D1B4E
:102AF0006CE273E08BE193E00E94F01A42E050E058
:102B000061E271E08BE193E00E94F71A8BE090E0C4
:102B10000E94A61BE4CC65E772E087E493E00E9484
:102B2000E71A892B41F481E0809340038BE295E022
:102B30000E94EC0D75C96CEB72E087E493E00E9493
:102B4000E71A892BD9F48AE492E00E94E00D87E627
:102B500091E00E94E00D8EED92E00E94E00D85E88C
:102B600097E00E94EC0D88E791E00E94E00D8EED69
:102B700092E00E94E00D87E19AE0DACF6FE772E021
:102B800087E493E00E94E71A892B61F48091F302B5
:102B9000811105C00093400385E095E0C9CF82EC28
:102BA00094E0C6CF6AE772E087E493E00E94E71AF8
:102BB000892B49F48091F3028111F1CFC092400337
:102BC00085EE94E0B5CF64E872E087E493E00E947C
:102BD000E71A892B81F4D09240038BE394E00E94A2
:102BE000EC0D8091F302882319F082E294E0A0CFEB
:102BF00088E094E09DCF63E972E087E493E00E946F
:102C0000E71A892B81F4F092400384EB94E00E9450
:102C1000EC0D80915C01882319F089E994E088CF5C
:102C200086E794E085CF69E872E087E493E00E944C
:102C3000E71A892B81F4E09240038FEB93E00E9426
:102C4000EC0D8091F202882319F084E993E070CFB3
:102C500089E693E06DCF60EC72E087E493E00E9438
:102C6000E71A892B41F065EC72E087E493E00E945B
:102C7000E71A892B19F483EA97E05ACF6EE872E0DD
:102C800087E493E00E94E71A892B29F4109340030C
:102C900085EE91E04DCF68E972E087E493E00E9411
:102CA000E71A892B09F0B0C18AE492E00E94E00D96
:102CB00087E691E00E94E00D8EED92E00E94E00D2B
:102CC00085E897E00E94EC0D88E791E00E94E00D16
:102CD0008EED92E00E94E00D68E571E087E491E0FE
:102CE0000E9437068CE597E00E94EC0D87E491E0A6
:102CF0000E94E00D8EE397E00E94EC0D80915A0354
:102D0000882321F167E573E087E491E00E943706AC
:102D100083E592E00E94EC0D87E491E00E94E00DD3
:102D20004AE06CE273E08091F6029091F7020E9413
:102D30003D1B87E692E00E94E00D8CE293E00E944A
:102D4000E00D82E792E00E94EC0D04C087EC92E077
:102D50000E94E00D86EC95E00E94EC0D8091F2025D
:102D6000882319F08EE593E002C083E593E00E948A
:102D7000EC0D8EEA96E00E94EC0D8091F302882320
:102D800009F47CC083E796E00E94EC0D809112016B
:102D9000882349F080E191E00E94E70685E291E016
:102DA0000E94E00D04C084E594E00E94EC0D86E4EE
:102DB00096E00E94EC0D6CE273E0809119010E9494
:102DC00076058CE293E00E94E00D82E296E00E949C
:102DD000EC0D0E94D0068CE293E00E94E00D809101
:102DE0001A01813021F580919203882301F180E955
:102DF00092E00E94EC0D8091920390E04AE06CE238
:102E000073E001970E943D1B8CE293E00E94E00D6D
:102E1000E0919203F0E0EE56FC4F8081813019F48E
:102E20008EEC92E002C081ED92E00E94E00D809174
:102E30001B0190911C01A0911D01B0911E018F3FBB
:102E40009F4FAF4FBF4FF1F082EF95E00E94EC0D26
:102E500060911B0170911C0180911D0190911E01D8
:102E60002AE04CE253E00E94481B8CE293E00E946F
:102E7000E00D86E791E00E94EC0D04C082ED91E048
:102E80000E94E00D8EED92E00E94E00D89E090E05E
:102E90000E94A61B8F3F09F457C081E197E00E9472
:102EA000EC0D88E090E00E94A61B8F3F89F189E03D
:102EB00090E00E94A61B809306018AE090E00E94A9
:102EC000A61B8093050188E090E00E94A61B8093DA
:102ED000030187E090E00E94A61B8093020186E038
:102EE00090E00E94A61B8093010184E090E00E9484
:102EF000A61B8093080185E090E00E94A61B8093AA
:102F0000040181E091E00E94E70685E291E016C0AD
:102F100089E090E00E94A61B809362038AE090E023
:102F20000E94A61B809361031092630361E673E025
:102F30008CE293E00E9437068CE293E00E94E00D61
:102F40008EED92E00E94E00D8BE090E00E94A61BC7
:102F50008F3F01F18BEC96E00E94EC0D8BE090E04E
:102F60000E94A61B80935D038CE090E00E94A61B4C
:102F700080935C0310925E036CE573E08CE293E057
:102F80000E9437068CE293E00E94E00D8EED92E005
:102F90000E94E00D81EA95E00E94EC0D8091000115
:102FA000882319F082E392E002C08EE292E00E9450
:102FB000EC0D8EED92E00E94E00D88E795E00E9416
:102FC000EC0D809120014AE06CE273E090E00E94F9
:102FD0003D1B8CE293E00E94E00D84ED92E00E94A4
:102FE000E00D8DE495E00E94EC0D80911F014AE018
:102FF0006CE273E090E00E943D1B8CE293E00E9443
:10300000E00D8BED92E00AC081EE92E00E94E00DAF
:1030100089EF92E00E94EC0D85E492E00E94E00DC1
:103020000C94100F8130F9F468E571E087E493E0C7
:103030000E94BC05892B39F089EE92E00E94E00DD8
:1030400088EB92E006C081EE92E00E94E00D80EEF7
:1030500092E00E94EC0D85E492E00E94E00D109257
:1030600040030C94100F8230D1F467E573E087E4DD
:1030700093E00E94BC05892B31F389EE92E00E9417
:10308000E00D88EB92E00E94EC0D85E492E00E9456
:10309000E00D10925B0381E080935A03E0CF833010
:1030A000D1F467E573E087E493E00E94BC05892BC7
:1030B00051F289EE92E00E94E00D88EB92E00E94CE
:1030C000EC0D85E492E00E94E00D81E080935A03CC
:1030D00080935B03C4CF843009F047C06FE571E093
:1030E00087E493E00E94E71A892B89F58091F30227
:1030F000811117C089EE92E00E94E00D8BEE93E003
:103100000E94EC0D85E492E00E94E00D81E0809346
:10311000F30261E083E090E00E94AE1B0E94540540
:103120009ECF89EE92E00E94E00D8EEC93E00E942B
:10313000EC0D85E492E00E94E00D1092F30260E055
:1031400083E090E00E94AE1B0E94640588CF6DE58D
:1031500071E087E493E00E94E71A892B09F47FCF9E
:1031600080E492E00E94EC0D7ACF853081F56FE526
:1031700071E087E493E00E94E71A892B09F05BC0B5
:1031800080915C01811111C08AE492E00E94E00DFF
:103190008FEC92E00E94EC0D85E492E00E94E00D3D
:1031A00081E080935C0160E00FC08AE492E00E94BD
:1031B000E00D8DEB92E00E94EC0D85E492E00E9420
:1031C000E00D10925C0161E081E090E031C086305A
:1031D00009F041C06FE571E087E493E00E94E71ACF
:1031E000892B49F58091F202811111C089EE92E09C
:1031F0000E94E00D84E393E00E94EC0D85E492E0F0
:103200000E94E00D81E08093F20261E00FC089EE40
:1032100092E00E94E00D85E193E00E94EC0D85E4D0
:1032200092E00E94E00D1092F20260E082E090E0F5
:103230000E94AE1B14CF6DE571E087E493E00E941D
:10324000E71A892B09F40BCF81EE92E00E94E00D82
:1032500080E492E0FECE873009F001CF87E493E06E
:103260000E94BE07882381F32091F8022093200159
:10327000822F90E00196BE010E947D196F5F6093DE
:103280001F01622F80E090E00E94AE1B89EE92E069
:103290000E94E00D81EC91E00E94EC0D80912001F4
:1032A0004AE06CE273E090E00E943D1B8CE293E008
:1032B0000E94E00D81EB91E00E94EC0D8DE891E021
:1032C0000E94EC0D80911F014AE06CE273E090E0F7
:1032D0000E943D1B8CE293E00E94E00D80E891E0AB
:1032E000B8CE991B79E004C0991F961708F0961B79
:1032F000881F7A95C9F78095089597FB072E16F4D5
:10330000009407D077FD09D00E94971907FC05D0DB
:103310003EF4909581959F4F0895709561957F4FEC
:103320000895EE0FFF1F0590F491E02D0994AA1B5C
:10333000BB1B51E107C0AA1FBB1FA617B70710F0A0
:10334000A61BB70B881F991F5A95A9F780959095D2
:10335000BC01CD010895A0E0B0E0E1EBF9E10C94EF
:10336000F91B5C016B017A016115710519F0FB0114
:1033700091838083E114F10429F0C70102978397B8
:1033800008F0F1C0E5012196F5011081812F90E050
:103390000E94BC1A892B11F05E01F4CF1D3229F472
:1033A0002196F501118101E007C01B3221F4E501EE
:1033B0002296F501118100E0E114F10459F1F0E1E8
:1033C000EF16F10461F41033E1F488818F7D8835C4
:1033D00069F519812296026070E1E72EF12C88E0F0
:1033E000E816F10439F12CF4F2E0EF16F104C9F11A
:1033F0002AC08AE0E816F10479F0E0E1EE16F10463
:1034000011F550E1E52EF12C812C912CA12C68E0D6
:10341000B62E2CC01033C9F23AE0E32EF12C4CEC5E
:10342000842E982CA82C4CE0B42E20C010E3E1147C
:10343000F104A9F698E0E92EF12C812C912CA12C15
:1034400020E1B22E13C060E070E080E090E89701C8
:103450000F2C000C440B550B0E94CC1B49015A0148
:1034600005C0812C912CA12C80E4B82E60E020E0D6
:1034700030E0A90127010F2C000C660877081E0117
:10348000E0EDE10FEA3060F08FEB810F8A3110F44C
:10349000E9EC05C08FE9810F8A3128F5E9EAE10FEF
:1034A0008E2F90E08E159F05F4F467FD18C08216EC
:1034B0009306A406B50690F0C301B2010E94BC1B9E
:1034C0009B01AC012E0F311D411D511D21303105D5
:1034D0004105F0E85F0710F461E001C06FEF21964D
:1034E000F1011081CCCF802F8170C114D10471F013
:1034F000662329F02197F601D183C08307C001FF1D
:1035000019C02297F601D183C08314C067FF12C08F
:10351000811105C02FEF3FEF4FEF5FE704C020E0C0
:1035200030E040E050E882E290E090932104809304
:10353000200416C0882341F0509540953095219580
:103540003F4F4F4F5F4F0CC057FF0AC082E290E0E1
:1035500090932104809320042FEF3FEF4FEF5FE71C
:10356000B901CA0104C060E070E080E090E0CDB72E
:10357000DEB7E2E10C94151C91110C94931B803280
:1035800019F089508550C8F70895FB01DC010D90B2
:103590000020E9F7119705900D920020E1F70895BA
:1035A000FB01DC0105900D920020E1F7089544E154
:1035B00054E00E94161B0895FB01DC010D900020D1
:1035C000E9F7119701900D920020E1F70895FB01B2
:1035D000DC018D91019080190110D9F3990B0895A8
:1035E000FB01DC0101900D920020E1F70895FB0141
:1035F000DC010D900020E9F711974150504028F070
:10360000019000200D92C9F708951C920895FB01C6
:10361000DC014150504048F001900D920020C9F764
:1036200001C01D9241505040E0F70895FA01A19168
:10363000B081009719F41097E1F0CD01DC01CD01C4
:103640000D90002011F4C00113C0FB012191222331
:1036500019F02015D9F7F3CFFB012191201519F4AA
:103660001E92119606C02223C1F70D900020A1F7EB
:10367000D001FA01A193B0830895BB274A3031F4F9
:10368000992322F4BDE2909581959F4F0C947A1B6B
:10369000BB272A3051F4992342F4BDE290958095DE
:1036A000709561957F4F8F4F9F4F0C94581BBB2790
:1036B000FA01A62F6217710581059105330B30FBC6
:1036C00066F0AA27660F771F881F991FAA1FA217E7
:1036D00010F0A21B63953850A9F7A05DAA3308F03B
:1036E000A95DA19336F7B111B1931082CA010C9470
:1036F000961BBB27FB015527AA27880F991FAA1FD6
:10370000A41710F0A41B83955051B9F7A05DAA33FC
:1037100008F0A95DA193009779F7B111B1931192C7
:10372000CB010C94961B992788270895DC01FC0196
:10373000672F71917723E1F7329704C07C916D93E5
:1037400070836291AE17BF07C8F30895F999FECF51
:1037500092BD81BDF89A992780B50895262FF999D1
:10376000FECF1FBA92BD81BD20BD0FB6F894FA9A64
:10377000F99A0FBE01960895DB018F939F930E94E3
:10378000EE1BBF91AF91A29F800D911DA39F900D45
:10379000B29F900D11240895A1E21A2EAA1BBB1B03
:1037A000FD010DC0AA1FBB1FEE1FFF1FA217B3070D
:1037B000E407F50720F0A21BB30BE40BF50B661F23
:1037C000771F881F991F1A9469F7609570958095E7
:1037D00090959B01AC01BD01CF0108950E94301C62
:1037E000A59F900DB49F900DA49F800D911D112455
:1037F00008952F923F924F925F926F927F928F9295
:103800009F92AF92BF92CF92DF92EF92FF920F936F
:103810001F93CF93DF93CDB7DEB7CA1BDB0B0FB679
:10382000F894DEBF0FBECDBF09942A883988488836
:103830005F846E847D848C849B84AA84B984C884CC
:10384000DF80EE80FD800C811B81AA81B981CE0FC3
:10385000D11D0FB6F894DEBF0FBECDBFED010895A8
:10386000A29FB001B39FC001A39F700D811D1124C1
:10387000911DB29F700D811D1124911D0895F89422
:02388000FFCF78
:10388200010000000000000001000600FFFFFFFF32
:103892000000000000000001000600FFFFFFFF0122
:1038A200042C003B002D2D2D2D2D2D2D2D2D2D20C9
:1038B2002D2D2E2D2D2E2D2D2D2D202D2D3A2D2D34
:1038C200202D2D2D2D00002D2D3A2D2D3A2D2D00A0
:1038D200000000000000000000000000016E006A0D
:1038E200006D753A3E20005241204D757474657228
:1038F200756872000000000056322E3030623100CE
:1039020000000000000000000061757367656661D9
:103912006C6C656E21005374726F6D766572736F95
:103922007267756E670053796E63204D6F647573AD
:103932003A00444346373720456D7066616E6765CD
:103942003A004443462041757377657274756E6719
:103952003A006465616B7469766965727400204D22
:10396200696E7574656E2E00416B7469760044430E
:10397200463737205374617475733A2000444346C6
:1039820037372053796E636D6F6475733A005379DC
:103992006E6368726F6E6973696572652E2E004E72
:1039A2006562656E7568727A6569743A002D2D2DAF
:1039B200002E00323030003230004D455A004D4565
:1039C200535A0003001B5B306D001B5B33373B31E6
:1039D2006D001B5B324A004249543A003D004443A9
:1039E2004637373A00202D2000535452472D430AC0
:1039F2000D003B005F736D74005F617374005F6E56
:103A02007374005F646366005F73736D005F73704D
:103A120077005F707374005F73746174006776007F
:103A220067737400676E74006764370067646100CF
:103A3200676C700067677300676C730041545A00CB
:103A420068656C70003F006E6F726D616C003D3195
:103A5200003D300030306D730D0A007365630D0A4E
:103A6200001B5B33313B316D001B5B33323B316DED
:023A7200000052
:00000001FF
