:100000000C9482040C945F060C941F090C949F04BA
:100010000C949F040C949F040C949F040C949F04D4
:100020000C949F040C949F040C949F040C949F04C4
:100030000C949F040C943D060C949F040C949F0414
:100040000C94C3040C949F040C94CD180C94FB18CE
:100050000C949F040C949F040C949F040C949F0494
:100060000C949F040C949F040D0A456E74657220D5
:100070001B5B33373B316D3F1B5B303B33376D20B0
:100080006F72201B5B33373B316D68656C701B5B97
:10009000303B33376D20616E64206869742072656F
:1000A0007475726E20666F722068656C700D0A0040
:1000B000201B5B33373B316D4176616C6961626C4B
:1000C0006520636F6D6D616E64733A0D0A201B5B72
:1000D00033373B316D646366201B5B303B33376DD8
:1000E0002D3E205377697463682044434637372098
:1000F00073796E636D6F6465206F6E7C6F66662EBC
:100100000D0A201B5B33373B316D736D74201B5B15
:10011000303B33376D2D3E20536574732074686512
:10012000206D617374657220636C6F636B20746FF4
:100130002074696D65206F6E20736C617665732E17
:100140000D0A201B5B33373B316D6E7374201B5BD4
:10015000303B33376D2D3E20466F7277617264738A
:100160002074686520736C6176657320746F2065F8
:100170007861637420746869732074696D65284EB2
:100180006F7420696E204443463737206D6F646575
:10019000292E0D0A201B5B33373B316D61737420B0
:1001A0001B5B303B33376D2D3E20466F727761729B
:1001B00064732074686520736C6176657320746F56
:1001C00020746869732074696D652E2054696D65AB
:1001D00020656C617073656420666F722074686559
:1001E000207461736B2077696C6C20626520616498
:1001F000646564284E6F7420696E20444346373727
:10020000206D6F6465292E0D0A201B5B33373B314F
:100210006D707374201B5B303B33376D2D3E205364
:10022000776974636820736C61766520636C6F63B3
:100230006B207061757365206D6F6465206F6E7CD7
:100240006F66662E2873796E6320666F7220646312
:100250006637372C206E637420616E64206163748E
:1002600020617265207374696C6C20776F726B69A2
:100270006E67292E0D0A201B5B33373B316D73737C
:100280006D201B5B303B33376D2D3E205365742052
:100290003132682F3234682053796E636D6F646534
:1002A0002E0D0A201B5B33373B316D737077201B9B
:1002B0005B303B33376D2D3E204368616E676520B0
:1002C0006F75747075742070756C7365776964747C
:1002D00068283230302D383030306D73292E0D0AB9
:1002E000201B5B33373B316D73746174201B5B30B3
:1002F0003B33376D2D3E2053686F7720746865203F
:1003000063757272656E74207374617465206F66B4
:100310002074686520636C6F636B2E0D0A001B5B95
:1003200033373B316D4669726D776172651B5B32A5
:1003300031433A201B5B303B33376D001B5B333757
:100340003B316D54696D65206F6E20736C6176650D
:10035000731B5B3135433A201B5B303B33376D00F9
:100360000D0A1B5B33373B316D4D6F64651B5B3290
:1003700035433A201B5B303B33376D006F6E0D0AFF
:100380001B5B33373B316D4443463737204C617339
:100390007420726563656976656420646174651BA9
:1003A0005B35433A201B5B303B33376D000D0A1B36
:1003B0005B33373B316D4443463737204C617374B0
:1003C00020726573756C741B5B3132433A201B5B82
:1003D000303B33376D000D0A1B5B33373B316D44C7
:1003E000434637372053746174651B5B3138433A99
:1003F000201B5B303B33376D000D0A1B5B33373BF3
:10040000316D4443463737206C61737420636F6DE0
:10041000706C65746520726563656976651B5B3217
:10042000433A201B5B303B33376D000D0A1B5B33B7
:10043000373B316D44434637371B5B3234433A20F8
:100440001B5B303B33376D001B5B33373B316D4CEF
:1004500061737420506F7765726661756C741B5B95
:100460003134433A201B5B303B33376D001B5B3329
:10047000373B316D536C61766574696D65206174CD
:10048000206C61737420706F7765726661756C742F
:10049000203A201B5B303B33376D000D0A1B5B336A
:1004A000373B316D53796E636D6F64651B5B323121
:1004B000433A201B5B303B33376D001B5B33373BCC
:1004C000316D4C434420446973706C6179206973C9
:1004D0001B5B3135433A201B5B303B33376D001BD0
:1004E0005B33373B316D4F75747075742070756C6C
:1004F00073652077696474681B5B3131433A201B54
:100500005B303B33376D001B5B33373B316D4F75D1
:10051000747075742070756C736520696E74657283
:1005200076616C1B5B38433A201B5B303B33376D85
:1005300000456E7465722063757272656E74207406
:10054000696D65206F6E20736C6176657320287805
:10055000783A7878293A200053657420736C617674
:10056000657320657861637420746F202878783A09
:100570007878293A200041646A75737420736C613D
:1005800076657320746F202878783A7878293A2035
:100590000044697361626C652044434637372066C6
:1005A00069727374210D0A00536C61766520636C67
:1005B0006F636B732069732063757272656E746C00
:1005C00079200072756E6E696E672E2053657420F7
:1005D00068616C743F2028797C6E293A200068613C
:1005E0006C7465642E20436F6E74696E75653F2070
:1005F00028797C6E293A20004E6F204443463737D5
:100600002064617461207265636569766564207930
:1006100065742E0044434620697320006F6E2E20BF
:10062000537769746368206F66663F2028797C6E13
:10063000293A20006F66662E20537769746368201C
:100640006F6E3F2028797C6E293A20005365742014
:100650006463663737206F6E2E0D0A005365742071
:100660006463663737206F66662E0D0A0053796E15
:10067000636D6F646520697320003234682E2053E7
:10068000657420746F203132683F2028797C6E2990
:100690003A20003132682E2053657420746F203266
:1006A00034683F2028797C6E293A20003234204873
:1006B0006F75727300313220486F75727300323477
:1006C000682073796E636D6F646520656E61626C1E
:1006D00065642E0D0A003132682073796E636D6F88
:1006E000646520656E61626C65642E0D0A00756E2E
:1006F0006B6E6F776E20636F6D6D616E640D0A00B7
:10070000496E76616C69642074696D650D0A0053E9
:10071000657420636F6E74696E75652E0D0A0053E3
:1007200065742068616C7465642E0D0A006F6B0D32
:100730000A004F4B0D0A004552524F520D0A002C31
:100740002063757272656E74206269743A200020AD
:100750006D696E75746573206C6566740073796E6F
:1007600063696E6720636C69656E747320746F20B3
:100770000057726F6E6720696D7075742E0D0A00D8
:100780002D3E68616C746564004F6E004F666600B4
:100790004368616E6765206F757470757470756CF1
:1007A0007365776964746828696E203130306D73C1
:1007B0002C20706F737369626C652076616C75654F
:1007C000733A20327C337C347C2E2E2E2E7C3830B3
:1007D0002920746F3A20004F7574707574207075FD
:1007E0006C7365207769647468206973207365741D
:1007F00020746F2020203A200030306D730D0A00E5
:100800004F75747075742070756C736520696E74A3
:10081000657276616C2069732073657420746F3A19
:100820002000730D0A00207365636F6E64730053BC
:10083000756E646179004D6F6E64617900546875FE
:100840006573646179005765646E657364617900EE
:1008500054687572736461790046726964617900E5
:1008600053617475726461790053756E004D6F6EDB
:1008700000547565005765640054687500467269D8
:1008800000536174006F6B004552522D50617269C4
:10089000747920686F7572004552522D50617269EB
:1008A0007479206D696E004552522D5061726974E1
:1008B000792064617465004552522D4379636C65FB
:1008C00074696D65004552522D50756C736574697D
:1008D0006D65004E6F20737461746500696E697494
:1008E00000726563656976696E6720646174610092
:1008F000776169742034206461746100756E6B6E79
:100900006F776E0011241FBECFEFD8E0DEBFCDBFE2
:1009100013E0A0E0B1E0ECE5F8E302C005900D9231
:10092000AA36B107D9F714E0AAE6B3E001C01D92D8
:10093000A034B107E1F70E94A20B0C942C1C0C947C
:100940000000FC01662331F482818B3318F48F5F41
:1009500082830895128281819091490380FF03C0B0
:100960009093810302C0909380038B3318F48F5FC0
:100970008183089511828081873118F48F5F80838D
:100980000895108208951F920F920FB60F921124AE
:100990002F933F934F935F936F937F938F939F9387
:1009A000AF93BF93EF93FF938091AC039091AD030E
:1009B0002CE08433920734F401969093AD03809336
:1009C000AC033BC11092AD031092AC038091800345
:1009D000882341F05F985E9A8091800381508093D4
:1009E000800301C05E9880918103882341F05E9866
:1009F0005F9A8091810381508093810301C05F9849
:100A00008091AE03893020F48F5F8093AE0308C1DC
:100A10001092AE03809178038823F1F080917603E1
:100A20008B3320F48F5F8093760316C01092760389
:100A3000809175038B3320F48F5F809375030CC016
:100A40001092750380917403873120F48F5F809337
:100A5000740302C01092740380918303882319F1F8
:100A60009091B4028091B3022CE3829FA0011124E3
:100A7000490F511D9091750380917403829F9001DD
:100A80001124290F311D2417350714F420563A4F2D
:100A9000C901841B950B25E0833692070CF443C0F3
:100AA000805A954040C09091B4028091B3022CE3EB
:100AB000829FA0011124490F511D909175038091CF
:100AC0007403829F90011124290F311D82E0413D62
:100AD000580714F0405D524082E0213D380714F081
:100AE000205D32404217530774F440535D4FBA0102
:100AF000621B730B405D52406E33710554F0C901A7
:100B0000841B950B10C0BA01621B730B6E33710509
:100B10002CF488279927861B970B05C0C901841BD5
:100B2000950B80539D4F90937F0380937E034B9B47
:100B300042C080917703882379F180917E03909160
:100B40007F030097C1F018161906ACF58091AF032A
:100B50009091B0031816190644F083EB92E061E01F
:100B60000E94A10480914A0390E001979093B00302
:100B70008093AF0320C0809174038093B30280916F
:100B800075038093B402809176038093B50210922E
:100B90007703109278030FC08091B702882359F031
:100BA00080914A038093AF031092B00383EB92E0ED
:100BB00060E00E94A10480917C03882321F0815091
:100BC00080937C0308C085E080937C0380917A0346
:100BD0008F5F80937A0380915303882319F08150AB
:100BE000809353038091560390915703A09158032B
:100BF000B09159038F3F2FEF92072FEFA2072FEFEE
:100C0000B20759F00196A11DB11D80935603909330
:100C10005703A0935803B093590381E080937B035B
:100C20008091AE0365E00E948B19992331F45D9B9E
:100C300002C05D9801C05D9A8BB1FF91EF91BF91A9
:100C4000AF919F918F917F916F915F914F913F9164
:100C50002F910F900FBE0F901F90189552985A9A8F
:100C6000E9E6F0E0808181608083E89A82E0809309
:100C7000550386E08093540308951F920F920FB698
:100C80000F9211248F939F93EF93FF93E1E8F0E08D
:100C90008081887F8083EFE6F0E080818E7F808393
:100CA0008FEF9FEF9093850080938400FF91EF91E9
:100CB0009F918F910F900FBE0F901F9018951F92CC
:100CC0000F920FB60F9211242F933F934F935F9380
:100CD0008F939F93EF93FF934A9B5CC08091810019
:100CE000887F8093810080916F008E7F80936F005A
:100CF00020918400309185003093880320938703EE
:100D0000109285001092840080918100856080930C
:100D1000810080916F00816080936F008091550306
:100D20008130A9F48091890390918A03820F931FE7
:100D30009093860380938503855F9C418F519340F8
:100D400030F084E08093540382E0809355032D516A
:100D500036432F5A344008F0A9C180915303883399
:100D600098F080918203882379F080914F038093DB
:100D7000740380915003809375031092760381E091
:100D800080937703809378031092840381E08093AB
:100D900055038CC180918100887F80938100809170
:100DA0006F008E7F80936F002091840030918500CA
:100DB00030938A0320938903109285001092840057
:100DC0008091810085608093810080916F008160B7
:100DD00080936F0040915503413009F067C1C9010C
:100DE00081529540835F914038F4E0918403F0E0B4
:100DF000EF54FC4F408312C0285732402B523140F1
:100E000038F4E0918403F0E0EF54FC4F108206C008
:100E100085E08093540382E08093550380915503CD
:100E2000813009F03EC1809184038A3308F439C1CE
:100E30008091C303809352032091C603E7ECF3E053
:100E4000922F8191982743E0ED3CF407D1F7808100
:100E5000981781F59091C903990F990F990F809177
:100E6000C803880F880F892B822B4091C703440F3A
:100E7000482B2091CC0330E0220F331F220F331F69
:100E80008091CB0390E0880F991F282B392B8091FC
:100E9000CA0390E0282B392BC90153E0880F991F12
:100EA0005A95E1F7220F331F820F931F480F40938B
:100EB000500305C082E08093540380935503209132
:100EC000CE03EFECF3E0922F8191982753E0E43DBD
:100ED000F507D1F78081981759F580915503813036
:100EE00039F59091D103990F990F990F8091D00303
:100EF000880F880F892B822B4091CF03440F482BFA
:100F00008091D30390E0880F991F2091D20330E0A5
:100F1000822B932B9C0153E0220F331F5A95E1F74C
:100F2000880F991F280F391F420F40934F0306C0A7
:100F300081E08093540382E0809355032091D50390
:100F4000E6EDF3E0922F8191982783E0EB3EF807DE
:100F5000D1F78081981709F09EC0809155038130A8
:100F600009F099C09091D803990F990F990F80912A
:100F7000D703880F880F892B822B4091D603440F0B
:100F8000482B8091DA0390E0880F991F2091D903B4
:100F900030E0822B932B9C0153E0220F331F5A9594
:100FA000E1F7880F991F280F391F420F40934D0317
:100FB0009091DD03990F990F8091DC03880F892BA5
:100FC0009091DB03892B80934E039091E103990F5D
:100FD000990F990F8091E003880F880F892B9091CA
:100FE000DE03892B2091DF03220F282B8091E2035F
:100FF0003AE0839FC0011124280F20934C032091D5
:10100000EA0330E0E3E0220F331FEA95E1F7809135
:10101000E90390E0880F991F880F991F282B392B1F
:101020008091E70390E0282B392B8091E80390E032
:10103000880F991F282B392BA90193E0440F551FC6
:101040009A95E1F7220F331F420F531F8091E60359
:10105000880F880F880F9091E503990F990F982BAF
:101060008091E303982B8091E403880F892B840FF0
:1010700080934B038BE3809353031092540382E0DD
:101080008093550310925603109257031092580301
:101090001092590306C083E08093540382E080934A
:1010A0005503809184038F5F80938403FF91EF91B8
:1010B0009F918F915F914F913F912F910F900FBE14
:1010C0000F901F9018950F931F93DF93CF9300D02D
:1010D000CDB7DEB78C010E943F199C0180709B71D7
:1010E000892B99F53A8329832D3041F480E091E0F2
:1010F0000E947019C8016BE873E005C0233051F4F9
:10110000C80163E071E00E94201B10928B0321E074
:1011100030E01DC0822F0E945A19EBE8F3E00190E5
:101120000020E9F73197EB58F340B09770F49981BC
:10113000892F80528F3510F09D3039F48BE893E081
:10114000BE016F5F7F4F0E940C1B20E030E0C901A1
:101150000F900F90CF91DF911F910F910895BF9243
:10116000CF92DF92EF92FF920F931F93CF93DF9373
:101170006C017B01B42EFC0101900020E9F731974E
:10118000E81BF90B842F90E08E1B9F0B969587959B
:10119000082FFB01108210E006C0C70165E071E076
:1011A0000E940C1B1F5F1B15C1F707FD1AC0C02F43
:1011B000DD27C7FDD095CE0DDF1D20E030E007C054
:1011C000F601E20FF31F808189932F5F3F4FF601F5
:1011D00001900020E9F73197EC19FD092E173F0720
:1011E00078F3DF91CF911F910F91FF90EF90DF90F7
:1011F000CF90BF9008950F931F93182F092F262F7C
:10120000E82FF92FDF010D900020E9F71197A81BB7
:1012100080E190E08A1B910962E070E00E949719DA
:10122000683050F4223040F4862F622F0E9450180C
:10123000812F902F0E9479181F910F9108951F926E
:101240000F920FB60F9211242F933F934F935F93FA
:101250006F937F938F939F93AF93BF93EF93FF937E
:101260004B995BC080E090E06091B3020E94CA1B82
:1012700081E090E06091B4020E94CA1B8091530308
:10128000882349F182E090E060914F030E94CA1BDD
:1012900083E090E0609150030E94CA1B84E090E0DC
:1012A00060914D030E94CA1B85E090E060914C0361
:1012B0000E94CA1B86E090E060914B030E94CA1B0B
:1012C00087E090E060914E030E94CA1B88E090E0A6
:1012D000609152030FC082E090E06091B3020E94DF
:1012E000CA1B83E090E06091B4020E94CA1B84E0B4
:1012F00090E06FEF0E94CA1B809169038823C1F0C0
:101300000E945C188DE992E060E00E94FB088AEA86
:1013100092E061E00E94FB080BC083E390E00E9432
:10132000251980916903882319F08CE00E94931895
:10133000FF91EF91BF91AF919F918F917F916F91AD
:101340005F914F913F912F910F900FBE0F901F9083
:101350001895CF92DF92EF92FF921F93DF93CF9376
:1013600000D000D0CDB7DEB7182F7B0180910901E6
:1013700090910A01A0910B01B0910C0189839A838D
:10138000AB83BC83812F90E06E010894C11CD11CFB
:10139000B6014AE050E00E946D1B1A3050F4C701BC
:1013A00067E071E00E94201BC701B6010E940C1B80
:1013B00004C0C701B6010E94201B0F900F900F9030
:1013C0000F90CF91DF911F91FF90EF90DF90CF9022
:1013D00008958330D1F0843028F4813071F0823068
:1013E00080F407C08530C9F0853098F0863001F56B
:1013F0001AC0CB0165E878E013C0CB0168E878E05B
:101400000FC0CB0168E978E00BC0CB0167EA78E058
:1014100007C0CB0167EB78E003C0CB0165EC78E057
:101420000E94001B0895CB0163ED78E00E94001B31
:10143000089580915503882321F4CB016CED78E069
:101440000FC0813021F4CB0161EE78E009C0823019
:1014500021F4CB0160EF78E003C0CB016CEF78E0C2
:101460000E94001B0895CF92DF92EF92FF920F939C
:101470001F93DF93CF93CDB7DEB72A970FB6F894BB
:10148000DEBF0FBECDBF7C016B0119821A821B82A9
:101490001C82FE01359686E0DF011D928A95E9F7F0
:1014A000FB0183818430F1F0853038F4823081F0A3
:1014B0008330A0F4813031F507C08630D9F0863012
:1014C000A8F08730F9F41AC0C70166E378E003C0DA
:1014D000C7016DE378E00E94001B19C0C70166E4F4
:1014E00078E0F9CFC70160E578E0F5CFC70169E59D
:1014F00078E0F1CFC70160E678E0EDCFC7016FE299
:1015000078E0E9CFC7016DE071E00E94201BC701C0
:1015100065E071E00E940C1BD60112968C918E0141
:101520000F5F1F4FB8010E94A909C701B8010E94AF
:101530000C1BC70161E171E00E940C1BF601818167
:10154000B8010E94A909C701B8010E940C1BC7017C
:1015500061E171E00E940C1BD6018C9190E0B80112
:101560004AE050E00E946D1BF60180818A3020F431
:10157000C70163E171E003C0C70167E171E00E9448
:101580000C1BC701B8010E940C1BC70165E071E08C
:101590000E940C1BD60114968C918E010F5F1F4F79
:1015A000B8010E94A909C701B8010E940C1BC7011C
:1015B0006AE171E00E940C1BF6018581B8010E946E
:1015C000A909C701B8010E940C1BC70165E071E0C1
:1015D0000E940C1BD60117968C91882321F0C7011D
:1015E0006CE171E003C0C70160E271E00E940C1B76
:1015F0002A960FB6F894DEBF0FBECDBFCF91DF9114
:101600001F910F91FF90EF90DF90CF900895CF92B0
:10161000DF92EF92FF920F931F93DF93CF9300D04F
:101620000F92CDB7DEB76C017B01809125018983D4
:101630001B821A82FB0180818E010F5F1F4FB80150
:101640000E94A909C601B8010E94201BC6016AE1D7
:1016500071E00E940C1BF7018181B8010E94A90969
:10166000C601B8010E940C1BC6016AE171E00E942C
:101670000C1BF7018281B8010E94A909C601B801BB
:101680000E940C1B8091B702882329F4C60160E8F0
:1016900077E00E94F51A0F900F900F90CF91DF9195
:1016A0001F910F91FF90EF90DF90CF900895DF9200
:1016B000EF92FF920F931F93DF93CF9300D0CDB79C
:1016C000DEB78B016AE171E00E94071B009769F1A8
:1016D0007E010894E11CF11CB7014AE050E00E9431
:1016E000BE19D62EE981FA8180818823F1F487E141
:1016F0008D15D8F080E090E06AE171E00E94071B50
:10170000009799F0B7014AE050E00E94BE19E981C4
:10171000FA818081882349F46C3338F4F801D0824F
:101720006183128221E030E002C020E030E0C90194
:101730000F900F90CF91DF911F910F91FF90EF903D
:10174000DF900895EF92FF920F931F93DF93CF9353
:1017500000D0CDB7DEB7F999FECF81E090E00E94CE
:10176000C21B8093B4028C3340F480E090E00E946E
:10177000C21B8093B302883120F01092B302109202
:10178000B4028BE090E00E94C21B882319F01092F3
:10179000B70203C081E08093B70289E090E00E9425
:1017A000C21B809382038AE090E00E94C21B809358
:1017B00083038CE090E00E94C21B80934903825017
:1017C0008F3418F084E0809349038091490390E0BE
:1017D00001966AE070E00E9497196F5F60934A0378
:1017E000789483E390E00E94251988E291E00E94BA
:1017F00070198DE291E00E94701985E391E00E94DA
:10180000701989E092E00E94701985E091E00E94D1
:10181000701988EF91E00E94701980E091E00E94B9
:10182000701988E291E00E9470198AE192E00E94AA
:1018300070198AB1806E8AB98AB1877E8AB95C9A3A
:1018400080916900846080936900E99A16BC85B52F
:10185000816085BD80916E00816080936E00809173
:101860008203882311F00E942E064C9B17C08CE047
:101870000E94931880E060E00E9450180E945C185B
:1018800081E08093690389E092E060E00E94FB08B8
:1018900088EF91E061E00E94FB0808C010926903A4
:1018A00088B1817C88B987B18E6387B97E0108943D
:1018B000E11CF11C4B9BFECF80917A038823A1F49D
:1018C00088EB92E063EB72E00E94070B80E292E00B
:1018D00063E273E040E10E94AF0888EB92E064E3CA
:1018E00073E040E10E94AF0880917A03813031F5C6
:1018F000809177038823F9F080E392E063E273E05C
:1019000040E10E94AF0880917E0390917F0362E1E5
:1019100073E04AE050E00E946D1B82E193E063E6D1
:1019200072E00E940C1B82E193E064E373E040E10B
:101930000E94AF0803C082E080937A0380917A030B
:101940008230A9F481E492E063E273E040E10E9416
:10195000AF0880918203882319F080E692E002C0EC
:101960008EE692E064E373E040E10E94AF0880916C
:101970007A038330F1F482E592E063E273E040E1C0
:101980000E94AF0880918203882371F080915503F3
:1019900061E073E00E94190A81E093E064E373E080
:1019A00040E10E94AF0805C080917A038F5F809369
:1019B0007A0380917A038430E1F480918203882352
:1019C000A9F082E792E063E273E040E10E94AF0891
:1019D0008091540362E173E00E94E90982E193E09F
:1019E00064E373E040E10E94AF0803C085E08093A8
:1019F0007A0380917A03853009F04EC0809182038A
:101A0000882309F446C080915503813009F041C014
:101A1000809184038823E9F18C33D8F583E892E040
:101A200063E273E040E10E94AF0882E193E06AE381
:101A300071E00E94201B80918403815061E073E07B
:101A40000E94A90982E193E061E073E00E940C1B0F
:101A500082E193E06FE371E00E940C1BE09184034C
:101A6000F0E0E055FC4F8081813029F482E193E081
:101A700061E471E004C082E193E067E071E00E94FC
:101A80000C1B82E193E064E373E040E10E94AF0845
:101A900003C086E080937A0380917A03863009F050
:101AA000CAC080918203882309F4C2C08091530385
:101AB000882309F4BDC082E193E063E471E00E94F1
:101AC000201B80914F0361E073E00E94A90982E12D
:101AD00093E061E073E00E940C1B82E193E06AE115
:101AE00071E00E940C1B8091500361E073E00E9442
:101AF000A90982E193E061E073E00E940C1B82E19E
:101B000093E065E071E00E940C1B809152038823F2
:101B100029F082E193E06CE171E004C082E193E09E
:101B200060E271E00E940C1B82E193E063E273E0EB
:101B300040E10E94AF0880914E03843009F1853066
:101B400038F4823089F08330B0F4813069F507C011
:101B5000863001F18630C8F0873031F520C082E14F
:101B600093E06DE678E004C082E193E061E778E01D
:101B70000E94001B1FC082E193E065E778E0F8CF88
:101B800082E193E069E778E0F3CF82E193E06DE7EB
:101B900078E0EECF82E193E061E878E0E9CF82E19E
:101BA00093E069E678E0E4CF82E193E06DE071E0F4
:101BB0000E94201B82E193E06AE471E00E940C1B0A
:101BC00080914D0361E073E00E94A90982E193E0F6
:101BD00061E073E00E940C1B82E193E061E171E03F
:101BE0000E940C1B80914C0361E073E00E94A909E4
:101BF00082E193E061E073E00E940C1B82E193E0DC
:101C000061E171E00E940C1B80914B0361E073E085
:101C10000E94A90982E193E061E073E00E940C1B3D
:101C200082E193E064E373E040E10E94AF0803C007
:101C300087E080937A0380917A038730E9F482E920
:101C400092E063E273E040E10E94AF088091830379
:101C5000882329F082E193E06CEA76E004C082E117
:101C600093E065EB76E00E94001B82E193E064E381
:101C700073E040E10E94AF0880917A03883010F051
:101C800010927A0380917B038823A9F080916903E5
:101C9000882389F080E060E00E94501883E293E09E
:101CA0000E94791880E061E00E94501884E393E07C
:101CB0000E9479186AC080917B03882309F467C069
:101CC00080916903882309F062C080918203882390
:101CD00009F450C080915503882369F0813011F4D4
:101CE000419A0AC0823039F4419B02C0419801C038
:101CF000419A88B101C0419890915403892F815035
:101D0000823030F0943021F0953011F0913019F498
:101D1000429A43980BC0992339F480915303882346
:101D200019F04298439A02C0439842988091560312
:101D300090915703A0915803B0915903813821E540
:101D4000920721E0A20720E0B20710F0449816C0E5
:101D500081519E40A040B04080579344A140B04084
:101D600038F4449B02C0449801C0449A88B106C02C
:101D7000449A04C0419844984398429880917703CC
:101D8000813011F4459A01C0459810927B038BEE87
:101D900092E060E10E946308892B09F48BCD8BEE01
:101DA00092E063E071E00E94171B009751F41092DB
:101DB00079038EE491E00E9470191092EB020C946A
:101DC000C7178BEE92E067E571E00E94071BBC012C
:101DD0008BEF92E046E050E00E94371B80E090E0FD
:101DE00067E571E00E94071BBC01009779F084E36E
:101DF00094E04AE050E00E94371B8BEF92E069E5E7
:101E000071E00E94171B009749F012C01092340431
:101E100080917903882309F02DC793C484E394E06B
:101E200063EB72E00E94570B892B09F487C416C03C
:101E30008BEF92E06EE571E00E94171B009789F42A
:101E400084E394E064E773E00E94570B892B09F464
:101E500075C481E0809377038093780382E397E0F1
:101E6000F9C48BEF92E063E671E00E94171B0097C4
:101E700079F484E394E064E773E00E94570B892BC4
:101E800009F45CC41092780381E080937703E6CF75
:101E90008BEF92E068E671E00E94171B0097A9F5AE
:101EA00084E394E061E471E00E94171B009759F409
:101EB00081E08093820389E090E061E00E94CA1B88
:101EC0000E942E06CBCF84E394E067E071E00E948D
:101ED000171B009709F032C41092820389E090E04A
:101EE00060E00E94CA1B809169008E7F8093690028
:101EF000E89880918100887F8093810080916F00B5
:101F00008E7F80936F005A9AA9CF8BEF92E06DE697
:101F100071E00E94171B0097E1F484E394E061E410
:101F200071E00E94171B009731F481E080938303D6
:101F30008AE090E056C084E394E067E071E00E949C
:101F4000171B009709F0FAC3109283038AE090E010
:101F500058C08BEF92E062E771E00E94171B009778
:101F600061F584E394E0B7014AE050E00E94BE19B5
:101F70008B019C01E981FA818081882309F0DEC30D
:101F8000D901C8010297A109B1098F349105A105B2
:101F9000B10508F0D3C300937D0300934903802F5C
:101FA00090E001966AE070E00E9497196F5F60937D
:101FB0004A038CE090E0602F25C08BEF92E067E74A
:101FC00071E00E94171B009701F584E394E061E43F
:101FD00071E00E94171B009731F41092B7028BE05A
:101FE00090E061E00FC084E394E067E071E00E945C
:101FF000171B009709F0A2C381E08093B7028BE022
:1020000090E060E00E94CA1B29CF8BEF92E06CE762
:1020100071E00E94171B009709F0B9C784E394E0B0
:1020200062E871E00E94171B0097A9F482E193E037
:1020300069E072E00E94201B82E193E00E94701927
:1020400082E193E067E473E00E94201B82E193E069
:1020500068EF71E064C384E394E065E871E00E9496
:10206000171B009789F58091B30290E061E073E05F
:102070004AE050E00E946D1B82E193E061E073E072
:102080000E94201B82E193E067E473E042E050E0AD
:102090000E94271B8091B40290E061E073E04AE067
:1020A00050E00E946D1B82E193E061E073E00E94CA
:1020B0000C1B82E193E067E473E042E050E00E9491
:1020C000271B8091B50220C384E394E069E871E0A6
:1020D0000E94171B009789F58091740390E061E0DE
:1020E00073E04AE050E00E946D1B82E193E061E002
:1020F00073E00E94201B82E193E067E473E042E01A
:1021000050E00E94271B8091750390E061E073E02E
:102110004AE050E00E946D1B82E193E061E073E0D1
:102120000E940C1B82E193E067E473E042E050E020
:102130000E94271B80917603E7C284E394E06DE858
:1021400071E00E94171B009709F022C180914B0398
:1021500090E061E073E04AE050E00E946D1B82E194
:1021600093E061E073E00E94201B82E193E067E46A
:1021700073E042E050E00E94271B80914C0390E006
:1021800061E073E04AE050E00E946D1B82E193E061
:1021900061E073E00E940C1B82E193E067E473E06E
:1021A00042E050E00E94271B82E193E00E947019F8
:1021B00080914D0390E061E073E04AE050E00E94BE
:1021C0006D1B82E193E061E073E00E94201B82E1DD
:1021D00093E067E473E042E050E00E94271B8091A7
:1021E0004E0390E061E073E04AE050E00E946D1B16
:1021F00082E193E061E073E00E940C1B82E193E0D6
:1022000067E473E042E050E00E94271B80914F0397
:1022100090E061E073E04AE050E00E946D1B82E1D3
:1022200093E061E073E00E940C1B82E193E067E4BD
:1022300073E042E050E00E94271B82E193E00E949D
:1022400070198091500390E061E073E04AE050E043
:102250000E946D1B82E193E061E073E00E94201B0D
:1022600082E193E067E473E042E050E00E94271BC4
:102270008091510390E061E073E04AE050E00E94F9
:102280006D1B82E193E061E073E00E940C1B82E130
:1022900093E067E473E042E050E00E94271B8091E6
:1022A000520390E061E073E04AE050E00E946D1B51
:1022B00082E193E061E073E00E940C1B82E193E015
:1022C00067E473E042E050E00E94271B82E193E064
:1022D0000E9470198091530390E061E073E04AE03E
:1022E00050E00E946D1B82E193E061E073E00E9488
:1022F000201B82E193E067E473E042E050E00E943B
:10230000271B8091540390E061E073E04AE050E0C5
:102310000E946D1B82E193E061E073E00E940C1B60
:1023200082E193E067E473E042E050E00E94271B03
:102330008091550390E061E073E04AE050E00E9434
:102340006D1B82E193E061E073E00E940C1B82E16F
:1023500093E067E473E042E050E00E94271B82E1D3
:1023600093E00E9470196091560370915703809119
:1023700058039091590341E053E02AE030E00E9475
:102380008E1B82E193E061E073E00E94201BC9C1D3
:1023900084E394E061E971E00E94171B009709F063
:1023A0004BC08091840390E061E073E04AE050E02C
:1023B0000E946D1B82E193E061E073E00E94201BAC
:1023C00082E193E067E473E042E050E00E94271B63
:1023D00082E193E00E94701910927D0326C0F0E024
:1023E000EF54FC4F808190E061E073E04AE050E000
:1023F0000E946D1B82E193E061E073E00E94201B6C
:1024000080917D038B3341F082E193E067E473E0D8
:1024100042E050E00E94271B82E193E00E94701985
:1024200080917D038F5F80937D03E0917D03EC338A
:10243000B0F285E493E07FC184E394E065E971E064
:102440000E94171B009709F09FC086E090E00E9451
:10245000C21B90E061E073E04AE050E00E946D1B17
:1024600082E193E061E073E00E94201B82E193E04F
:1024700067E473E042E050E00E94271B85E090E0B3
:102480000E94C21B90E061E073E04AE050E00E94CD
:102490006D1B82E193E061E073E00E940C1B82E11E
:1024A00093E067E473E042E050E00E94271B84E081
:1024B00090E00E94C21B90E061E073E04AE050E0CF
:1024C0000E946D1B82E193E061E073E00E940C1BAF
:1024D00082E193E067E473E042E050E00E94271B52
:1024E00082E193E00E94701987E090E00E94C21B95
:1024F00090E061E073E04AE050E00E946D1B82E1F1
:1025000093E061E073E00E94201B82E193E067E4C6
:1025100073E042E050E00E94271B82E090E00E94BE
:10252000C21B90E061E073E04AE050E00E946D1B46
:1025300082E193E061E073E00E940C1B82E193E092
:1025400067E473E042E050E00E94271B83E090E0E4
:102550000E94C21B90E061E073E04AE050E00E94FC
:102560006D1B82E193E061E073E00E940C1B82E14D
:1025700093E067E473E042E050E00E94271B88E0AC
:1025800090E00E94C21BC0C084E394E069E971E05E
:102590000E94171B009709F092C08091B70290E04B
:1025A00061E073E04AE050E00E946D1B82E193E03D
:1025B00061E073E00E94201B82E193E067E473E036
:1025C00042E050E00E94271B8091780390E061E098
:1025D00073E04AE050E00E946D1B82E193E061E00D
:1025E00073E00E940C1B82E193E067E473E042E039
:1025F00050E00E94271B8091770390E061E073E038
:102600004AE050E00E946D1B82E193E061E073E0DC
:102610000E940C1B82E193E067E473E042E050E02B
:102620000E94271B82E193E00E94701980917E0333
:1026300090917F0361E073E04AE050E00E946D1BDF
:1026400082E193E061E073E00E94201B82E193E06D
:1026500067E473E042E050E00E94271B8091820310
:1026600090E061E073E04AE050E00E946D1B82E17F
:1026700093E061E073E00E940C1B82E193E067E469
:1026800073E042E050E00E94271B8091830390E0BA
:1026900061E073E04AE050E00E946D1B82E193E04C
:1026A00061E073E00E940C1B82E193E067E473E059
:1026B00042E050E00E94271B8091490325C084E33B
:1026C00094E06DE971E00E94171B0097B9F580E076
:1026D00090E00E94C21B90E061E073E04AE050E0AD
:1026E0000E946D1B82E193E061E073E00E94201B79
:1026F00082E193E067E473E042E050E00E94271B30
:1027000081E090E00E94C21B90E061E073E04AE04B
:1027100050E00E946D1B82E193E061E073E00E9453
:102720000C1B82E193E065E473E042E050E00E941C
:10273000271B82E193E00E94701990CB87E397E01A
:1027400089C08BEE92E061EA71E00E94171B00974E
:1027500031F481E08093790381E395E07BC08BEED7
:1027600092E065EA71E00E94171B0097D9F48DE2B0
:1027700091E00E94701989E092E00E94701980E057
:1027800091E00E9470198EE193E00E947D1988EF1C
:1027900091E00E94701980E091E00E94701988E633
:1027A00090E058C08BEE92E069EA71E00E94171B3E
:1027B000009751F4809182038823C1F482E08093D2
:1027C000790388E595E046C08BEE92E06DEA71E012
:1027D0000E94171B009769F480918203882331F4CB
:1027E00083E08093790386E795E034C081E995E042
:1027F00031C08BEE92E061EB71E00E94171B0097F5
:1028000089F484E08093790384E196E00E947D1945
:1028100080918203882319F08CE196E01BC084E349
:1028200096E018C08BEE92E065EB71E00E94171BFA
:10283000009799F485E08093790388EA95E00E94F7
:102840007D198091B702882319F083EC95E002C0CE
:102850008EED95E00E947D199AC38BEE92E069EBB4
:1028600071E00E94171B009789F486E0809379033A
:102870008DE696E00E947D1980918303882319F0EC
:102880008AE796E0E7CF83E996E0E4CF8BEE92E02B
:102890006DEB71E00E94171B009741F08BEE92E008
:1028A00062EC71E00E94171B009719F480EB90E036
:1028B000D1CF8BEE92E064EC71E00E94171B009781
:1028C00031F487E08093790380E997E0C3CF8BEE02
:1028D00092E068EC71E00E94171B009709F0BDC1FF
:1028E0008DE291E00E94701989E092E00E947019D7
:1028F00080E091E00E9470198EE193E00E947D19C2
:1029000088EF91E00E94701980E091E00E947019B8
:1029100088EB92E063EB72E00E94070B8CE393E09C
:102920000E947D1988EB92E00E94701980E693E086
:102930000E947D1980917703882329F188EB92E02A
:1029400064E773E00E94070B8DE597E00E947D1914
:1029500088EB92E00E94701980917E0390917F0332
:1029600061E073E04AE050E00E946D1B85E091E079
:102970000E94701981E093E00E9470198FE497E043
:102980000E947D1904C08DEC91E00E9470198BE9C2
:1029900094E00E947D1980918303882319F08CEACA
:1029A00096E002C085EB96E00E947D198BE294E0F0
:1029B0000E947D1980918203882309F484C08CE7EA
:1029C00093E00E947D1980914D03882359F089EC92
:1029D00092E06BE473E00E94330A89EC92E00E947B
:1029E000701904C088EF95E00E947D198DEA93E08C
:1029F0000E947D198091540361E073E00E94E9090F
:102A000081E093E00E94701986ED93E00E947D19A9
:102A10008091550361E073E00E94190A81E093E020
:102A20000E94701980915503813029F580918403AB
:102A3000882309F18FE397E00E947D198091840338
:102A400090E0019761E073E04AE050E00E946D1B66
:102A500081E093E00E947019E0918403F0E0E0557A
:102A6000FC4F8081813019F484ED91E002C087ED44
:102A700091E00E9470198091560390915703A091A4
:102A80005803B09159038F5F9F4FAF4FBF4FF9F07D
:102A900089EF93E00E947D1960915603709157036E
:102AA000809158039091590341E053E02AE030E0CF
:102AB0000E948E1B81E093E00E94701986E298E0EC
:102AC0000E947D1904C08EE692E00E94701980E099
:102AD00091E00E94701983E090E00E94C21B8F3F3A
:102AE00009F459C088E494E00E947D1984E090E0E4
:102AF0000E94C21B8F3F99F183E090E00E94C21BAD
:102B000080935F0382E090E00E94C21B80935E038B
:102B100084E090E00E94C21B80935C0385E090E01B
:102B20000E94C21B80935B0386E090E00E94C21B60
:102B300080935A0388E090E00E94C21B8093610357
:102B400087E090E00E94C21B80935D0389EC92E0D5
:102B50006AE573E00E94330A89EC92E016C083E0D4
:102B600090E00E94C21B80936B0382E090E00E9481
:102B7000C21B80936A0310926C0381E093E06AE6C3
:102B800073E00E94070B81E093E00E94701980E0DF
:102B900091E00E94701981E090E00E94C21B8F3F7B
:102BA00001F18DE694E00E947D1981E090E00E94A1
:102BB000C21B8093700380E090E00E94C21B809350
:102BC0006F031092710381E093E06FE673E00E945F
:102BD000070B81E093E00E94701980E091E00E9471
:102BE00070198BEB94E00E947D1980916903882312
:102BF00019F089E897E002C08CE897E00E947D19FF
:102C000080E091E00E9470198FED94E00E947D19A0
:102C10008091490390E061E073E04AE050E00E9457
:102C20006D1B81E093E00E9470198AED91E00E9493
:102C3000701987E095E00E947D1980914A0390E029
:102C400061E073E04AE050E00E946D1B81E093E098
:102C50000E94701981EE91E00AC087EE91E00E9417
:102C600070198EEE96E00E947D1988E291E00E9434
:102C700070198DC1813081F48BEE92E063EB72E0CC
:102C80000E94570B892B09F43FC08FEE91E00E9400
:102C900070198DE297E073C18230D1F48BEE92E02F
:102CA00064E773E00E94570B892B71F18FEE91E07E
:102CB0000E9470198DE297E00E947D1988E291E0F0
:102CC0000E9470191092780381E0809377035DC1B0
:102CD000833009F58BEE92E064E773E00E94570BB6
:102CE000892B91F08FEE91E00E9470198DE297E0B0
:102CF0000E947D1988E291E00E94701981E0809322
:102D000077038093780341C187EE91E00E947019A8
:102D100080E097E034C1843009F057C08BEE92E038
:102D20006FEA72E00E94171B009709F040C0809183
:102D300082038823B9F48FEE91E00E9470198CE42D
:102D400096E00E947D1988E291E00E94701981E06E
:102D50008093820389E090E061E00E94CA1B0E9498
:102D60002E0613C18FEE91E00E9470198CE596E05B
:102D70000E947D1988E291E00E94701910928203EE
:102D800089E090E060E00E94CA1B809169008E7F1C
:102D900080936900E89880918100887F809381000A
:102DA00080916F008E7F80936F005A9AEEC08BEEF9
:102DB00092E061EB72E00E94171B009709F4E5C0F6
:102DC00081E797E00E947D19E0C08530B1F58BEE78
:102DD00092E06FEA72E00E94171B009739F580912C
:102DE000B702882391F48DE291E00E9470198FE080
:102DF00097E00E947D1988E291E00E94701981E0BD
:102E00008093B7028BE090E049C08DE291E00E9490
:102E100070198FE197E00E947D1988E291E00E948D
:102E200070191092B7028BE090E026C08BEE92E012
:102E300061EB72E00E94171B3BC08630E9F58BEE18
:102E400092E06FEA72E00E94171B009759F580919B
:102E50008303882399F48FEE91E00E9470198EEB22
:102E600096E00E947D1988E291E00E94701981E04D
:102E7000809383038AE090E061E011C08FEE91E0DF
:102E80000E94701986ED96E00E947D1988E291E01B
:102E90000E947019109283038AE090E060E00E9423
:102EA000CA1B73C08BEE92E061EB72E00E94171BAD
:102EB000009709F46AC05DC0873009F066C08BEEE8
:102EC00092E0B7014AE050E00E94BE198B019C01DC
:102ED000E981FA818081882309F04BC0D901C801BA
:102EE0000297A109B1098F349105A105B10508F038
:102EF00040C000937D0300934903802F90E001962A
:102F00006AE070E00E9497196F5F60934A038CE05B
:102F100090E0602F0E94CA1B8FEE91E00E94701912
:102F200087ED97E00E947D198091490390E061E070
:102F300073E04AE050E00E946D1B81E093E00E9444
:102F4000701989EF97E00E947D1980E098E00E9457
:102F50007D1980914A0390E061E073E04AE050E01F
:102F60000E946D1B81E093E00E94701982E298E05C
:102F700006C087EE91E00E94701981E797E00E94F9
:102F80007D1988E291E00E947019109279038BEE0E
:102F900092E067EF71E00E94201B1092FB021092FA
:102FA000340480917903882311F00C945A0C8AE13F
:102FB00092E00E9470190C945A0C662311F0459A05
:102FC00001C0459844983A9A399A389A229A2A9890
:102FD00040984198429887FD2A9A86FD409A85FD3F
:102FE000419A84FD429A439A00C043982A98409897
:102FF0004198429883FD2A9A82FD409A81FD419A28
:1030000080FD429A439A00C04398429A419A409A5E
:103010002A9A0895882311F0459A01C04598449A48
:103020003A98399838982298439A00C0329B02C047
:1030300080E101C080E031998062309980641A9902
:103040008068439800C0439A00C0329981603199EA
:103050008260309984601A9988604398089580E06E
:103060000E940A1887FDFBCF84E090E00197F1F7FA
:1030700080E00E940A1808951F93182F0E942F18AD
:10308000812F60E00E94DD171F9108951F93182F74
:103090000E942F18812F61E00E94DD171F91089573
:1030A000662311F4805801C080540E943C18089592
:1030B0000E942F1890E0089581E00E943C18089526
:1030C00082E00E943C1808951F93182F0E942F1829
:1030D0001A3049F4803410F080E001C080E4805858
:1030E0000E943C1804C0812F61E00E94DD171F91EF
:1030F0000895CF93DF93EC0102C00E946418899178
:103100008823D9F7DF91CF910895CF93DF93EC0116
:1031100002C00E946418FE01219684918823C9F799
:10312000DF91CF9108951F93182F3A9A399A389AC0
:10313000229A3D9A3C9A3B9A80E09DE70197F1F7ED
:10314000419A429A439A00C0439880E097E20197DF
:10315000F1F7439A00C0439880E890E0FC01319772
:10316000F1F7439A00C04398FC013197F1F7429878
:10317000439A00C043980197F1F788E20E943C18F7
:1031800088E00E943C180E945C1886E00E943C186F
:10319000812F0E943C181F9108951F920F920FB625
:1031A0000F9211242F938F939F93EF93FF939091FE
:1031B000C0002091C600E0912F04EF5FEF71809175
:1031C0003004E81711F492E007C09871E0932F04DF
:1031D000F0E0E35FFB4F208380913104982B9093C4
:1031E0003104FF91EF919F918F912F910F900FBE1E
:1031F0000F901F9018951F920F920FB60F921124E7
:103200008F939F93EF93FF9390912D0480912E04C1
:10321000981769F0E0912E04EF5FEF71E0932E04B0
:10322000F0E0E351FC4F80818093C60005C080919F
:10323000C1008F7D8093C100FF91EF919F918F918D
:103240000F900FBE0F901F9018959C0110922D04A7
:1032500010922E0410922F041092300497FF04C095
:1032600082E08093C0003F773093C5002093C40074
:1032700088E98093C10086E08093C2000895909110
:103280002F0480913004981719F420E031E010C029
:10329000E0913004EF5FEF71E0933004F0E0E35F22
:1032A000FB4F80819091310410923104282F30E03F
:1032B000C9010895282F90912D049F5F9F718091DF
:1032C0002E049817E1F3E92FF0E0E351FC4F20833F
:1032D00090932D048091C10080628093C100089575
:1032E000CF93DF93EC0103C021960E945A19888185
:1032F0008823D1F7DF91CF910895CF93DF93EC012D
:1033000002C00E945A19FE01219684918823C9F7B0
:10331000DF91CF910895991B79E004C0991F96170A
:1033200008F0961B881F7A95C9F78095089597FB3A
:10333000092E07260AD077FD04D00CD006D0002035
:103340001AF4709561957F4F0895F6F790958195E1
:103350009F4F0895AA1BBB1B51E107C0AA1FBB1FAB
:10336000A617B70710F0A61BB70B881F991F5A9511
:10337000A9F780959095BC01CD0108952F923F92B9
:103380005F926F927F928F929F92AF92BF92CF92F5
:10339000DF92EF92FF920F931F93CF93DF938C01F5
:1033A0001B01EA016115710519F0FB01918380830E
:1033B000209749F0CE010297839728F020E030E073
:1033C00040E050E0F6C0F801A1908F018A2D90E016
:1033D0000E94ED1A892BB9F7FDE2AF1631F4F8011E
:1033E000A1908F015524539407C0FBE2AF1619F446
:1033F000F801A1908F015524209719F0C031D10513
:10340000C1F4F0E3AF1679F4F8018081883711F048
:10341000883549F4F801A1800E5F1F4FF2E05F2A62
:10342000C0E1D0E006C0209721F480E3A816E9F4BB
:1034300027C0C830D10531F1C930D10524F4C230DC
:10344000D10531F50CC0CA30D10589F0C031D105A4
:10345000F9F4C12CD12CE12CB8E0FB2E28C0C12CF2
:10346000D12CE12CA0E4FA2E22C0CAE0D0E0FCEC82
:10347000CF2EFCECDF2EFCECEF2EFCE0FF2E17C075
:10348000C8E0D0E0C12CD12CE12CE0E1FE2E0FC031
:103490009E01442737FD4095542F60E070E080E0A6
:1034A00090E80E940A1CC901DA016C017D0120E04C
:1034B00030E040E050E060E03E01882477FC8094FA
:1034C000982C70EDB72EBA0CE9E0EB1570F48A2D4C
:1034D00081548A3118F499ECB92E06C08A2D815690
:1034E0008A3150F589EAB82EBA0C8B2D90E08C17F2
:1034F0009D0714F56F3FE1F0C216D306E406F5060A
:10350000B0F0CA01B901A40193010E94EB1B9B0119
:10351000AC012B0D311D411D511D2130F0E03F0745
:10352000F0E04F07F0E85F0710F461E001C06FEFD3
:10353000F801A1908F01C5CF2114310481F06623D9
:1035400031F001501040F1011183008308C051FE99
:103550001AC002501040F1011183008314C067FFAC
:1035600012C050FC05C02FEF3FEF4FEF5FE704C0E4
:1035700020E030E040E050E882E290E090933F04A9
:1035800080933E0416C050FE08C05095409530957B
:1035900021953F4F4F4F5F4F0CC057FF0AC082E24B
:1035A00090E090933F0480933E042FEF3FEF4FEF66
:1035B0005FE7B901CA01DF91CF911F910F91FF9091
:1035C000EF90DF90CF90BF90AF909F908F907F90C3
:1035D0006F905F903F902F9008959111E9C08032D5
:1035E00019F089508550D0F70895FB01DC010D904A
:1035F0000020E9F7119705900D920020E1F708955A
:10360000FB01DC0105900D920020E1F7089542E3F3
:1036100054E00E94461B0895FB01DC010D90002040
:10362000E9F7119701900D920020E1F70895FB0151
:10363000DC018D91019080190110D9F3990B089547
:10364000FB01DC0101900D920020E1F70895FB01E0
:10365000DC010D900020E9F711974150504028F00F
:10366000019000200D92C9F708951C920895FB0166
:10367000DC014150504048F001900D920020C9F704
:1036800001C01D9241505040E0F70895FA01A19108
:10369000B081009719F41097E1F0CD01DC01CD0164
:1036A0000D90002011F4C00113C0FB0121912223D1
:1036B00019F02015D9F7F3CFFB012191201519F44A
:1036C0001E92119606C02223C1F70D900020A1F78B
:1036D000D001FA01A193B0830895FB019F01E89402
:1036E0004230C4F04532B4F44A3029F497FB1EF45A
:1036F000909581959F4F642F77270E94AA19805D2E
:103700008A330CF0895D8193CB010097A1F716F401
:103710005DE251931082C9010C94DB1BFA01CF9337
:10372000FF93EF93223044F1253234F5C22FE89411
:10373000CA3049F497FB3EF4909580957095619559
:103740007F4F8F4F9F4F2C2F332744275527FF93B1
:10375000EF930E940A1CEF91FF91605D6A330CF0B9
:10376000695D6193B901CA0160507040804090402A
:1037700051F716F4CDE2C19310828F919F91CF91B2
:103780000C94DB1BF999FECF92BD81BDF89A992765
:1037900080B50895262FF999FECF1FBA92BD81BD3D
:1037A00020BD0FB6F894FA9AF99A0FBE01960895C3
:1037B000992788270895DC01FC01672F71917723F1
:1037C000E1F7329704C07C916D9370836291AE17DC
:1037D000BF07C8F30895629FD001739FF001829FD5
:1037E000E00DF11D649FE00DF11D929FF00D839F90
:1037F000F00D749FF00D659FF00D9927729FB00D2D
:10380000E11DF91F639FB00DE11DF91FBD01CF013F
:1038100011240895A1E21A2EAA1BBB1BFD010DC0A5
:10382000AA1FBB1FEE1FFF1FA217B307E407F50770
:1038300020F0A21BB30BE40BF50B661F771F881F4C
:10384000991F1A9469F760957095809590959B01E2
:0C385000AC01BD01CF010895F894FFCF3A
:10385C000D0A00030020003000000000002D2D2D6B
:10386C00002E00323030003230003A004D455A0004
:10387C004D45535A000000001B5B306D001B5B3341
:10388C00373B316D001B5B324A004249543A003DD4
:10389C0000310044434637373A00202D2000535462
:1038AC0052472D430A0D003B005F736D74005F613E
:1038BC007374005F6E7374005F646366005F737390
:1038CC006D005F737077005F707374005F73746169
:1038DC00740067760067737400676E7400676437F2
:1038EC000067646100676C700067677300676C73D6
:1038FC0000736D740041545A006E737400617374DC
:10390C0000646366007073740073736D0068656C9B
:10391C0070003F007370770073746174006E6F7287
:10392C006D616C003D31003D300030306D730D0A1F
:10393C00007365630D0A001B5B33313B316D001B5B
:10394C005B33323B316D000056312E303957570006
:10395C000000000000000000005241204D6F746810
:10396C006572636C6F636B0000006D633A3E200000
:10397C0054696D65206F6E20736C617665733A00C7
:10398C0053796E63696E6720636C6F636B2E2E2E9A
:10399C000044434637372053796E636D6F64653A44
:1039AC00200044434637372053746174653A200035
:1039BC004F6E00206D696E206C6566742E004F662C
:1039CC006600444346206C61737420726573756C99
:1039DC00743A0044434620726563656976696E6784
:1039EC003A0053796E63206D6F64653A00504F57FF
:1039FC00455220535550504C5900444F574E007966
:103A0C00006E0000000000012D2D3A2D2D3A2D2DB9
:103A1C000000000000000000002D2D2D2D2D2D2D5F
:103A2C002D2D2D202D2D2E2D2D2E2D2D2D2D202DD2
:103A3C002D3A2D2D202D2D2D2D00000000000000E5
:103A4C00000000000000000000000000000000006A
:103A5C00000000000000000000000000000000005A
:103A6C00000000000000000000000000000000004A
:103A7C00000000000000000000000000000000003A
:103A8C00000000000000000000000000000000002A
:103A9C0000000000003B002C0004010000000000AE
:103AAC00000001000600FFFFFFFF00000000000007
:0A3ABC000001000600FFFFFFFF01FC
:00000001FF
