:100000000C943C050C94880A0C9419080C9459051E
:100010000C9459050C9459050C9459050C945905E8
:100020000C9459050C9459050C9459050C945905D8
:100030000C9459050C94660A0C9459050C945905B6
:100040000C94A3080C9459050C94600D0C948E0D1F
:100050000C9459050C9459050C9459050C945905A8
:100060000C9459050C94590589058C058F0592054A
:10007000950598059B05140717071E0721072407F8
:1000800027072A074A104D10541057105A105D10B8
:100090006010556E62656B616E6E740057617274AC
:1000A000652061756620446174656E00456D7066FB
:1000B000616E676520446174656E00496E6974699C
:1000C000616C7369657265004B65696E205374617C
:1000D000747573004552522D50756C73646175656B
:1000E00072004552522D4461756572506572696F98
:1000F0006465004552522D5061722E204461747522
:100100006D004552522D5061722E204D696E7574EE
:1001100065004552522D5061722E205374756E64E5
:1001200065006F6B00536100467200446F004D69BB
:10013000004469004D6F00536F0053616D7374612B
:1001400067004672656974616700446F6E6E657220
:1001500073746167004D697474776F6368004469F4
:10016000656E73746167004D6F6E74616700536FE5
:100170006E6E746167002053656B756E64656E000A
:10018000732067657365747A742E0D0A0041757368
:1001900067616E6773696D70756C7365696E7465A0
:1001A0007276616C207775726465206175663A209D
:1001B0000030306D732067657365747A742E0D0A94
:1001C0000041757367616E6773696D70756C7377E5
:1001D0006569746520777572646520617566202095
:1001E0002020203A0041757367616E6773696D70F6
:1001F000756C7377656974652061656E6465726E90
:100200002028696E203130306D732C206D6F65674A
:100210006C696368652057657274653A20327C3377
:100220007C347C2E2E2E2E7C3830293A20004175CD
:100230007300416B746976002D3E706175736500C3
:1002400046616C736368652045696E676162652EFF
:100250000D0A0073796E6368726F6E6973696572F7
:1002600065204E6562656E756872656E20617566A3
:100270002000204D696E757465286E29207A7520DE
:1002800073796E6368726F6E6973696572656E000B
:100290002C2067657261646520656D7066616E67AC
:1002A000656E6573204269743A20004552524F5280
:1002B0000D0A004F4B0D0A006F6B0D0A0055687256
:1002C00020616E676568616C74656E2E0D0A00555D
:1002D0006872206765737461727465742E0D0A000C
:1002E000556E6775656C7469676573205A656974C6
:1002F000666F726D61740D0A004B6F6D6D616E6497
:100300006F20657869737469657274206E696368BB
:10031000742E0D0A00313268205374756E64656E58
:10032000204D6F64757320616B74697669657274B2
:100330002E0D0A00323468205374756E64656E2089
:100340004D6F64757320616B746976696572742E84
:100350000D0A003132205374756E64656E003234BC
:10036000205374756E64656E003132205374756E5F
:1003700064656E2E20417566203234205374756E8C
:1003800064656E207365747A656E3F20286A7C6EA2
:10039000293A20003234205374756E64656E2E2025
:1003A000417566203132205374756E64656E20731A
:1003B00065747A656E3F20286A7C6E293A20005366
:1003C000796E636D6F6475732069737420004443A4
:1003D0004637372053796E6368726F6E6973617444
:1003E000696F6E206175732E0D0A004443463737DE
:1003F0002053796E6368726F6E69736174696F6E92
:100400002065696E2E0D0A0050617573653A0050C3
:10041000756C73203A006175732E2045696E7363A5
:1004200068616C74656E3F20286A7C6E293A2000F2
:10043000616E2E20417573736368616C74656E3FE5
:1004400020286A7C6E293A20004443462053796371
:10045000686E726F6E69737461696F6E2069737410
:1004600020004E6F6368206B65696E6520444346CB
:10047000373720446174656E20656D7066616E6704
:10048000656E2E0073696E6420616E676568616CCD
:1004900074656E2E205374617274656E203F20283F
:1004A0006A7C6E293A20006C617566656E2E20416B
:1004B0006E68616C74656E203F20286A7C6E293AF4
:1004C00020004E6562656E75687228656E29200091
:1004D0004269747465204443463737207A756572E3
:1004E0007374206465616B746976696572656E21E9
:1004F0000D0A005374656C6C65204E6562656E75FF
:100500006872656E20617566202878783A78782957
:100510003A20005374656C6C65204E6562656E759B
:100520006872656E206578616B742061756620283D
:1005300078783A7878293A20005A6569742061758C
:10054000662064656E204E6562656E756872656EC4
:10055000202878783A7878293A20001B5B33373B9B
:10056000316D41757367616E6773696D70756C731A
:10057000696E74657276616C1B5B37433A201B5B56
:10058000303B33376D001B5B33373B316D41757347
:1005900067616E6773696D70756C73776569746593
:1005A0001B5B3130433A201B5B303B33376D001B04
:1005B0005B33373B316D4C434420446973706C614D
:1005C00079206973741B5B3134433A201B5B303BE9
:1005D00033376D000D0A1B5B33373B316D53796E3A
:1005E0006368726F6E69736174696F6E736D6F6447
:1005F00075731B5B38433A201B5B303B33376D0010
:100600000D0A1B5B33373B316D4443463737206C53
:1006100065747A746572204B6F6D706C6574746567
:100620006D7066616E673A201B5B303B33376D003F
:100630000D0A1B5B33373B316D444346373720533C
:1006400074617475731B5B3137433A201B5B303B1D
:1006500033376D000D0A1B5B33373B316D44434626
:100660003737204C65747A7465732045726765620C
:100670006E69731B5B37433A201B5B303B33376D2E
:1006800000616B746976696572740D0A1B5B3337A0
:100690003B316D4C65747A7465732044434637373B
:1006A00020456D7066616E6773646174756D1B5B68
:1006B00032433A201B5B303B33376D000D0A1B5B26
:1006C00033373B316D44434637371B5B3234433A53
:1006D000201B5B303B33376D001B5B33373B316D89
:1006E0005A65697420617566204E6562656E75682D
:1006F00072656E206265690D0A6C65747A74656D49
:10070000205370616E6E756E677361757366616C90
:100710006C1B5B35433A201B5B303B33376D001B52
:100720005B33373B316D4C65747A7465722053705E
:10073000616E6E756E677361757366616C6C1B5B61
:1007400035433A201B5B303B33376D000D0A1B5B92
:1007500033373B316D5374617475731B5B323343B4
:100760003A201B5B303B33376D001B5B33373B312B
:100770006D5A65697420617566204E6562656E7597
:100780006872656E1B5B3130433A201B5B303B3334
:10079000376D001B5B33373B316D4669726D776196
:1007A00072651B5B3231433A201B5B303B33376D44
:1007B00000201B5B33373B316D566572667565678C
:1007C00062617265204B6F6D6D616E646F733A0D7F
:1007D0000A201B5B33373B316D646366201B5B3043
:1007E0003B33376D2D3E2053796E6368726F6E69AF
:1007F000736174696F6E206D6974204443463737A6
:10080000206A617C6E65696E2E0D0A201B5B333792
:100810003B316D736D74201B5B303B33376D2D3E68
:10082000204D757474657275687220617566205A02
:1008300065697420766F6E204E6562656E756872AC
:10084000656E207374656C6C656E2E0D0A201B5BE3
:1008500033373B316D6E7374201B5B303B33376D28
:100860002D3E204E6562656E756872656E206175FD
:1008700066206578616B74206469657365205A65CC
:100880006974207374656C6C656E284E6963687456
:1008900020696D204443463737204D6F64757329B6
:1008A0002E0D0A201B5B33373B316D617374201BA7
:1008B0005B303B33376D2D3E204E6562656E75684B
:1008C00072656E20617566206469657365205A657E
:1008D0006974207374656C6C656E2E205A6569743A
:1008E00020646965206461667565722062656EF6D4
:1008F0007469677420776972642C20776972642048
:1009000068696E7A756164646965727420284E69DD
:1009100063687420696D204443463737204D6F6407
:100920007573292E0D0A201B5B33373B316D7073B5
:1009300074201B5B303B33376D2D3E204D75747436
:1009400065722D20756E64204E6562656E756872E5
:10095000656E20616E68616C74656E2E2853796EC9
:100960006368726F6E69736174696F6E2066756E0D
:100970006B74696F6E6965727420776569746572EE
:10098000292E0D0A201B5B33373B316D73736D20AD
:100990001B5B303B33376D2D3E2053796E636D6F9B
:1009A000647573203132682F323468207365747A2D
:1009B000656E2E0D0A201B5B33373B316D737077EC
:1009C000201B5B303B33376D2D3E204175736761D3
:1009D0006E6773696D70756C737765697465206196
:1009E000656E6465726E283230302D383030306D6F
:1009F00073292E0D0A201B5B33373B316D737461F5
:100A000074201B5B303B33376D2D3E20476573618F
:100A10006D7473746174757320616E7A656967654E
:100A20006E2E0D0A000D0A48696C6665206D6974AA
:100A3000201B5B33373B316D3F1B5B303B33376DE6
:100A4000206F646572201B5B33373B316D68656CCA
:100A5000701B5B303B33376D20756E64206D69749D
:100A60002072657475726E20616E7363686C69655F
:100A70007373656E2E0D0A0011241FBECFEFD8E0F0
:100A8000DEBFCDBF12E0A0E0B1E0E8ECF8E302C0C9
:100A900005900D92A23FB107D9F724E0A2EFB2E092
:100AA00001C01D92A533B207E1F70E941A0E0C9403
:100AB000621C0C940000E0E1F1E0128652985A9A10
:100AC000A9E6B0E08C9181608C93E89A82E08287FD
:100AD00086E081870895E9E6F0E080818E7F80835B
:100AE000E898E1E8F0E08081887F8083EFE6F0E03D
:100AF00080818E7F80835A9A0895E82FCB014E2FF4
:100B000050E047305105D8F4FA01EC5CFF4F0C94EB
:100B1000AF1962E271E011C062E171E00EC062E003
:100B200071E00BC063EF70E008C062EE70E005C0DA
:100B300064ED70E002C068EC70E00C94F31A089564
:100B4000CF93DF93FC0101900020E9F73197E81B78
:100B5000F90B20E130E02E1B310937FF02C02F5F77
:100B60003F4F35952795283058F4623048F4EC0112
:100B7000822F0E94E70CCE01DF91CF910C940C0DD7
:100B8000DF91CF910895FF920F931F93CF93DF933F
:100B900000D0CDB7DEB78B0164E672E00E94FA1A8E
:100BA000009719F480E090E02CC04AE050E0BE01CC
:100BB0006F5F7F4F0E94C919F62EE981FA8180810B
:100BC0008111F0CF87E18F1568F364E672E080E071
:100BD00090E00E94FA1A009729F34AE050E0BE0123
:100BE0006F5F7F4F0E94C919E981FA81808181116D
:100BF000D9CF6C33B8F6F801F0826183128281E0BC
:100C000090E00F900F90DF91CF911F910F91FF9087
:100C10000895FF920F931F93CF93DF9300D000D0DE
:100C2000CDB7DEB7F82E8B011A8219821C821B8287
:100C30004AE0BE016F5F7F4F90E00E94601B89E039
:100C40008F1560F066E372E0C8010E94131BBE01BD
:100C50006F5F7F4FC8010E94FF1A06C0BE016F5F21
:100C60007F4FC8010E94131B0F900F900F900F90A1
:100C7000DF91CF911F910F91FF900895EF92FF9216
:100C80000F931F93CF93DF9300D01F92CDB7DEB7A2
:100C90008C017B011A8219821B82FB018081BE01BB
:100CA0006F5F7F4F0E940906BE016F5F7F4FC801D3
:100CB0000E94131B64E672E0C8010E94FF1AF7014C
:100CC0008181BE016F5F7F4F0E940906BE016F5F89
:100CD0007F4FC8010E94FF1A64E672E0C8010E94BB
:100CE000FF1AF7018281BE016F5F7F4F0E940906E4
:100CF000BE016F5F7F4FC8010E94FF1A80915C01A7
:100D0000811105C068E372E0C8010E94E81A0F90E3
:100D10000F900F90DF91CF911F910F91FF90EF9067
:100D20000895CF92DF92EF92FF920F931F93CF938C
:100D3000DF937C01EB01FC0101900020E9F78C01BD
:100D40000E1B1F0B0F5E1F4F16950795C02E1882A6
:100D500090E1D92E68E672E0CE010E94FF1ADA9483
:100D6000D110F8CFC7FC1CC0C00FD11D07FDDA950C
:100D700020E0822F022E000C990BF7010190002039
:100D8000E9F73197EE19FF098E179F0748F42031D4
:100D90002CF4F701E80FF91F808189932F5FE9CFC9
:100DA000DF91CF911F910F91FF90EF90DF90CF9047
:100DB000089580911A01811103C06BEB70E00CC0A3
:100DC000813019F46CEA70E007C0823019F46CE9E4
:100DD00070E002C062E970E08DE393E00C94F31AD6
:100DE0000F931F93CF93DF93CDB7DEB72A970FB63C
:100DF000F894DEBF0FBECDBF8C011A821982FE01AE
:100E0000339688E0DF011D928A95E9F7D8011396A1
:100E1000EC918E2F90E0FC013197E730F105E8F47A
:100E2000E55CFF4F0C94AF1967E671E002C06EE518
:100E300071E085E291E00E94F31A15C065E571E06A
:100E4000F8CF6AE471E0F5CF62E471E0F2CF6AE3D3
:100E500071E0EFCF6EE671E0ECCF6EE272E085E21A
:100E600091E00E94131B68E672E085E291E00E9427
:100E7000FF1ABE016F5F7F4FF80182810E94090651
:100E8000BE016F5F7F4F85E291E00E94FF1A62E32F
:100E900072E085E291E00E94FF1ABE016F5F7F4F12
:100EA000D80111968C910E940906BE016F5F7F4F99
:100EB00085E291E00E94FF1A62E372E085E291E030
:100EC0000E94FF1AF80180814AE0BE016F5F7F4FE8
:100ED00090E00E94601BD8018C918A3018F464E382
:100EE00072E002C068E372E085E291E00E94FF1ABE
:100EF000BE016F5F7F4F85E291E00E94FF1A68E6B6
:100F000072E085E291E00E94FF1ABE016F5F7F4FA1
:100F1000F80184810E940906BE016F5F7F4F85E260
:100F200091E00E94FF1A64E672E085E291E00E947F
:100F3000FF1ABE016F5F7F4FD80115968C910E94FA
:100F40000906BE016F5F7F4F85E291E00E94FF1AA4
:100F500068E672E085E291E00E94FF1AF80187815D
:100F6000882319F06BE372E002C06FE372E085E260
:100F700091E02A960FB6F894DEBF0FBECDBFDF9189
:100F8000CF911F910F910C94FF1A0F931F93CF9342
:100F9000DF9300D0CDB7DEB74AE050E0BE016F5F0F
:100FA0007F4F0E94C919E981FA81208121110FC068
:100FB0008B019C0102501109210931090F341105DF
:100FC0002105310520F46093F80281E001C080E042
:100FD0000F900F90DF91CF911F910F910895811184
:100FE00008C080915A018B3320F48F5F80935A019F
:100FF000089510925A01809159019091200180FF2B
:1010000003C09093F40202C09093F5028B3320F456
:101010008F5F809359010895109259018091580172
:10102000873120F48F5F8093580108951092580102
:1010300008951F920F920FB60F9211242F933F9392
:101040004F935F936F937F938F939F93AF93BF93D0
:10105000EF93FF934B995BC0609158018CE090E057
:101060000E94D11B609159018BE090E00E94D11B3E
:1010700080911801882349F1609114018AE090E081
:101080000E94D11B6091150189E090E00E94D11B64
:101090006091120188E090E00E94D11B60911101E3
:1010A00087E090E00E94D11B6091100186E090E003
:1010B0000E94D11B6091130185E090E00E94D11B3A
:1010C0006091170184E090E00FC0609158018AE0C0
:1010D00090E00E94D11B6091590189E090E00E944C
:1010E000D11B6FEF88E090E00E94D11B809100013E
:1010F0008823C1F00E94F20C60E087E991E00E9431
:10110000A00561E08AE891E00E94A0050BC083E39E
:1011100090E00E94B80D80910001882319F08CE0C6
:101120000E94270DFF91EF91BF91AF919F918F91F9
:101130007F916F915F914F913F912F910F900FBED3
:101140000F901F9018951F920F920FB60F921124B7
:101150002F933F934F935F936F937F938F939F93BF
:10116000AF93BF93EF93FF938091A3039091A40358
:1011700084332CE0920734F401969093A403809377
:10118000A30344C11092A4031092A3038091F5021B
:10119000882341F05F985E9A8091F5028150809398
:1011A000F50201C05E988091F402882341F05E98B8
:1011B0005F9A8091F40281508093F40201C05F989D
:1011C00080916D03813021F41092A20310926D037F
:1011D0008091A203893020F48F5F8093A203FDC029
:1011E0001092A20380916C03882321F180916A03FD
:1011F0008B3330F480916A038F5F80936A031AC047
:1012000010926A03809169038B3330F480916903F3
:101210008F5F809369030EC0109269038091680309
:10122000873130F4809168038F5F8093680302C038
:10123000109268039091F202209158018091590117
:101240004CE3249F90011124280F311D4091690324
:10125000809168035CE3992399F0859FC001112474
:10126000840F911D8217930714F480569A4F821BA6
:10127000930B833625E0920774F1805A95402BC07A
:10128000859FC0011124840F911D213D42E0340748
:1012900014F0205D3240813D52E0950714F0805DEE
:1012A0009240A9012817390744F440535D4F481B69
:1012B000590B4E3351056CF405C0481B590B4E3386
:1012C00051052CF488279927841B950B04C0805363
:1012D0009D4F821B930B9093F7028093F6024B9BDA
:1012E00047C080916B038823D1F08091F6029091E2
:1012F000F7020097A1F0E4F180919F039091A00381
:101300001816190634F081E00E94EF0780911F0142
:1013100090E001979093A00380939F0329C0809150
:101320006B038823B9F08091F6029091F702892B24
:1013300089F48091680380935801809169038093B8
:10134000590180916A0380935A0110926B031092A5
:101350006C030EC080915C01882351F080911F01C5
:1013600090E09093A00380939F0380E00E94EF079A
:1013700080914E03882321F0815080934E030DC04D
:1013800085E080934E03809150038F5F883018F47E
:101390008093500302C0109250038091180188235B
:1013A00019F081508093180180911B0190911C01CC
:1013B000A0911D01B0911E018F3F2FEF9207A20750
:1013C000B20759F00196A11DB11D80931B019093A6
:1013D0001C01A0931D01B0931E018091A1038930CF
:1013E00020F48F5F8093A10302C01092A10380912B
:1013F000A10365E00E948F19911108C05D9B02C096
:101400005D9801C05D9A81E080934F03FF91EF9159
:10141000BF91AF919F918F917F916F915F914F910C
:101420003F912F910F900FBE0F901F901895EF9244
:10143000FF920F931F93CF93DF9300D0CDB7DEB70A
:101440007C010E94D10D9A8389839C0122273B71E4
:10145000232B89F58C0111270D30110539F48FEDFF
:1014600092E00E94FF0D6EE773E005C003301105A6
:1014700051F464E472E0C7010E94131B10927E03D2
:1014800081E090E01AC00E94EA0DEEE7F3E00190DF
:101490000020E9F73197EE57F340B09760F400521F
:1014A00011090F35110538F4BE016F5F7F4F8EE7CC
:1014B00093E00E94FF1A80E090E00F900F90DF9180
:1014C000CF911F910F91FF90EF9008951F920F926F
:1014D0000FB60F9211248F939F93EF93FF93E1E840
:1014E000F0E08081887F8083EFE6F0E080818E7F6E
:1014F00080838FEF9FEF9093850080938400FF910E
:10150000EF919F918F910F900FBE0F901F901895A4
:101510001F920F920FB60F9211242F933F934F9368
:101520005F936F937F938F939F93AF93EF93FF930B
:1015300050911A014A9B5DC080918100887F809301
:10154000810080916F008E7F80936F008091840076
:101550009091850090937D0380937C031092850089
:101560001092840080918100856080938100809139
:101570006F00816080936F0020917C0330917D0328
:10158000513089F480917A0390917B03820F931FED
:10159000855F9C418F31934030F084E08093190146
:1015A00082E080931A012D5136432F3A344008F0DF
:1015B0008FC1809118018833B0F08091F3028823A5
:1015C00091F08091140180936803809115018093BC
:1015D000690310926A0381E080936B0380936C032C
:1015E00016BC80936D031092A50381E080931A01CD
:1015F0006FC180918100887F8093810080916F000E
:101600008E7F80936F0080918400909185009093ED
:101610007B0380937A03109285001092840080915E
:10162000810085608093810080916F00816080934C
:101630006F00513009F04CC180917A0390917B0387
:101640009C01215235404091A503233F314030F4A5
:10165000E42FF0E0EA55FC4F508311C088579240C8
:101660008B32914030F4E42FF0E0EA55FC4F1082C9
:1016700006C085E08093190182E080931A01809171
:101680001A01813009F021C14A3308F41EC180914A
:10169000B803809317018091BB03ECEBF3E0982F24
:1016A0002191922733E0E23CF307D1F72091C20366
:1016B00029132AC02091BE0358E0259FB0011124B0
:1016C0009091BD0354E0959F90011124262B822B0D
:1016D0002091BC03220F282B8091C10394E0899FA5
:1016E000B00111249091C003892F90E0880F991FB9
:1016F000862B972B3091BF03832B3AE0839F200DDD
:1017000011242093150103C082E080931A01909167
:10171000C3035091C403892F85273091C5038327C4
:101720006091C6038627A091C7038A272091C8032A
:1017300082277091C90378131BC080911A018130F0
:10174000B9F488E0689FF001112484E0389FB0016B
:1017500011246E2B962B550F952B30E0220F331F43
:101760002A2B5AE0259F900D11249093140103C059
:1017700082E080931A018091CA03EBECF3E0982F8A
:101780002191922763E0E03EF607D1F72091E00334
:10179000291395C090911A01913009F090C02091C1
:1017A000CD0398E0299FB00111249091CC0354E01F
:1017B000959F90011124262B822B9091CB03990F9A
:1017C000892B2091CF0330E0220F331F9091CE035D
:1017D000292B6AE0269F800D1124809312018091AD
:1017E000D20324E0829FC00111249091D103990F6C
:1017F000892B9091D003892B809313018091D6037C
:1018000038E0839FB00111242091D50354E0259F37
:10181000C0011124862B2091D303982F922B809105
:10182000D403880F892B9091D7036AE0969F800D8F
:101830001124809311016091DF0388E0689FB0015B
:1018400011248091DE0324E0829FC0011124682BC3
:10185000792B8091DC03682B8091DD0390E0880F69
:10186000991F682B792B8091DB0338E0839FF0016F
:1018700011242091DA0354E0259FC00111248E2BFE
:101880002091D803982F922B8091D903880F892B10
:101890009AE0699F800D1124809310018BE380935F
:1018A00018011092190182E080931A0110921B0115
:1018B00010921C0110921D0110921E0106C083E0BF
:1018C0008093190182E080931A014F5F4093A50332
:1018D000FF91EF91AF919F918F917F916F915F9168
:1018E0004F913F912F910F900FBE0F901F90189521
:1018F000439A00C043980895CF93C82F662311F0F0
:10190000459A01C0459844983A9A399A389A229A49
:101910002A98409841984298C7FD2A9AC6FD409A55
:10192000C5FD419AC4FD429A0E94780C2A984098BD
:1019300041984298C3FD2A9AC2FD409AC1FD419A3E
:10194000C0FD429A0E94780C429A419A409A2A9A83
:10195000CF9108954598449A3A98399838982298A2
:10196000439A00C0329B02C080E101C080E03199FF
:101970008062309980641A998068439800C0439AC5
:1019800000C03299816031998260309984601A99DF
:101990008860439808950E94AA0C87FDFCCF84E0DC
:1019A00090E00197F1F70C94AA0CCF93C82F0E94F6
:1019B000CB0C60E08C2FCF910C947C0CCF93C82F74
:1019C0000E94CB0C61E08C2FCF910C947C0C6111A8
:1019D00002C0805801C080540C94D50C0E94CB0CDE
:1019E00090E0089581E00C94D50C82E00C94D50C25
:1019F000CF93C82F0E94CB0CCA3049F4803410F02A
:101A000080E001C080E48058CF910C94D50C61E057
:101A10008C2FCF910C947C0CCF93DF93EC018991A8
:101A2000882319F00E94F80CFACFDF91CF91089526
:101A3000CF93DF93FC018491EF012196882321F05D
:101A40000E94F80CFE01F7CFDF91CF9108951F930C
:101A5000CF93DF93182F3A9A399A389A229A3D9A5F
:101A60003C9A3B9A80E09DE70197F1F7419A429AB0
:101A70000E94780C80E097E20197F1F70E94780CC1
:101A8000C0E8D0E0CE010197F1F70E94780CCE01BA
:101A90000197F1F742980E94780C2197F1F788E2BC
:101AA0000E94D50C88E00E94D50C0E94F20C86E0C2
:101AB0000E94D50C812FDF91CF911F910C94D50CF2
:101AC0001F920F920FB60F9211242F938F939F9313
:101AD000EF93FF938091C0009091C6008871E091D0
:101AE000E403EF5FEF712091E303E21739F0E09335
:101AF000E403F0E0E951FC4F908301C082E0909153
:101B0000E203892B8093E203FF91EF919F918F91E4
:101B10002F910F900FBE0F901F9018951F920F924C
:101B20000FB60F9211248F939F93EF93FF93909191
:101B3000E6038091E503981769F0E091E503EF5F14
:101B4000EF71E093E503F0E0E95FFB4F8081809364
:101B5000C60005C08091C1008F7D8093C100FF91B8
:101B6000EF919F918F910F900FBE0F901F9018953E
:101B70001092E6031092E5031092E4031092E3033F
:101B800097FF04C022E02093C0009F779093C50088
:101B90008093C40088E98093C10086E08093C200EE
:101BA00008959091E4038091E303981781F0E09108
:101BB000E303EF5FEF71E093E303F0E0E951FC4FE3
:101BC00080819091E2031092E20390E0089580E01A
:101BD00091E008959091E6039F5F9F712091E50346
:101BE0009217E1F3E92FF0E0E95FFB4F80839093D8
:101BF000E6038091C10080628093C1000895CF9375
:101C0000DF93EC018991882319F00E94EA0DFACF45
:101C1000DF91CF910895CF93DF93FC018491EF0181
:101C20002196882321F00E94EA0DFE01F7CFDF9173
:101C3000CF910895F999FECF8BE090E00E94C91BE7
:101C4000809359018C3340F48CE090E00E94C91BD2
:101C500080935801883120F0109258011092590158
:101C600081E090E00E94C91B882319F010925C016A
:101C700003C081E080935C0183E090E00E94C91B77
:101C800091E0811101C090E09093F30282E090E036
:101C90000E94C91B91E0811101C090E09093F20273
:101CA00080E090E00E94C91B8093200182508F3415
:101CB00018F084E0809320018091200190E001964B
:101CC0006AE070E00E949B196F5F60931F01789437
:101CD00083E390E00E94B80D86E492E00E94FF0D3D
:101CE0008BE492E00E94FF0D83E592E00E94FF0DDD
:101CF00088E691E00E94FF0D88E692E00E94FF0DC9
:101D000089E791E00E94FF0D8FED92E00E94FF0DA8
:101D100086E492E00E94FF0D82E691E00E94FF0DB2
:101D20008AB1806E8AB98AB1877E8AB95C9A8091BD
:101D30006900846080936900E99A16BC85B581606A
:101D400085BD80916E00816080936E008091F3026A
:101D500081110E945B054C9B1FC08CE00E94270DE7
:101D600060E080E00E94E70C0E94F20C81E080932A
:101D7000000160E088E691E00E94A00561E089E74B
:101D800091E00E94A005CAE0D0E012E004E025E066
:101D9000F22E36E0E32E77C01092000188B1817CEC
:101DA00088B987B18E6387B9EECF4B9BFECF809108
:101DB0005003811112C068E571E087E491E00E9450
:101DC0003E066AE073E080E292E00E94910669EFCD
:101DD00072E087E491E00E94910680915003813087
:101DE00009F456C080915003823009F474C0809188
:101DF0005003833009F483C080915003843009F488
:101E000094C080915003853009F4A9C0809150039B
:101E1000863009F4EBC080915003873009F499C1F2
:101E200080914F038111AFC180914F038111C1C1D6
:101E300060E188E593E00E94170A892B09F4B5CF89
:101E400064E472E088E593E00E940A1B892B09F0A4
:101E50000AC2109251038AE692E00E94FF0D10928E
:101E6000580365E472E088E593E00E94131B10922A
:101E700052031092290480915103811196CF82E67A
:101E800091E00E94FF0D87E0D82E93E0C92E8DCF00
:101E900080916B038823E1F06AE073E08FE092E0C9
:101EA0000E9491064AE06BE173E08091F602909106
:101EB000F7020E94601B6FED71E08BE193E00E94DE
:101EC000FF1A69EF72E08BE193E00E9491068ACFDE
:101ED0001093500387CF6AE073E08EEF91E00E9489
:101EE00091068091F30269EF72E0882319F089EE80
:101EF00091E002C083ED91E00E94910678CF80913D
:101F0000F302882379F06AE073E08FEE91E00E949B
:101F100091060E94D90669EF72E08DE393E00E947A
:101F200091066ACF0093500367CF8091F302882314
:101F300099F06AE073E083EC91E00E9491066BE116
:101F400073E0809119010E947D0569EF72E08BE1D9
:101F500093E00E94910655CFF092500352CF8091AA
:101F6000F302882309F43FC080911A018130D9F52A
:101F7000B090A503BA942AE32B15A8F16AE073E0A8
:101F800083EB91E00E94910668E572E08BE193E0BB
:101F90000E94131B6DE373E08B2D0E9409066DE315
:101FA00073E08BE193E00E94FF1A6DE572E08BE134
:101FB00093E00E94FF1AE091A503F0E0EB55FC4F7F
:101FC0008081813019F460ED72E002C066E372E056
:101FD0008BE193E00E94FF1A69EF72E08BE193E0DE
:101FE0000E94910613CFE092500310CF8091F3022C
:101FF000882309F4ABC080911801882309F4A6C096
:102000006FE572E08BE193E00E94131B6DE373E0D8
:10201000809114010E9409066DE373E08BE193E067
:102020000E94FF1A64E672E08BE193E00E94FF1ABF
:102030006DE373E0809115010E9409066DE373E082
:102040008BE193E00E94FF1A68E672E08BE193E077
:102050000E94FF1A80911701882319F06BE372E048
:1020600002C06FE372E08BE193E00E94FF1A6AE026
:1020700073E08BE193E00E949106E09113018E2FB3
:1020800090E0FC013197E730F105E8F4EE5BFF4F9B
:102090000C94AF1964E371E002C061E371E08BE17D
:1020A00093E00E94F31A15C06EE271E0F8CF6BE284
:1020B00071E0F5CF68E271E0F2CF65E271E0EFCF59
:1020C00067E371E0ECCF6EE272E08BE193E00E9497
:1020D000131B66E672E08BE193E00E94FF1A6DE34A
:1020E00073E0809112010E9409066DE373E08BE1B9
:1020F00093E00E94FF1A62E372E08BE193E00E949A
:10210000FF1A6DE373E0809111010E9409066DE3EF
:1021100073E08BE193E00E94FF1A62E372E08BE1CF
:1021200093E00E94FF1A6DE373E0809110010E941A
:1021300009066DE373E08BE193E00E94FF1A69EFFB
:1021400072E08BE193E00E94910665CED09250033D
:1021500062CE6AE073E087EA91E00E949106809186
:10216000F202882319F06EE573E002C063E573E0C4
:102170008BE193E00E94F31A69EF72E08BE193E048
:102180000E9491064DCE80910001882309F44CCE27
:1021900060E080E00E94E70C8AE093E00E940C0D72
:1021A00061E080E00E94E70C89EF92E00E940C0D54
:1021B00057C08091000181113BCE8091F3028823AA
:1021C00009F443C080911A01882341F0813021F045
:1021D000823021F4419902C0419A01C04198809116
:1021E00019019FEF980F923020F09CEF980F9230DA
:1021F00018F4429A43980BC0811107C080911801CE
:10220000882319F04298439A02C0439842988091DB
:102210001B0190911C01A0911D01B0911E018138FC
:1022200021E5920721E0A207B10558F481519E40B3
:10223000A109B10980379344A140B10520F4449B22
:1022400002C0449806C0449A04C0419844984398F8
:10225000429880916B03813011F4459A01C04598F2
:1022600010924F03E5CD63E772E088E593E00E94AA
:10227000FA1A46E050E0BC0182E593E00E942A1B76
:1022800063E772E080E090E00E94FA1A009781F024
:102290004AE050E0BC0189E294E00E942A1B65E715
:1022A00072E082E593E00E940A1B892BA9F408C022
:1022B0001092290480915103882309F44AC4D0C69E
:1022C00068E571E089E294E00E94C305892B09F07A
:1022D00075C08BEA92E04AC46AE772E082E593E057
:1022E0000E940A1B892B71F468E673E089E294E08E
:1022F0000E94C305892B69F381E080936B0380936F
:102300006C035CC06FE772E082E593E00E940A1BF9
:10231000892B71F468E673E089E294E00E94C305BA
:10232000892BB9F210926C0381E080936B0346C055
:1023300064E872E082E593E00E940A1B892B31F584
:1023400060ED72E089E294E00E940A1B892B59F447
:1023500081E08093F30261E083E090E00E94D11B72
:102360000E945B052BC066E372E089E294E00E9464
:102370000A1B892B09F0ADCF1092F30260E083E0D5
:1023800090E00E94D11B0E946B0518C069E872E0C2
:1023900082E593E00E940A1B892B01F560ED72E053
:1023A00089E294E00E940A1B892B59F481E0809312
:1023B000F20261E082E090E00E94D11B83EB92E0A8
:1023C000D5C366E372E089E294E00E940A1B892B80
:1023D00009F07FCF1092F20260E0ECCF6EE872E07D
:1023E00082E593E00E940A1B892BC1F489E294E004
:1023F0000E94C507882309F46CCF2091F80220932E
:102400002001822F90E00196BE010E949B196F5F10
:1024100060931F01622F80E090E0CECF63E972E00D
:1024200082E593E00E940A1B892BE1F460ED72E0E3
:1024300089E294E00E940A1B892B21F410925C012E
:1024400061E00DC066E372E089E294E00E940A1B3D
:10245000892B09F03ECF81E080935C0160E081E050
:1024600090E0AACF68E972E082E593E00E940A1B3F
:10247000892B09F0F6CC6EE972E089E294E00E94C3
:102480000A1B892B99F468E671E08BE193E00E94C6
:10249000131B8BE193E00E94FF0D61E271E08BE181
:1024A00093E00E94131B69E771E03FC061EA72E0AC
:1024B00089E294E00E940A1B892B09F047C08091B1
:1024C00058014AE06DE373E090E00E94601B6DE309
:1024D00073E08BE193E00E94131B42E050E061E265
:1024E00071E08BE193E00E941A1B809159014AE050
:1024F0006DE373E090E00E94601B6DE373E08BE19D
:1025000093E00E94FF1A42E050E061E271E08BE14B
:1025100093E00E941A1B80915A014AE06DE373E038
:1025200090E00E94601B6DE373E08BE193E00E94FA
:10253000FF1A42E050E063E271E08BE193E00E9419
:102540001A1B8BE193E00E94FF0D38CF65EA72E021
:1025500089E294E00E940A1B892B79F58091680337
:102560004AE06DE373E090E00E94601B6DE373E06E
:102570008BE193E00E94131B42E050E061E271E0C6
:102580008BE193E00E941A1B809169034AE06DE39E
:1025900073E090E00E94601B6DE373E08BE193E0D9
:1025A0000E94FF1A42E050E061E271E08BE193E0AB
:1025B0000E941A1B80916A03B0CF69EA72E089E237
:1025C00094E00E940A1B892B09F016C1809110012A
:1025D0004AE06DE373E090E00E94601B6DE373E0FE
:1025E0008BE193E00E94131B42E050E061E271E056
:1025F0008BE193E00E941A1B809111014AE06DE388
:1026000073E090E00E94601B6DE373E08BE193E068
:102610000E94FF1A42E050E061E271E08BE193E03A
:102620000E941A1B8BE193E00E94FF0D8091120122
:102630004AE06DE373E090E00E94601B6DE373E09D
:102640008BE193E00E94131B42E050E061E271E0F5
:102650008BE193E00E941A1B809113014AE06DE325
:1026600073E090E00E94601B6DE373E08BE193E008
:102670000E94FF1A42E050E061E271E08BE193E0DA
:102680000E941A1B809114014AE06DE373E090E010
:102690000E94601B6DE373E08BE193E00E94FF1AE0
:1026A00042E050E061E271E08BE193E00E941A1B8E
:1026B0008BE193E00E94FF0D809115014AE06DE3EC
:1026C00073E090E00E94601B6DE373E08BE193E0A8
:1026D0000E94131B42E050E061E271E08BE193E065
:1026E0000E941A1B809116014AE06DE373E090E0AE
:1026F0000E94601B6DE373E08BE193E00E94FF1A80
:1027000042E050E061E271E08BE193E00E941A1B2D
:10271000809117014AE06DE373E090E00E94601B36
:102720006DE373E08BE193E00E94FF1A42E050E01A
:1027300061E271E08BE193E00E941A1B8BE193E070
:102740000E94FF0D809118014AE06DE373E090E074
:102750000E94601B6DE373E08BE193E00E94131B0A
:1027600042E050E061E271E08BE193E00E941A1BCD
:10277000809119014AE06DE373E090E00E94601BD4
:102780006DE373E08BE193E00E94FF1A42E050E0BA
:1027900061E271E08BE193E00E941A1B80911A01C3
:1027A0004AE06DE373E090E00E94601B6DE373E02C
:1027B0008BE193E00E94FF1A42E050E061E271E099
:1027C0008BE193E00E941A1B8BE193E00E94FF0DC6
:1027D00060911B0170911C0180911D0190911E015F
:1027E0002AE04DE353E00E946B1B6DE373E08BE145
:1027F00093E00E94131B9DCE6DEA72E089E294E0A3
:102800000E940A1B892B09F049C08091A5034AE068
:102810006DE373E090E00E94601B6DE373E08BE179
:1028200093E00E94131B42E050E061E271E08BE113
:1028300093E00E941A1B8BE193E00E94FF0D10921F
:10284000F802E091F802EC3330F5F0E0EA55FC4F85
:1028500080814AE06DE373E090E00E94601B6DE3CD
:1028600073E08BE193E00E94131B8091F8028B339D
:1028700041F042E050E061E271E08BE193E00E94C0
:102880001A1B8BE193E00E94FF0D8091F8028F5F8D
:102890008093F802D6CF83E291E055CE61EB72E0EF
:1028A00089E294E00E940A1B892B09F097C086E018
:1028B00090E00E94C91B4AE06DE373E090E00E9443
:1028C000601B6DE373E08BE193E00E94131B42E019
:1028D00050E061E271E08BE193E00E941A1B87E017
:1028E00090E00E94C91B4AE06DE373E090E00E9413
:1028F000601B6DE373E08BE193E00E94FF1A42E0FE
:1029000050E061E271E08BE193E00E941A1B88E0E5
:1029100090E00E94C91B4AE06DE373E090E00E94E2
:10292000601B6DE373E08BE193E00E94FF1A42E0CD
:1029300050E061E271E08BE193E00E941A1B8BE1B1
:1029400093E00E94FF0D85E090E00E94C91B4AE0E1
:102950006DE373E090E00E94601B6DE373E08BE138
:1029600093E00E94131B42E050E061E271E08BE1D2
:1029700093E00E941A1B8AE090E00E94C91B4AE083
:102980006DE373E090E00E94601B6DE373E08BE108
:1029900093E00E94FF1A42E050E061E271E08BE1B7
:1029A00093E00E941A1B89E090E00E94C91B4AE054
:1029B0006DE373E090E00E94601B6DE373E08BE1D8
:1029C00093E00E94FF1A42E050E061E271E08BE187
:1029D00093E00E941A1B84E090E0B8C065EB72E0BF
:1029E00089E294E00E940A1B892B09F08CC0809137
:1029F0005C014AE06DE373E090E00E94601B6DE3D0
:102A000073E08BE193E00E94131B42E050E061E22F
:102A100071E08BE193E00E941A1B80916C034AE005
:102A20006DE373E090E00E94601B6DE373E08BE167
:102A300093E00E94FF1A42E050E061E271E08BE116
:102A400093E00E941A1B80916B034AE06DE373E0F0
:102A500090E00E94601B6DE373E08BE193E00E94C5
:102A6000FF1A42E050E061E271E08BE193E00E94E6
:102A70001A1B8BE193E00E94FF0D4AE06DE373E0C7
:102A80008091F6029091F7020E94601B6DE373E063
:102A90008BE193E00E94131B42E050E061E271E0A1
:102AA0008BE193E00E941A1B8091F3024AE06DE3F0
:102AB00073E090E00E94601B6DE373E08BE193E0B4
:102AC0000E94FF1A42E050E061E271E08BE193E086
:102AD0000E941A1B8091F2024AE06DE373E090E0DD
:102AE0000E94601B6DE373E08BE193E00E94FF1A8C
:102AF00042E050E061E271E08BE193E00E941A1B3A
:102B0000809120010ACD69EB72E089E294E00E9495
:102B10000A1B892B09F0DDCB8CE090E00E94C91BD9
:102B20004AE06DE373E090E00E94601B6DE373E0A8
:102B30008BE193E00E94131B42E050E061E271E000
:102B40008BE193E00E941A1B8BE090E00E94C91B6E
:102B5000E4CC66E772E088E593E00E940A1B892BCB
:102B600041F481E08093510389E395E00E940B0ECC
:102B700078C96DEB72E088E593E00E940A1B892B0F
:102B8000D9F48BE492E00E94FF0D88E691E00E9468
:102B9000FF0D8FED92E00E94FF0D83E997E00E9408
:102BA0000B0E89E791E00E94FF0D8FED92E00E94ED
:102BB000FF0D85E29AE0DACF60E872E088E593E005
:102BC0000E940A1B892B61F48091F302811105C0D8
:102BD0001093510383E195E0C9CF80ED94E0C6CF17
:102BE0006BE772E088E593E00E940A1B892B49F4A9
:102BF0008091F3028111F1CFC092510383EF94E0F1
:102C0000B5CF65E872E088E593E00E940A1B892B46
:102C100081F40093510389E494E00E940B0E8091AB
:102C2000F302882319F080E394E0A0CF86E194E0DA
:102C30009DCF64E972E088E593E00E940A1B892B2E
:102C400081F4F092510382EC94E00E940B0E80918B
:102C50005C01882319F087EA94E088CF84E894E047
:102C600085CF6AE872E088E593E00E940A1B892B11
:102C700081F4E09251038FEB93E00E940B0E809160
:102C8000F202882319F084E993E070CF89E693E09B
:102C90006DCF61EC72E088E593E00E940A1B892BFE
:102CA00041F066EC72E088E593E00E940A1B892BF4
:102CB00019F481EB97E05ACF6FE872E088E593E072
:102CC0000E940A1B892B29F4D092510385EE91E0D2
:102CD0004DCF69E972E088E593E00E940A1B892BD9
:102CE00009F0B0C18BE492E00E94FF0D88E691E00C
:102CF0000E94FF0D8FED92E00E94FF0D83E997E0A7
:102D00000E940B0E89E791E00E94FF0D8FED92E08B
:102D10000E94FF0D68E571E087E491E00E943E06A5
:102D20008AE697E00E940B0E87E491E00E94FF0D77
:102D30008CE497E00E940B0E80916B03882321F1B5
:102D400068E673E087E491E00E943E0683E592E046
:102D50000E940B0E87E491E00E94FF0D4AE06DE3B4
:102D600073E08091F6029091F7020E94601B88E662
:102D700092E00E94FF0D8DE393E00E94FF0D82E739
:102D800092E00E940B0E04C088EC92E00E94FF0DBE
:102D900084ED95E00E940B0E8091F202882319F0D9
:102DA0008EE593E002C083E593E00E940B0E8CEB6E
:102DB00096E00E940B0E8091F302882309F47CC0F8
:102DC00081E896E00E940B0E80911201882349F061
:102DD00080E191E00E94F00685E291E00E94FF0D03
:102DE00004C082E694E00E940B0E84E596E00E9407
:102DF0000B0E6DE373E0809119010E947D058DE358
:102E000093E00E94FF0D80E396E00E940B0E0E946B
:102E1000D9068DE393E00E94FF0D80911A01813065
:102E200021F58091A503882301F180E992E00E94B9
:102E30000B0E8091A50390E04AE06DE373E00197EB
:102E40000E94601B8DE393E00E94FF0DE091A503BB
:102E5000F0E0EB55FC4F8081813019F48FEC92E06B
:102E600002C082ED92E00E94FF0D80911B019091C3
:102E70001C01A0911D01B0911E018F3F9F4FAF4FCC
:102E8000BF4FF1F080E096E00E940B0E60911B01B5
:102E900070911C0180911D0190911E012AE04DE36B
:102EA00053E00E946B1B8DE393E00E94FF0D86E7C9
:102EB00091E00E940B0E04C083ED91E00E94FF0D93
:102EC0008FED92E00E94FF0D89E090E00E94C91B07
:102ED0008F3F09F457C08FE197E00E940B0E88E006
:102EE00090E00E94C91B8F3F89F189E090E00E9429
:102EF000C91B809306018AE090E00E94C91B809361
:102F0000050188E090E00E94C91B8093030187E0DF
:102F100090E00E94C91B8093020186E090E00E942D
:102F2000C91B8093010184E090E00E94C91B80933B
:102F3000080185E090E00E94C91B8093040181E0B4
:102F400091E00E94F00685E291E016C089E090E0F1
:102F50000E94C91B809375038AE090E00E94C91B00
:102F6000809374031092760364E773E08DE393E03B
:102F70000E943E068DE393E00E94FF0D8FED92E0EC
:102F80000E94FF0D8BE090E00E94C91B8F3F01F172
:102F900089ED96E00E940B0E8BE090E00E94C91B29
:102FA00080936F038CE090E00E94C91B80936E03B6
:102FB000109270036EE673E08DE393E00E943E068C
:102FC0008DE393E00E94FF0D8FED92E00E94FF0DD4
:102FD0008FEA95E00E940B0E80910001882319F082
:102FE00082E392E002C08EE292E00E940B0E8FED2F
:102FF00092E00E94FF0D86E895E00E940B0E809102
:1030000020014AE06DE373E090E00E94601B8DE3D5
:1030100093E00E94FF0D85ED92E00E94FF0D8BE58D
:1030200095E00E940B0E80911F014AE06DE373E072
:1030300090E00E94601B8DE393E00E94FF0D8CEDF9
:1030400092E00AC082EE92E00E94FF0D89EF92E0CA
:103050000E940B0E86E492E00E94FF0D0C94310F4B
:103060008130F9F468E571E088E593E00E94C305DA
:10307000892B39F08AEE92E00E94FF0D88EB92E0F6
:1030800006C082EE92E00E94FF0D80EE92E00E9468
:103090000B0E86E492E00E94FF0D109251030C94F7
:1030A000310F8230D1F468E673E088E593E00E9446
:1030B000C305892B31F38AEE92E00E94FF0D88EB65
:1030C00092E00E940B0E86E492E00E94FF0D1092A7
:1030D0006C0381E080936B03E0CF8330D1F468E62A
:1030E00073E088E593E00E94C305892B51F28AEED4
:1030F00092E00E94FF0D88EB92E00E940B0E86E4A6
:1031000092E00E94FF0D81E080936B0380936C033B
:10311000C4CF843009F047C060E671E088E593E0F1
:103120000E940A1B892B89F58091F302811117C037
:103130008AEE92E00E94FF0D8BEE93E00E940B0E50
:1031400086E492E00E94FF0D81E08093F30261E04B
:1031500083E090E00E94D11B0E945B059ECF8AEE27
:1031600092E00E94FF0D8EEC93E00E940B0E86E42D
:1031700092E00E94FF0D1092F30260E083E090E085
:103180000E94D11B0E946B0588CF6EE571E088E537
:1031900093E00E940A1B892B09F47FCF80E492E020
:1031A0000E940B0E7ACF853081F560E671E088E5EC
:1031B00093E00E940A1B892B09F05BC080915C019F
:1031C000811111C08BE492E00E94FF0D8FEC92E020
:1031D0000E940B0E86E492E00E94FF0D81E0809336
:1031E0005C0160E00FC08BE492E00E94FF0D8DEB6C
:1031F00092E00E940B0E86E492E00E94FF0D109276
:103200005C0161E081E090E031C0863009F041C0AE
:1032100060E671E088E593E00E940A1B892B49F57E
:103220008091F202811111C08AEE92E00E94FF0D9E
:1032300084E393E00E940B0E86E492E00E94FF0D6F
:1032400081E08093F20261E00FC08AEE92E00E947A
:10325000FF0D85E193E00E940B0E86E492E00E9450
:10326000FF0D1092F20260E082E090E00E94D11B1C
:1032700014CF6EE571E088E593E00E940A1B892B6C
:1032800009F40BCF82EE92E00E94FF0D80E492E001
:10329000FECE873009F001CF88E593E00E94C50794
:1032A000882381F32091F80220932001822F90E05F
:1032B0000196BE010E949B196F5F60931F01622FF0
:1032C00080E090E00E94D11B8AEE92E00E94FF0D08
:1032D00081EC91E00E940B0E809120014AE06DE3A9
:1032E00073E090E00E94601B8DE393E00E94FF0D6D
:1032F00081EB91E00E940B0E8DE891E00E940B0E95
:1033000080911F014AE06DE373E090E00E94601B32
:103310008DE393E00E94FF0D80E891E0B8CE991B09
:1033200079E004C0991F961708F0961B881F7A95BC
:10333000C9F78095089597FB072E16F4009407D0DF
:1033400077FD09D00E94B51907FC05D03EF4909591
:1033500081959F4F0895709561957F4F0895EE0F69
:10336000FF1F0590F491E02D0994AA1BBB1B51E1AE
:1033700007C0AA1FBB1FA617B70710F0A61BB70BE5
:10338000881F991F5A95A9F780959095BC01CD018A
:103390000895A0E0B0E0EFECF9E10C941D1C5C0195
:1033A0006B017A016115710519F0FB01918380832E
:1033B000E114F10429F0C7010297839708F0E5C0F2
:1033C000E5012196F5011081812F90E00E94DF1A1E
:1033D000892B11F05E01F4CF1D3229F42196F501FD
:1033E000118101E007C01B3221F4E5012296F501AD
:1033F000118100E0E114F10409F1F0E1EF16F104AC
:1034000029F43FC010E3E114F10421F128E0E216B1
:10341000F10401F154F4E2E0EE16F10421F5812CFF
:10342000912CA12CB0E4BB2E3EC0FAE0EF16F104C3
:1034300039F020E1E216F104B1F430C0103319F193
:10344000FAE0EF2EF12CACEC8A2E982CA82CACE0F4
:10345000BA2E29C078E0E72EF12C812C912CA12CDA
:10346000E0E1BE2E20C060E070E080E090E89701CF
:103470000F2C000C440B550B0E94EF1B49015A0105
:1034800012C0103359F488818F7D883509F0BACF86
:1034900019812296026080E1E82EF12C812C912C7A
:1034A000A12C68E0B62E40E060E070E0CB0127017F
:1034B0000F2C000C66087708FE0150ED352E310EFA
:1034C00029E0231570F42FEB210F2A3118F439EC81
:1034D000332E06C02FE9210F2A3118F529EA322EA2
:1034E000310E232D30E02E153F05DCF447FD16C0CC
:1034F00086169706A806B90670F0A30192010E94ED
:10350000DF1B630D711D811D911D613071058105EA
:1035100020E8920710F04FEF01C041E021961081A2
:10352000CBCF202F2170C114D10471F0442329F096
:103530002197F601D183C08307C001FF19C02297EC
:10354000F601D183C08314C047FF12C0222329F0A3
:1035500060E070E080E090E804C06FEF7FEF8FEFF5
:103560009FE722E230E0309334042093330409C013
:10357000222381F090958095709561957F4F8F4FB4
:103580009F4F462F372F282F12C040E030E020E019
:1035900090E00DC097FFF5CF82E290E09093340465
:1035A000809333046FEF7FEF8FEF9FE7EACF642FB5
:1035B000732F822FCDB7DEB7E1E10C94391C911146
:1035C0000C94B61B803219F089508550C8F70895C5
:1035D000FB01DC010D900020E9F7119705900D9299
:1035E0000020E1F70895FB01DC0105900D92002019
:1035F000E1F7089547E254E00E94391B0895FB016A
:10360000DC010D900020E9F7119701900D92002048
:10361000E1F70895FB01DC018D9101908019011003
:10362000D9F3990B0895FB01DC0101900D92002064
:10363000E1F70895FB01DC010D900020E9F71197F7
:103640004150504028F0019000200D92C9F7089594
:103650001C920895FB01DC014150504048F001905C
:103660000D920020C9F701C01D9241505040E0F773
:103670000895FA01A191B081009719F41097E1F033
:10368000CD01DC01CD010D90002011F4C00113C06B
:10369000FB012191222319F02015D9F7F3CFFB016B
:1036A0002191201519F41E92119606C02223C1F70C
:1036B0000D900020A1F7D001FA01A193B0830895E5
:1036C000BB274A3031F4992322F4BDE290958195CD
:1036D0009F4F0C949D1BBB272A3051F4992342F431
:1036E000BDE290958095709561957F4F8F4F9F4F6C
:1036F0000C947B1BBB27FA01A62F6217710581056D
:103700009105330B30FB66F0AA27660F771F881FE1
:10371000991FAA1FA21710F0A21B63953850A9F792
:10372000A05DAA3308F0A95DA19336F7B111B1935A
:103730001082CA010C94B91BBB27FB015527AA278D
:10374000880F991FAA1FA41710F0A41B839550512E
:10375000B9F7A05DAA3308F0A95DA193009779F7A6
:10376000B111B1931192CB010C94B91B9927882701
:103770000895DC01FC01672F71917723E1F73297FF
:1037800004C07C916D9370836291AE17BF07C8F33C
:103790000895F999FECF92BD81BDF89A992780B519
:1037A0000895262FF999FECF1FBA92BD81BD20BD85
:1037B0000FB6F894FA9AF99A0FBE01960895DB01B4
:1037C0008F939F930E94111CBF91AF91A29F800D78
:1037D000911DA39F900DB29F900D11240895A1E219
:1037E0001A2EAA1BBB1BFD010DC0AA1FBB1FEE1F7B
:1037F000FF1FA217B307E407F50720F0A21BB30BC6
:10380000E40BF50B661F771F881F991F1A9469F741
:1038100060957095809590959B01AC01BD01CF019D
:1038200008950E94531CA59F900DB49F900DA49FD6
:10383000800D911D112408952F923F924F925F9217
:103840006F927F928F929F92AF92BF92CF92DF92B0
:10385000EF92FF920F931F93CF93DF93CDB7DEB715
:10386000CA1BDB0B0FB6F894DEBF0FBECDBF0994A9
:103870002A88398848885F846E847D848C849B8400
:10388000AA84B984C884DF80EE80FD800C811B810E
:10389000AA81B981CE0FD11D0FB6F894DEBF0FBE3D
:1038A000CDBFED010895A29FB001B39FC001A39FBA
:1038B000700D811D1124911DB29F700D811D112469
:0838C000911D0895F894FFCF5B
:1038C800010000000000000001000600FFFFFFFFEC
:1038D8000000000000000001000600FFFFFFFF01DC
:1038E800042C003B002D2D2D2D2D2D2D2D2D2D2083
:1038F8002D2D2E2D2D2E2D2D2D2D202D2D3A2D2DEE
:10390800202D2D2D2D00002D2D3A2D2D3A2D2D0059
:1039180000000000000000000000000001006E0030
:103928006A006D753A3E20005241204D75747465E9
:1039380072756872000000000056322E3030623313
:1039480000000000000000000000617573676566F4
:10395800616C6C656E21005374726F6D766572735D
:103968006F7267756E670053796E63204D6F64756B
:10397800733A00444346373720456D7066616E6779
:10398800653A004443462041757377657274756ED5
:10399800673A006465616B746976696572740020C2
:1039A8004D696E7574656E2E00416B7469760044BE
:1039B80043463737205374617475733A2000444383
:1039C8004637372053796E636D6F6475733A0053C9
:1039D800796E6368726F6E6973696572652E2E0001
:1039E8004E6562656E7568727A6569743A002D2D48
:1039F8002D002E00323030003230004D455A004D37
:103A080045535A0003001B5B306D001B5B33373B8B
:103A1800316D001B5B324A004249543A003D004474
:103A2800434637373A00202D2000535452472D4340
:103A38000A0D003B005F736D74005F617374005F73
:103A48006E7374005F646366005F73736D005F7309
:103A58007077005F707374005F73746174006776C9
:103A68000067737400676E74006764370067646189
:103A780000676C700067677300676C730041545A85
:103A88000068656C70003F006E6F726D616C003D80
:103A980031003D300030306D730D0A007365630DE1
:103AA8000A001B5B33313B316D001B5B33323B310A
:023AB8006D009F
:00000001FF
