:100000000C9435050C94670A0C9412080C94520554
:100010000C9452050C9452050C9452050C94520504
:100020000C9452050C9452050C9452050C945205F4
:100030000C9452050C94450A0C9452050C945205EC
:100040000C949C080C9452050C945F0D0C948D0D2F
:100050000C9452050C9452050C9452050C945205C4
:100060000C9452050C9452058205850588058B0574
:100070008E05910594050D07100717071A071D0730
:10008000200723074B104E10551058105B105E10C0
:100090006110556E62656B616E6E740057617274AB
:1000A000652061756620446174656E00456D7066FB
:1000B000616E676520446174656E00496E6974699C
:1000C000616C7369657265004B65696E205374617C
:1000D000747573004552522D50756C73646175656B
:1000E00072004552522D4461756572506572696F98
:1000F0006465004552522D5061722E204461747522
:100100006D004552522D5061722E204D696E7574EE
:1001100065004552522D5061722E205374756E64E5
:1001200065006F6B00536100467200446F004D69BB
:10013000004469004D6F00536F0053616D7374612B
:1001400067004672656974616700446F6E6E657220
:1001500073746167004D697474776F6368004469F4
:10016000656E73746167004D6F6E74616700536FE5
:100170006E6E746167002053656B756E64656E000A
:10018000732067657365747A742E0D0A0041757368
:1001900067616E6773696D70756C7365696E7465A0
:1001A0007276616C207775726465206175663A209D
:1001B0000030306D732067657365747A742E0D0A94
:1001C0000041757367616E6773696D70756C7377E5
:1001D0006569746520777572646520617566202095
:1001E0002020203A0041757367616E6773696D70F6
:1001F000756C7377656974652061656E6465726E90
:100200002028696E203130306D732C206D6F65674A
:100210006C696368652057657274653A20327C3377
:100220007C347C2E2E2E2E7C3830293A20004175CD
:100230007300416B746976002D3E706175736500C3
:1002400046616C736368652045696E676162652EFF
:100250000D0A0073796E6368726F6E6973696572F7
:1002600065204E6562656E756872656E20617566A3
:100270002000204D696E757465286E29207A7520DE
:1002800073796E6368726F6E6973696572656E000B
:100290002C2067657261646520656D7066616E67AC
:1002A000656E6573204269743A20004552524F5280
:1002B0000D0A004F4B0D0A006F6B0D0A0055687256
:1002C00020616E676568616C74656E2E0D0A00555D
:1002D0006872206765737461727465742E0D0A000C
:1002E000556E6775656C7469676573205A656974C6
:1002F000666F726D61740D0A004B6F6D6D616E6497
:100300006F20657869737469657274206E696368BB
:10031000742E0D0A00313268205374756E64656E58
:10032000204D6F64757320616B74697669657274B2
:100330002E0D0A00323468205374756E64656E2089
:100340004D6F64757320616B746976696572742E84
:100350000D0A003132205374756E64656E003234BC
:10036000205374756E64656E003132205374756E5F
:1003700064656E2E20417566203234205374756E8C
:1003800064656E207365747A656E3F20286A7C6EA2
:10039000293A20003234205374756E64656E2E2025
:1003A000417566203132205374756E64656E20731A
:1003B00065747A656E3F20286A7C6E293A20005366
:1003C000796E636D6F6475732069737420004443A4
:1003D0004637372053796E6368726F6E6973617444
:1003E000696F6E206175732E0D0A004443463737DE
:1003F0002053796E6368726F6E69736174696F6E92
:100400002065696E2E0D0A006175732E2045696E98
:10041000736368616C74656E3F20286A7C6E293A4C
:100420002000616E2E20417573736368616C746582
:100430006E3F20286A7C6E293A20004443462053B0
:100440007963686E726F6E69737461696F6E20692B
:10045000737420004E6F6368206B65696E6520447D
:100460004346373720446174656E20656D70666160
:100470006E67656E2E0073696E6420616E676568D5
:10048000616C74656E2E205374617274656E203FCA
:1004900020286A7C6E293A20006C617566656E2E94
:1004A00020416E68616C74656E203F20286A7C6E06
:1004B000293A20004E6562656E75687228656E295E
:1004C00020004269747465204443463737207A75AA
:1004D00065727374206465616B74697669657265B1
:1004E0006E210D0A005374656C6C65204E65626563
:1004F0006E756872656E20617566202878783A7826
:1005000078293A20005374656C6C65204E656265ED
:100510006E756872656E206578616B7420617566B2
:10052000202878783A7878293A20005A656974202A
:100530006175662064656E204E6562656E756872D1
:10054000656E202878783A7878293A20001B5B334A
:10055000373B316D41757367616E6773696D707597
:100560006C73696E74657276616C1B5B37433A20FD
:100570001B5B303B33376D001B5B33373B316D41C9
:10058000757367616E6773696D70756C7377656994
:1005900074651B5B3130433A201B5B303B33376D56
:1005A000001B5B33373B316D4C434420446973700F
:1005B0006C6179206973741B5B3134433A201B5B97
:1005C000303B33376D000D0A1B5B33373B316D53C6
:1005D000796E6368726F6E69736174696F6E736D43
:1005E0006F6475731B5B38433A201B5B303B3337BA
:1005F0006D000D0A1B5B33373B316D444346373783
:10060000206C65747A746572204B6F6D706C6574C4
:1006100074656D7066616E673A201B5B303B3337E3
:100620006D000D0A1B5B33373B316D444346373752
:10063000205374617475731B5B3137433A201B5B25
:10064000303B33376D000D0A1B5B33373B316D4454
:1006500043463737204C65747A746573204572675A
:1006600065626E69731B5B37433A201B5B303B331B
:10067000376D00616B746976696572740D0A1B5B76
:1006800033373B316D4C65747A746573204443464F
:10069000373720456D7066616E6773646174756D80
:1006A0001B5B32433A201B5B303B33376D000D0A36
:1006B0001B5B33373B316D44434637371B5B32346A
:1006C000433A201B5B303B33376D001B5B33373BBA
:1006D000316D5A65697420617566204E6562656E7C
:1006E000756872656E206265690D0A6C65747A744E
:1006F000656D205370616E6E756E6773617573669C
:10070000616C6C1B5B35433A201B5B303B33376DB0
:10071000001B5B33373B316D4C65747A7465722016
:100720005370616E6E756E677361757366616C6C24
:100730001B5B35433A201B5B303B33376D000D0AA2
:100740001B5B33373B316D5374617475731B5B32C4
:1007500033433A201B5B303B33376D001B5B333731
:100760003B316D5A65697420617566204E6562651E
:100770006E756872656E1B5B3130433A201B5B30CF
:100780003B33376D001B5B33373B316D4669726D10
:10079000776172651B5B3231433A201B5B303B3320
:1007A000376D00201B5B33373B316D5665726675C4
:1007B000656762617265204B6F6D6D616E646F730A
:1007C0003A0D0A201B5B33373B316D646366201B97
:1007D0005B303B33376D2D3E2053796E6368726F0B
:1007E0006E69736174696F6E206D6974204443464D
:1007F0003737206A617C6E65696E2E0D0A201B5B9F
:1008000033373B316D736D74201B5B303B33376D79
:100810002D3E204D75747465727568722061756621
:10082000205A65697420766F6E204E6562656E751C
:100830006872656E207374656C6C656E2E0D0A208F
:100840001B5B33373B316D6E7374201B5B303B3366
:10085000376D2D3E204E6562656E756872656E203F
:10086000617566206578616B7420646965736520C5
:100870005A656974207374656C6C656E284E696383
:10088000687420696D204443463737204D6F647586
:1008900073292E0D0A201B5B33373B316D61737456
:1008A000201B5B303B33376D2D3E204E6562656EFD
:1008B000756872656E206175662064696573652070
:1008C0005A656974207374656C6C656E2E205A6568
:1008D000697420646965206461667565722062656B
:1008E0006EF67469677420776972642C2077697278
:1008F000642068696E7A7561646469657274202821
:100900004E6963687420696D204443463737204D33
:100910006F647573292E0D0A201B5B33373B316DD5
:10092000707374201B5B303B33376D2D3E204D754B
:10093000747465722D20756E64204E6562656E75E7
:100940006872656E20616E68616C74656E2E2853E6
:10095000796E6368726F6E69736174696F6E206619
:10096000756E6B74696F6E696572742077656974F2
:100970006572292E0D0A201B5B33373B316D737373
:100980006D201B5B303B33376D2D3E2053796E63FA
:100990006D6F647573203132682F3234682073654F
:1009A000747A656E2E0D0A201B5B33373B316D73F5
:1009B0007077201B5B303B33376D2D3E20417573C4
:1009C00067616E6773696D70756C7377656974655F
:1009D0002061656E6465726E283230302D3830309B
:1009E000306D73292E0D0A201B5B33373B316D733D
:1009F000746174201B5B303B33376D2D3E2047659F
:100A000073616D7473746174757320616E7A656956
:100A100067656E2E0D0A000D0A48696C6665206DCB
:100A20006974201B5B33373B316D3F1B5B303B33BD
:100A3000376D206F646572201B5B33373B316D6807
:100A4000656C701B5B303B33376D20756E64206DB9
:100A500069742072657475726E20616E7363686C60
:100A600069657373656E2E0D0A0011241FBECFEFEA
:100A7000D8E0DEBFCDBF13E0A0E0B1E0E6E0F9E3EF
:100A800002C005900D92A030B107D9F724E0A0E094
:100A9000B3E001C01D92AF32B207E1F70E94190E18
:100AA0000C94811C0C940000E0E1F1E01286529855
:100AB0005A9AA9E6B0E08C9181608C93E89A82E022
:100AC000828786E081870895E9E6F0E080818E7F65
:100AD0008083E898E1E8F0E08081887F8083EFE61A
:100AE000F0E080818E7F80835A9A0895E82FCB01B1
:100AF0004E2F50E047305105D8F4FA01EC5CFF4F1F
:100B00000C94CE1962E271E011C062E171E00EC096
:100B100062E071E00BC063EF70E008C062EE70E06D
:100B200005C064ED70E002C068EC70E00C94121B2C
:100B30000895CF93DF93FC0101900020E9F73197EE
:100B4000E81BF90B20E130E02E1B310937FF02C012
:100B50002F5F3F4F35952795283058F4623048F481
:100B6000EC01822F0E94E60CCE01DF91CF910C9414
:100B70000B0DDF91CF910895FF920F931F93CF93A9
:100B8000DF9300D0CDB7DEB78B0169E672E00E943B
:100B9000191B009719F480E090E02CC04AE050E067
:100BA000BE016F5F7F4F0E94E819F62EE981FA813E
:100BB00080818111F0CF87E18F1568F369E672E0DB
:100BC00080E090E00E94191B009729F34AE050E072
:100BD000BE016F5F7F4F0E94E819E981FA81808131
:100BE0008111D9CF6C33B8F6F801F082618312829B
:100BF00081E090E00F900F90DF91CF911F910F91C6
:100C0000FF900895FF920F931F93CF93DF9300D02F
:100C100000D0CDB7DEB7F82E8B011A8219821C8264
:100C20001B824AE0BE016F5F7F4F90E00E947F1BF6
:100C300089E08F1560F06BE372E0C8010E94321BFF
:100C4000BE016F5F7F4FC8010E941E1B06C0BE0120
:100C50006F5F7F4FC8010E94321B0F900F900F9063
:100C60000F90DF91CF911F910F91FF900895EF9218
:100C7000FF920F931F93CF93DF9300D01F92CDB7B6
:100C8000DEB78C017B011A8219821B82BE016F5F65
:100C90007F4FF70180810E940206BE016F5F7F4F88
:100CA000C8010E94321B69E672E0C8010E941E1B47
:100CB000BE016F5F7F4FF70181810E940206BE0176
:100CC0006F5F7F4FC8010E941E1B69E672E0C8017A
:100CD0000E941E1BBE016F5F7F4FF70182810E9441
:100CE0000206BE016F5F7F4FC8010E941E1B8091EC
:100CF0005C01811105C068E372E0C8010E94071B16
:100D00000F900F900F90DF91CF911F910F91FF9057
:100D1000EF900895CF92DF92EF92FF920F931F937F
:100D2000CF93DF937C01EB01FC0101900020E9F7F8
:100D30008C010E1B1F0B0F5E1F4F16950795C02EC3
:100D4000188290E1D92E6DE672E0CE010E941E1B42
:100D5000DA94D110F8CFC7FC1CC0C00FD11D07FD1D
:100D6000DA9520E0822F022E000C990BF7010190FA
:100D70000020E9F73197EE19FF098E179F0748F415
:100D800020312CF4F701E80FF91F808189932F5F40
:100D9000E9CFDF91CF911F910F91FF90EF90DF90FE
:100DA000CF90089580911A01811103C06BEB70E020
:100DB0000CC0813019F46CEA70E007C0823019F47D
:100DC0006CE970E002C062E970E08AE393E00C94A1
:100DD000121B0F931F93CF93DF93CDB7DEB72A97E4
:100DE0000FB6F894DEBF0FBECDBF8C011A821982F8
:100DF000FE01339688E0DF011D928A95E9F7D8015C
:100E00001396EC918E2F90E0FC013197E730F105BD
:100E1000E8F4E55CFF4F0C94CE1967E671E002C080
:100E20006EE571E085E291E00E94121B15C065E558
:100E300071E0F8CF6AE471E0F5CF62E471E0F2CFDF
:100E40006AE371E0EFCF6EE671E0ECCF63E372E04E
:100E500085E291E00E94321B6DE672E085E291E04E
:100E60000E941E1BBE016F5F7F4FF80182810E94AE
:100E70000206BE016F5F7F4F85E291E00E941E1B5C
:100E800067E372E085E291E00E941E1BBE016F5F86
:100E90007F4FD80111968C910E940206BE016F5FB0
:100EA0007F4F85E291E00E941E1B67E372E085E2BE
:100EB00091E00E941E1BF80180814AE0BE016F5F35
:100EC0007F4F90E00E947F1BD8018C918A3018F4EC
:100ED00069E372E002C06DE372E085E291E00E9496
:100EE0001E1BBE016F5F7F4F85E291E00E941E1BBB
:100EF0006DE672E085E291E00E941E1BBE016F5F0D
:100F00007F4FF80184810E940206BE016F5F7F4F10
:100F100085E291E00E941E1B69E672E085E291E0A5
:100F20000E941E1BBE016F5F7F4FD80115968C91EA
:100F30000E940206BE016F5F7F4F85E291E00E9432
:100F40001E1B6DE672E085E291E00E941E1BF80117
:100F50008781882319F060E472E002C064E472E0E3
:100F600085E291E02A960FB6F894DEBF0FBECDBFA2
:100F7000DF91CF911F910F910C941E1B0F931F9324
:100F8000CF93DF9300D0CDB7DEB74AE050E0BE018B
:100F90006F5F7F4F0E94E819E981FA81208121115A
:100FA0000FC08B019C0102501109210931090F3436
:100FB00011052105310520F46093060381E001C08D
:100FC00080E00F900F90DF91CF911F910F910895C6
:100FD000811108C080915A018B3320F48F5F809378
:100FE0005A01089510925A0180915901909120015F
:100FF00080FF03C09093020302C0909303038B33DE
:1010000020F48F5F809359010895109259018091C7
:101010005801873120F48F5F809358010895109212
:10102000580108951F920F920FB60F9211242F931B
:101030003F934F935F936F937F938F939F93AF9360
:10104000BF93EF93FF934B995BC0609158018CE085
:1010500090E00E94F01B609159018BE090E00E94AB
:10106000F01B80911801882349F1609114018AE0F6
:1010700090E00E94F01B6091150189E090E00E94D1
:10108000F01B6091120188E090E00E94F01B6091DB
:10109000110187E090E00E94F01B6091100186E052
:1010A00090E00E94F01B6091130185E090E00E94A7
:1010B000F01B6091170184E090E00FC0609158012F
:1010C0008AE090E00E94F01B6091590189E090E075
:1010D0000E94F01B6FEF88E090E00E94F01B80916F
:1010E00000018823C1F00E94F10C60E08CE991E0DE
:1010F0000E94990561E08FE891E00E9499050BC07C
:1011000083E390E00E94B70D80910001882319F0DD
:101110008CE00E94260DFF91EF91BF91AF919F91BE
:101120008F917F916F915F914F913F912F910F9090
:101130000FBE0F901F9018951F920F920FB60F922F
:1011400011242F933F934F935F936F937F938F93CC
:101150009F93AF93BF93EF93FF9380919D039091E3
:101160009E0384332CE0920734F4019690939E03FF
:1011700080939D032AC110929E0310929D0380913B
:101180000303882341F05F985E9A809103038150A6
:101190008093030301C05E9880910203882341F08D
:1011A0005E985F9A8091020381508093020301C090
:1011B0005F9880919C03893020F48F5F80939C031B
:1011C000F5C010929C03809169038823F1F080910F
:1011D00067038B3320F48F5F8093670316C01092F0
:1011E0006703809166038B3320F48F5F80936603DF
:1011F0000CC01092660380916503873120F48F5FE5
:101200008093650302C01092650330910003209122
:1012100058018091650390915901409166035CE308
:101220003323C9F0259F90011124290F311D5CE360
:10123000859FC0011124840F911D8217930714F418
:1012400080569A4F821B930B833625E09207A4F1B8
:10125000805A954031C0259F90011124290F311DDE
:101260005CE3859FC0011124840F911D213D42E064
:10127000340714F0205D3240813D52E0950714F0B0
:10128000805D9240A9012817390744F440535D4F0F
:10129000481B590B4E3351056CF405C0481B590BC4
:1012A0004E3351052CF488279927841B950B04C0D5
:1012B00080539D4F821B930B9093050380930403EF
:1012C0004B9B3DC080916803882359F180910403B2
:1012D000909105030097A1F094F180919A03909169
:1012E0009B031816190634F081E00E94E8078091EC
:1012F0001F0190E0019790939B0380939A031FC076
:101300008091650380935801809166038093590111
:101310008091670380935A011092680310926903C9
:101320000EC080915C01882351F080911F0190E0F4
:1013300090939B0380939A0380E00E94E80780913A
:101340004B03882321F0815080934B030FC085E02D
:1013500080934B0380914D03893041F08F5F88303B
:1013600018F480934D0302C010924D038091180130
:10137000882319F081508093180180911B0190916E
:101380001C01A0911D01B0911E018F3F2FEF92070C
:10139000A207B20759F00196A11DB11D80931B0150
:1013A00090931C01A0931D01B0931E0180919C039A
:1013B00065E00E94AE19911108C05D9B02C05D9866
:1013C00001C05D9A81E080934C03FF91EF91BF9142
:1013D000AF919F918F917F916F915F914F913F91CD
:1013E0002F910F900FBE0F901F901895EF92FF92C4
:1013F0000F931F93CF93DF9300D0CDB7DEB77C015F
:101400000E94D00D9A8389839C0122273B71232B54
:1014100089F58C0111270D30110539F48CEE92E01D
:101420000E94FE0D69E773E005C00330110551F419
:1014300069E472E0C7010E94321B1092790381E0D7
:1014400090E01AC00E94E90DE9E7F3E00190002066
:10145000E9F73197E957F340B09760F4005211096A
:101460000F35110538F4BE016F5F7F4F89E793E0B8
:101470000E941E1B80E090E00F900F90DF91CF91B3
:101480001F910F91FF90EF9008951F920F920FB64A
:101490000F9211248F939F93EF93FF93E1E8F0E075
:1014A0008081887F8083EFE6F0E080818E7F80837B
:1014B0008FEF9FEF9093850080938400FF91EF91D1
:1014C0009F918F910F900FBE0F901F9018951F92B4
:1014D0000F920FB60F9211242F933F934F935F9368
:1014E0006F937F938F939F93AF93EF93FF9350915D
:1014F0001A014A9B64C080918100887F809381009B
:1015000080916F008E7F80936F0080918400909116
:101510008500909378038093770390937B01809369
:101520007A0110928500109284008091810085607C
:101530008093810080916F00816080936F00209183
:101540007703309178035130A9F48091750390911D
:101550007603820F931F855F9C418F31934050F03B
:1015600094E09093190182E080931A0190937C019A
:1015700080937D012D5136432F3A344008F0A7C1A6
:1015800080911801883398F080910103882379F0C5
:101590008091140180936503809115018093660307
:1015A0001092670381E0809368038093690310922F
:1015B0009F0381E080931A0180937D0188C180910F
:1015C0008100887F8093810080916F008E7F80935F
:1015D0006F008091840090918500909376038093B2
:1015E0007503909379018093780110928500109291
:1015F00084008091810085608093810080916F00DC
:10160000816080936F00513009F061C18091750352
:10161000909176039C012152354040919F03233FD6
:10162000314030F4E42FF0E0E056FC4F508315C019
:10163000885792408B32914030F4E42FF0E0E0562E
:10164000FC4F10820AC095E09093190182E08093CC
:101650001A0190937C0180937D0180911A01813061
:1016600009F032C14A3308F42FC18091B20380934C
:1016700017018091B503E6EBF3E0982F21919227B3
:1016800033E0EC3BF307D1F72091BC0329132AC0C8
:101690002091B80358E0259FB00111249091B70321
:1016A00054E0959F90011124262B822B2091B603A4
:1016B000220F282B8091BB0394E0899FB001112455
:1016C0009091BA03892F90E0880F991F862B972B52
:1016D0003091B903832B3AE0839F200D112420938E
:1016E000150107C082E080931A0180937C018093EA
:1016F0007D019091BD035091BE03892F85273091C4
:10170000BF0383276091C0038627A091C1038A2766
:101710002091C20382277091C30378131BC080916C
:101720001A018130B9F488E0689FF001112484E047
:10173000389FB00111246E2B962B550F952B30E05E
:10174000220F331F2A2B5AE0259F900D11249093CE
:10175000140108C082E080931A0191E090937C010B
:1017600080937D018091C403E5ECF3E0982F2191F3
:10177000922763E0EA3DF607D1F72091DA032913B7
:1017800099C090911A01913009F094C02091C7033B
:1017900098E0299FB00111249091C60354E0959FD1
:1017A00090011124262B822B9091C503990F892B30
:1017B0002091C90330E0220F331F9091C803292BD9
:1017C0006AE0269F800D1124809312018091CC0342
:1017D00024E0829FC00111249091CB03990F892BA3
:1017E0009091CA03892B809313018091D00338E034
:1017F000839FB00111242091CF0354E0259FC001A5
:101800001124862B2091CD03982F922B8091CE030B
:10181000880F892B9091D1036AE0969F800D112447
:10182000809311016091D90388E0689FB001112471
:101830008091D80324E0829FC0011124682B792B6A
:101840008091D603682B8091D70390E0880F991F71
:10185000682B792B8091D50338E0839FF001112408
:101860002091D40354E0259FC00111248E2B209198
:10187000D203982F922B8091D303880F892B9AE063
:10188000699F800D1124809310018BE380931801D0
:101890001092190182E080931A0110927C018093CA
:1018A0007D0110921B0110921C0110921D011092DB
:1018B0001E010AC093E09093190182E080931A01FF
:1018C00090937C0180937D014F5F40939F03FF9134
:1018D000EF91AF919F918F917F916F915F914F9118
:1018E0003F912F910F900FBE0F901F901895439A24
:1018F00000C043980895CF93C82F662311F0459AEE
:1019000001C0459844983A9A399A389A229A2A9866
:10191000409841984298C7FD2A9AC6FD409AC5FD55
:10192000419AC4FD429A0E94770C2A9840984198A7
:101930004298C3FD2A9AC2FD409AC1FD419AC0FD5A
:10194000429A0E94770C429A419A409A2A9ACF91E1
:1019500008954598449A3A98399838982298439A25
:1019600000C0329B02C080E101C080E031998062FA
:10197000309980641A998068439800C0439A00C0E7
:101980003299816031998260309984601A998860B7
:10199000439808950E94A90C87FDFCCF84E090E055
:1019A0000197F1F70C94A90CCF93C82F0E94CA0C91
:1019B00060E08C2FCF910C947B0CCF93C82F0E94AA
:1019C000CA0C61E08C2FCF910C947B0C611102C08A
:1019D000805801C080540C94D40C0E94CA0C90E032
:1019E000089581E00C94D40C82E00C94D40CCF9335
:1019F000C82F0E94CA0CCA3049F4803410F080E02D
:101A000001C080E48058CF910C94D40C61E08C2FFD
:101A1000CF910C947B0CCF93DF93EC0189918823B9
:101A200019F00E94F70CFACFDF91CF910895CF9370
:101A3000DF93FC018491EF012196882321F00E941D
:101A4000F70CFE01F7CFDF91CF9108951F93CF934D
:101A5000DF93182F3A9A399A389A229A3D9A3C9AEB
:101A60003B9A80E09DE70197F1F7419A429A0E94E4
:101A7000770C80E097E20197F1F70E94770CC0E8BD
:101A8000D0E0CE010197F1F70E94770CCE010197CB
:101A9000F1F742980E94770C2197F1F788E20E94B3
:101AA000D40C88E00E94D40C0E94F10C86E00E94C5
:101AB000D40C812FDF91CF911F910C94D40C1F92E5
:101AC0000F920FB60F9211242F938F939F93EF9342
:101AD000FF938091C0009091C6008871E091DE0371
:101AE000EF5FEF712091DD03E21739F0E093DE0341
:101AF000F0E0EF51FC4F908301C082E09091DC0355
:101B0000892B8093DC03FF91EF919F918F912F910F
:101B10000F900FBE0F901F9018951F920F920FB647
:101B20000F9211248F939F93EF93FF939091E00373
:101B30008091DF03981769F0E091DF03EF5FEF71A9
:101B4000E093DF03F0E0EF5FFB4F80818093C600FE
:101B500005C08091C1008F7D8093C100FF91EF91FE
:101B60009F918F910F900FBE0F901F90189510921C
:101B7000E0031092DF031092DE031092DD0397FF63
:101B800004C022E02093C0009F779093C50080930B
:101B9000C40088E98093C10086E08093C200089564
:101BA0009091DE038091DD03981781F0E091DD03D1
:101BB000EF5FEF71E093DD03F0E0EF51FC4F8081C8
:101BC0009091DC031092DC0390E0089580E091E0B6
:101BD00008959091E0039F5F9F712091DF0392171A
:101BE000E1F3E92FF0E0EF5FFB4F80839093E00398
:101BF0008091C10080628093C1000895CF93DF93EC
:101C0000EC018991882319F00E94E90DFACFDF9148
:101C1000CF910895CF93DF93FC018491EF0121963A
:101C2000882321F00E94E90DFE01F7CFDF91CF91CB
:101C30000895F999FECF8BE090E00E94E81B809315
:101C400059018C3340F48CE090E00E94E81B8093B3
:101C50005801883120F0109258011092590181E00A
:101C600090E00E94E81B882319F010925C0103C0E9
:101C700081E080935C0183E090E00E94E81B91E0AA
:101C8000811101C090E09093010382E090E00E94F6
:101C9000E81B91E0811101C090E09093000380E087
:101CA00090E00E94E81B8093200182508F3418F04E
:101CB00084E0809320018091200190E001966AE009
:101CC00070E00E94BA196F5F60931F01789483E3FC
:101CD00090E00E94B70D8BE492E00E94FE0D80E53B
:101CE00092E00E94FE0D88E592E00E94FE0D87E6DC
:101CF00091E00E94FE0D8DE692E00E94FE0D8EE7BF
:101D000091E00E94FE0D8CEE92E00E94FE0D8BE4AD
:101D100092E00E94FE0D81E691E00E94FE0D8AB1E4
:101D2000806E8AB98AB1877E8AB95C9A809169008F
:101D3000846080936900E99A16BC85B5816085BD91
:101D400080916E00816080936E008091010381110B
:101D50000E9454054C9B1FC08CE00E94260D60E041
:101D600080E00E94E60C0E94F10C81E0809300016B
:101D700060E087E691E00E94990561E08EE791E0DE
:101D80000E949905CAE0D0E012E004E035E0F32EAD
:101D900046E0E42E77C01092000188B1817C88B9BA
:101DA00087B18E6387B9EECF4B9BFECF80914D03F9
:101DB000811112C068E571E087E491E00E94370666
:101DC00068E173E085E292E00E948A0667E073E0D2
:101DD00087E491E00E948A0680914D03813009F4E6
:101DE00058C080914D03823009F476C080914D0334
:101DF000833009F485C080914D03843009F496C086
:101E000080914D03853009F4ABC080914D0386303D
:101E100009F4EDC080914D03873009F49BC1809196
:101E20004C038111B1C180914C038111C3C160E1A8
:101E300085E593E00E94F609892B09F4B5CF69E4A2
:101E400072E085E593E00E94291B892B09F00CC202
:101E500010924E038FE692E00E94FE0D1092550301
:101E60006AE472E085E593E00E94321B10924F0312
:101E70001092230480914E03811196CF81E691E068
:101E80000E94FE0D87E0D82E93E0C92E29E0B22EE5
:101E90008BCF809168038823E1F068E173E084E1EF
:101EA00092E00E948A064AE069E273E080910403AE
:101EB000909105030E947F1B64EE71E089E293E03C
:101EC0000E941E1B67E073E089E293E00E948A068D
:101ED00088CF10934D0385CF68E173E083E092E0F3
:101EE0000E948A068091010367E073E0882319F05D
:101EF0008EEE91E002C088ED91E00E948A0676CFD6
:101F000080910103882379F068E173E084EF91E028
:101F10000E948A060E94D20667E073E08AE393E09B
:101F20000E948A0668CF00934D0365CF809101031C
:101F3000882399F068E173E088EC91E00E948A06BA
:101F400069E273E0809119010E94760567E073E011
:101F500089E293E00E948A0653CFF0924D0350CF5E
:101F600080910103882309F43FC080911A018130D8
:101F7000D9F5A0909F03AA942AE32A15A8F168E155
:101F800073E088EB91E00E948A066DE572E089E2D9
:101F900093E00E94321B6AE373E08A2D0E940206DE
:101FA0006AE373E089E293E00E941E1B62E672E03E
:101FB00089E293E00E941E1BE0919F03F0E0E1564E
:101FC000FC4F8081813019F46DED72E002C06BE34B
:101FD00072E089E293E00E941E1B67E073E089E2F1
:101FE00093E00E948A0611CFE0924D030ECF8091BC
:101FF0000103882309F4ABC080911801882309F4F8
:10200000A6C064E672E089E293E00E94321B6AE3B4
:1020100073E0809114010E9402066AE373E089E292
:1020200093E00E941E1B69E672E089E293E00E9441
:102030001E1B6AE373E0809115010E9402066AE3A9
:1020400073E089E293E00E941E1B6DE672E089E274
:1020500093E00E941E1B80911701882319F060E411
:1020600072E002C064E472E089E293E00E941E1B09
:1020700068E173E089E293E00E948A06E09113012F
:102080008E2F90E0FC013197E730F105E8F4EE5B2C
:10209000FF4F0C94CE1964E371E002C061E371E07C
:1020A00089E293E00E94121B15C06EE271E0F8CF46
:1020B0006BE271E0F5CF68E271E0F2CF65E271E0CA
:1020C000EFCF67E371E0ECCF63E372E089E293E086
:1020D0000E94321B6BE672E089E293E00E941E1BB5
:1020E0006AE373E0809112010E9402066AE373E0E2
:1020F00089E293E00E941E1B67E372E089E293E0AD
:102100000E941E1B6AE373E0809111010E94020687
:102110006AE373E089E293E00E941E1B67E372E0CA
:1021200089E293E00E941E1B6AE373E08091100134
:102130000E9402066AE373E089E293E00E941E1B9C
:1021400067E073E089E293E00E948A0663CED09252
:102150004D0360CE68E173E08CEA91E00E948A064C
:1021600080910003882319F06EE573E002C063E5F7
:1021700073E089E293E00E94121B67E073E089E25A
:1021800093E00E948A064BCE80910001882309F4D7
:102190004ACE60E080E00E94E60C88E193E00E9475
:1021A0000B0D61E080E00E94E60C87E093E00E9466
:1021B0000B0D57C080910001811139CE8091010330
:1021C000882309F443C080911A01882341F08130AB
:1021D00021F0823021F4419902C0419A01C0419816
:1021E000809119019FEF980F923020F09CEF980F8B
:1021F000923018F4429A43980BC0811107C0809125
:102200001801882319F04298439A02C043984298D3
:1022100080911B0190911C01A0911D01B0911E01A4
:10222000813821E5920721E0A207B10558F48151D8
:102230009E40A109B10980379344A140B10520F423
:10224000449B02C0449806C0449A04C041984498F4
:102250004398429880916803813011F4459A01C0F7
:10226000459810924C03E3CD68E772E085E593E072
:102270000E94191B46E050E0BC018FE493E00E94ED
:10228000491B68E772E080E090E00E94191B00970C
:1022900081F04AE050E0BC0183E294E00E94491BD7
:1022A0006AE772E08FE493E00E94291B892BA9F46E
:1022B00008C01092230480914E03882309F468C457
:1022C000EEC668E571E083E294E00E94BC05892BCC
:1022D00009F075C08BEA92E09CC46FE772E08FE46E
:1022E00093E00E94291B892B71F465E673E083E279
:1022F00094E00E94BC05892B69F381E08093680318
:10230000809369035CC064E872E08FE493E00E940C
:10231000291B892B71F465E673E083E294E00E9447
:10232000BC05892BB9F21092690381E080936803A0
:1023300046C069E872E08FE493E00E94291B892B74
:1023400031F56DED72E083E294E00E94291B892B48
:1023500059F481E08093010361E083E090E00E9402
:10236000F01B0E9454052BC06BE372E083E294E003
:102370000E94291B892B09F0ADCF1092010360E068
:1023800083E090E00E94F01B0E94640518C06EE894
:1023900072E08FE493E00E94291B892B01F56DED1B
:1023A00072E083E294E00E94291B892B59F481E0BA
:1023B0008093000361E082E090E00E94F01B83EBD9
:1023C00092E027C46BE372E083E294E00E94291B51
:1023D000892B09F07FCF1092000360E0ECCF63E916
:1023E00072E08FE493E00E94291B892BC1F483E201
:1023F00094E00E94BE07882309F46CCF2091060365
:1024000020932001822F90E00196BE010E94BA190C
:102410006F5F60931F01622F80E090E0CECF68E98C
:1024200072E08FE493E00E94291B892BE1F46DEDAB
:1024300072E083E294E00E94291B892B21F4109220
:102440005C0161E00DC06BE372E083E294E00E9406
:10245000291B892B09F03ECF81E080935C0160E06D
:1024600081E090E0AACF6DE972E085E593E00E94FB
:10247000291B892BB9F4909174038091010399234E
:1024800041F0882309F4ECCC1092740310924D03B0
:1024900096CF882309F4E4CC81E080937403B09252
:1024A0004D038DCF65EA72E08FE493E00E94291B13
:1024B000892B09F0D5CC6BEA72E083E294E00E94AC
:1024C000291B892B99F467E671E089E293E00E9469
:1024D000321B89E293E00E94FE0D61E271E089E225
:1024E00093E00E94321B6EE771E041C36EEA72E036
:1024F00083E294E00E94291B892B79F58091580191
:102500004AE06AE373E090E00E947F1B6AE373E0B5
:1025100089E293E00E94321B42E050E061E271E008
:1025200089E293E00E94391B809159014AE06AE3F5
:1025300073E090E00E947F1B6AE373E089E293E01E
:102540000E941E1B42E050E061E271E089E293E0EC
:102550000E94391B80915A0102C362EB72E083E250
:1025600094E00E94291B892B79F5809165034AE04C
:102570006AE373E090E00E947F1B6AE373E089E204
:1025800093E00E94321B42E050E061E271E089E298
:1025900093E00E94391B809166034AE06AE373E08E
:1025A00090E00E947F1B6AE373E089E293E00E945F
:1025B0001E1B42E050E061E271E089E293E00E947C
:1025C000391B80916703CBC266EB72E083E294E033
:1025D0000E94291B892B09F016C1809110014AE045
:1025E0006AE373E090E00E947F1B6AE373E089E294
:1025F00093E00E94321B42E050E061E271E089E228
:1026000093E00E94391B809111014AE06AE373E074
:1026100090E00E947F1B6AE373E089E293E00E94EE
:102620001E1B42E050E061E271E089E293E00E940B
:10263000391B89E293E00E94FE0D809112014AE06D
:102640006AE373E090E00E947F1B6AE373E089E233
:1026500093E00E94321B42E050E061E271E089E2C7
:1026600093E00E94391B809113014AE06AE373E012
:1026700090E00E947F1B6AE373E089E293E00E948E
:102680001E1B42E050E061E271E089E293E00E94AB
:10269000391B809114014AE06AE373E090E00E94E4
:1026A0007F1B6AE373E089E293E00E941E1B42E015
:1026B00050E061E271E089E293E00E94391B89E217
:1026C00093E00E94FE0D809115014AE06AE373E0F9
:1026D00090E00E947F1B6AE373E089E293E00E942E
:1026E000321B42E050E061E271E089E293E00E9437
:1026F000391B809116014AE06AE373E090E00E9482
:102700007F1B6AE373E089E293E00E941E1B42E0B4
:1027100050E061E271E089E293E00E94391B809110
:1027200017014AE06AE373E090E00E947F1B6AE3CE
:1027300073E089E293E00E941E1B42E050E061E2F8
:1027400071E089E293E00E94391B89E293E00E94E4
:10275000FE0D809118014AE06AE373E090E00E9468
:102760007F1B6AE373E089E293E00E94321B42E040
:1027700050E061E271E089E293E00E94391B8091B0
:1027800019014AE06AE373E090E00E947F1B6AE36C
:1027900073E089E293E00E941E1B42E050E061E298
:1027A00071E089E293E00E94391B80911A014AE0AE
:1027B0006AE373E090E00E947F1B6AE373E089E2C2
:1027C00093E00E941E1B42E050E061E271E089E26A
:1027D00093E00E94391B89E293E00E94FE0D609114
:1027E0001B0170911C0180911D0190911E012AE036
:1027F0004AE353E00E948A1B6AE373E089E293E0B4
:102800000E94321BB8C16AEB72E083E294E00E943E
:10281000291B892B09F049C080919F034AE06AE394
:1028200073E090E00E947F1B6AE373E089E293E02B
:102830000E94321B42E050E061E271E089E293E0E5
:102840000E94391B89E293E00E94FE0D109206035C
:10285000E0910603EC3330F5F0E0E056FC4F808168
:102860004AE06AE373E090E00E947F1B6AE373E052
:1028700089E293E00E94321B809106038B3341F082
:1028800042E050E061E271E089E293E00E94391B8E
:1028900089E293E00E94FE0D809106038F5F809392
:1028A0000603D6CF83E291E070C16EEB72E083E263
:1028B00094E00E94291B892B09F097C086E090E0E4
:1028C0000E94E81B4AE06AE373E090E00E947F1BED
:1028D0006AE373E089E293E00E94321B42E050E039
:1028E00061E271E089E293E00E94391B87E090E0A9
:1028F0000E94E81B4AE06AE373E090E00E947F1BBD
:102900006AE373E089E293E00E941E1B42E050E01C
:1029100061E271E089E293E00E94391B88E090E077
:102920000E94E81B4AE06AE373E090E00E947F1B8C
:102930006AE373E089E293E00E941E1B42E050E0EC
:1029400061E271E089E293E00E94391B89E293E041
:102950000E94FE0D85E090E00E94E81B4AE06AE3D9
:1029600073E090E00E947F1B6AE373E089E293E0EA
:102970000E94321B42E050E061E271E089E293E0A4
:102980000E94391B8AE090E00E94E81B4AE06AE35B
:1029900073E090E00E947F1B6AE373E089E293E0BA
:1029A0000E941E1B42E050E061E271E089E293E088
:1029B0000E94391B89E090E00E94E81B4AE06AE32C
:1029C00073E090E00E947F1B6AE373E089E293E08A
:1029D0000E941E1B42E050E061E271E089E293E058
:1029E0000E94391B84E090E0B8C062EC72E083E2A0
:1029F00094E00E94291B892B09F08CC080915C0116
:102A00004AE06AE373E090E00E947F1B6AE373E0B0
:102A100089E293E00E94321B42E050E061E271E003
:102A200089E293E00E94391B809169034AE06AE3DE
:102A300073E090E00E947F1B6AE373E089E293E019
:102A40000E941E1B42E050E061E271E089E293E0E7
:102A50000E94391B809168034AE06AE373E090E0CA
:102A60000E947F1B6AE373E089E293E00E941E1BD1
:102A700042E050E061E271E089E293E00E94391B9C
:102A800089E293E00E94FE0D4AE06AE373E08091E0
:102A90000403909105030E947F1B6AE373E089E2BF
:102AA00093E00E94321B42E050E061E271E089E273
:102AB00093E00E94391B809101034AE06AE373E0CE
:102AC00090E00E947F1B6AE373E089E293E00E943A
:102AD0001E1B42E050E061E271E089E293E00E9457
:102AE000391B809100034AE06AE373E090E00E94A2
:102AF0007F1B6AE373E089E293E00E941E1B42E0C1
:102B000050E061E271E089E293E00E94391B80911C
:102B1000200125C066EC72E083E294E00E94291B4C
:102B2000892B09F0D7CB8CE090E00E94E81B4AE0AB
:102B30006AE373E090E00E947F1B6AE373E089E23E
:102B400093E00E94321B42E050E061E271E089E2D2
:102B500093E00E94391B8BE090E00E94E81B4AE062
:102B60006AE373E090E00E947F1B6AE373E089E20E
:102B700093E00E941E1B42E050E063E271E089E2B4
:102B800093E00E94391B89E293E00E94FE0D17CC6E
:102B90006BE772E085E593E00E94291B892B31F4F5
:102BA00081E080934E038BE295E033C06AEC72E0E3
:102BB00085E593E00E94291B892BD9F480E592E0FA
:102BC0000E94FE0D87E691E00E94FE0D8CEE92E0E1
:102BD0000E94FE0D85E897E00E940A0E8EE791E0C4
:102BE0000E94FE0D8CEE92E00E94FE0D87E19AE0BD
:102BF00010C065E872E085E593E00E94291B892BEF
:102C000071F480910103811107C010934E0385E098
:102C100095E00E940A0E24C982EC94E0FACF60E8A5
:102C200072E085E593E00E94291B892B49F480918D
:102C300001038111F1CFC0924E0385EE94E0E9CFFC
:102C40006AE872E085E593E00E94291B892B81F4F4
:102C500000934E038BE394E00E940A0E80910103DF
:102C6000882319F082E294E0D4CF88E094E0D1CFB9
:102C700069E972E085E593E00E94291B892B81F4C4
:102C8000F0924E0384EB94E00E940A0E80915C0166
:102C9000882319F089E994E0BCCF86E794E0B9CFA6
:102CA0006FE872E085E593E00E94291B892B81F48F
:102CB000E0924E038FEB93E00E940A0E8091000396
:102CC000882319F084E993E0A4CF89E693E0A1CFAB
:102CD0006EEC72E085E593E00E94291B892B41F0A0
:102CE00063ED72E085E593E00E94291B892B19F4BE
:102CF00083EA97E08ECF64E972E085E593E00E9475
:102D0000291B892B29F4D0924E0385EE91E081CFC7
:102D100066EA72E085E593E00E94291B892B09F0A1
:102D2000B0C180E592E00E94FE0D87E691E00E942E
:102D3000FE0D8CEE92E00E94FE0D85E897E00E9469
:102D40000A0E8EE791E00E94FE0D8CEE92E00E944A
:102D5000FE0D68E571E087E491E00E9437068CE59E
:102D600097E00E940A0E87E491E00E94FE0D8EE338
:102D700097E00E940A0E80916803882321F165E69E
:102D800073E087E491E00E94370683E592E00E94B9
:102D90000A0E87E491E00E94FE0D4AE06AE373E0C8
:102DA00080910403909105030E947F1B8DE692E0C1
:102DB0000E94FE0D8AE393E00E94FE0D82E792E0FE
:102DC0000E940A0E04C085ED92E00E94FE0D86EC82
:102DD00095E00E940A0E80910003882319F08EE589
:102DE00093E002C083E593E00E940A0E8EEA96E02B
:102DF0000E940A0E80910103882309F47CC083E7B6
:102E000096E00E940A0E80911201882349F080E129
:102E100091E00E94E90685E291E00E94FE0D04C067
:102E200084E594E00E940A0E86E496E00E940A0E71
:102E30006AE373E0809119010E9476058AE393E0CA
:102E40000E94FE0D82E296E00E940A0E0E94D206C7
:102E50008AE393E00E94FE0D80911A01813021F5F2
:102E600080919F03882301F180E992E00E940A0E7D
:102E700080919F0390E04AE06AE373E001970E942B
:102E80007F1B8AE393E00E94FE0DE0919F03F0E038
:102E9000E156FC4F8081813019F48CED92E002C044
:102EA0008FED92E00E94FE0D80911B0190911C011C
:102EB000A0911D01B0911E018F3F9F4FAF4FBF4F9B
:102EC000F1F082EF95E00E940A0E60911B01709173
:102ED0001C0180911D0190911E012AE04AE353E0FC
:102EE0000E948A1B8AE393E00E94FE0D86E791E030
:102EF0000E940A0E04C088ED91E00E94FE0D8CEE47
:102F000092E00E94FE0D89E090E00E94E81B8F3F56
:102F100009F457C081E197E00E940A0E88E090E032
:102F20000E94E81B8F3F89F189E090E00E94E81B36
:102F3000809306018AE090E00E94E81B80930501DF
:102F400088E090E00E94E81B8093030187E090E016
:102F50000E94E81B8093020186E090E00E94E81B3B
:102F60008093010184E090E00E94E81B80930801B7
:102F700085E090E00E94E81B8093040181E091E0ED
:102F80000E94E90685E291E016C089E090E00E9487
:102F9000E81B809370038AE090E00E94E81B809316
:102FA0006F03109271036FE673E08AE393E00E946F
:102FB00037068AE393E00E94FE0D8CEE92E00E94B9
:102FC000FE0D8BE090E00E94E81B8F3F01F18BEC3F
:102FD00096E00E940A0E8BE090E00E94E81B80932E
:102FE0006B038CE090E00E94E81B80936A031092D0
:102FF0006C036AE673E08AE393E00E9437068AE393
:1030000093E00E94FE0D8CEE92E00E94FE0D81EA9C
:1030100095E00E940A0E80910001882319F082E356
:1030200092E002C08EE292E00E940A0E8CEE92E0E4
:103030000E94FE0D88E795E00E940A0E8091200113
:103040004AE06AE373E090E00E947F1B8AE393E02A
:103050000E94FE0D82EE92E00E94FE0D8DE495E04E
:103060000E940A0E80911F014AE06AE373E090E03B
:103070000E947F1B8AE393E00E94FE0D89EE92E09E
:103080000AC08FEE92E00E94FE0D89EF92E00E944E
:103090000A0E8BE492E00E94FE0D0C94300F8130FA
:1030A000F9F468E571E085E593E00E94BC05892BA1
:1030B00039F087EF92E00E94FE0D88EB92E006C0A7
:1030C0008FEE92E00E94FE0D80EE92E00E940A0ECA
:1030D0008BE492E00E94FE0D10924E030C94300F90
:1030E0008230D1F465E673E085E593E00E94BC058B
:1030F000892B31F387EF92E00E94FE0D88EB92E07E
:103100000E940A0E8BE492E00E94FE0D1092690369
:1031100081E080936803E0CF8330D1F465E673E00B
:1031200085E593E00E94BC05892B51F287EF92E080
:103130000E94FE0D88EB92E00E940A0E8BE492E062
:103140000E94FE0D81E08093680380936903C4CFE1
:10315000843009F047C06FE571E085E593E00E9497
:10316000291B892B89F580910103811117C087EFF5
:1031700092E00E94FE0D8BEE93E00E940A0E8BE41B
:1031800092E00E94FE0D81E08093010361E083E004
:1031900090E00E94F01B0E9454059ECF87EF92E0C2
:1031A0000E94FE0D8EEC93E00E940A0E8BE492E0EA
:1031B0000E94FE0D1092010360E083E090E00E9407
:1031C000F01B0E94640588CF6DE571E085E593E012
:1031D0000E94291B892B09F47FCF80E492E00E9492
:1031E0000A0E7ACF853081F56FE571E085E593E0D1
:1031F0000E94291B892B09F05BC080915C01811121
:1032000011C080E592E00E94FE0D8FEC92E00E94DA
:103210000A0E8BE492E00E94FE0D81E080935C0137
:1032200060E00FC080E592E00E94FE0D8DEB92E021
:103230000E940A0E8BE492E00E94FE0D10925C0147
:1032400061E081E090E031C0863009F041C06FE577
:1032500071E085E593E00E94291B892B49F5809157
:103260000003811111C087EF92E00E94FE0D84E3FC
:1032700093E00E940A0E8BE492E00E94FE0D81E032
:103280008093000361E00FC087EF92E00E94FE0D83
:1032900085E193E00E940A0E8BE492E00E94FE0D0D
:1032A0001092000360E082E090E00E94F01B14CFD7
:1032B0006DE571E085E593E00E94291B892B09F4F7
:1032C0000BCF8FEE92E00E94FE0D80E492E0FECEE6
:1032D000873009F001CF85E593E00E94BE0788237F
:1032E00081F32091060320932001822F90E0019624
:1032F000BE010E94BA196F5F60931F01622F80E0C8
:1033000090E00E94F01B87EF92E00E94FE0D81EC9E
:1033100091E00E940A0E809120014AE06AE373E086
:1033200090E00E947F1B8AE393E00E94FE0D81EBF8
:1033300091E00E940A0E8DE891E00E940A0E8091B1
:103340001F014AE06AE373E090E00E947F1B8AE37A
:1033500093E00E94FE0D80E891E0B8CE991B79E0E1
:1033600004C0991F961708F0961B881F7A95C9F715
:103370008095089597FB072E16F4009407D077FDEB
:1033800009D00E94D41907FC05D03EF49095819590
:103390009F4F0895709561957F4F0895EE0FFF1F21
:1033A0000590F491E02D0994AA1BBB1B51E107C0C5
:1033B000AA1FBB1FA617B70710F0A61BB70B881FC5
:1033C000991F5A95A9F780959095BC01CD01089554
:1033D000A0E0B0E0EEEEF9E10C943C1C5C016B0166
:1033E0007A016115710519F0FB0191838083E11465
:1033F000F10429F0C7010297839708F0E5C0E501C1
:103400002196F5011081812F90E00E94FE1A892BF0
:1034100011F05E01F4CF1D3229F42196F5011181DE
:1034200001E007C01B3221F4E5012296F50111816C
:1034300000E0E114F10409F1F0E1EF16F10429F4E0
:103440003FC010E3E114F10421F128E0E216F10499
:1034500001F154F4E2E0EE16F10421F5812C912CF7
:10346000A12CB0E4BB2E3EC0FAE0EF16F10439F017
:1034700020E1E216F104B1F430C0103319F1FAE0A2
:10348000EF2EF12CACEC8A2E982CA82CACE0BA2EA6
:1034900029C078E0E72EF12C812C912CA12CE0E1C1
:1034A000BE2E20C060E070E080E090E897010F2C15
:1034B000000C440B550B0E940E1C49015A0112C00E
:1034C000103359F488818F7D883509F0BACF19817E
:1034D0002296026080E1E82EF12C812C912CA12C07
:1034E00068E0B62E40E060E070E0CB0127010F2CD1
:1034F000000C66087708FE0150ED352E310E29E0EC
:10350000231570F42FEB210F2A3118F439EC332EE8
:1035100006C02FE9210F2A3118F529EA322E310E83
:10352000232D30E02E153F05DCF447FD16C086162E
:103530009706A806B90670F0A30192010E94FE1B2F
:10354000630D711D811D911D61307105810520E89C
:10355000920710F04FEF01C041E021961081CBCFD0
:10356000202F2170C114D10471F0442329F0219738
:10357000F601D183C08307C001FF19C02297F6016D
:10358000D183C08314C047FF12C0222329F060E01A
:1035900070E080E090E804C06FEF7FEF8FEF9FE76F
:1035A00022E230E030932E0420932D0409C0222320
:1035B00081F090958095709561957F4F8F4F9F4FCB
:1035C000462F372F282F12C040E030E020E090E057
:1035D0000DC097FFF5CF82E290E090932E04809388
:1035E0002D046FEF7FEF8FEF9FE7EACF642F732FEC
:1035F000822FCDB7DEB7E1E10C94581C91110C94E9
:10360000D51B803219F089508550C8F70895FB0109
:10361000DC010D900020E9F7119705900D92002034
:10362000E1F70895FB01DC0105900D920020E1F720
:10363000089541E254E00E94581B0895FB01DC010B
:103640000D900020E9F7119701900D920020E1F70D
:103650000895FB01DC018D91019080190110D9F3CF
:10366000990B0895FB01DC0101900D920020E1F718
:103670000895FB01DC010D900020E9F711974150FE
:10368000504028F0019000200D92C9F708951C9237
:103690000895FB01DC014150504048F001900D922B
:1036A0000020C9F701C01D9241505040E0F7089535
:1036B000FA01A191B081009719F41097E1F0CD01C2
:1036C000DC01CD010D90002011F4C00113C0FB01FD
:1036D0002191222319F02015D9F7F3CFFB01219175
:1036E000201519F41E92119606C02223C1F70D90E1
:1036F0000020A1F7D001FA01A193B0830895BB2760
:103700004A3031F4992322F4BDE2909581959F4F80
:103710000C94BC1BBB272A3051F4992342F4BDE220
:1037200090958095709561957F4F8F4F9F4F0C942A
:103730009A1BBB27FA01A62F621771058105910517
:10374000330B30FB66F0AA27660F771F881F991F7F
:10375000AA1FA21710F0A21B63953850A9F7A05D0D
:10376000AA3308F0A95DA19336F7B111B193108285
:10377000CA010C94D81BBB27FB015527AA27880F29
:10378000991FAA1FA41710F0A41B83955051B9F7D5
:10379000A05DAA3308F0A95DA193009779F7B11154
:1037A000B1931192CB010C94D81B992788270895C7
:1037B000DC01FC01672F71917723E1F7329704C098
:1037C0007C916D9370836291AE17BF07C8F3089523
:1037D000F999FECF92BD81BDF89A992780B50895D9
:1037E000262FF999FECF1FBA92BD81BD20BD0FB61D
:1037F000F894FA9AF99A0FBE01960895DB018F9317
:103800009F930E94301CBF91AF91A29F800D911D8C
:10381000A39F900DB29F900D11240895A1E21A2E3E
:10382000AA1BBB1BFD010DC0AA1FBB1FEE1FFF1F64
:10383000A217B307E407F50720F0A21BB30BE40BB4
:10384000F50B661F771F881F991F1A9469F76095FB
:103850007095809590959B01AC01BD01CF010895B5
:103860000E94721CA59F900DB49F900DA49F800D87
:10387000911D112408952F923F924F925F926F9263
:103880007F928F929F92AF92BF92CF92DF92EF92F0
:10389000FF920F931F93CF93DF93CDB7DEB7CA1B71
:1038A000DB0B0FB6F894DEBF0FBECDBF09942A889C
:1038B000398848885F846E847D848C849B84AA8444
:1038C000B984C884DF80EE80FD800C811B81AA81D1
:1038D000B981CE0FD11D0FB6F894DEBF0FBECDBF9C
:1038E000ED010895A29FB001B39FC001A39F700D89
:1038F000811D1124911DB29F700D811D1124911DF8
:063900000895F894FFCFCA
:10390600010000000000000001000600FFFFFFFFAD
:103916000000000000000001000600FFFFFFFF019D
:10392600042C003B002D2D2D2D2D2D2D2D2D2D2044
:103936002D2D2E2D2D2E2D2D2D2D202D2D3A2D2DAF
:10394600202D2D2D2D00002D2D3A2D2D3A2D2D001B
:10395600000000000000000000000000016E006A88
:10396600006D753A3E20005241204D7574746572A3
:103976007568720000000000000000000600563264
:103986002E303062320000000000000000000061AE
:103996007573676566616C6C656E21005374726F32
:1039A6006D766572736F7267756E670053796E63B5
:1039B600204D6F6475733A00444346373720456D92
:1039C6007066616E67653A004443462041757377B9
:1039D600657274756E673A006465616B74697669C1
:1039E60065727400204D696E7574656E2E00416BAC
:1039F600746976004443463737205374617475738F
:103A06003A200044434637372053796E636D6F641E
:103A160075733A0053796E6368726F6E6973696580
:103A260072652E2E004E6562656E7568727A6569DE
:103A3600743A002D2D2D002E003230300032300029
:103A46004D455A004D45535A0003001B5B306D002F
:103A56001B5B33373B316D001B5B324A00424954D6
:103A66003A003D0044434637373A00202D200053A4
:103A76005452472D430A0D003B005F736D74005F7F
:103A8600617374005F6E7374005F646366005F73D6
:103A9600736D005F737077005F707374005F6462AC
:103AA60067646366005F73746174006776006773AA
:103AB6007400676E74006764370067646100676C42
:103AC600700067677300676C730041545A0068653D
:103AD6006C70003F006E6F726D616C003D31003D91
:103AE600300030306D730D0A007365630D0A001BDC
:103AF6005B33313B316D001B5B33323B316D000074
:00000001FF
