:100000000C943C050C94B30A0C945E080C945905AE
:100010000C9459050C9459050C9459050C945905E8
:100020000C9459050C9459050C9459050C945905D8
:100030000C9459050C94910A0C9459050C9459058B
:100040000C94E8080C9459050C94AB0D0C94D90D44
:100050000C9459050C9459050C9459050C945905A8
:100060000C9459050C94590589058C058F0592054A
:10007000950598059B0559075C076307660769079F
:100080006C076F07DE10E110E810EB10EE10F110B6
:10009000F410556E62656B616E6E74005761727418
:1000A000652061756620446174656E00456D7066FB
:1000B000616E676520446174656E00496E6974699C
:1000C000616C7369657265004B65696E205374617C
:1000D000747573004552522D50756C73646175656B
:1000E00072004552522D4461756572506572696F98
:1000F0006465004552522D5061722E204461747522
:100100006D004552522D5061722E204D696E7574EE
:1001100065004552522D5061722E205374756E64E5
:1001200065006F6B00536100467200446F004D69BB
:10013000004469004D6F00536F0053616D7374612B
:1001400067004672656974616700446F6E6E657220
:1001500073746167004D697474776F6368004469F4
:10016000656E73746167004D6F6E74616700536FE5
:100170006E6E746167002053656B756E64656E000A
:10018000732067657365747A742E0D0A0041757368
:1001900067616E6773696D70756C7365696E7465A0
:1001A0007276616C207775726465206175663A209D
:1001B0000030306D732067657365747A742E0D0A94
:1001C0000041757367616E6773696D70756C7377E5
:1001D0006569746520777572646520617566202095
:1001E0002020203A0041757367616E6773696D70F6
:1001F000756C7377656974652061656E6465726E90
:100200002028696E203130306D732C206D6F65674A
:100210006C696368652057657274653A20327C3377
:100220007C347C2E2E2E2E7C3830293A20004175CD
:100230007300416B746976002D3E706175736500C3
:1002400046616C736368652045696E676162652EFF
:100250000D0A0073796E6368726F6E6973696572F7
:1002600065204E6562656E756872656E20617566A3
:100270002000204D696E757465286E29207A7520DE
:1002800073796E6368726F6E6973696572656E000B
:100290002C2067657261646520656D7066616E67AC
:1002A000656E6573204269743A20004552524F5280
:1002B0000D0A004F4B0D0A006F6B0D0A0055687256
:1002C00020616E676568616C74656E2E0D0A00555D
:1002D0006872206765737461727465742E0D0A000C
:1002E000556E6775656C7469676573205A656974C6
:1002F000666F726D61740D0A004B6F6D6D616E6497
:100300006F20657869737469657274206E696368BB
:10031000742E0D0A00313268205374756E64656E58
:10032000204D6F64757320616B74697669657274B2
:100330002E0D0A00323468205374756E64656E2089
:100340004D6F64757320616B746976696572742E84
:100350000D0A003132205374756E64656E003234BC
:10036000205374756E64656E003132205374756E5F
:1003700064656E2E20417566203234205374756E8C
:1003800064656E207365747A656E3F20286A7C6EA2
:10039000293A20003234205374756E64656E2E2025
:1003A000417566203132205374756E64656E20731A
:1003B00065747A656E3F20286A7C6E293A20005366
:1003C000796E636D6F6475732069737420004443A4
:1003D0004637372053796E6368726F6E6973617444
:1003E000696F6E206175732E0D0A004443463737DE
:1003F0002053796E6368726F6E69736174696F6E92
:100400002065696E2E0D0A0050617573653A0050C3
:10041000756C73203A006175732E2045696E7363A5
:1004200068616C74656E3F20286A7C6E293A2000F2
:10043000616E2E20417573736368616C74656E3FE5
:1004400020286A7C6E293A20004443462053796371
:10045000686E726F6E69737461696F6E2069737410
:1004600020004E6F6368206B65696E6520444346CB
:10047000373720446174656E20656D7066616E6704
:10048000656E2E0073696E6420616E676568616CCD
:1004900074656E2E205374617274656E203F20283F
:1004A0006A7C6E293A20006C617566656E2E20416B
:1004B0006E68616C74656E203F20286A7C6E293AF4
:1004C00020004E6562656E75687228656E29200091
:1004D0004269747465204443463737207A756572E3
:1004E0007374206465616B746976696572656E21E9
:1004F0000D0A005374656C6C65204E6562656E75FF
:100500006872656E20617566202878783A78782957
:100510003A20005374656C6C65204E6562656E759B
:100520006872656E206578616B742061756620283D
:1005300078783A7878293A20005A6569742061758C
:10054000662064656E204E6562656E756872656EC4
:10055000202878783A7878293A20001B5B33373B9B
:10056000316D41757367616E6773696D70756C731A
:10057000696E74657276616C1B5B37433A201B5B56
:10058000303B33376D001B5B33373B316D41757347
:1005900067616E6773696D70756C73776569746593
:1005A0001B5B3130433A201B5B303B33376D001B04
:1005B0005B33373B316D4C434420446973706C614D
:1005C00079206973741B5B3134433A201B5B303BE9
:1005D00033376D000D0A1B5B33373B316D53796E3A
:1005E0006368726F6E69736174696F6E736D6F6447
:1005F00075731B5B38433A201B5B303B33376D0010
:100600000D0A1B5B33373B316D4443463737206C53
:1006100065747A746572204B6F6D706C6574746567
:100620006D7066616E673A201B5B303B33376D003F
:100630000D0A1B5B33373B316D444346373720533C
:1006400074617475731B5B3137433A201B5B303B1D
:1006500033376D000D0A1B5B33373B316D44434626
:100660003737204C65747A7465732045726765620C
:100670006E69731B5B37433A201B5B303B33376D2E
:1006800000616B746976696572740D0A1B5B3337A0
:100690003B316D4C65747A7465732044434637373B
:1006A00020456D7066616E6773646174756D1B5B68
:1006B00032433A201B5B303B33376D000D0A1B5B26
:1006C00033373B316D44434637371B5B3234433A53
:1006D000201B5B303B33376D001B5B33373B316D89
:1006E0005A65697420617566204E6562656E75682D
:1006F00072656E206265690D0A6C65747A74656D49
:10070000205370616E6E756E677361757366616C90
:100710006C1B5B35433A201B5B303B33376D001B52
:100720005B33373B316D4C65747A7465722053705E
:10073000616E6E756E677361757366616C6C1B5B61
:1007400035433A201B5B303B33376D000D0A1B5B92
:1007500033373B316D5374617475731B5B323343B4
:100760003A201B5B303B33376D001B5B33373B312B
:100770006D5A65697420617566204E6562656E7597
:100780006872656E1B5B3130433A201B5B303B3334
:10079000376D001B5B33373B316D4669726D776196
:1007A00072651B5B3231433A201B5B303B33376D44
:1007B00000201B5B33373B316D566572667565678C
:1007C00062617265204B6F6D6D616E646F733A0D7F
:1007D0000A201B5B33373B316D646366201B5B3043
:1007E0003B33376D2D3E2053796E6368726F6E69AF
:1007F000736174696F6E206D6974204443463737A6
:10080000206A617C6E65696E2E0D0A201B5B333792
:100810003B316D736D74201B5B303B33376D2D3E68
:10082000204D757474657275687220617566205A02
:1008300065697420766F6E204E6562656E756872AC
:10084000656E207374656C6C656E2E0D0A201B5BE3
:1008500033373B316D6E7374201B5B303B33376D28
:100860002D3E204E6562656E756872656E206175FD
:1008700066206578616B74206469657365205A65CC
:100880006974207374656C6C656E284E6963687456
:1008900020696D204443463737204D6F64757329B6
:1008A0002E0D0A201B5B33373B316D617374201BA7
:1008B0005B303B33376D2D3E204E6562656E75684B
:1008C00072656E20617566206469657365205A657E
:1008D0006974207374656C6C656E2E205A6569743A
:1008E00020646965206461667565722062656EF6D4
:1008F0007469677420776972642C20776972642048
:1009000068696E7A756164646965727420284E69DD
:1009100063687420696D204443463737204D6F6407
:100920007573292E0D0A201B5B33373B316D7073B5
:1009300074201B5B303B33376D2D3E204D75747436
:1009400065722D20756E64204E6562656E756872E5
:10095000656E20616E68616C74656E2E2853796EC9
:100960006368726F6E69736174696F6E2066756E0D
:100970006B74696F6E6965727420776569746572EE
:10098000292E0D0A201B5B33373B316D73736D20AD
:100990001B5B303B33376D2D3E2053796E636D6F9B
:1009A000647573203132682F323468207365747A2D
:1009B000656E2E0D0A201B5B33373B316D737077EC
:1009C000201B5B303B33376D2D3E204175736761D3
:1009D0006E6773696D70756C737765697465206196
:1009E000656E6465726E283230302D383030306D6F
:1009F00073292E0D0A201B5B33373B316D737461F5
:100A000074201B5B303B33376D2D3E20476573618F
:100A10006D7473746174757320616E7A656967654E
:100A20006E2E0D0A000D0A48696C6665206D6974AA
:100A3000201B5B33373B316D3F1B5B303B33376DE6
:100A4000206F646572201B5B33373B316D68656CCA
:100A5000701B5B303B33376D20756E64206D69749D
:100A60002072657475726E20616E7363686C69655F
:100A70007373656E2E0D0A0011241FBECFEFD8E0F0
:100A8000DEBFCDBF13E0A0E0B1E0ECE2FAE302C0CC
:100A900005900D92A030B107D9F724E0A0E0B3E0B3
:100AA00001C01D92A034B207E1F70E94650E0C94BC
:100AB000141D0C940000E0E1F1E0128652985A9A5D
:100AC000A9E6B0E08C9181608C93E89A82E08287FD
:100AD00086E081870895E9E6F0E080818E7F80835B
:100AE000E898E1E8F0E08081887F8083EFE6F0E03D
:100AF00080818E7F80835A9A0895E82FCB014E2FF4
:100B000050E047305105D8F4FA01EC5CFF4F0C94EB
:100B1000611A62E271E011C062E171E00EC062E050
:100B200071E00BC063EF70E008C062EE70E005C0DA
:100B300064ED70E002C068EC70E00C94A51B0895B1
:100B4000CF93DF93FC0101900020E9F73197E81B78
:100B5000F90B20E130E02E1B310937FF02C02F5F77
:100B60003F4F35952795283058F4623048F4EC0112
:100B7000822F0E94320DCE01DF91CF910C94570D40
:100B8000DF91CF910895FF920F931F93CF93DF933F
:100B900000D0CDB7DEB78B0169E672E00E94AC1BD6
:100BA000009719F480E090E02CC04AE050E0BE01CC
:100BB0006F5F7F4F0E947B1AF62EE981FA81808158
:100BC0008111F0CF87E18F1568F369E672E080E06C
:100BD00090E00E94AC1B009729F34AE050E0BE0170
:100BE0006F5F7F4F0E947B1AE981FA8180818111BA
:100BF000D9CF6C33B8F6F801F0826183128281E0BC
:100C000090E00F900F90DF91CF911F910F91FF9087
:100C10000895FF920F931F93CF93DF9300D000D0DE
:100C2000CDB7DEB7F82E8B011A8219821C821B8287
:100C30004AE0BE016F5F7F4F90E00E94121C89E086
:100C40008F1560F06BE372E0C8010E94C51BBE0106
:100C50006F5F7F4FC8010E94B11B06C0BE016F5F6E
:100C60007F4FC8010E94C51B0F900F900F900F90EF
:100C7000DF91CF911F910F91FF900895EF92FF9216
:100C80000F931F93CF93DF9300D01F92CDB7DEB7A2
:100C90008C017B011A8219821B82BE016F5F7F4F1C
:100CA000F70180810E940906BE016F5F7F4FC80176
:100CB0000E94C51B69E672E0C8010E94B11BBE011B
:100CC0006F5F7F4FF70181810E940906BE016F5F50
:100CD0007F4FC8010E94B11B69E672E0C8010E9403
:100CE000B11BBE016F5F7F4FF70182810E94090631
:100CF000BE016F5F7F4FC8010E94B11B80915C01F4
:100D0000811105C068E372E0C8010E949A1B0F9030
:100D10000F900F90DF91CF911F910F91FF90EF9067
:100D20000895CF92DF92EF92FF920F931F93CF938C
:100D3000DF937C01EB01FC0101900020E9F78C01BD
:100D40000E1B1F0B0F5E1F4F16950795C02E1882A6
:100D500090E1D92E6DE672E0CE010E94B11BDA94CB
:100D6000D110F8CFC7FC1CC0C00FD11D07FDDA950C
:100D700020E0822F022E000C990BF7010190002039
:100D8000E9F73197EE19FF098E179F0748F42031D4
:100D90002CF4F701E80FF91F808189932F5FE9CFC9
:100DA000DF91CF911F910F91FF90EF90DF90CF9047
:100DB00008951F93CF93DF93EC01188210E16DE645
:100DC00072E0CE010E94B11B1150C9F7DE0120E094
:100DD00049E253E0822F90E0FA0101900020E9F708
:100DE0003197E952F3408E179F0748F4203128F4D9
:100DF000FC01E75DFC4F80818D932F5FEBCFEAE331
:100E0000F3E001900020E9F731979F012A53334026
:100E10002031310520F4C21BD30B609601C020E1C4
:100E2000AAE3B3E0FE018E2F8C1B821718F48D917C
:100E30008193F9CFDF91CF911F91089580911A018D
:100E4000811103C06BEB70E00CC0813019F46CEAC7
:100E500070E007C0823019F46CE970E002C062E90A
:100E600070E08BE493E00C94A51B0F931F93CF933A
:100E7000DF93CDB7DEB72A970FB6F894DEBF0FBE6B
:100E8000CDBF8C011A821982FE01339688E0DF0102
:100E90001D928A95E9F7D8011396EC918E2F90E078
:100EA000FC013197E730F105E8F4E55CFF4F0C9465
:100EB000611A67E671E002C06EE571E085E291E0DB
:100EC0000E94A51B15C065E571E0F8CF6AE471E0EA
:100ED000F5CF62E471E0F2CF6AE371E0EFCF6EE646
:100EE00071E0ECCF63E372E085E291E00E94C51B04
:100EF0006DE672E085E291E00E94B11BBE016F5F7A
:100F00007F4FF80182810E940906BE016F5F7F4F0B
:100F100085E291E00E94B11B67E372E085E291E017
:100F20000E94B11BBE016F5F7F4FD80111968C915B
:100F30000E940906BE016F5F7F4F85E291E00E942B
:100F4000B11B67E372E085E291E00E94B11BF801FA
:100F500080814AE0BE016F5F7F4F90E00E94121CCB
:100F6000D8018C918A3018F469E372E002C06DE315
:100F700072E085E291E00E94B11BBE016F5F7F4F7E
:100F800085E291E00E94B11B6DE672E085E291E09E
:100F90000E94B11BBE016F5F7F4FF80184810E94E8
:100FA0000906BE016F5F7F4F85E291E00E94B11B91
:100FB00069E672E085E291E00E94B11BBE016F5FBD
:100FC0007F4FD80115968C910E940906BE016F5F74
:100FD0007F4F85E291E00E94B11B6DE672E085E2F1
:100FE00091E00E94B11BF8018781882319F060E429
:100FF00072E002C064E472E085E291E02A960FB6E6
:10100000F894DEBF0FBECDBFDF91CF911F910F913E
:101010000C94B11B0F931F93CF93DF9300D0CDB7E8
:10102000DEB74AE050E0BE016F5F7F4F0E947B1A3F
:10103000E981FA81208121110FC08B019C010250AE
:101040001109210931090F3411052105310520F459
:101050006093060381E001C080E00F900F90DF9164
:10106000CF911F910F910895811108C080915A016D
:101070008B3320F48F5F80935A01089510925A01A8
:10108000809159019091200180FF03C09093020349
:1010900002C0909303038B3320F48F5F8093590138
:1010A00008951092590180915801873120F48F5F83
:1010B0008093580108951092580108951F920F923D
:1010C0000FB60F9211242F933F934F935F936F931B
:1010D0007F938F939F93AF93BF93EF93FF934B991E
:1010E0005BC0609158018CE090E00E94831C60918D
:1010F00059018BE090E00E94831C809118018823A5
:1011000049F1609114018AE090E00E94831C609193
:10111000150189E090E00E94831C6091120188E033
:1011200090E00E94831C6091110187E090E00E9492
:10113000831C6091100186E090E00E94831C609106
:10114000130185E090E00E94831C6091170184E008
:1011500090E00FC0609158018AE090E00E94831CEB
:101160006091590189E090E00E94831C6FEF88E054
:1011700090E00E94831C809100018823C1F00E94AE
:101180003D0D60E08CE991E00E94A00561E08FE8F0
:1011900091E00E94A0050BC083E390E00E94030E43
:1011A00080910001882319F08CE00E94720DFF915C
:1011B000EF91BF91AF919F918F917F916F915F91CF
:1011C0004F913F912F910F900FBE0F901F90189548
:1011D0001F920F920FB60F9211242F933F934F93AC
:1011E0005F936F937F938F939F93AF93BF93EF938F
:1011F000FF938091AE039091AF0384332CE092076C
:1012000034F401969093AF038093AE032AC11092F9
:10121000AF031092AE0380910303882341F05F98DF
:101220005E9A8091030381508093030301C05E980E
:1012300080910203882341F05E985F9A80910203B7
:1012400081508093020301C05F988091AD03893083
:1012500020F48F5F8093AD03F5C01092AD038091B1
:101260007A038823F1F0809178038B3320F48F5F29
:101270008093780316C010927803809177038B33A4
:1012800020F48F5F809377030CC0109277038091D6
:101290007603873120F48F5F8093760302C010922B
:1012A000760330910003209158018091760390914C
:1012B0005901409177035CE33323C9F0259F9001E6
:1012C0001124290F311D5CE3859FC0011124840F77
:1012D000911D8217930714F480569A4F821B930B2B
:1012E000833625E09207A4F1805A954031C0259FAE
:1012F00090011124290F311D5CE3859FC001112449
:10130000840F911D213D42E0340714F0205D3240EE
:10131000813D52E0950714F0805D9240A9012817A5
:10132000390744F440535D4F481B590B4E33510568
:101330006CF405C0481B590B4E3351052CF488271B
:101340009927841B950B04C080539D4F821B930BE0
:1013500090930503809304034B9B3DC080917903D8
:10136000882359F180910403909105030097A1F01F
:1013700094F18091AB039091AC031816190634F0E8
:1013800081E00E94340880911F0190E001979093C2
:10139000AC038093AB031FC0809176038093580108
:1013A00080917703809359018091780380935A014B
:1013B0001092790310927A030EC080915C01882309
:1013C00051F080911F0190E09093AC038093AB03A8
:1013D00080E00E94340880915C03882321F08150D2
:1013E00080935C030FC085E080935C0380915E0373
:1013F000893041F08F5F883018F480935E0302C01B
:1014000010925E0380911801882319F08150809317
:10141000180180911B0190911C01A0911D01B091B8
:101420001E018F3F2FEF9207A207B20759F00196D6
:10143000A11DB11D80931B0190931C01A0931D0160
:10144000B0931E018091AD0365E00E94411A911195
:1014500008C05D9B02C05D9801C05D9A81E08093E9
:101460005D03FF91EF91BF91AF919F918F917F911C
:101470006F915F914F913F912F910F900FBE0F9001
:101480001F901895EF92FF920F931F93CF93DF93C6
:1014900000D0CDB7DEB77C010E941C0E9A838983F1
:1014A0009C0122273B71232B89F58C0111270D30DC
:1014B000110539F48CEE92E00E944A0E6AE873E05E
:1014C00005C00330110551F469E472E0C7010E94C0
:1014D000C51B10928A0381E090E01AC00E94350E6D
:1014E000EAE8F3E001900020E9F73197EA58F34089
:1014F000B09760F4005211090F35110538F4BE01A0
:101500006F5F7F4F8AE893E00E94B11B80E090E01C
:101510000F900F90DF91CF911F910F91FF90EF905F
:1015200008951F920F920FB60F9211248F939F93DD
:10153000EF93FF93E1E8F0E08081887F8083EFE61E
:10154000F0E080818E7F80838FEF9FEF9093850006
:1015500080938400FF91EF919F918F910F900FBE28
:101560000F901F9018951F920F920FB60F92112493
:101570002F933F934F935F936F937F938F939F939B
:10158000AF93EF93FF9350911A014A9B64C08091EF
:101590008100887F8093810080916F008E7F80938F
:1015A0006F008091840090918500909389038093CF
:1015B000880390937B0180937A01109285001092AA
:1015C00084008091810085608093810080916F000C
:1015D000816080936F00209188033091890351309E
:1015E000A9F48091860390918703820F931F855FF2
:1015F0009C418F31934050F094E09093190182E028
:1016000080931A0190937C0180937D012D51364384
:101610002F3A344008F0A7C180911801883398F020
:1016200080910103882379F08091140180937603DF
:1016300080911501809377031092780381E0809365
:10164000790380937A031092B00381E080931A01AA
:1016500080937D0188C180918100887F8093810083
:1016600080916F008E7F80936F00809184009091B5
:1016700085009093870380938603909379018093EC
:10168000780110928500109284008091810085601D
:101690008093810080916F00816080936F00513052
:1016A00009F061C180918603909187039C012152CA
:1016B00035404091B003233F314030F4E42FF0E057
:1016C000EF54FC4F508315C0885792408B329140A5
:1016D00030F4E42FF0E0EF54FC4F10820AC095E0A4
:1016E0009093190182E080931A0190937C0180937A
:1016F0007D0180911A01813009F032C14A3308F42A
:101700002FC18091C303809317018091C603E7EC3A
:10171000F3E0982F2191922733E0ED3CF307D1F7C6
:101720002091CD0329132AC02091C90358E0259F99
:10173000B00111249091C80354E0959F90011124A9
:10174000262B822B2091C703220F282B8091CC03BC
:1017500094E0899FB00111249091CB03892F90E0F0
:10176000880F991F862B972B3091CA03832B3AE061
:10177000839F200D11242093150107C082E08093E0
:101780001A0180937C0180937D019091CE0350914A
:10179000CF03892F85273091D00383276091D10310
:1017A0008627A091D2038A272091D30382277091A4
:1017B000D40378131BC080911A018130B9F488E0FA
:1017C000689FF001112484E0389FB00111246E2B32
:1017D000962B550F952B30E0220F331F2A2B5AE002
:1017E000259F900D11249093140108C082E08093EE
:1017F0001A0191E090937C0180937D018091D50343
:10180000E6EDF3E0982F2191922763E0EB3EF60797
:10181000D1F72091EB03291399C090911A019130CF
:1018200009F094C02091D80398E0299FB0011124B9
:101830009091D70354E0959F90011124262B822B81
:101840009091D603990F892B2091DA0330E0220F73
:10185000331F9091D903292B6AE0269F800D112414
:10186000809312018091DD0324E0829FC001112446
:101870009091DC03990F892B9091DB03892B809346
:1018800013018091E10338E0839FB001112420917E
:10189000E00354E0259FC0011124862B2091DE0334
:1018A000982F922B8091DF03880F892B9091E20370
:1018B0006AE0969F800D1124809311016091EA03E4
:1018C00088E0689FB00111248091E90324E0829FA1
:1018D000C0011124682B792B8091E703682B80913C
:1018E000E80390E0880F991F682B792B8091E6031D
:1018F00038E0839FF00111242091E50354E0259FF7
:10190000C00111248E2B2091E303982F922B8091FC
:10191000E403880F892B9AE0699F800D112480933E
:1019200010018BE3809318011092190182E08093DB
:101930001A0110927C0180937D0110921B0110927C
:101940001C0110921D0110921E010AC093E0909399
:10195000190182E080931A0190937C0180937D01AC
:101960004F5F4093B003FF91EF91AF919F918F91A3
:101970007F916F915F914F913F912F910F900FBE8B
:101980000F901F901895439A00C043980895CF93E5
:10199000C82F662311F0459A01C0459844983A9A99
:1019A000399A389A229A2A98409841984298C7FDC5
:1019B0002A9AC6FD409AC5FD419AC4FD429A0E94EA
:1019C000C30C2A98409841984298C3FD2A9AC2FDB8
:1019D000409AC1FD419AC0FD429A0E94C30C429AAE
:1019E000419A409A2A9ACF9108954598449A3A98F4
:1019F000399838982298439A00C0329B02C080E1FF
:101A000001C080E031998062309980641A998068C1
:101A1000439800C0439A00C0329981603199826036
:101A2000309984601A998860439808950E94F50C53
:101A300087FDFCCF84E090E00197F1F70C94F50C62
:101A4000CF93C82F0E94160D60E08C2FCF910C947D
:101A5000C70CCF93C82F0E94160D61E08C2FCF9139
:101A60000C94C70C611102C0805801C080540C94C2
:101A7000200D0E94160D90E0089581E00C94200D39
:101A800082E00C94200DCF93C82F0E94160DCA300F
:101A900049F4803410F080E001C080E48058CF9198
:101AA0000C94200D61E08C2FCF910C94C70CCF9338
:101AB000DF93EC018991882319F00E94430DFACF3E
:101AC000DF91CF910895CF93DF93FC018491EF01D3
:101AD0002196882321F00E94430DFE01F7CFDF916C
:101AE000CF9108951F93CF93DF93182F3A9A399A85
:101AF000389A229A3D9A3C9A3B9A80E09DE701975A
:101B0000F1F7419A429A0E94C30C80E097E2019754
:101B1000F1F70E94C30CC0E8D0E0CE010197F1F7C5
:101B20000E94C30CCE010197F1F742980E94C30CAA
:101B30002197F1F788E20E94200D88E00E94200D95
:101B40000E943D0D86E00E94200D812FDF91CF91F4
:101B50001F910C94200D1F920F920FB60F9211241B
:101B60002F938F939F93EF93FF938091C000909159
:101B7000C6008871E091EF03EF5FEF712091EE03F3
:101B8000E21739F0E093EF03F0E0EE50FC4F908362
:101B900001C082E09091ED03892B8093ED03FF91CA
:101BA000EF919F918F912F910F900FBE0F901F90EB
:101BB00018951F920F920FB60F9211248F939F9337
:101BC000EF93FF939091F1038091F003981769F0E0
:101BD000E091F003EF5FEF71E093F003F0E0EE5E71
:101BE000FB4F80818093C60005C08091C1008F7D2E
:101BF0008093C100FF91EF919F918F910F900FBE45
:101C00000F901F9018951092F1031092F00310920C
:101C1000EF031092EE0397FF04C022E02093C00070
:101C20009F779093C5008093C40088E98093C1009A
:101C300086E08093C20008959091EF038091EE03B7
:101C4000981781F0E091EE03EF5FEF71E093EE0300
:101C5000F0E0EE50FC4F80819091ED031092ED0387
:101C600090E0089580E091E008959091F1039F5FE6
:101C70009F712091F0039217E1F3E92FF0E0EE5EFF
:101C8000FB4F80839093F1038091C1008062809329
:101C9000C1000895CF93DF93EC018991882319F057
:101CA0000E94350EFACFDF91CF910895CF93DF9345
:101CB000FC018491EF012196882321F00E94350ECA
:101CC000FE01F7CFDF91CF910895F999FECF8BE018
:101CD00090E00E947B1C809359018C3340F48CE08F
:101CE00090E00E947B1C80935801883120F0109274
:101CF00058011092590181E090E00E947B1C8823DA
:101D000019F010925C0103C081E080935C0183E0D4
:101D100090E00E947B1C91E0811101C090E09093C3
:101D2000010382E090E00E947B1C91E0811101C0E0
:101D300090E09093000380E090E00E947B1C8093F1
:101D4000200182508F3418F084E08093200180912C
:101D5000200190E001966AE070E00E944D1A6F5FEA
:101D600060931F01789483E390E00E94030E8BE45C
:101D700092E00E944A0E80E592E00E944A0E88E5B9
:101D800092E00E944A0E87E691E00E944A0E8DE69C
:101D900092E00E944A0E8EE791E00E944A0E8CEE7D
:101DA00092E00E944A0E8BE492E00E944A0E81E685
:101DB00091E00E944A0E8AB1806E8AB98AB1877E0C
:101DC0008AB95C9A80916900846080936900E99A7D
:101DD00016BC85B5816085BD80916E008160809361
:101DE0006E008091010381110E945B054C9B1FC016
:101DF0008CE00E94720D60E080E00E94320D0E9433
:101E00003D0D81E08093000160E087E691E00E9453
:101E1000A00561E08EE791E00E94A005CAE0D0E055
:101E200012E004E035E0F32E46E0E42EBEC010924E
:101E3000000188B1817C88B987B18E6387B9EECF04
:101E40004B9BFECF80915E03811112C068E571E06B
:101E500087E491E00E943E0668E173E085E292E04B
:101E60000E94910667E073E087E491E00E9491068A
:101E700080915E03813009F49FC080915E038230BF
:101E800009F4BDC080915E03833009F4CCC0809119
:101E90005E03843009F4DDC080915E03853009F46F
:101EA000F2C080915E03863009F434C180915E03F4
:101EB000873009F4E2C180915E03893009F042C0A5
:101EC0006FE074E089E293E00E94A51B80917801A5
:101ED000909179014AE06BE473E00E94121C6BE47C
:101EE00073E089E293E00E94B11B80917D014AE09A
:101EF0006AE373E090E00E94121C88E193E00E9484
:101F0000D90668E074E089E293E00E94A51B809105
:101F10007A0190917B014AE06BE473E00E94121C0D
:101F20006BE473E089E293E00E94B11B80917C0135
:101F30004AE06AE373E090E00E94121C87E093E0BD
:101F40000E94D90680915D038111B1C180915D032A
:101F50008111C3C160E186E693E00E94420A892BA9
:101F600009F46ECF69E472E086E693E00E94BC1B40
:101F7000892B09F00CC210925F038FE692E00E9459
:101F80004A0E109266036AE472E086E693E00E94CD
:101F9000C51B109260031092340480915F0381117D
:101FA0004FCF81E691E00E944A0E87E0D82E93E061
:101FB000C92E29E0B22E44CF809179038823E1F025
:101FC00068E173E084E192E00E9491064AE069E2F0
:101FD00073E080910403909105030E94121C64EE4B
:101FE00071E089E293E00E94B11B67E073E089E24F
:101FF00093E00E94910641CF10935E033ECF68E1CB
:1020000073E083E092E00E9491068091010367E013
:1020100073E0882319F08EEE91E002C088ED91E024
:102020000E9491062FCF80910103882379F068E107
:1020300073E084EF91E00E9491060E941E0767E022
:1020400073E08BE493E00E94910621CF00935E033E
:102050001ECF80910103882399F068E173E088EC3A
:1020600091E00E94910669E273E0809119010E945B
:102070007D0567E073E089E293E00E9491060CCF52
:10208000F0925E0309CF80910103882309F43FC0D9
:1020900080911A018130D9F5A090B003AA942AE367
:1020A0002A15A8F168E173E088EB91E00E9491069F
:1020B0006DE572E089E293E00E94C51B6BE473E07A
:1020C0008A2D0E9409066BE473E089E293E00E9486
:1020D000B11B62E672E089E293E00E94B11BE091DD
:1020E000B003F0E0E055FC4F8081813019F46DEDD4
:1020F00072E002C06BE372E089E293E00E94B11BE0
:1021000067E073E089E293E00E949106CACEE09214
:102110005E03C7CE80910103882309F4ABC0809190
:102120001801882309F4A6C064E672E089E293E00E
:102130000E94C51B6BE473E0809114010E940906A4
:102140006BE473E089E293E00E94B11B69E672E000
:1021500089E293E00E94B11B6BE473E0809115016A
:102160000E9409066BE473E089E293E00E94B11BD0
:102170006DE672E089E293E00E94B11B8091170145
:10218000882319F060E472E002C064E472E089E23E
:1021900093E00E94B11B68E173E089E293E00E9442
:1021A0009106E09113018E2F90E0FC013197E7300A
:1021B000F105E8F4EE5BFF4F0C94611A64E371E003
:1021C00002C061E371E089E293E00E94A51B15C0A3
:1021D0006EE271E0F8CF6BE271E0F5CF68E271E09A
:1021E000F2CF65E271E0EFCF67E371E0ECCF63E33C
:1021F00072E089E293E00E94C51B6BE672E089E21F
:1022000093E00E94B11B6BE473E0809112010E9485
:1022100009066BE473E089E293E00E94B11B67E377
:1022200072E089E293E00E94B11B6BE473E080915D
:1022300011010E9409066BE473E089E293E00E94B9
:10224000B11B67E372E089E293E00E94B11B6BE48B
:1022500073E0809110010E9409066BE473E089E24B
:1022600093E00E94B11B67E073E089E293E00E9473
:1022700091061CCED0925E0319CE68E173E08CEA21
:1022800091E00E94910680910003882319F06EE589
:1022900073E002C063E573E089E293E00E94A51B4E
:1022A00067E073E089E293E00E94910604CE80919A
:1022B0000001882309F44ACE60E080E00E94320DDC
:1022C00088E193E00E94570D61E080E00E94320DAA
:1022D00087E093E00E94570D57C080910001811163
:1022E00039CE80910103882309F443C080911A01FB
:1022F000882341F0813021F0823021F4419902C0DD
:10230000419A01C04198809119019FEF980F923036
:1023100020F09CEF980F923018F4429A43980BC02B
:10232000811107C080911801882319F04298439ABF
:1023300002C04398429880911B0190911C01A0918A
:102340001D01B0911E01813821E5920721E0A2070D
:10235000B10558F481519E40A109B10980379344D9
:10236000A140B10520F4449B02C0449806C0449AA1
:1023700004C04198449843984298809179038130F1
:1023800011F4459A01C0459810925D03E3CD68E7CA
:1023900072E086E693E00E94AC1B46E050E0BC0190
:1023A00080E693E00E94DC1B68E772E080E090E04A
:1023B0000E94AC1B009781F04AE050E0BC0184E32E
:1023C00094E00E94DC1B6AE772E080E693E00E94E2
:1023D000BC1B892BA9F408C01092340480915F03C0
:1023E000882309F468C4EEC668E571E084E394E0EC
:1023F0000E94C305892B09F075C08BEA92E09CC44A
:102400006FE772E080E693E00E94BC1B892B71F4B9
:1024100066E773E084E394E00E94C305892B69F3C7
:1024200081E08093790380937A035CC064E872E072
:1024300080E693E00E94BC1B892B71F466E773E091
:1024400084E394E00E94C305892BB9F210927A03C9
:1024500081E08093790346C069E872E080E693E00A
:102460000E94BC1B892B31F56DED72E084E394E092
:102470000E94BC1B892B59F481E08093010361E029
:1024800083E090E00E94831C0E945B052BC06BE3FD
:1024900072E084E394E00E94BC1B892B09F0ADCF6D
:1024A0001092010360E083E090E00E94831C0E9490
:1024B0006B0518C06EE872E080E693E00E94BC1BDA
:1024C000892B01F56DED72E084E394E00E94BC1B62
:1024D000892B59F481E08093000361E082E090E071
:1024E0000E94831C83EB92E027C46BE372E084E3D9
:1024F00094E00E94BC1B892B09F07FCF109200034F
:1025000060E0ECCF63E972E080E693E00E94BC1BE0
:10251000892BC1F484E394E00E940A08882309F41B
:102520006CCF2091060320932001822F90E001962A
:10253000BE010E944D1A6F5F60931F01622F80E001
:1025400090E0CECF68E972E080E693E00E94BC1B89
:10255000892BE1F46DED72E084E394E00E94BC1BF2
:10256000892B21F410925C0161E00DC06BE372E0F5
:1025700084E394E00E94BC1B892B09F03ECF81E0EC
:1025800080935C0160E081E090E0AACF6DE972E0A9
:1025900086E693E00E94BC1B892BB9F490918503D9
:1025A00080910103992341F0882309F4ECCC109227
:1025B000850310925E0396CF882309F4E4CC81E072
:1025C00080938503B0925E038DCF65EA72E080E66A
:1025D00093E00E94BC1B892B09F0D5CC6BEA72E01A
:1025E00084E394E00E94BC1B892B99F467E671E0B8
:1025F00089E293E00E94C51B89E293E00E944A0EA3
:1026000061E271E089E293E00E94C51B6EE771E030
:1026100041C36EEA72E084E394E00E94BC1B892B04
:1026200079F5809158014AE06BE473E090E00E94F4
:10263000121C6BE473E089E293E00E94C51B42E048
:1026400050E061E271E089E293E00E94CC1B80914E
:1026500059014AE06BE473E090E00E94121C6BE4C5
:1026600073E089E293E00E94B11B42E050E061E236
:1026700071E089E293E00E94CC1B80915A0102C371
:1026800062EB72E084E394E00E94BC1B892B79F535
:10269000809176034AE06BE473E090E00E94121CA4
:1026A0006BE473E089E293E00E94C51B42E050E0D6
:1026B00061E271E089E293E00E94CC1B8091770394
:1026C0004AE06BE473E090E00E94121C6BE473E05C
:1026D00089E293E00E94B11B42E050E061E271E0C8
:1026E00089E293E00E94CC1B80917803CBC266EB19
:1026F00072E084E394E00E94BC1B892B09F016C1B0
:10270000809110014AE06BE473E090E00E94121C9B
:102710006BE473E089E293E00E94C51B42E050E065
:1027200061E271E089E293E00E94CC1B809111018B
:102730004AE06BE473E090E00E94121C6BE473E0EB
:1027400089E293E00E94B11B42E050E061E271E057
:1027500089E293E00E94CC1B89E293E00E944A0E3A
:10276000809112014AE06BE473E090E00E94121C39
:102770006BE473E089E293E00E94C51B42E050E005
:1027800061E271E089E293E00E94CC1B8091130129
:102790004AE06BE473E090E00E94121C6BE473E08B
:1027A00089E293E00E94B11B42E050E061E271E0F7
:1027B00089E293E00E94CC1B809114014AE06BE413
:1027C00073E090E00E94121C6BE473E089E293E0F6
:1027D0000E94B11B42E050E061E271E089E293E0C7
:1027E0000E94CC1B89E293E00E944A0E8091150161
:1027F0004AE06BE473E090E00E94121C6BE473E02B
:1028000089E293E00E94C51B42E050E061E271E082
:1028100089E293E00E94CC1B809116014AE06BE4B0
:1028200073E090E00E94121C6BE473E089E293E095
:102830000E94B11B42E050E061E271E089E293E066
:102840000E94CC1B809117014AE06BE473E090E09A
:102850000E94121C6BE473E089E293E00E94B11BBA
:1028600042E050E061E271E089E293E00E94CC1B1B
:1028700089E293E00E944A0E809118014AE06BE4DD
:1028800073E090E00E94121C6BE473E089E293E035
:102890000E94C51B42E050E061E271E089E293E0F2
:1028A0000E94CC1B809119014AE06BE473E090E038
:1028B0000E94121C6BE473E089E293E00E94B11B5A
:1028C00042E050E061E271E089E293E00E94CC1BBB
:1028D00080911A014AE06BE473E090E00E94121CC0
:1028E0006BE473E089E293E00E94B11B42E050E0A8
:1028F00061E271E089E293E00E94CC1B89E293E0FF
:102900000E944A0E60911B0170911C0180911D0173
:1029100090911E012AE04BE453E00E941D1C6BE4E1
:1029200073E089E293E00E94C51BB8C16AEB72E0D4
:1029300084E394E00E94BC1B892B09F049C080917C
:10294000B0034AE06BE473E090E00E94121C6BE479
:1029500073E089E293E00E94C51B42E050E061E22F
:1029600071E089E293E00E94CC1B89E293E00E942F
:102970004A0E10920603E0910603EC3330F5F0E0C6
:10298000EF54FC4F80814AE06BE473E090E00E94DA
:10299000121C6BE473E089E293E00E94C51B8091F6
:1029A00006038B3341F042E050E061E271E089E2DE
:1029B00093E00E94CC1B89E293E00E944A0E809132
:1029C00006038F5F80930603D6CF83E291E070C148
:1029D0006EEB72E084E394E00E94BC1B892B09F04B
:1029E00097C086E090E00E947B1C4AE06BE473E0B5
:1029F00090E00E94121C6BE473E089E293E00E9475
:102A0000C51B42E050E061E271E089E293E00E9480
:102A1000CC1B87E090E00E947B1C4AE06BE473E0F3
:102A200090E00E94121C6BE473E089E293E00E9444
:102A3000B11B42E050E061E271E089E293E00E9464
:102A4000CC1B88E090E00E947B1C4AE06BE473E0C2
:102A500090E00E94121C6BE473E089E293E00E9414
:102A6000B11B42E050E061E271E089E293E00E9434
:102A7000CC1B89E293E00E944A0E85E090E00E9420
:102A80007B1C4AE06BE473E090E00E94121C6BE454
:102A900073E089E293E00E94C51B42E050E061E2EE
:102AA00071E089E293E00E94CC1B8AE090E00E94F2
:102AB0007B1C4AE06BE473E090E00E94121C6BE424
:102AC00073E089E293E00E94B11B42E050E061E2D2
:102AD00071E089E293E00E94CC1B89E090E00E94C3
:102AE0007B1C4AE06BE473E090E00E94121C6BE4F4
:102AF00073E089E293E00E94B11B42E050E061E2A2
:102B000071E089E293E00E94CC1B84E090E0B8C0C1
:102B100062EC72E084E394E00E94BC1B892B09F014
:102B20008CC080915C014AE06BE473E090E00E940D
:102B3000121C6BE473E089E293E00E94C51B42E043
:102B400050E061E271E089E293E00E94CC1B809149
:102B50007A034AE06BE473E090E00E94121C6BE49D
:102B600073E089E293E00E94B11B42E050E061E231
:102B700071E089E293E00E94CC1B809179034AE0E6
:102B80006BE473E090E00E94121C6BE473E089E256
:102B900093E00E94B11B42E050E061E271E089E203
:102BA00093E00E94CC1B89E293E00E944A0E4AE027
:102BB0006BE473E080910403909105030E94121C62
:102BC0006BE473E089E293E00E94C51B42E050E0B1
:102BD00061E271E089E293E00E94CC1B80910103E5
:102BE0004AE06BE473E090E00E94121C6BE473E037
:102BF00089E293E00E94B11B42E050E061E271E0A3
:102C000089E293E00E94CC1B809100034AE06BE4D0
:102C100073E090E00E94121C6BE473E089E293E0A1
:102C20000E94B11B42E050E061E271E089E293E072
:102C30000E94CC1B8091200125C066EC72E084E3E9
:102C400094E00E94BC1B892B09F0D7CB8CE090E06C
:102C50000E947B1C4AE06BE473E090E00E94121C2F
:102C60006BE473E089E293E00E94C51B42E050E010
:102C700061E271E089E293E00E94CC1B8BE090E07E
:102C80000E947B1C4AE06BE473E090E00E94121CFF
:102C90006BE473E089E293E00E94B11B42E050E0F4
:102CA00063E271E089E293E00E94CC1B89E293E049
:102CB0000E944A0E17CC6BE772E086E693E00E9412
:102CC000BC1B892B31F481E080935F0389E395E09D
:102CD00033C06AEC72E086E693E00E94BC1B892B4D
:102CE000D9F480E592E00E944A0E87E691E00E94C6
:102CF0004A0E8CEE92E00E944A0E83E997E00E9411
:102D0000560E8EE791E00E944A0E8CEE92E00E94F1
:102D10004A0E85E29AE010C065E872E086E693E02C
:102D20000E94BC1B892B71F480910103811107C0A3
:102D300010935F0383E195E00E94560E24C980ED55
:102D400094E0FACF60E872E086E693E00E94BC1B54
:102D5000892B49F4809101038111F1CFC0925F0367
:102D600083EF94E0E9CF6AE872E086E693E00E94A0
:102D7000BC1B892B81F400935F0389E494E00E94DB
:102D8000560E80910103882319F080E394E0D4CF9C
:102D900086E194E0D1CF69E972E086E693E00E9493
:102DA000BC1B892B81F4F0925F0382EC94E00E94BB
:102DB000560E80915C01882319F087EA94E0BCCF1D
:102DC00084E894E0B9CF6FE872E086E693E00E9471
:102DD000BC1B892B81F4E0925F038FEB93E00E9490
:102DE000560E80910003882319F084E993E0A4CF64
:102DF00089E693E0A1CF6EEC72E086E693E00E9454
:102E0000BC1B892B41F063ED72E086E693E00E94E3
:102E1000BC1B892B19F481EB97E08ECF64E972E03B
:102E200086E693E00E94BC1B892B29F4D0925F03B5
:102E300085EE91E081CF66EA72E086E693E00E943B
:102E4000BC1B892B09F0B0C180E592E00E944A0EBC
:102E500087E691E00E944A0E8CEE92E00E944A0EB4
:102E600083E997E00E94560E8EE791E00E944A0E99
:102E70008CEE92E00E944A0E68E571E087E491E0F2
:102E80000E943E068AE697E00E94560E87E491E093
:102E90000E944A0E8CE497E00E94560E80917903BE
:102EA000882321F166E773E087E491E00E943E0603
:102EB00083E592E00E94560E87E491E00E944A0E5C
:102EC0004AE06BE473E080910403909105030E9453
:102ED000121C8DE692E00E944A0E8BE493E00E9461
:102EE0004A0E82E792E00E94560E04C085ED92E001
:102EF0000E944A0E84ED95E00E94560E80910003D8
:102F0000882319F08EE593E002C083E593E00E94E8
:102F1000560E8CEB96E00E94560E8091010388239A
:102F200009F47CC081E896E00E94560E809112015F
:102F3000882349F080E191E00E94350785E291E025
:102F40000E944A0E04C082E694E00E94560E84E578
:102F500096E00E94560E6BE473E0809119010E9486
:102F60007D058BE493E00E944A0E80E396E00E9488
:102F7000560E0E941E078BE493E00E944A0E809139
:102F80001A01813021F58091B003882301F180E995
:102F900092E00E94560E8091B00390E04AE06BE40C
:102FA00073E001970E94121C8BE493E00E944A0E8A
:102FB000E091B003F0E0E055FC4F8081813019F4DE
:102FC0008CED92E002C08FED92E00E944A0E80915B
:102FD0001B0190911C01A0911D01B0911E018F3F1A
:102FE0009F4FAF4FBF4FF1F080E096E00E94560E2A
:102FF00060911B0170911C0180911D0190911E0137
:103000002AE04BE453E00E941D1C8BE493E00E94F5
:103010004A0E86E791E00E94560E04C088ED91E0CA
:103020000E944A0E8CEE92E00E944A0E89E090E0E7
:103030000E947B1C8F3F09F457C08FE197E00E94EC
:10304000560E88E090E00E947B1C8F3F89F189E05A
:1030500090E00E947B1C809306018AE090E00E9431
:103060007B1C8093050188E090E00E947B1C80938C
:10307000030187E090E00E947B1C8093020186E0C0
:1030800090E00E947B1C8093010184E090E00E940C
:103090007B1C8093080185E090E00E947B1C80935C
:1030A000040181E091E00E94350785E291E016C0BD
:1030B00089E090E00E947B1C809381038AE090E08D
:1030C0000E947B1C809380031092820360E873E06F
:1030D0008BE493E00E943E068BE493E00E944A0E4C
:1030E0008CEE92E00E944A0E8BE090E00E947B1CE6
:1030F0008F3F01F189ED96E00E94560E8BE090E043
:103100000E947B1C80937C038CE090E00E947B1CDF
:1031100080937B0310927D036BE773E08BE493E075
:103120000E943E068BE493E00E944A0E8CEE92E0F1
:103130000E944A0E8FEA95E00E94560E809100018F
:10314000882319F082E392E002C08EE292E00E94AE
:10315000560E8CEE92E00E944A0E86E895E00E94A0
:10316000560E809120014AE06BE473E090E00E94EB
:10317000121C8BE493E00E944A0E82EE92E00E94C1
:103180004A0E8BE595E00E94560E80911F014AE0A1
:103190006BE473E090E00E94121C8BE493E00E94C9
:1031A0004A0E89EE92E00AC08FEE92E00E944A0E2B
:1031B00089EF92E00E94560E8BE492E00E944A0E44
:1031C0000C94C30F8130F9F468E571E086E693E072
:1031D0000E94C305892B39F087EF92E00E944A0EC6
:1031E00088EB92E006C08FEE92E00E944A0E80EEDD
:1031F00092E00E94560E8BE492E00E944A0E1092DA
:103200005F030C94C30F8230D1F466E773E086E667
:1032100093E00E94C305892B31F387EF92E00E946F
:103220004A0E88EB92E00E94560E8BE492E00E94D8
:103230004A0E10927A0381E080937903E0CF8330C5
:10324000D1F466E773E086E693E00E94C305892B1C
:1032500051F287EF92E00E944A0E88EB92E00E94C2
:10326000560E8BE492E00E944A0E81E0809379032F
:1032700080937A03C4CF843009F047C06FE571E0D2
:1032800086E693E00E94BC1B892B89F5809101039F
:10329000811117C087EF92E00E944A0E8BEE93E0F7
:1032A0000E94560E8BE492E00E944A0E81E08093C9
:1032B000010361E083E090E00E94831C0E945B05B3
:1032C0009ECF87EF92E00E944A0E8EEC93E00E9420
:1032D000560E8BE492E00E944A0E1092010360E0C9
:1032E00083E090E00E94831C0E946B0588CF6DE50F
:1032F00071E086E693E00E94BC1B892B09F47FCF26
:1033000080E492E00E94560E7ACF853081F56FE519
:1033100071E086E693E00E94BC1B892B09F05BC03C
:1033200080915C01811111C080E592E00E944A0EFB
:103330008FEC92E00E94560E8BE492E00E944A0EBF
:1033400081E080935C0160E00FC080E592E00E9424
:103350004A0E8DEB92E00E94560E8BE492E00E94A2
:103360004A0E10925C0161E081E090E031C086304D
:1033700009F041C06FE571E086E693E00E94BC1B56
:10338000892B49F580910003811111C087EF92E0EC
:103390000E944A0E84E393E00E94560E8BE492E072
:1033A0000E944A0E81E08093000361E00FC087EF26
:1033B00092E00E944A0E85E193E00E94560E8BE453
:1033C00092E00E944A0E1092000360E082E090E0DA
:1033D0000E94831C14CF6DE571E086E693E00E94A5
:1033E000BC1B892B09F40BCF8FEE92E00E944A0E92
:1033F00080E492E0FECE873009F001CF86E693E0CC
:103400000E940A08882381F320910603209320015B
:10341000822F90E00196BE010E944D1A6F5F60936B
:103420001F01622F80E090E00E94831C87EF92E0F2
:103430000E944A0E81EC91E00E94560E809120017C
:103440004AE06BE473E090E00E94121C8BE493E08E
:103450000E944A0E81EB91E00E94560E8DE891E0A9
:103460000E94560E80911F014AE06BE473E090E0E9
:103470000E94121C8BE493E00E944A0E80E891E0C7
:10348000B8CE991B79E004C0991F961708F0961BD7
:10349000881F7A95C9F78095089597FB072E16F433
:1034A000009407D077FD09D00E94671A07FC05D069
:1034B0003EF4909581959F4F0895709561957F4F4B
:1034C0000895EE0FFF1F0590F491E02D0994AA1BBB
:1034D000BB1B51E107C0AA1FBB1FA617B70710F0FF
:1034E000A61BB70B881F991F5A95A9F78095909531
:1034F000BC01CD010895A0E0B0E0E1E8FAE10C9450
:10350000CF1C5C016B017A016115710519F0FB019B
:1035100091838083E114F10429F0C7010297839716
:1035200008F0E5C0E5012196F5011081812F90E0BA
:103530000E94911B892B11F05E01F4CF1D3229F4FA
:103540002196F501118101E007C01B3221F4E5014C
:103550002296F501118100E0E114F10409F1F0E196
:10356000EF16F10429F43FC010E3E114F10421F156
:1035700028E0E216F10401F154F4E2E0EE16F10461
:1035800021F5812C912CA12CB0E4BB2E3EC0FAE099
:10359000EF16F10439F020E1E216F104B1F430C085
:1035A000103319F1FAE0EF2EF12CACEC8A2E982CA6
:1035B000A82CACE0BA2E29C078E0E72EF12C812CA3
:1035C000912CA12CE0E1BE2E20C060E070E080E0F4
:1035D00090E897010F2C000C440B550B0E94A11C86
:1035E00049015A0112C0103359F488818F7D883502
:1035F00009F0BACF19812296026080E1E82EF12C01
:10360000812C912CA12C68E0B62E40E060E070E0A7
:10361000CB0127010F2C000C66087708FE0150ED46
:10362000352E310E29E0231570F42FEB210F2A31AE
:1036300018F439EC332E06C02FE9210F2A3118F582
:1036400029EA322E310E232D30E02E153F05DCF411
:1036500047FD16C086169706A806B90670F0A301A6
:1036600092010E94911C630D711D811D911D61309D
:103670007105810520E8920710F04FEF01C041E08D
:1036800021961081CBCF202F2170C114D10471F06D
:10369000442329F02197F601D183C08307C001FF9D
:1036A00019C02297F601D183C08314C047FF12C00E
:1036B000222329F060E070E080E090E804C06FEF22
:1036C0007FEF8FEF9FE722E230E030933F042093BB
:1036D0003E0409C0222381F09095809570956195F4
:1036E0007F4F8F4F9F4F462F372F282F12C040E01C
:1036F00030E020E090E00DC097FFF5CF82E290E04F
:1037000090933F0480933E046FEF7FEF8FEF9FE72E
:10371000EACF642F732F822FCDB7DEB7E1E10C948F
:10372000EB1C91110C94681C803219F08950855063
:10373000C8F70895FB01DC010D900020E9F711970F
:1037400005900D920020E1F70895FB01DC01059042
:103750000D920020E1F7089542E354E00E94EB1B34
:103760000895FB01DC010D900020E9F7119701900D
:103770000D920020E1F70895FB01DC018D9101908D
:1037800080190110D9F3990B0895FB01DC01019018
:103790000D920020E1F70895FB01DC010D9000205F
:1037A000E9F711974150504028F0019000200D9208
:1037B000C9F708951C920895FB01DC014150504067
:1037C00048F001900D920020C9F701C01D924150B0
:1037D0005040E0F70895FA01A191B081009719F4E3
:1037E0001097E1F0CD01DC01CD010D90002011F426
:1037F000C00113C0FB012191222319F02015D9F734
:10380000F3CFFB012191201519F41E92119606C0E9
:103810002223C1F70D900020A1F7D001FA01A19356
:10382000B0830895BB274A3031F4992322F4BDE2D6
:10383000909581959F4F0C944F1CBB272A3051F4D3
:10384000992342F4BDE290958095709561957F4FE4
:103850008F4F9F4F0C942D1CBB27FA01A62F621788
:10386000710581059105330B30FB66F0AA27660FC1
:10387000771F881F991FAA1FA21710F0A21B63951C
:103880003850A9F7A05DAA3308F0A95DA19336F7D7
:10389000B111B1931082CA010C946B1CBB27FB01C0
:1038A0005527AA27880F991FAA1FA41710F0A41B39
:1038B00083955051B9F7A05DAA3308F0A95DA19393
:1038C000009779F7B111B1931192CB010C946B1C55
:1038D000992788270895DC01FC01672F71917723D0
:1038E000E1F7329704C07C916D9370836291AE17BB
:1038F000BF07C8F30895F999FECF92BD81BDF89A2C
:10390000992780B50895262FF999FECF1FBA92BD49
:1039100081BD20BD0FB6F894FA9AF99A0FBE0196B0
:103920000895DB018F939F930E94C31CBF91AF91B9
:10393000A29F800D911DA39F900DB29F900D112409
:103940000895A1E21A2EAA1BBB1BFD010DC0AA1FE0
:10395000BB1FEE1FFF1FA217B307E407F50720F0F8
:10396000A21BB30BE40BF50B661F771F881F991F73
:103970001A9469F760957095809590959B01AC01BC
:10398000BD01CF0108950E94051DA59F900DB49F14
:10399000900DA49F800D911D112408952F923F92A8
:1039A0004F925F926F927F928F929F92AF92BF924F
:1039B000CF92DF92EF92FF920F931F93CF93DF93FB
:1039C000CDB7DEB7CA1BDB0B0FB6F894DEBF0FBE58
:1039D000CDBF09942A88398848885F846E847D84A5
:1039E0008C849B84AA84B984C884DF80EE80FD80A7
:1039F0000C811B81AA81B981CE0FD11D0FB6F8941D
:103A0000DEBF0FBECDBFED010895A29FB001B39FF1
:103A1000C001A39F700D811D1124911DB29F700DD7
:0C3A2000811D1124911D0895F894FFCF22
:103A2C00010000000000000001000600FFFFFFFF86
:103A3C000000000000000001000600FFFFFFFF0176
:103A4C00042C003B002D2D2D2D2D2D2D2D2D2D201D
:103A5C002D2D2E2D2D2E2D2D2D2D202D2D3A2D2D88
:103A6C00202D2D2D2D00002D2D3A2D2D3A2D2D00F4
:103A7C00000000000000000000000000016E006A61
:103A8C00006D753A3E20005241204D75747465727C
:103A9C00756872000000000000000000060056323D
:103AAC002E303062322D646267000000000000612D
:103ABC007573676566616C6C656E21005374726F0B
:103ACC006D766572736F7267756E670053796E638E
:103ADC00204D6F6475733A00444346373720456D6B
:103AEC007066616E67653A00444346204175737792
:103AFC00657274756E673A006465616B746976699A
:103B0C0065727400204D696E7574656E2E00416B84
:103B1C007469760044434637372053746174757367
:103B2C003A200044434637372053796E636D6F64F7
:103B3C0075733A0053796E6368726F6E6973696559
:103B4C0072652E2E004E6562656E7568727A6569B7
:103B5C00743A002D2D2D002E003230300032300002
:103B6C004D455A004D45535A0003001B5B306D0008
:103B7C001B5B33373B316D001B5B324A00424954AF
:103B8C003A003D0044434637373A00202D2000537D
:103B9C005452472D430A0D003B005F736D74005F58
:103BAC00617374005F6E7374005F646366005F73AF
:103BBC00736D005F737077005F707374005F646285
:103BCC0067646366005F7374617400677600677383
:103BDC007400676E74006764370067646100676C1B
:103BEC00700067677300676C730041545A00686516
:103BFC006C70003F006E6F726D616C003D31003D6A
:103C0C00300030306D730D0A007365630D0A001BB4
:103C1C005B33313B316D001B5B33323B316D00004C
:00000001FF
