:100000000C944A050C94720A0C9424080C9467050D
:100010000C9467050C9467050C9467050C946705B0
:100020000C9467050C9467050C9467050C946705A0
:100030000C9467050C94500A0C9467050C946705A2
:100040000C94AE080C9467050C94470D0C94750D38
:100050000C9467050C9467050C9467050C94670570
:100060000C9467050C94670597059A059D05A005F6
:10007000A305A605A9051F07220729072C072F0797
:10008000320735073A103D10441047104A104D1002
:100090005010556E62656B616E6E740057617274BC
:1000A000652061756620446174656E00456D7066FB
:1000B000616E676520446174656E00496E6974699C
:1000C000616C7369657265004B65696E205374617C
:1000D000747573004552522D50756C73646175656B
:1000E00072004552522D4461756572506572696F98
:1000F0006465004552522D5061722E204461747522
:100100006D004552522D5061722E204D696E7574EE
:1001100065004552522D5061722E205374756E64E5
:1001200065006F6B00536100467200446F004D69BB
:10013000004469004D6F00536F0053616D7374612B
:1001400067004672656974616700446F6E6E657220
:1001500073746167004D697474776F6368004469F4
:10016000656E73746167004D6F6E74616700536FE5
:100170006E6E746167002053656B756E64656E000A
:10018000732067657365747A742E0D0A0041757368
:1001900067616E6773696D70756C7365696E7465A0
:1001A0007276616C207775726465206175663A209D
:1001B0000030306D732067657365747A742E0D0A94
:1001C0000041757367616E6773696D70756C7377E5
:1001D0006569746520777572646520617566202095
:1001E0002020203A0041757367616E6773696D70F6
:1001F000756C7377656974652061656E6465726E90
:100200002028696E203130306D732C206D6F65674A
:100210006C696368652057657274653A20327C3377
:100220007C347C2E2E2E2E7C3830293A20004175CD
:100230007300416B746976002D3E706175736500C3
:1002400046616C736368652045696E676162652EFF
:100250000D0A0073796E6368726F6E6973696572F7
:1002600065204E6562656E756872656E20617566A3
:100270002000204D696E757465286E29207A7520DE
:1002800073796E6368726F6E6973696572656E000B
:100290002C2067657261646520656D7066616E67AC
:1002A000656E6573204269743A20004552524F5280
:1002B0000D0A004F4B0D0A006F6B0D0A0055687256
:1002C00020616E676568616C74656E2E0D0A00555D
:1002D0006872206765737461727465742E0D0A000C
:1002E000556E6775656C7469676573205A656974C6
:1002F000666F726D61740D0A004B6F6D6D616E6497
:100300006F20657869737469657274206E696368BB
:10031000742E0D0A00313268205374756E64656E58
:10032000204D6F64757320616B74697669657274B2
:100330002E0D0A00323468205374756E64656E2089
:100340004D6F64757320616B746976696572742E84
:100350000D0A003132205374756E64656E003234BC
:10036000205374756E64656E003132205374756E5F
:1003700064656E2E20417566203234205374756E8C
:1003800064656E207365747A656E3F20286A7C6EA2
:10039000293A20003234205374756E64656E2E2025
:1003A000417566203132205374756E64656E20731A
:1003B00065747A656E3F20286A7C6E293A20005366
:1003C000796E636D6F6475732069737420004443A4
:1003D0004637372053796E6368726F6E6973617444
:1003E000696F6E206175732E0D0A004443463737DE
:1003F0002053796E6368726F6E69736174696F6E92
:100400002065696E2E0D0A004443462064656275BE
:1004100067206465616B7469766965727400444332
:100420004620646562756720616B746976696572E0
:1004300074006175732E2045696E736368616C7416
:10044000656E3F20286A7C6E293A2000616E2E205E
:10045000417573736368616C74656E3F20286A7CB4
:100460006E293A200044434620537963686E726FC8
:100470006E69737461696F6E2069737420004E6FCA
:100480006368206B65696E652044434637372044B6
:100490006174656E20656D7066616E67656E2E00B5
:1004A00073696E6420616E676568616C74656E2E39
:1004B000205374617274656E203F20286A7C6E2917
:1004C0003A20006C617566656E2E20416E68616C25
:1004D00074656E203F20286A7C6E293A20004E65A4
:1004E00062656E75687228656E29200042697474B1
:1004F00065204443463737207A75657273742064EB
:1005000065616B746976696572656E210D0A0053C9
:1005100074656C6C65204E6562656E756872656E9B
:1005200020617566202878783A7878293A20005337
:1005300074656C6C65204E6562656E756872656E7B
:10054000206578616B7420617566202878783A7828
:1005500078293A20005A65697420617566206465BF
:100560006E204E6562656E756872656E20287878BB
:100570003A7878293A20001B5B33373B316D41755F
:100580007367616E6773696D70756C73696E74659E
:100590007276616C1B5B37433A201B5B303B333711
:1005A0006D001B5B33373B316D41757367616E675F
:1005B00073696D70756C7377656974651B5B313039
:1005C000433A201B5B303B33376D001B5B33373BBB
:1005D000316D4C434420446973706C6179206973B8
:1005E000741B5B3134433A201B5B303B33376D0067
:1005F0000D0A1B5B33373B316D53796E6368726F45
:100600006E69736174696F6E736D6F6475731B5B74
:1006100038433A201B5B303B33376D000D0A1B5BC0
:1006200033373B316D4443463737206C65747A74F9
:100630006572204B6F6D706C657474656D7066616A
:100640006E673A201B5B303B33376D000D0A1B5B36
:1006500033373B316D4443463737205374617475EB
:10066000731B5B3137433A201B5B303B33376D00E4
:100670000D0A1B5B33373B316D4443463737204C03
:1006800065747A7465732045726765626E69731B61
:100690005B37433A201B5B303B33376D00616B7433
:1006A0006976696572740D0A1B5B33373B316D4C9B
:1006B00065747A74657320444346373720456D70FE
:1006C00066616E6773646174756D1B5B32433A20BB
:1006D0001B5B303B33376D000D0A1B5B33373B31FF
:1006E0006D44434637371B5B3234433A201B5B3043
:1006F0003B33376D001B5B33373B316D5A65697493
:1007000020617566204E6562656E756872656E2043
:100710006265690D0A6C65747A74656D2053706149
:100720006E6E756E677361757366616C6C1B5B359D
:10073000433A201B5B303B33376D001B5B33373B49
:10074000316D4C65747A746572205370616E6E758C
:100750006E677361757366616C6C1B5B35433A2021
:100760001B5B303B33376D000D0A1B5B33373B316E
:100770006D5374617475731B5B3233433A201B5B9A
:10078000303B33376D001B5B33373B316D5A656946
:100790007420617566204E6562656E756872656E5F
:1007A0001B5B3130433A201B5B303B33376D001B02
:1007B0005B33373B316D4669726D776172651B5BE8
:1007C0003231433A201B5B303B33376D00201B5BDB
:1007D00033373B316D566572667565676261726568
:1007E000204B6F6D6D616E646F733A0D0A201B5B59
:1007F00033373B316D646366201B5B303B33376DB1
:100800002D3E2053796E6368726F6E6973617469EF
:100810006F6E206D6974204443463737206A617CCF
:100820006E65696E2E0D0A201B5B33373B316D738D
:100830006D74201B5B303B33376D2D3E204D75743E
:1008400074657275687220617566205A65697420D6
:10085000766F6E204E6562656E756872656E207388
:1008600074656C6C656E2E0D0A201B5B33373B3153
:100870006D6E7374201B5B303B33376D2D3E204E05
:100880006562656E756872656E2061756620657853
:10089000616B74206469657365205A65697420739F
:1008A00074656C6C656E284E6963687420696D2090
:1008B0004443463737204D6F647573292E0D0A2047
:1008C0001B5B33373B316D617374201B5B303B33F3
:1008D000376D2D3E204E6562656E756872656E20BF
:1008E000617566206469657365205A656974207353
:1008F00074656C6C656E2E205A6569742064696538
:10090000206461667565722062656EF6746967744D
:1009100020776972642C20776972642068696E7A26
:10092000756164646965727420284E696368742017
:10093000696D204443463737204D6F647573292E07
:100940000D0A201B5B33373B316D707374201B5BCA
:10095000303B33376D2D3E204D75747465722D20FC
:10096000756E64204E6562656E756872656E206195
:100970006E68616C74656E2E2853796E6368726F51
:100980006E69736174696F6E2066756E6B74696FE2
:100990006E6965727420776569746572292E0D0A17
:1009A000201B5B33373B316D73736D201B5B303B1A
:1009B00033376D2D3E2053796E636D6F64757320F0
:1009C0003132682F323468207365747A656E2E0D6B
:1009D0000A201B5B33373B316D737077201B5B3014
:1009E0003B33376D2D3E2041757367616E677369C8
:1009F0006D70756C7377656974652061656E64658B
:100A0000726E283230302D383030306D73292E0D13
:100A10000A201B5B33373B316D73746174201B5BA1
:100A2000303B33376D2D3E20476573616D747374B1
:100A30006174757320616E7A656967656E2E0D0A43
:100A4000000D0A48696C6665206D6974201B5B3374
:100A5000373B316D3F1B5B303B33376D206F646537
:100A600072201B5B33373B316D68656C701B5B30EC
:100A70003B33376D20756E64206D69742072657428
:100A800075726E20616E7363686C69657373656EF1
:100A90002E0D0A0011241FBECFEFD8E0DEBFCDBF60
:100AA00012E0A0E0B1E0E8EAF8E302C005900D92A0
:100AB000A23FB107D9F724E0A2EFB2E001C01D9236
:100AC000A032B207E1F70E94010E0C94521C0C9464
:100AD0000000E0E1F1E0128652985A9AA9E6B0E0EF
:100AE0008C9181608C93E89A82E0828786E081878E
:100AF0000895E9E6F0E080818E7F8083E898E1E860
:100B0000F0E08081887F8083EFE6F0E080818E7F57
:100B100080835A9A0895E82FCB014E2F50E047303A
:100B20005105D8F4FA01EC5CFF4F0C949F1962E276
:100B300071E011C062E171E00EC062E071E00BC0D3
:100B400063EF70E008C062EE70E005C064ED70E035
:100B500002C068EC70E00C94E31A0895CF93DF9321
:100B6000FC0101900020E9F73197E81BF90B20E127
:100B700030E02E1B310937FF02C02F5F3F4F359504
:100B80002795283058F4623048F4EC01822F0E94F7
:100B9000CE0CCE01DF91CF910C94F30CDF91CF916D
:100BA0000895FF920F931F93CF93DF9300D0CDB79B
:100BB000DEB78B0163E672E00E94EA1A009719F42F
:100BC00080E090E02CC04AE050E0BE016F5F7F4FB4
:100BD0000E94B919F62EE981FA8180818111F0CF46
:100BE00087E18F1568F363E672E080E090E00E9491
:100BF000EA1A009729F34AE050E0BE016F5F7F4F89
:100C00000E94B919E981FA8180818111D9CF6C33B1
:100C1000B8F6F801F0826183128281E090E00F90D3
:100C20000F90DF91CF911F910F91FF900895FF9248
:100C30000F931F93CF93DF9300D000D0CDB7DEB7D3
:100C4000F82E8B011A8219821C821B824AE0BE0197
:100C50006F5F7F4F90E00E94501B89E08F1560F01E
:100C600065E372E0C8010E94031BBE016F5F7F4F06
:100C7000C8010E94EF1A06C0BE016F5F7F4FC80116
:100C80000E94031B0F900F900F900F90DF91CF9158
:100C90001F910F91FF900895EF92FF920F931F9372
:100CA000CF93DF9300D01F92CDB7DEB78C017B01CD
:100CB0001A8219821B82BE016F5F7F4FF70180810C
:100CC0000E941706BE016F5F7F4FC8010E94031B81
:100CD00063E672E0C8010E94EF1ABE016F5F7F4FAA
:100CE000F70181810E941706BE016F5F7F4FC80127
:100CF0000E94EF1A63E672E0C8010E94EF1ABE017B
:100D00006F5F7F4FF70182810E941706BE016F5F00
:100D10007F4FC8010E94EF1A80915C01811105C0CC
:100D200068E372E0C8010E94D81A0F900F900F90EC
:100D3000DF91CF911F910F91FF90EF900895CF9287
:100D4000DF92EF92FF920F931F93CF93DF938C016B
:100D5000EB01FC0101900020E9F78E1B9F0B4196EF
:100D60007C01F694E794CE2C188290E1D92E67E6A8
:100D700072E0CE010E94EF1ADA94D110F8CFC7FCCE
:100D80001AC0CE0DD11DE7FCDA95DE012A2F2C1BEF
:100D9000022E000C330BF80101900020E9F7319787
:100DA000E01BF10B2E173F0730F4F801E20FF31FA1
:100DB00080818D93EBCFDF91CF911F910F91FF90A9
:100DC000EF90DF90CF90089580911A01811103C0B8
:100DD0006BEB70E00CC0813019F46CEA70E007C076
:100DE000823019F46CE970E002C062E970E08CE2D4
:100DF00093E00C94E31A0F931F93CF93DF93CDB737
:100E0000DEB72A970FB6F894DEBF0FBECDBF8C01B8
:100E10001A821982FE01339688E0DF011D928A95BD
:100E2000E9F7D8011396EC918E2F90E0FC013197F1
:100E3000E730F105E8F4E55CFF4F0C949F1967E695
:100E400071E002C06EE571E085E291E00E94E31A74
:100E500015C065E571E0F8CF6AE471E0F5CF62E4B2
:100E600071E0F2CF6AE371E0EFCF6EE671E0ECCFB4
:100E70006DE272E085E291E00E94031B67E672E09A
:100E800085E291E00E94EF1ABE016F5F7F4FF8018B
:100E900082810E941706BE016F5F7F4F85E291E05D
:100EA0000E94EF1A61E372E085E291E00E94EF1A7E
:100EB000BE016F5F7F4FD80111968C910E9417067B
:100EC000BE016F5F7F4F85E291E00E94EF1A61E300
:100ED00072E085E291E00E94EF1AF80180814AE019
:100EE000BE016F5F7F4F90E00E94501BD8018C9134
:100EF0008A3018F463E372E002C067E372E085E2CF
:100F000091E00E94EF1ABE016F5F7F4F85E291E092
:100F10000E94EF1A67E672E085E291E00E94EF1A04
:100F2000BE016F5F7F4FF80184810E941706BE01EA
:100F30006F5F7F4F85E291E00E94EF1A63E672E0F7
:100F400085E291E00E94EF1ABE016F5F7F4FD801EA
:100F500015968C910E941706BE016F5F7F4F85E248
:100F600091E00E94EF1A67E672E085E291E00E944C
:100F7000EF1AF8018781882319F06AE372E002C052
:100F80006EE372E085E291E02A960FB6F894DEBF38
:100F90000FBECDBFDF91CF911F910F910C94EF1A2F
:100FA0000F931F93CF93DF9300D0CDB7DEB74AE006
:100FB00050E0BE016F5F7F4F0E94B919E981FA814D
:100FC000208121110FC08B019C01025011092109C0
:100FD00031090F3411052105310520F46093F80221
:100FE00081E001C080E00F900F90DF91CF911F91C1
:100FF0000F910895811108C080915A018B3320F41C
:101000008F5F80935A01089510925A01809159017F
:101010009091200180FF03C09093F40202C090934E
:10102000F5028B3320F48F5F80935901089510925D
:10103000590180915801873120F48F5F80935801C6
:1010400008951092580108951F920F920FB60F92B3
:1010500011242F933F934F935F936F937F938F93BD
:101060009F93AF93BF93EF93FF934B995BC06091B6
:1010700058018CE090E00E94C11B609159018BE007
:1010800090E00E94C11B80911801882349F1609172
:1010900014018AE090E00E94C11B6091150189E073
:1010A00090E00E94C11B6091120188E090E00E94D4
:1010B000C11B6091110187E090E00E94C11B60910B
:1010C000100186E090E00E94C11B6091130185E051
:1010D00090E00E94C11B6091170184E090E00FC076
:1010E000609158018AE090E00E94C11B6091590113
:1010F00089E090E00E94C11B6FEF88E090E00E94C1
:10110000C11B809100018823C1F00E94D90C60E0CE
:1011100086E991E00E94AE0561E089E891E00E94D5
:10112000AE050BC083E390E00E949F0D809100010B
:10113000882319F08CE00E940E0DFF91EF91BF9172
:10114000AF919F918F917F916F915F914F913F915F
:101150002F910F900FBE0F901F9018951F920F9216
:101160000FB60F9211242F933F934F935F936F937A
:101170007F938F939F93AF93BF93EF93FF93809150
:101180008E0390918F0384332CE0920734F4019600
:1011900090938F0380938E0323C110928F0310923C
:1011A0008E038091F502882341F05F985E9A8091CA
:1011B000F50281508093F50201C05E988091F4029F
:1011C000882341F05E985F9A8091F4028150809369
:1011D000F40201C05F9880918D03893020F48F5F05
:1011E00080938D03F1C010928D0380915B0388235F
:1011F000F1F0809159038B3320F48F5F8093590372
:1012000016C010925903809158038B3320F48F5FDE
:10121000809358030CC01092580380915703873174
:1012200020F48F5F8093570302C0109257033091D0
:10123000F2022091580180915703909159014091F9
:1012400058035CE33323C9F0259F90011124290F33
:10125000311D5CE3859FC0011124840F911D82170D
:10126000930714F480569A4F821B930B833625E024
:101270009207A4F1805A954031C0259F9001112416
:10128000290F311D5CE3859FC0011124840F911D3E
:10129000213D42E0340714F0205D3240813D52E0B0
:1012A000950714F0805D9240A9012817390744F48E
:1012B00040535D4F481B590B4E3351056CF405C02C
:1012C000481B590B4E3351052CF488279927841B52
:1012D000950B04C080539D4F821B930B9093F70294
:1012E0008093F6024B9B3DC080915A03882359F1AD
:1012F0008091F6029091F7020097A1F094F180910D
:101300008B0390918C031816190634F081E00E942B
:10131000FA0780911F0190E0019790938C038093CE
:101320008B031FC08091570380935801809158030D
:10133000809359018091590380935A0110925A0366
:1013400010925B030EC080915C01882351F0809164
:101350001F0190E090938C0380938B0380E00E94A8
:10136000FA0780913D03882321F0815080933D034B
:1013700008C085E080933D0380913F038F5F809399
:101380003F0380911801882319F081508093180140
:1013900080911B0190911C01A0911D01B0911E0133
:1013A0008F3F2FEF9207A207B20759F00196A11DB8
:1013B000B11D80931B0190931C01A0931D01B0935C
:1013C0001E0181E080933E0380918D0365E00E94C1
:1013D0007F19911105C05D9B02C05D9801C05D9AA7
:1013E000FF91EF91BF91AF919F918F917F916F91FD
:1013F0005F914F913F912F910F900FBE0F901F90D3
:101400001895EF92FF920F931F93CF93DF9300D025
:10141000CDB7DEB77C010E94B80D9A8389839C0109
:1014200022273B71232B89F58C0111270D301105E3
:1014300039F48EED92E00E94E60D6AE673E005C095
:101440000330110551F463E472E0C7010E94031BED
:1014500010926A0381E090E01AC00E94D10DEAE682
:10146000F3E001900020E9F73197EA56F340B09796
:1014700060F4005211090F35110538F4BE016F5F99
:101480007F4F8AE693E00E94EF1A80E090E00F9091
:101490000F90DF91CF911F910F91FF90EF900895E2
:1014A0001F920F920FB60F9211248F939F93EF9379
:1014B000FF93E1E8F0E08081887F8083EFE6F0E051
:1014C00080818E7F80838FEF9FEF90938500809344
:1014D0008400FF91EF919F918F910F900FBE0F901D
:1014E0001F9018951F920F920FB60F9211242F93F1
:1014F0003F934F935F936F937F938F939F93AF939C
:10150000EF93FF9350911A014A9B5AC0809181003A
:10151000887F8093810080916F008E7F80936F0021
:101520008091840090918500909369038093680373
:1015300010928500109284008091810085608093D4
:10154000810080916F00816080936F00209168031B
:1015500030916903513089F480916603909167035B
:10156000820F931F855F9C418F31934030F084E060
:101570008093190182E080931A012D5136432F3A4E
:10158000344008F08CC180911801883398F0809124
:10159000F302882379F0809114018093570380919E
:1015A0001501809358031092590381E080935A03E8
:1015B00080935B031092900381E080931A016FC1C6
:1015C00080918100887F8093810080916F008E7F61
:1015D00080936F00809184009091850090936703C1
:1015E00080936603109285001092840080918100A0
:1015F00085608093810080916F00816080936F008F
:10160000513009F04CC180916603909167039C01B1
:101610002152354040919003233F314030F4E42F74
:10162000F0E0EF56FC4F508311C0885792408B3248
:10163000914030F4E42FF0E0EF56FC4F108206C0EA
:1016400085E08093190182E080931A0180911A014C
:10165000813009F021C14A3308F41EC18091A303EF
:10166000809317018091A603E7EAF3E0982F219178
:10167000922733E0ED3AF307D1F72091AD03291318
:101680002AC02091A90358E0259FB0011124909110
:10169000A80354E0959F90011124262B822B2091C2
:1016A000A703220F282B8091AC0394E0899FB001FF
:1016B00011249091AB03892F90E0880F991F862BFE
:1016C000972B3091AA03832B3AE0839F200D11249E
:1016D0002093150103C082E080931A019091AE031C
:1016E0005091AF03892F85273091B00383276091F4
:1016F000B1038627A091B2038A272091B3038227E2
:101700007091B40378131BC080911A018130B9F431
:1017100088E0689FF001112484E0389FB001112413
:101720006E2B962B550F952B30E0220F331F2A2B53
:101730005AE0259F900D11249093140103C082E07C
:1017400080931A018091B503E6EBF3E0982F219185
:10175000922763E0EB3CF607D1F72091CB032913E6
:1017600095C090911A01913009F090C02091B80372
:1017700098E0299FB00111249091B70354E0959F00
:1017800090011124262B822B9091B603990F892B5F
:101790002091BA0330E0220F331F9091B903292B17
:1017A0006AE0269F800D1124809312018091BD0371
:1017B00024E0829FC00111249091BC03990F892BD2
:1017C0009091BB03892B809313018091C10338E072
:1017D000839FB00111242091C00354E0259FC001D4
:1017E0001124862B2091BE03982F922B8091BF034A
:1017F000880F892B9091C2036AE0969F800D112477
:10180000809311016091CA0388E0689FB0011124A0
:101810008091C90324E0829FC0011124682B792B99
:101820008091C703682B8091C80390E0880F991FAF
:10183000682B792B8091C60338E0839FF001112437
:101840002091C50354E0259FC00111248E2B2091C7
:10185000C303982F922B8091C403880F892B9AE0A1
:10186000699F800D1124809310018BE380931801F0
:101870001092190182E080931A0110921B011092BC
:101880001C0110921D0110921E0106C083E080937E
:10189000190182E080931A014F5F40939003FF91FA
:1018A000EF91AF919F918F917F916F915F914F9148
:1018B0003F912F910F900FBE0F901F901895439A54
:1018C00000C043980895CF93C82F662311F0459A1E
:1018D00001C0459844983A9A399A389A229A2A9897
:1018E000409841984298C7FD2A9AC6FD409AC5FD86
:1018F000419AC4FD429A0E945F0C2A9840984198F0
:101900004298C3FD2A9AC2FD409AC1FD419AC0FD8A
:10191000429A0E945F0C429A419A409A2A9ACF9129
:1019200008954598449A3A98399838982298439A55
:1019300000C0329B02C080E101C080E0319980622A
:10194000309980641A998068439800C0439A00C017
:101950003299816031998260309984601A998860E7
:10196000439808950E94910C87FDFCCF84E090E09D
:101970000197F1F70C94910CCF93C82F0E94B20CF1
:1019800060E08C2FCF910C94630CCF93C82F0E94F2
:10199000B20C61E08C2FCF910C94630C611102C0EA
:1019A000805801C080540C94BC0C0E94B20C90E092
:1019B000089581E00C94BC0C82E00C94BC0CCF9395
:1019C000C82F0E94B20CCA3049F4803410F080E075
:1019D00001C080E48058CF910C94BC0C61E08C2F46
:1019E000CF910C94630CCF93DF93EC018991882302
:1019F00019F00E94DF0CFACFDF91CF910895CF93B9
:101A0000DF93FC018491EF012196882321F00E944D
:101A1000DF0CFE01F7CFDF91CF9108951F93CF9395
:101A2000DF93182F3A9A399A389A229A3D9A3C9A1B
:101A30003B9A80E09DE70197F1F7419A429A0E9414
:101A40005F0C80E097E20197F1F70E945F0CC0E81D
:101A5000D0E0CE010197F1F70E945F0CCE01019713
:101A6000F1F742980E945F0C2197F1F788E20E94FB
:101A7000BC0C88E00E94BC0C0E94D90C86E00E943D
:101A8000BC0C812FDF91CF911F910C94BC0C1F9245
:101A90000F920FB60F9211242F938F939F93EF9372
:101AA000FF938091C0009091C6008871E091CF03B0
:101AB000EF5FEF712091CE03E21739F0E093CF038F
:101AC000F0E0EE52FC4F908301C082E09091CD0394
:101AD000892B8093CD03FF91EF919F918F912F914F
:101AE0000F900FBE0F901F9018951F920F920FB678
:101AF0000F9211248F939F93EF93FF939091D103B3
:101B00008091D003981769F0E091D003EF5FEF71F7
:101B1000E093D003F0E0EE50FC4F80818093C6004C
:101B200005C08091C1008F7D8093C100FF91EF912E
:101B30009F918F910F900FBE0F901F90189510924C
:101B4000D1031092D0031092CF031092CE0397FFCF
:101B500004C022E02093C0009F779093C50080933B
:101B6000C40088E98093C10086E08093C200089594
:101B70009091CF038091CE03981781F0E091CE032E
:101B8000EF5FEF71E093CE03F0E0EE52FC4F808107
:101B90009091CD031092CD0390E0089580E091E004
:101BA00008959091D1039F5F9F712091D003921768
:101BB000E1F3E92FF0E0EE50FC4F80839093D103E6
:101BC0008091C10080628093C1000895CF93DF931C
:101BD000EC018991882319F00E94D10DFACFDF9191
:101BE000CF910895CF93DF93FC018491EF0121966B
:101BF000882321F00E94D10DFE01F7CFDF91CF9114
:101C00000895F999FECF8BE090E00E94B91B809374
:101C100059018C3340F48CE090E00E94B91B809312
:101C20005801883120F0109258011092590181E03A
:101C300090E00E94B91B882319F010925C0103C048
:101C400081E080935C0183E090E00E94B91B91E009
:101C5000811101C090E09093F30282E090E00E9435
:101C6000B91B91E0811101C090E09093F20280E0F5
:101C700090E00E94B91B8093200182508F3418F0AD
:101C800084E0809320018091200190E001966AE039
:101C900070E00E948B196F5F60931F01789483E35B
:101CA00090E00E949F0D85E492E00E94E60D8AE498
:101CB00092E00E94E60D82E592E00E94E60D87E642
:101CC00091E00E94E60D87E692E00E94E60D88E72B
:101CD00091E00E94E60D8EED92E00E94E60D85E413
:101CE00092E00E94E60D81E691E00E94E60D8AB145
:101CF000806E8AB98AB1877E8AB95C9A80916900C0
:101D0000846080936900E99A16BC85B5816085BDC1
:101D100080916E00816080936E008091F30281114A
:101D20000E9469054C9B1FC08CE00E940E0D60E074
:101D300080E00E94CE0C0E94D90C81E080930001CB
:101D400060E087E691E00E94AE0561E088E791E0FF
:101D50000E94AE05CAE0D0E012E005E026E0F22ED7
:101D600037E0E32E7DC01092000188B1817C88B9F4
:101D700087B18E6387B9EECF4B9BFECF80913F0337
:101D8000811112C068E571E087E491E00E944C0681
:101D90006AE073E08FE192E00E949F0669EF72E0D3
:101DA00087E491E00E949F0680913F03813009F40F
:101DB0005CC080913F03823009F47AC080913F0378
:101DC000833009F489C080913F03843009F49DC0B9
:101DD00080913F03853009F4B2C080913F03863083
:101DE00009F4F4C080913F03873009F4A2C18091C7
:101DF0003F03883010F010923F0380913E03811121
:101E0000B2C180913E038111C4C160E187E493E0D7
:101E10000E94010A892B09F4AFCF63E472E087E4E2
:101E200093E00E94FA1A892B09F00DC21092400328
:101E300089E692E00E94E60D1092470364E472E0A6
:101E400087E493E00E94031B109241031092140454
:101E500080914003811190CF81E691E00E94E60DD0
:101E600084E0D82E93E0C92E87CF80915A0388232F
:101E7000E1F06AE073E08EE092E00E949F064AE0A3
:101E80006BE173E08091F6029091F7020E94501B83
:101E90006EED71E08BE193E00E94EF1A69EF72E062
:101EA0008BE193E00E949F0684CF10933F0381CF84
:101EB0006AE073E08DEF91E00E949F068091F3024B
:101EC00069EF72E0882319F088EE91E002C082ED9C
:101ED00091E00E949F0672CF6AE073E08EEE91E07F
:101EE0000E949F068091F302882349F00E94E40635
:101EF00069EF72E08CE293E00E949F0664CF8091CC
:101F00003F038F5F80933F035ECF8091F30288236E
:101F100099F06AE073E082EC91E00E949F066BE129
:101F200073E0809119010E948B0569EF72E08BE1EB
:101F300093E00E949F064CCF00933F0349CF8091CE
:101F4000F302882309F43FC080911A018130D9F54A
:101F5000B0909003BA942AE32B15A8F16AE073E0DD
:101F600082EB91E00E949F0667E572E08BE193E0CF
:101F70000E94031B6CE273E08B2D0E9417066CE23B
:101F800073E08BE193E00E94EF1A6CE572E08BE165
:101F900093E00E94EF1AE0919003F0E0E057FC4FCD
:101FA0008081813019F46FEC72E002C065E372E069
:101FB0008BE193E00E94EF1A69EF72E08BE193E00E
:101FC0000E949F060ACFF0923F0307CF8091F30251
:101FD000882309F4ABC080911801882309F4A6C0B6
:101FE0006EE572E08BE193E00E94031B6CE273E00C
:101FF000809114010E9417066CE273E08BE193E07C
:102000000E94EF1A63E672E08BE193E00E94EF1A00
:102010006CE273E0809115010E9417066CE273E098
:102020008BE193E00E94EF1A67E672E08BE193E0A8
:102030000E94EF1A80911701882319F06AE372E079
:1020400002C06EE372E08BE193E00E94EF1A6AE057
:1020500073E08BE193E00E949F06E09113018E2FC5
:1020600090E0FC013197E730F105E8F4EE5BFF4FBB
:102070000C949F1964E371E002C061E371E08BE1AD
:1020800093E00E94E31A15C06EE271E0F8CF6BE2B4
:1020900071E0F5CF68E271E0F2CF65E271E0EFCF79
:1020A00067E371E0ECCF6DE272E08BE193E00E94B8
:1020B000031B65E672E08BE193E00E94EF1A6CE28D
:1020C00073E0809112010E9417066CE273E08BE1CD
:1020D00093E00E94EF1A61E372E08BE193E00E94CB
:1020E000EF1A6CE273E0809111010E9417066CE216
:1020F00073E08BE193E00E94EF1A61E372E08BE101
:1021000093E00E94EF1A6CE273E0809110010E944C
:1021100017066CE273E08BE193E00E94EF1A69EF1F
:1021200072E08BE193E00E949F065CCEE0923F0359
:1021300059CE6AE073E086EA91E00E949F068091A2
:10214000F202882319F06EE573E002C063E573E0E4
:102150008BE193E00E94E31A69EF72E08BE193E078
:102160000E949F0644CE80910001882309F449CE45
:1021700060E080E00E94CE0C8AE093E00E94F30CC5
:1021800061E080E00E94CE0C89EF92E00E94F30CA7
:1021900057C080910001811138CE8091F3028823CD
:1021A00009F443C080911A01882341F0813021F065
:1021B000823021F4419902C0419A01C04198809136
:1021C00019019FEF980F923020F09CEF980F9230FA
:1021D00018F4429A43980BC0811107C080911801EE
:1021E000882319F04298439A02C0439842988091FC
:1021F0001B0190911C01A0911D01B0911E0181381D
:1022000021E5920721E0A207B10558F481519E40D3
:10221000A109B10980379344A140B10520F4449B42
:1022200002C0449806C0449A04C041984498439818
:10223000429880915A03813011F4459A01C0459823
:1022400010923E03E2CD62E772E087E493E00E94E1
:10225000EA1A46E050E0BC0181E493E00E941A1BB8
:1022600062E772E080E090E00E94EA1A009781F055
:102270004AE050E0BC0184E194E00E941A1B64E74C
:1022800072E081E493E00E94FA1A892BA9F408C055
:102290001092140480914003882309F44AC4D0C6E4
:1022A00068E571E084E194E00E94D105892B09F092
:1022B00075C08BEA92E04AC469E772E081E493E07A
:1022C0000E94FA1A892B71F467E573E084E194E0C7
:1022D0000E94D105892B69F381E080935A03809392
:1022E0005B035CC06EE772E081E493E00E94FA1A3F
:1022F000892B71F467E573E084E194E00E94D105D5
:10230000892BB9F210925B0381E080935A0346C097
:1023100063E872E081E493E00E94FA1A892B31F5B8
:102320006FEC72E084E194E00E94FA1A892B59F470
:1023300081E08093F30261E083E090E00E94C11BA2
:102340000E9469052BC065E372E084E194E00E947D
:10235000FA1A892B09F0ADCF1092F30260E083E006
:1023600090E00E94C11B0E94790518C068E872E0E5
:1023700081E493E00E94FA1A892B01F56FEC72E078
:1023800084E194E00E94FA1A892B59F481E0809349
:10239000F20261E082E090E00E94C11B83EB92E0D8
:1023A000D5C365E372E084E194E00E94FA1A892BB8
:1023B00009F07FCF1092F20260E0ECCF6DE872E09E
:1023C00081E493E00E94FA1A892BC1F484E194E03D
:1023D0000E94D007882309F46CCF2091F802209343
:1023E0002001822F90E00196BE010E948B196F5F41
:1023F00060931F01622F80E090E0CECF62E972E02F
:1024000081E493E00E94FA1A892BE1F46FEC72E008
:1024100084E194E00E94FA1A892B21F410925C0165
:1024200061E00DC065E372E084E194E00E94FA1A75
:10243000892B09F03ECF81E080935C0160E081E070
:1024400090E0AACF67E972E081E493E00E94FA1A73
:10245000892B09F0F3CC6DE972E084E194E00E94ED
:10246000FA1A892B99F467E671E08BE193E00E94F8
:10247000031B8BE193E00E94E60D61E271E08BE1CA
:1024800093E00E94031B68E771E03FC060EA72E0DE
:1024900084E194E00E94FA1A892B09F047C08091E8
:1024A00058014AE06CE273E090E00E94501B6CE23D
:1024B00073E08BE193E00E94031B42E050E061E295
:1024C00071E08BE193E00E940A1B809159014AE080
:1024D0006CE273E090E00E94501B6CE273E08BE1D1
:1024E00093E00E94EF1A42E050E061E271E08BE17C
:1024F00093E00E940A1B80915A014AE06CE273E06B
:1025000090E00E94501B6CE273E08BE193E00E942C
:10251000EF1A42E050E063E271E08BE193E00E9449
:102520000A1B8BE193E00E94E60D38CF64EA72E06B
:1025300084E194E00E94FA1A892B79F5809157037F
:102540004AE06CE273E090E00E94501B6CE273E0A2
:102550008BE193E00E94031B42E050E061E271E0F6
:102560008BE193E00E940A1B809158034AE06CE2E1
:1025700073E090E00E94501B6CE273E08BE193E00B
:102580000E94EF1A42E050E061E271E08BE193E0DB
:102590000E940A1B80915903B0CF68EA72E084E17F
:1025A00094E00E94FA1A892B09F016C1809110015B
:1025B0004AE06CE273E090E00E94501B6CE273E032
:1025C0008BE193E00E94031B42E050E061E271E086
:1025D0008BE193E00E940A1B809111014AE06CE2BA
:1025E00073E090E00E94501B6CE273E08BE193E09B
:1025F0000E94EF1A42E050E061E271E08BE193E06B
:102600000E940A1B8BE193E00E94E60D809112016B
:102610004AE06CE273E090E00E94501B6CE273E0D1
:102620008BE193E00E94031B42E050E061E271E025
:102630008BE193E00E940A1B809113014AE06CE257
:1026400073E090E00E94501B6CE273E08BE193E03A
:102650000E94EF1A42E050E061E271E08BE193E00A
:102660000E940A1B809114014AE06CE273E090E042
:102670000E94501B6CE273E08BE193E00E94EF1A22
:1026800042E050E061E271E08BE193E00E940A1BBE
:102690008BE193E00E94E60D809115014AE06CE227
:1026A00073E090E00E94501B6CE273E08BE193E0DA
:1026B0000E94031B42E050E061E271E08BE193E095
:1026C0000E940A1B809116014AE06CE273E090E0E0
:1026D0000E94501B6CE273E08BE193E00E94EF1AC2
:1026E00042E050E061E271E08BE193E00E940A1B5E
:1026F000809117014AE06CE273E090E00E94501B69
:102700006CE273E08BE193E00E94EF1A42E050E04C
:1027100061E271E08BE193E00E940A1B8BE193E0A0
:102720000E94E60D809118014AE06CE273E090E0AF
:102730000E94501B6CE273E08BE193E00E94031B4C
:1027400042E050E061E271E08BE193E00E940A1BFD
:10275000809119014AE06CE273E090E00E94501B06
:102760006CE273E08BE193E00E94EF1A42E050E0EC
:1027700061E271E08BE193E00E940A1B80911A01F3
:102780004AE06CE273E090E00E94501B6CE273E060
:102790008BE193E00E94EF1A42E050E061E271E0C9
:1027A0008BE193E00E940A1B8BE193E00E94E60D0F
:1027B00060911B0170911C0180911D0190911E017F
:1027C0002AE04CE253E00E945B1B6CE273E08BE179
:1027D00093E00E94031B9DCE6CEA72E084E194E0DA
:1027E0000E94FA1A892B09F049C0809190034AE0AF
:1027F0006CE273E090E00E94501B6CE273E08BE1AE
:1028000093E00E94031B42E050E061E271E08BE143
:1028100093E00E940A1B8BE193E00E94E60D109268
:10282000F802E091F802EC3330F5F0E0EF56FC4F9F
:1028300080814AE06CE273E090E00E94501B6CE201
:1028400073E08BE193E00E94031B8091F8028B33CD
:1028500041F042E050E061E271E08BE193E00E94E0
:102860000A1B8BE193E00E94E60D8091F8028F5FD6
:102870008093F802D6CF83E291E055CE60EB72E010
:1028800084E194E00E94FA1A892B09F097C086E04F
:1028900090E00E94B91B4AE06CE273E090E00E9475
:1028A000501B6CE273E08BE193E00E94031B42E05B
:1028B00050E061E271E08BE193E00E940A1B87E047
:1028C00090E00E94B91B4AE06CE273E090E00E9445
:1028D000501B6CE273E08BE193E00E94EF1A42E040
:1028E00050E061E271E08BE193E00E940A1B88E016
:1028F00090E00E94B91B4AE06CE273E090E00E9415
:10290000501B6CE273E08BE193E00E94EF1A42E00F
:1029100050E061E271E08BE193E00E940A1B8BE1E1
:1029200093E00E94E60D85E090E00E94B91B4AE02A
:102930006CE273E090E00E94501B6CE273E08BE16C
:1029400093E00E94031B42E050E061E271E08BE102
:1029500093E00E940A1B8AE090E00E94B91B4AE0C3
:102960006CE273E090E00E94501B6CE273E08BE13C
:1029700093E00E94EF1A42E050E061E271E08BE1E7
:1029800093E00E940A1B89E090E00E94B91B4AE094
:102990006CE273E090E00E94501B6CE273E08BE10C
:1029A00093E00E94EF1A42E050E061E271E08BE1B7
:1029B00093E00E940A1B84E090E0B8C064EB72E0F0
:1029C00084E194E00E94FA1A892B09F08CC080916E
:1029D0005C014AE06CE273E090E00E94501B6CE204
:1029E00073E08BE193E00E94031B42E050E061E260
:1029F00071E08BE193E00E940A1B80915B034AE047
:102A00006CE273E090E00E94501B6CE273E08BE19B
:102A100093E00E94EF1A42E050E061E271E08BE146
:102A200093E00E940A1B80915A034AE06CE273E033
:102A300090E00E94501B6CE273E08BE193E00E94F7
:102A4000EF1A42E050E061E271E08BE193E00E9416
:102A50000A1B8BE193E00E94E60D4AE06CE273E012
:102A60008091F6029091F7020E94501B6CE273E095
:102A70008BE193E00E94031B42E050E061E271E0D1
:102A80008BE193E00E940A1B8091F3024AE06CE222
:102A900073E090E00E94501B6CE273E08BE193E0E6
:102AA0000E94EF1A42E050E061E271E08BE193E0B6
:102AB0000E940A1B8091F2024AE06CE273E090E00F
:102AC0000E94501B6CE273E08BE193E00E94EF1ACE
:102AD00042E050E061E271E08BE193E00E940A1B6A
:102AE000809120010ACD68EB72E084E194E00E94BD
:102AF000FA1A892B09F0DDCB8CE090E00E94B91B1B
:102B00004AE06CE273E090E00E94501B6CE273E0DC
:102B10008BE193E00E94031B42E050E061E271E030
:102B20008BE193E00E940A1B8BE090E00E94B91BAE
:102B3000E4CC65E772E087E493E00E94FA1A892BFF
:102B400041F481E08093400385E595E00E94F20D19
:102B500075C96CEB72E087E493E00E94FA1A892B46
:102B6000D9F48AE492E00E94E60D87E691E00E94A3
:102B7000E60D8EED92E00E94E60D8FEA97E00E944E
:102B8000F20D88E791E00E94E60D8EED92E00E9442
:102B9000E60D81E49AE0DACF6FE772E087E493E034
:102BA0000E94FA1A892B61F48091F302811105C009
:102BB000109340038FE295E0C9CF8CEE94E0C6CF2E
:102BC0006AE772E087E493E00E94FA1A892B49F4DD
:102BD0008091F3028111F1CFC09240038FE095E024
:102BE000B5CF64E872E087E493E00E94FA1A892B7B
:102BF00081F4D092400385E694E00E94F20D80912A
:102C0000F302882319F08CE494E0A0CF82E394E0EF
:102C10009DCF63E972E087E493E00E94FA1A892B62
:102C200081F4009340038EED94E00E94F20D8091B8
:102C30005C01882319F083EC94E088CF80EA94E06B
:102C400085CF69E872E087E493E00E94FA1A892B45
:102C500081F4F09240038FEB93E00E94F20D80919B
:102C6000F202882319F084E993E070CF89E693E0BB
:102C70006DCF60EC72E087E493E00E94FA1A892B32
:102C800041F065EC72E087E493E00E94FA1A892B28
:102C900019F48DEC97E05ACF6EE872E087E493E088
:102CA0000E94FA1A892B29F4E092400385EE91E004
:102CB0004DCF68E972E087E493E00E94FA1A892B0D
:102CC00009F0B0C18AE492E00E94E60D87E691E047
:102CD0000E94E60D8EED92E00E94E60D8FEA97E0ED
:102CE0000E94F20D88E791E00E94E60D8EED92E0E1
:102CF0000E94E60D68E571E087E491E00E944C06D1
:102D000086E897E00E94F20D87E491E00E94E60DCC
:102D100088E697E00E94F20D80915A03882321F102
:102D200067E573E087E491E00E944C0683E592E05A
:102D30000E94F20D87E491E00E94E60D4AE06CE209
:102D400073E08091F6029091F7020E94501B87E693
:102D500092E00E94E60D8CE293E00E94E60D82E78D
:102D600092E00E94F20D04C087EC92E00E94E60D12
:102D700080EF95E00E94F20D8091F202882319F015
:102D80008EE593E002C083E593E00E94F20D88EDAA
:102D900096E00E94F20D8091F302882309F47CC032
:102DA0008DE996E00E94F20D80911201882349F08E
:102DB00080E191E00E94FB0685E291E00E94E60D31
:102DC00004C08EE794E00E94F20D80E796E00E9436
:102DD000F20D6CE273E0809119010E948B058CE288
:102DE00093E00E94E60D8CE496E00E94F20D0E94B2
:102DF000E4068CE293E00E94E60D80911A01813096
:102E000021F580919003882301F180E992E00E94EE
:102E1000F20D8091900390E04AE06CE273E001973C
:102E20000E94501B8CE293E00E94E60DE09190031B
:102E3000F0E0E057FC4F8081813019F48EEC92E095
:102E400002C081ED92E00E94E60D80911B019091FD
:102E50001C01A0911D01B0911E018F3F9F4FAF4FEC
:102E6000BF4FF1F08CE196E00E94F20D60911B01E2
:102E700070911C0180911D0190911E012AE04CE28D
:102E800053E00E945B1B8CE293E00E94E60D86E714
:102E900091E00E94F20D04C082ED91E00E94E60DE7
:102EA0008EED92E00E94E60D89E090E00E94B91B51
:102EB0008F3F09F457C08BE397E00E94F20D88E042
:102EC00090E00E94B91B8F3F89F189E090E00E9459
:102ED000B91B809306018AE090E00E94B91B8093A1
:102EE000050188E090E00E94B91B8093030187E010
:102EF00090E00E94B91B8093020186E090E00E945E
:102F0000B91B8093010184E090E00E94B91B80937B
:102F1000080185E090E00E94B91B8093040181E0E4
:102F200091E00E94FB0685E291E016C089E090E006
:102F30000E94B91B809362038AE090E00E94B91B53
:102F4000809361031092630361E673E08CE293E087
:102F50000E944C068CE293E00E94E60D8EED92E01A
:102F60000E94E60D8BE090E00E94B91B8F3F01F1BB
:102F700085EF96E00E94F20D8BE090E00E94B91B75
:102F800080935D038CE090E00E94B91B80935C030A
:102F900010925E036CE573E08CE293E00E944C06B5
:102FA0008CE293E00E94E60D8EED92E00E94E60D29
:102FB0008BEC95E00E94F20D80910001882319F0BE
:102FC00082E392E002C08EE292E00E94F20D8EED6A
:102FD00092E00E94E60D82EA95E00E94F20D809157
:102FE00020014AE06CE273E090E00E94501B8CE20A
:102FF00093E00E94E60D84ED92E00E94E60D87E7E3
:1030000095E00E94F20D80911F014AE06CE273E0AE
:1030100090E00E94501B8CE293E00E94E60D8BED45
:1030200092E00AC081EE92E00E94E60D89EF92E004
:103030000E94F20D85E492E00E94E60D0C941E0FB2
:103040008130F9F468E571E087E493E00E94D105EE
:10305000892B39F089EE92E00E94E60D88EB92E030
:1030600006C081EE92E00E94E60D80EE92E00E94A2
:10307000F20D85E492E00E94E60D109240030C945C
:103080001E0F8230D1F467E573E087E493E00E947D
:10309000D105892B31F389EE92E00E94E60D88EB91
:1030A00092E00E94F20D85E492E00E94E60D1092FB
:1030B0005B0381E080935A03E0CF8330D1F467E56E
:1030C00073E087E493E00E94D105892B51F289EEE9
:1030D00092E00E94E60D88EB92E00E94F20D85E4FA
:1030E00092E00E94E60D81E080935A0380935B0397
:1030F000C4CF843009F047C06FE571E087E493E006
:103100000E94FA1A892B89F58091F302811117C068
:1031100089EE92E00E94E60D8BEE93E00E94F20DA4
:1031200085E492E00E94E60D81E08093F30261E085
:1031300083E090E00E94C11B0E9469059ECF89EE4A
:1031400092E00E94E60D8EEC93E00E94F20D85E481
:1031500092E00E94E60D1092F30260E083E090E0BE
:103160000E94C11B0E94790588CF6DE571E087E45C
:1031700093E00E94FA1A892B09F47FCF80E492E051
:103180000E94F20D7ACF853081F56FE571E087E41A
:1031900093E00E94FA1A892B09F05BC080915C01D0
:1031A000811111C08AE492E00E94E60D8FEC92E05A
:1031B0000E94F20D85E492E00E94E60D81E080938A
:1031C0005C0160E00FC08AE492E00E94E60D8DEBA6
:1031D00092E00E94F20D85E492E00E94E60D1092CA
:1031E0005C0161E081E090E031C0863009F041C0CF
:1031F0006FE571E087E493E00E94FA1A892B49F5A4
:103200008091F202811111C089EE92E00E94E60DD8
:1032100084E393E00E94F20D85E492E00E94E60DC3
:1032200081E08093F20261E00FC089EE92E00E949B
:10323000E60D85E193E00E94F20D85E492E00E94A4
:10324000E60D1092F20260E082E090E00E94C11B65
:1032500014CF6DE571E087E493E00E94FA1A892BA0
:1032600009F40BCF81EE92E00E94E60D80E492E03B
:10327000FECE873009F001CF87E493E00E94D007AB
:10328000882381F32091F80220932001822F90E07F
:103290000196BE010E948B196F5F60931F01622F20
:1032A00080E090E00E94C11B89EE92E00E94E60D52
:1032B00081EC91E00E94F20D809120014AE06CE2E5
:1032C00073E090E00E94501B8CE293E00E94E60DB8
:1032D00081EB91E00E94F20D8DE891E00E94F20DE9
:1032E00080911F014AE06CE273E090E00E94501B65
:1032F0008CE293E00E94E60D80E891E0B8CE991B45
:1033000079E004C0991F961708F0961B881F7A95DC
:10331000C9F78095089597FB072E16F4009407D0FF
:1033200077FD09D00E94A51907FC05D03EF49095C1
:1033300081959F4F0895709561957F4F0895EE0F89
:10334000FF1F0590F491E02D0994AA1BBB1B51E1CE
:1033500007C0AA1FBB1FA617B70710F0A61BB70B05
:10336000881F991F5A95A9F780959095BC01CD01AA
:103370000895A0E0B0E0EFEBF9E10C940D1C5C01C6
:103380006B017A016115710519F0FB01918380834E
:10339000E114F10429F0C7010297839708F0E5C012
:1033A000E5012196F5011081812F90E00E94CF1A4E
:1033B000892B11F05E01F4CF1D3229F42196F5011D
:1033C000118101E007C01B3221F4E5012296F501CD
:1033D000118100E0E114F10409F1F0E1EF16F104CC
:1033E00029F43FC010E3E114F10421F128E0E216D2
:1033F000F10401F154F4E2E0EE16F10421F5812C20
:10340000912CA12CB0E4BB2E3EC0FAE0EF16F104E3
:1034100039F020E1E216F104B1F430C0103319F1B3
:10342000FAE0EF2EF12CACEC8A2E982CA82CACE014
:10343000BA2E29C078E0E72EF12C812C912CA12CFA
:10344000E0E1BE2E20C060E070E080E090E89701EF
:103450000F2C000C440B550B0E94DF1B49015A0135
:1034600012C0103359F488818F7D883509F0BACFA6
:1034700019812296026080E1E82EF12C812C912C9A
:10348000A12C68E0B62E40E060E070E0CB0127019F
:103490000F2C000C66087708FE0150ED352E310E1A
:1034A00029E0231570F42FEB210F2A3118F439ECA1
:1034B000332E06C02FE9210F2A3118F529EA322EC2
:1034C000310E232D30E02E153F05DCF447FD16C0EC
:1034D00086169706A806B90670F0A30192010E940D
:1034E000CF1B630D711D811D911D6130710581051B
:1034F00020E8920710F04FEF01C041E021961081C3
:10350000CBCF202F2170C114D10471F0442329F0B6
:103510002197F601D183C08307C001FF19C022970C
:10352000F601D183C08314C047FF12C0222329F0C3
:1035300060E070E080E090E804C06FEF7FEF8FEF15
:103540009FE722E230E030931F0420931E0409C05D
:10355000222381F090958095709561957F4F8F4FD4
:103560009F4F462F372F282F12C040E030E020E039
:1035700090E00DC097FFF5CF82E290E090931F049A
:1035800080931E046FEF7FEF8FEF9FE7EACF642FEA
:10359000732F822FCDB7DEB7E1E10C94291C911176
:1035A0000C94A61B803219F089508550C8F70895F5
:1035B000FB01DC010D900020E9F7119705900D92B9
:1035C0000020E1F70895FB01DC0105900D92002039
:1035D000E1F7089542E154E00E94291B0895FB01A0
:1035E000DC010D900020E9F7119701900D92002069
:1035F000E1F70895FB01DC018D9101908019011024
:10360000D9F3990B0895FB01DC0101900D92002084
:10361000E1F70895FB01DC010D900020E9F7119717
:103620004150504028F0019000200D92C9F70895B4
:103630001C920895FB01DC014150504048F001907C
:103640000D920020C9F701C01D9241505040E0F793
:103650000895FA01A191B081009719F41097E1F053
:10366000CD01DC01CD010D90002011F4C00113C08B
:10367000FB012191222319F02015D9F7F3CFFB018B
:103680002191201519F41E92119606C02223C1F72C
:103690000D900020A1F7D001FA01A193B083089505
:1036A000BB274A3031F4992322F4BDE290958195ED
:1036B0009F4F0C948D1BBB272A3051F4992342F461
:1036C000BDE290958095709561957F4F8F4F9F4F8C
:1036D0000C946B1BBB27FA01A62F6217710581059D
:1036E0009105330B30FB66F0AA27660F771F881F02
:1036F000991FAA1FA21710F0A21B63953850A9F7B3
:10370000A05DAA3308F0A95DA19336F7B111B1937A
:103710001082CA010C94A91BBB27FB015527AA27BD
:10372000880F991FAA1FA41710F0A41B839550514E
:10373000B9F7A05DAA3308F0A95DA193009779F7C6
:10374000B111B1931192CB010C94A91B9927882731
:103750000895DC01FC01672F71917723E1F732971F
:1037600004C07C916D9370836291AE17BF07C8F35C
:103770000895F999FECF92BD81BDF89A992780B539
:103780000895262FF999FECF1FBA92BD81BD20BDA5
:103790000FB6F894FA9AF99A0FBE01960895DB01D4
:1037A0008F939F930E94011CBF91AF91A29F800DA8
:1037B000911DA39F900DB29F900D11240895A1E239
:1037C0001A2EAA1BBB1BFD010DC0AA1FBB1FEE1F9B
:1037D000FF1FA217B307E407F50720F0A21BB30BE6
:1037E000E40BF50B661F771F881F991F1A9469F762
:1037F00060957095809590959B01AC01BD01CF01BE
:1038000008950E94431CA59F900DB49F900DA49F06
:10381000800D911D112408952F923F924F925F9237
:103820006F927F928F929F92AF92BF92CF92DF92D0
:10383000EF92FF920F931F93CF93DF93CDB7DEB735
:10384000CA1BDB0B0FB6F894DEBF0FBECDBF0994C9
:103850002A88398848885F846E847D848C849B8420
:10386000AA84B984C884DF80EE80FD800C811B812E
:10387000AA81B981CE0FD11D0FB6F894DEBF0FBE5D
:10388000CDBFED010895A29FB001B39FC001A39FDA
:10389000700D811D1124911DB29F700D811D112489
:0838A000911D0895F894FFCF7B
:1038A800010000000000000001000600FFFFFFFF0C
:1038B8000000000000000001000600FFFFFFFF01FC
:1038C800042C003B002D2D2D2D2D2D2D2D2D2D20A3
:1038D8002D2D2E2D2D2E2D2D2D2D202D2D3A2D2D0E
:1038E800202D2D2D2D00002D2D3A2D2D3A2D2D007A
:1038F800000000000000000000000000016E006AE7
:10390800006D753A3E20005241204D757474657201
:10391800756872000000000056322E3030623200A6
:1039280000000000000000000061757367656661B3
:103938006C6C656E21005374726F6D766572736F6F
:103948007267756E670053796E63204D6F64757387
:103958003A00444346373720456D7066616E6765A7
:103968003A004443462041757377657274756E67F3
:103978003A006465616B7469766965727400204DFC
:10398800696E7574656E2E00416B746976004443E8
:10399800463737205374617475733A2000444346A0
:1039A80037372053796E636D6F6475733A005379B6
:1039B8006E6368726F6E6973696572652E2E004E4C
:1039C8006562656E7568727A6569743A002D2D2D89
:1039D800002E00323030003230004D455A004D453F
:1039E800535A0003001B5B306D001B5B33373B31C0
:1039F8006D001B5B324A004249543A003D00444383
:103A08004637373A00202D2000535452472D430A99
:103A18000D003B005F736D74005F617374005F6E2F
:103A28007374005F646366005F73736D005F737027
:103A380077005F707374005F737461740067760059
:103A480067737400676E74006764370067646100A9
:103A5800676C700067677300676C730041545A00A5
:103A680068656C70003F006E6F726D616C003D316F
:103A7800003D300030306D730D0A007365630D0A28
:103A8800001B5B33313B316D001B5B33323B316DC7
:023A980000002C
:00000001FF
