:100000000C943C050C949A0A0C9445080C945905E0
:100010000C9459050C9459050C9459050C945905E8
:100020000C9459050C9459050C9459050C945905D8
:100030000C9459050C94780A0C9459050C945905A4
:100040000C94CF080C9459050C94920D0C94C00D8F
:100050000C9459050C9459050C9459050C945905A8
:100060000C9459050C94590589058C058F0592054A
:10007000950598059B056A076D07740777077A074A
:100080007D078007B010B310BA10BD10C010C310A8
:10009000C610556E62656B616E6E74005761727446
:1000A000652061756620446174656E00456D7066FB
:1000B000616E676520446174656E00496E6974699C
:1000C000616C7369657265004B65696E205374617C
:1000D000747573004552522D50756C73646175656B
:1000E00072004552522D4461756572506572696F98
:1000F0006465004552522D5061722E204461747522
:100100006D004552522D5061722E204D696E7574EE
:1001100065004552522D5061722E205374756E64E5
:1001200065006F6B00536100467200446F004D69BB
:10013000004469004D6F00536F0053616D7374612B
:1001400067004672656974616700446F6E6E657220
:1001500073746167004D697474776F6368004469F4
:10016000656E73746167004D6F6E74616700536FE5
:100170006E6E746167002053656B756E64656E000A
:10018000732067657365747A742E0D0A0041757368
:1001900067616E6773696D70756C7365696E7465A0
:1001A0007276616C207775726465206175663A209D
:1001B0000030306D732067657365747A742E0D0A94
:1001C0000041757367616E6773696D70756C7377E5
:1001D0006569746520777572646520617566202095
:1001E0002020203A0041757367616E6773696D70F6
:1001F000756C7377656974652061656E6465726E90
:100200002028696E203130306D732C206D6F65674A
:100210006C696368652057657274653A20327C3377
:100220007C347C2E2E2E2E7C3830293A20004175CD
:100230007300416B746976002D3E706175736500C3
:1002400046616C736368652045696E676162652EFF
:100250000D0A0073796E6368726F6E6973696572F7
:1002600065204E6562656E756872656E20617566A3
:100270002000204D696E757465286E29207A7520DE
:1002800073796E6368726F6E6973696572656E000B
:100290002C2067657261646520656D7066616E67AC
:1002A000656E6573204269743A20004552524F5280
:1002B0000D0A004F4B0D0A006F6B0D0A0055687256
:1002C00020616E676568616C74656E2E0D0A00555D
:1002D0006872206765737461727465742E0D0A000C
:1002E000556E6775656C7469676573205A656974C6
:1002F000666F726D61740D0A004B6F6D6D616E6497
:100300006F20657869737469657274206E696368BB
:10031000742E0D0A00313268205374756E64656E58
:10032000204D6F64757320616B74697669657274B2
:100330002E0D0A00323468205374756E64656E2089
:100340004D6F64757320616B746976696572742E84
:100350000D0A003132205374756E64656E003234BC
:10036000205374756E64656E003132205374756E5F
:1003700064656E2E20417566203234205374756E8C
:1003800064656E207365747A656E3F20286A7C6EA2
:10039000293A20003234205374756E64656E2E2025
:1003A000417566203132205374756E64656E20731A
:1003B00065747A656E3F20286A7C6E293A20005366
:1003C000796E636D6F6475732069737420004443A4
:1003D0004637372053796E6368726F6E6973617444
:1003E000696F6E206175732E0D0A004443463737DE
:1003F0002053796E6368726F6E69736174696F6E92
:100400002065696E2E0D0A0050617573653A0050C3
:10041000756C73203A006175732E2045696E7363A5
:1004200068616C74656E3F20286A7C6E293A2000F2
:10043000616E2E20417573736368616C74656E3FE5
:1004400020286A7C6E293A20004443462053796371
:10045000686E726F6E69737461696F6E2069737410
:1004600020004E6F6368206B65696E6520444346CB
:10047000373720446174656E20656D7066616E6704
:10048000656E2E0073696E6420616E676568616CCD
:1004900074656E2E205374617274656E203F20283F
:1004A0006A7C6E293A20006C617566656E2E20416B
:1004B0006E68616C74656E203F20286A7C6E293AF4
:1004C00020004E6562656E75687228656E29200091
:1004D0004269747465204443463737207A756572E3
:1004E0007374206465616B746976696572656E21E9
:1004F0000D0A005374656C6C65204E6562656E75FF
:100500006872656E20617566202878783A78782957
:100510003A20005374656C6C65204E6562656E759B
:100520006872656E206578616B742061756620283D
:1005300078783A7878293A20005A6569742061758C
:10054000662064656E204E6562656E756872656EC4
:10055000202878783A7878293A20001B5B33373B9B
:10056000316D41757367616E6773696D70756C731A
:10057000696E74657276616C1B5B37433A201B5B56
:10058000303B33376D001B5B33373B316D41757347
:1005900067616E6773696D70756C73776569746593
:1005A0001B5B3130433A201B5B303B33376D001B04
:1005B0005B33373B316D4C434420446973706C614D
:1005C00079206973741B5B3134433A201B5B303BE9
:1005D00033376D000D0A1B5B33373B316D53796E3A
:1005E0006368726F6E69736174696F6E736D6F6447
:1005F00075731B5B38433A201B5B303B33376D0010
:100600000D0A1B5B33373B316D4443463737206C53
:1006100065747A746572204B6F6D706C6574746567
:100620006D7066616E673A201B5B303B33376D003F
:100630000D0A1B5B33373B316D444346373720533C
:1006400074617475731B5B3137433A201B5B303B1D
:1006500033376D000D0A1B5B33373B316D44434626
:100660003737204C65747A7465732045726765620C
:100670006E69731B5B37433A201B5B303B33376D2E
:1006800000616B746976696572740D0A1B5B3337A0
:100690003B316D4C65747A7465732044434637373B
:1006A00020456D7066616E6773646174756D1B5B68
:1006B00032433A201B5B303B33376D000D0A1B5B26
:1006C00033373B316D44434637371B5B3234433A53
:1006D000201B5B303B33376D001B5B33373B316D89
:1006E0005A65697420617566204E6562656E75682D
:1006F00072656E206265690D0A6C65747A74656D49
:10070000205370616E6E756E677361757366616C90
:100710006C1B5B35433A201B5B303B33376D001B52
:100720005B33373B316D4C65747A7465722053705E
:10073000616E6E756E677361757366616C6C1B5B61
:1007400035433A201B5B303B33376D000D0A1B5B92
:1007500033373B316D5374617475731B5B323343B4
:100760003A201B5B303B33376D001B5B33373B312B
:100770006D5A65697420617566204E6562656E7597
:100780006872656E1B5B3130433A201B5B303B3334
:10079000376D001B5B33373B316D4669726D776196
:1007A00072651B5B3231433A201B5B303B33376D44
:1007B00000201B5B33373B316D566572667565678C
:1007C00062617265204B6F6D6D616E646F733A0D7F
:1007D0000A201B5B33373B316D646366201B5B3043
:1007E0003B33376D2D3E2053796E6368726F6E69AF
:1007F000736174696F6E206D6974204443463737A6
:10080000206A617C6E65696E2E0D0A201B5B333792
:100810003B316D736D74201B5B303B33376D2D3E68
:10082000204D757474657275687220617566205A02
:1008300065697420766F6E204E6562656E756872AC
:10084000656E207374656C6C656E2E0D0A201B5BE3
:1008500033373B316D6E7374201B5B303B33376D28
:100860002D3E204E6562656E756872656E206175FD
:1008700066206578616B74206469657365205A65CC
:100880006974207374656C6C656E284E6963687456
:1008900020696D204443463737204D6F64757329B6
:1008A0002E0D0A201B5B33373B316D617374201BA7
:1008B0005B303B33376D2D3E204E6562656E75684B
:1008C00072656E20617566206469657365205A657E
:1008D0006974207374656C6C656E2E205A6569743A
:1008E00020646965206461667565722062656EF6D4
:1008F0007469677420776972642C20776972642048
:1009000068696E7A756164646965727420284E69DD
:1009100063687420696D204443463737204D6F6407
:100920007573292E0D0A201B5B33373B316D7073B5
:1009300074201B5B303B33376D2D3E204D75747436
:1009400065722D20756E64204E6562656E756872E5
:10095000656E20616E68616C74656E2E2853796EC9
:100960006368726F6E69736174696F6E2066756E0D
:100970006B74696F6E6965727420776569746572EE
:10098000292E0D0A201B5B33373B316D73736D20AD
:100990001B5B303B33376D2D3E2053796E636D6F9B
:1009A000647573203132682F323468207365747A2D
:1009B000656E2E0D0A201B5B33373B316D737077EC
:1009C000201B5B303B33376D2D3E204175736761D3
:1009D0006E6773696D70756C737765697465206196
:1009E000656E6465726E283230302D383030306D6F
:1009F00073292E0D0A201B5B33373B316D737461F5
:100A000074201B5B303B33376D2D3E20476573618F
:100A10006D7473746174757320616E7A656967654E
:100A20006E2E0D0A000D0A48696C6665206D6974AA
:100A3000201B5B33373B316D3F1B5B303B33376DE6
:100A4000206F646572201B5B33373B316D68656CCA
:100A5000701B5B303B33376D20756E64206D69749D
:100A60002072657475726E20616E7363686C69655F
:100A70007373656E2E0D0A0011241FBECFEFD8E0F0
:100A8000DEBFCDBF13E0A0E0B1E0E0EDF9E302C0CE
:100A900005900D92A030B107D9F724E0A0E0B3E0B3
:100AA00001C01D92A034B207E1F70E944C0E0C94D5
:100AB000E61C0C940000E0E1F1E0128652985A9A8C
:100AC000A9E6B0E08C9181608C93E89A82E08287FD
:100AD00086E081870895E9E6F0E080818E7F80835B
:100AE000E898E1E8F0E08081887F8083EFE6F0E03D
:100AF00080818E7F80835A9A0895E82FCB014E2FF4
:100B000050E047305105D8F4FA01EC5CFF4F0C94EB
:100B1000331A62E271E011C062E171E00EC062E07E
:100B200071E00BC063EF70E008C062EE70E005C0DA
:100B300064ED70E002C068EC70E00C94771B0895DF
:100B4000CF93DF93FC0101900020E9F73197E81B78
:100B5000F90B20E130E02E1B310937FF02C02F5F77
:100B60003F4F35952795283058F4623048F4EC0112
:100B7000822F0E94190DCE01DF91CF910C943E0D72
:100B8000DF91CF910895FF920F931F93CF93DF933F
:100B900000D0CDB7DEB78B0169E672E00E947E1B04
:100BA000009719F480E090E02CC04AE050E0BE01CC
:100BB0006F5F7F4F0E944D1AF62EE981FA81808186
:100BC0008111F0CF87E18F1568F369E672E080E06C
:100BD00090E00E947E1B009729F34AE050E0BE019E
:100BE0006F5F7F4F0E944D1AE981FA8180818111E8
:100BF000D9CF6C33B8F6F801F0826183128281E0BC
:100C000090E00F900F90DF91CF911F910F91FF9087
:100C10000895FF920F931F93CF93DF9300D000D0DE
:100C2000CDB7DEB7F82E8B011A8219821C821B8287
:100C30004AE0BE016F5F7F4F90E00E94E41B89E0B5
:100C40008F1560F06BE372E0C8010E94971BBE0134
:100C50006F5F7F4FC8010E94831B06C0BE016F5F9C
:100C60007F4FC8010E94971B0F900F900F900F901D
:100C7000DF91CF911F910F91FF900895EF92FF9216
:100C80000F931F93CF93DF9300D01F92CDB7DEB7A2
:100C90008C017B011A8219821B82BE016F5F7F4F1C
:100CA000F70180810E940906BE016F5F7F4FC80176
:100CB0000E94971B69E672E0C8010E94831BBE0177
:100CC0006F5F7F4FF70181810E940906BE016F5F50
:100CD0007F4FC8010E94831B69E672E0C8010E9431
:100CE000831BBE016F5F7F4FF70182810E9409065F
:100CF000BE016F5F7F4FC8010E94831B80915C0122
:100D0000811105C068E372E0C8010E946C1B0F905E
:100D10000F900F90DF91CF911F910F91FF90EF9067
:100D20000895811108C080915A018B3320F48F5FA0
:100D300080935A01089510925A018091590190911F
:100D4000200180FF03C09093020302C0909303032D
:100D50008B3320F48F5F80935901089510925901CD
:100D600080915801873120F48F5F80935801089556
:100D7000109258010895CF92DF92EF92FF920F9355
:100D80001F93CF93DF937C01EB01FC0101900020C6
:100D9000E9F78C010E1B1F0B0F5E1F4F1695079571
:100DA000C02E188290E1D92E6DE672E0CE010E942D
:100DB000831BDA94D110F8CFC7FC1CC0C00FD11D23
:100DC00007FDDA9520E0822F022E000C990BF70127
:100DD00001900020E9F73197EE19FF098E179F0760
:100DE00048F420312CF4F701E80FF91F8081899332
:100DF0002F5FE9CFDF91CF911F910F91FF90EF907F
:100E0000DF90CF900895CF93DF9310921803C0E145
:100E10006DE672E088E193E00E94831BC150C1F748
:100E2000A8E1B3E020E0C9E2D3E0822F022E000C5B
:100E3000990BFE0101900020E9F73197E952F34048
:100E40008E179F0748F420312CF4FC01E75DFC4F1E
:100E500080818D932F5FE9CFDF91CF9108958091AD
:100E60001A01811103C06BEB70E00CC0813019F4E2
:100E70006CEA70E007C0823019F46CE970E002C0DF
:100E800062E970E08BE493E00C94771B0F931F935F
:100E9000CF93DF93CDB7DEB72A970FB6F894DEBFB6
:100EA0000FBECDBF8C011A821982FE01339688E0F5
:100EB000DF011D928A95E9F7D8011396EC918E2FE8
:100EC00090E0FC013197E730F105E8F4E55CFF4F75
:100ED0000C94331A67E671E002C06EE571E085E2BA
:100EE00091E00E94771B15C065E571E0F8CF6AE4D8
:100EF00071E0F5CF62E471E0F2CF6AE371E0EFCF29
:100F00006EE671E0ECCF63E372E085E291E00E946F
:100F1000971B6DE672E085E291E00E94831BBE01A3
:100F20006F5F7F4FF80182810E940906BE016F5FEB
:100F30007F4F85E291E00E94831B67E372E085E2C8
:100F400091E00E94831BBE016F5F7F4FD801119615
:100F50008C910E940906BE016F5F7F4F85E291E090
:100F60000E94831B67E372E085E291E00E94831B8D
:100F7000F80180814AE0BE016F5F7F4F90E00E94E0
:100F8000E41BD8018C918A3018F469E372E002C046
:100F90006DE372E085E291E00E94831BBE016F5F0A
:100FA0007F4F85E291E00E94831B6DE672E085E24F
:100FB00091E00E94831BBE016F5F7F4FF801848127
:100FC0000E940906BE016F5F7F4F85E291E00E949B
:100FD000831B69E672E085E291E00E94831BBE01FB
:100FE0006F5F7F4FD80115968C910E940906BE0154
:100FF0006F5F7F4F85E291E00E94831B6DE672E098
:1010000085E291E00E94831BF8018781882319F013
:1010100060E472E002C064E472E085E291E02A9646
:101020000FB6F894DEBF0FBECDBFDF91CF911F91F9
:101030000F910C94831B0F931F93CF93DF9300D0DA
:10104000CDB7DEB74AE050E0BE016F5F7F4F0E9430
:101050004D1AE981FA81208121110FC08B019C0179
:1010600002501109210931090F34110521053105FB
:1010700020F46093060381E001C080E00F900F90A0
:10108000DF91CF911F910F9108951F920F920FB68C
:101090000F9211242F933F934F935F936F937F93FE
:1010A0008F939F93AF93BF93EF93FF934B995BC045
:1010B000609158018CE090E00E94551C60915901AC
:1010C0008BE090E00E94551C80911801882349F123
:1010D000609114018AE090E00E94551C6091150116
:1010E00089E090E00E94551C6091120188E090E038
:1010F0000E94551C6091110187E090E00E94551CF0
:101100006091100186E090E00E94551C60911301EF
:1011100085E090E00E94551C6091170184E090E00A
:101120000FC0609158018AE090E00E94551C6091C8
:10113000590189E090E00E94551C6FEF88E090E033
:101140000E94551C809100018823C1F00E94240D4B
:1011500060E08CE991E00E94A00561E08FE891E0F9
:101160000E94A0050BC083E390E00E94EA0D8091ED
:101170000001882319F08CE00E94590DFF91EF9136
:10118000BF91AF919F918F917F916F915F914F919F
:101190003F912F910F900FBE0F901F9018951F92A7
:1011A0000F920FB60F9211242F933F934F935F939B
:1011B0006F937F938F939F93AF93BF93EF93FF931F
:1011C0008091AE039091AF0384332CE0920734F406
:1011D00001969093AF038093AE032AC11092AF03A0
:1011E0001092AE0380910303882341F05F985E9ACA
:1011F0008091030381508093030301C05E98809126
:101200000203882341F05E985F9A80910203815027
:101210008093020301C05F988091AD03893020F470
:101220008F5F8093AD03F5C01092AD0380917A0378
:101230008823F1F0809178038B3320F48F5F8093C3
:10124000780316C010927803809177038B3320F4D3
:101250008F5F809377030CC01092770380917603A1
:10126000873120F48F5F8093760302C0109276035B
:10127000309100032091580180917603909159019B
:10128000409177035CE33323C9F0259F900111243B
:10129000290F311D5CE3859FC0011124840F911D2E
:1012A0008217930714F480569A4F821B930B833650
:1012B00025E09207A4F1805A954031C0259F900106
:1012C0001124290F311D5CE3859FC0011124840F77
:1012D000911D213D42E0340714F0205D3240813DF4
:1012E00052E0950714F0805D9240A9012817390754
:1012F00044F440535D4F481B590B4E3351056CF479
:1013000005C0481B590B4E3351052CF488279927EB
:10131000841B950B04C080539D4F821B930B9093AD
:101320000503809304034B9B3DC080917903882380
:1013300059F180910403909105030097A1F094F175
:101340008091AB039091AC031816190634F081E03C
:101350000E94910680911F0190E001979093AC0349
:101360008093AB031FC080917603809358018091D6
:101370007703809359018091780380935A011092EA
:10138000790310927A030EC080915C01882351F09A
:1013900080911F0190E09093AC038093AB0380E0B9
:1013A0000E94910680915C03882321F081508093F4
:1013B0005C030FC085E080935C0380915E038930FD
:1013C00041F08F5F883018F480935E0302C0109262
:1013D0005E0380911801882319F0815080931801D1
:1013E00080911B0190911C01A0911D01B0911E01E3
:1013F0008F3F2FEF9207A207B20759F00196A11D68
:10140000B11D80931B0190931C01A0931D01B0930B
:101410001E018091AD0365E00E94131A911108C06E
:101420005D9B02C05D9801C05D9A81E080935D0381
:10143000FF91EF91BF91AF919F918F917F916F91AC
:101440005F914F913F912F910F900FBE0F901F9082
:101450001895EF92FF920F931F93CF93DF9300D0D5
:10146000CDB7DEB77C010E94030E9A8389839C016D
:1014700022273B71232B89F58C0111270D30110593
:1014800039F48CEE92E00E94310E6AE873E005C0F8
:101490000330110551F469E472E0C7010E94971B03
:1014A00010928A0381E090E01AC00E941C0EEAE8C4
:1014B000F3E001900020E9F73197EA58F340B09744
:1014C00060F4005211090F35110538F4BE016F5F49
:1014D0007F4F8AE893E00E94831B80E090E00F90AA
:1014E0000F90DF91CF911F910F91FF90EF90089592
:1014F0001F920F920FB60F9211248F939F93EF9329
:10150000FF93E1E8F0E08081887F8083EFE6F0E000
:1015100080818E7F80838FEF9FEF909385008093F3
:101520008400FF91EF919F918F910F900FBE0F90CC
:101530001F9018951F920F920FB60F9211242F93A0
:101540003F934F935F936F937F938F939F93AF934B
:10155000EF93FF9350911A014A9B64C080918100E0
:10156000887F8093810080916F008E7F80936F00D1
:1015700080918400909185009093890380938803E3
:1015800090937B0180937A011092850010928400E1
:101590008091810085608093810080916F008160DF
:1015A00080936F0020918803309189035130A9F412
:1015B0008091860390918703820F931F855F9C41E2
:1015C0008F31934050F094E09093190182E0809322
:1015D0001A0190937C0180937D012D5136432F3A5F
:1015E000344008F0A7C180911801883398F08091A9
:1015F0000103882379F08091140180937603809110
:101600001501809377031092780381E0809379032A
:1016100080937A031092B00381E080931A01809343
:101620007D0188C180918100887F809381008091B5
:101630006F008E7F80936F00809184009091850071
:101640009093870380938603909379018093780128
:1016500010928500109284008091810085608093B3
:10166000810080916F00816080936F00513009F09C
:1016700061C180918603909187039C01215235407E
:101680004091B003233F314030F4E42FF0E0EF54B9
:10169000FC4F508315C0885792408B32914030F4F4
:1016A000E42FF0E0EF54FC4F10820AC095E09093D5
:1016B000190182E080931A0190937C0180937D014F
:1016C00080911A01813009F032C14A3308F42FC1E8
:1016D0008091C303809317018091C603E7ECF3E088
:1016E000982F2191922733E0ED3CF307D1F7209119
:1016F000CD0329132AC02091C90358E0259FB001CA
:1017000011249091C80354E0959F90011124262B39
:10171000822B2091C703220F282B8091CC0394E0C9
:10172000899FB00111249091CB03892F90E0880FFD
:10173000991F862B972B3091CA03832B3AE0839F06
:10174000200D11242093150107C082E080931A0117
:1017500080937C0180937D019091CE035091CF03C3
:10176000892F85273091D00383276091D103862765
:10177000A091D2038A272091D30382277091D403AA
:1017800078131BC080911A018130B9F488E0689FFA
:10179000F001112484E0389FB00111246E2B962BA8
:1017A000550F952B30E0220F331F2A2B5AE0259F2F
:1017B000900D11249093140108C082E080931A01C7
:1017C00091E090937C0180937D018091D503E6EDBB
:1017D000F3E0982F2191922763E0EB3EF607D1F7D3
:1017E0002091EB03291399C090911A01913009F0CF
:1017F00094C02091D80398E0299FB00111249091C2
:10180000D70354E0959F90011124262B822B9091B1
:10181000D603990F892B2091DA0330E0220F331F72
:101820009091D903292B6AE0269F800D1124809383
:1018300012018091DD0324E0829FC0011124909168
:10184000DC03990F892B9091DB03892B8093130183
:101850008091E10338E0839FB00111242091E003DF
:1018600054E0259FC0011124862B2091DE03982F80
:10187000922B8091DF03880F892B9091E2036AE01D
:10188000969F800D1124809311016091EA0388E0F6
:10189000689FB00111248091E90324E0829FC00178
:1018A0001124682B792B8091E703682B8091E80342
:1018B00090E0880F991F682B792B8091E60338E020
:1018C000839FF00111242091E50354E0259FC0017E
:1018D00011248E2B2091E303982F922B8091E40307
:1018E000880F892B9AE0699F800D11248093100145
:1018F0008BE3809318011092190182E080931A0102
:1019000010927C0180937D0110921B0110921C01AA
:1019100010921D0110921E010AC093E090931901CC
:1019200082E080931A0190937C0180937D014F5F48
:101930004093B003FF91EF91AF919F918F917F9171
:101940006F915F914F913F912F910F900FBE0F902C
:101950001F901895439A00C043980895CF93C82FBD
:10196000662311F0459A01C0459844983A9A399AED
:10197000389A229A2A98409841984298C7FD2A9A04
:10198000C6FD409AC5FD419AC4FD429A0E94AA0C28
:101990002A98409841984298C3FD2A9AC2FD409ADD
:1019A000C1FD419AC0FD429A0E94AA0C429A419AF6
:1019B000409A2A9ACF9108954598449A3A9839982E
:1019C00038982298439A00C0329B02C080E101C03F
:1019D00080E031998062309980641A9980684398D8
:1019E00000C0439A00C03299816031998260309979
:1019F00084601A998860439808950E94DC0C87FDE2
:101A0000FCCF84E090E00197F1F70C94DC0CCF93CD
:101A1000C82F0E94FD0C60E08C2FCF910C94AE0C6F
:101A2000CF93C82F0E94FD0C61E08C2FCF910C94B6
:101A3000AE0C611102C0805801C080540C94070D97
:101A40000E94FD0C90E0089581E00C94070D82E067
:101A50000C94070DCF93C82F0E94FD0CCA3049F497
:101A6000803410F080E001C080E48058CF910C9465
:101A7000070D61E08C2FCF910C94AE0CCF93DF93C8
:101A8000EC018991882319F00E942A0DFACFDF9189
:101A9000CF910895CF93DF93FC018491EF012196BC
:101AA000882321F00E942A0DFE01F7CFDF91CF910C
:101AB00008951F93CF93DF93182F3A9A399A389A43
:101AC000229A3D9A3C9A3B9A80E09DE70197F1F774
:101AD000419A429A0E94AA0C80E097E20197F1F79E
:101AE0000E94AA0CC0E8D0E0CE010197F1F70E9455
:101AF000AA0CCE010197F1F742980E94AA0C2197F7
:101B0000F1F788E20E94070D88E00E94070D0E940D
:101B1000240D86E00E94070D812FDF91CF911F9148
:101B20000C94070D1F920F920FB60F9211242F9352
:101B30008F939F93EF93FF938091C0009091C60085
:101B40008871E091EF03EF5FEF712091EE03E217F0
:101B500039F0E093EF03F0E0EE50FC4F908301C0CA
:101B600082E09091ED03892B8093ED03FF91EF913B
:101B70009F918F912F910F900FBE0F901F901895EE
:101B80001F920F920FB60F9211248F939F93EF9392
:101B9000FF939091F1038091F003981769F0E09121
:101BA000F003EF5FEF71E093F003F0E0EE5EFB4FC8
:101BB00080818093C60005C08091C1008F7D809395
:101BC000C100FF91EF919F918F910F900FBE0F90E9
:101BD0001F9018951092F1031092F0031092EF03EA
:101BE0001092EE0397FF04C022E02093C0009F777D
:101BF0009093C5008093C40088E98093C10086E07B
:101C00008093C20008959091EF038091EE0398179E
:101C100081F0E091EE03EF5FEF71E093EE03F0E00F
:101C2000EE50FC4F80819091ED031092ED0390E017
:101C3000089580E091E008959091F1039F5F9F7176
:101C40002091F0039217E1F3E92FF0E0EE5EFB4FF5
:101C500080839093F1038091C10080628093C100E2
:101C60000895CF93DF93EC018991882319F00E94A6
:101C70001C0EFACFDF91CF910895CF93DF93FC0133
:101C80008491EF012196882321F00E941C0EFE0111
:101C9000F7CFDF91CF910895F999FECF8BE090E0D7
:101CA0000E944D1C809359018C3340F48CE090E0ED
:101CB0000E944D1C80935801883120F010925801E9
:101CC0001092590181E090E00E944D1C882319F088
:101CD00010925C0103C081E080935C0183E090E09E
:101CE0000E944D1C91E0811101C090E0909301038E
:101CF00082E090E00E944D1C91E0811101C090E0D3
:101D00009093000380E090E00E944D1C809320019E
:101D100082508F3418F084E080932001809120015C
:101D200090E001966AE070E00E941F1A6F5F609376
:101D30001F01789483E390E00E94EA0D8BE492E027
:101D40000E94310E80E592E00E94310E88E592E01B
:101D50000E94310E87E691E00E94310E8DE692E0FE
:101D60000E94310E8EE791E00E94310E8CEE92E0DF
:101D70000E94310E8BE492E00E94310E81E691E0E8
:101D80000E94310E8AB1806E8AB98AB1877E8AB983
:101D90005C9A80916900846080936900E99A16BC1E
:101DA00085B5816085BD80916E00816080936E00F5
:101DB0008091010381110E945B054C9B1FC08CE048
:101DC0000E94590D60E080E00E94190D0E94240DD0
:101DD00081E08093000160E087E691E00E94A00529
:101DE00061E08EE791E00E94A005CAE0D0E012E039
:101DF00004E035E0F32E46E0E42EA9C01092000185
:101E000088B1817C88B987B18E6387B9EECF4B9B4F
:101E1000FECF80915E03811112C068E571E087E416
:101E200091E00E943E0668E173E085E292E00E9444
:101E3000BB0667E073E087E491E00E94BB068091F7
:101E40005E03813009F48AC080915E03823009F418
:101E5000A8C080915E03833009F4B7C080915E030F
:101E6000843009F4C8C080915E03853009F4DDC078
:101E700080915E03863009F41FC180915E03873034
:101E800009F4CDC180915E03893071F56FE074E093
:101E900089E293E00E94771B80917801909179010B
:101EA0004AE06BE473E00E94201C6BE473E089E27B
:101EB00093E00E94831B0E94030768E074E089E2BC
:101EC00093E00E94771B80917A0190917B014AE018
:101ED0006BE473E00E94201C6BE473E089E293E002
:101EE0000E94831B0E94030780915D038111B1C191
:101EF00080915D038111C3C160E186E693E00E9499
:101F0000290A892B09F483CF69E472E086E693E01D
:101F10000E948E1B892B09F00CC210925F038FE682
:101F200092E00E94310E109266036AE472E086E647
:101F300093E00E94971B10926003109234048091EA
:101F40005F03811164CF81E691E00E94310E87E04A
:101F5000D82E93E0C92E29E0B22E59CF8091790373
:101F60008823E1F068E173E084E192E00E94BB061F
:101F70004AE069E273E080910403909105030E94B6
:101F8000E41B64EE71E089E293E00E94831B67E04A
:101F900073E089E293E00E94BB0656CF10935E0384
:101FA00053CF68E173E083E092E00E94BB0680912A
:101FB000010367E073E0882319F08EEE91E002C020
:101FC00088ED91E00E94BB0644CF809101038823F5
:101FD00079F068E173E084EF91E00E94BB060E9413
:101FE0002F0767E073E08BE493E00E94BB0636CFD7
:101FF00000935E0333CF80910103882399F068E159
:1020000073E088EC91E00E94BB0669E273E0809186
:1020100019010E947D0567E073E089E293E00E9468
:10202000BB0621CFF0925E031ECF8091010388236F
:1020300009F43FC080911A018130D9F5A090B00316
:10204000AA942AE32A15A8F168E173E088EB91E0ED
:102050000E94BB066DE572E089E293E00E94971B47
:102060006BE473E08A2D0E9409066BE473E089E259
:1020700093E00E94831B62E672E089E293E00E9493
:10208000831BE091B003F0E0E055FC4F808181308C
:1020900019F46DED72E002C06BE372E089E293E047
:1020A0000E94831B67E073E089E293E00E94BB0615
:1020B000DFCEE0925E03DCCE80910103882309F439
:1020C000ABC080911801882309F4A6C064E672E0D1
:1020D00089E293E00E94971B6BE473E08091140106
:1020E0000E9409066BE473E089E293E00E94831B7F
:1020F00069E672E089E293E00E94831B6BE473E07F
:10210000809115010E9409066BE473E089E293E077
:102110000E94831B6DE672E089E293E00E94831BBC
:1021200080911701882319F060E472E002C064E432
:1021300072E089E293E00E94831B68E173E089E228
:1021400093E00E94BB06E09113018E2F90E0FC010A
:102150003197E730F105E8F4EE5BFF4F0C94331A4A
:1021600064E371E002C061E371E089E293E00E9400
:10217000771B15C06EE271E0F8CF6BE271E0F5CF2E
:1021800068E271E0F2CF65E271E0EFCF67E371E002
:10219000ECCF63E372E089E293E00E94971B6BE669
:1021A00072E089E293E00E94831B6BE473E080910C
:1021B00012010E9409066BE473E089E293E00E9439
:1021C000831B67E372E089E293E00E94831B6BE468
:1021D00073E0809111010E9409066BE473E089E2CB
:1021E00093E00E94831B67E372E089E293E00E9420
:1021F000831B6BE473E0809110010E9409066BE47D
:1022000073E089E293E00E94831B67E073E089E258
:1022100093E00E94BB0631CED0925E032ECE68E1E1
:1022200073E08CEA91E00E94BB0680910003882352
:1022300019F06EE573E002C063E573E089E293E0B4
:102240000E94771B67E073E089E293E00E94BB067F
:1022500019CE80910001882309F44ACE60E080E025
:102260000E94190D88E193E00E943E0D61E080E03C
:102270000E94190D87E093E00E943E0D57C08091A7
:102280000001811139CE80910103882309F443C0F4
:1022900080911A01882341F0813021F0823021F4AD
:1022A000419902C0419A01C04198809119019FEF64
:1022B000980F923020F09CEF980F923018F4429AC9
:1022C00043980BC0811107C080911801882319F031
:1022D0004298439A02C04398429880911B01909182
:1022E0001C01A0911D01B0911E01813821E59207CA
:1022F00021E0A207B10558F481519E40A109B1091E
:1023000080379344A140B10520F4449B02C0449817
:1023100006C0449A04C041984498439842988091DA
:102320007903813011F4459A01C0459810925D03FC
:10233000E3CD68E772E086E693E00E947E1B46E00C
:1023400050E0BC0180E693E00E94AE1B68E772E0BB
:1023500080E090E00E947E1B009781F04AE050E010
:10236000BC0184E394E00E94AE1B6AE772E080E661
:1023700093E00E948E1B892BA9F408C010923404AC
:1023800080915F03882309F468C4EEC668E571E0B4
:1023900084E394E00E94C305892B09F075C08BEAA1
:1023A00092E09CC46FE772E080E693E00E948E1B8F
:1023B000892B71F466E773E084E394E00E94C3051F
:1023C000892B69F381E08093790380937A035CC061
:1023D00064E872E080E693E00E948E1B892B71F422
:1023E00066E773E084E394E00E94C305892BB9F2A9
:1023F00010927A0381E08093790346C069E872E025
:1024000080E693E00E948E1B892B31F56DED72E022
:1024100084E394E00E948E1B892B59F481E0809321
:10242000010361E083E090E00E94551C0E945B057F
:102430002BC06BE372E084E394E00E948E1B892B37
:1024400009F0ADCF1092010360E083E090E00E94BC
:10245000551C0E946B0518C06EE872E080E693E0A0
:102460000E948E1B892B01F56DED72E084E394E0F0
:102470000E948E1B892B59F481E08093000361E058
:1024800082E090E00E94551C83EB92E027C46BE34E
:1024900072E084E394E00E948E1B892B09F07FCFC9
:1024A0001092000360E0ECCF63E972E080E693E015
:1024B0000E948E1B892BC1F484E394E00E941B08C8
:1024C000882309F46CCF2091060320932001822FEA
:1024D00090E00196BE010E941F1A6F5F60931F017A
:1024E000622F80E090E0CECF68E972E080E693E072
:1024F0000E948E1B892BE1F46DED72E084E394E081
:102500000E948E1B892B21F410925C0161E00DC0AA
:102510006BE372E084E394E00E948E1B892B09F048
:102520003ECF81E080935C0160E081E090E0AACF43
:102530006DE972E086E693E00E948E1B892BB9F468
:102540009091850380910103992341F0882309F438
:10255000ECCC1092850310925E0396CF882309F489
:10256000E4CC81E080938503B0925E038DCF65EA71
:1025700072E080E693E00E948E1B892B09F0D5CC97
:102580006BEA72E084E394E00E948E1B892B99F43D
:1025900067E671E089E293E00E94971B89E293E08D
:1025A0000E94310E61E271E089E293E00E94971B84
:1025B0006EE771E041C36EEA72E084E394E00E944A
:1025C0008E1B892B79F5809158014AE06BE473E00A
:1025D00090E00E94E41B6BE473E089E293E00E94C8
:1025E000971B42E050E061E271E089E293E00E94D3
:1025F0009E1B809159014AE06BE473E090E00E94D9
:10260000E41B6BE473E089E293E00E94831B42E0E9
:1026100050E061E271E089E293E00E949E1B8091AC
:102620005A0102C362EB72E084E394E00E948E1BC5
:10263000892B79F5809176034AE06BE473E090E0B2
:102640000E94E41B6BE473E089E293E00E94971B15
:1026500042E050E061E271E089E293E00E949E1B5B
:10266000809177034AE06BE473E090E00E94E41B02
:102670006BE473E089E293E00E94831B42E050E048
:1026800061E271E089E293E00E949E1B80917803F1
:10269000CBC266EB72E084E394E00E948E1B892B30
:1026A00009F016C1809110014AE06BE473E090E0FC
:1026B0000E94E41B6BE473E089E293E00E94971BA5
:1026C00042E050E061E271E089E293E00E949E1BEB
:1026D000809111014AE06BE473E090E00E94E41BFA
:1026E0006BE473E089E293E00E94831B42E050E0D8
:1026F00061E271E089E293E00E949E1B89E293E02F
:102700000E94310E809112014AE06BE473E090E088
:102710000E94E41B6BE473E089E293E00E94971B44
:1027200042E050E061E271E089E293E00E949E1B8A
:10273000809113014AE06BE473E090E00E94E41B97
:102740006BE473E089E293E00E94831B42E050E077
:1027500061E271E089E293E00E949E1B8091140186
:102760004AE06BE473E090E00E94E41B6BE473E0EA
:1027700089E293E00E94831B42E050E061E271E055
:1027800089E293E00E949E1B89E293E00E94310E51
:10279000809115014AE06BE473E090E00E94E41B35
:1027A0006BE473E089E293E00E94971B42E050E003
:1027B00061E271E089E293E00E949E1B8091160124
:1027C0004AE06BE473E090E00E94E41B6BE473E08A
:1027D00089E293E00E94831B42E050E061E271E0F5
:1027E00089E293E00E949E1B809117014AE06BE40E
:1027F00073E090E00E94E41B6BE473E089E293E0F5
:102800000E94831B42E050E061E271E089E293E0C4
:102810000E949E1B89E293E00E94310E8091180174
:102820004AE06BE473E090E00E94E41B6BE473E029
:1028300089E293E00E94971B42E050E061E271E080
:1028400089E293E00E949E1B809119014AE06BE4AB
:1028500073E090E00E94E41B6BE473E089E293E094
:102860000E94831B42E050E061E271E089E293E064
:102870000E949E1B80911A014AE06BE473E090E095
:102880000E94E41B6BE473E089E293E00E94831BE7
:1028900042E050E061E271E089E293E00E949E1B19
:1028A00089E293E00E94310E60911B0170911C013E
:1028B00080911D0190911E012AE04BE453E00E949B
:1028C000EF1B6BE473E089E293E00E94971BB8C1B1
:1028D0006AEB72E084E394E00E948E1B892B09F07E
:1028E00049C08091B0034AE06BE473E090E00E943D
:1028F000E41B6BE473E089E293E00E94971B42E0E3
:1029000050E061E271E089E293E00E949E1B89E25F
:1029100093E00E94310E10920603E0910603EC331F
:1029200030F5F0E0EF54FC4F80814AE06BE473E057
:1029300090E00E94E41B6BE473E089E293E00E9464
:10294000971B809106038B3341F042E050E061E237
:1029500071E089E293E00E949E1B89E293E00E946D
:10296000310E809106038F5F80930603D6CF83E2FA
:1029700091E070C16EEB72E084E394E00E948E1BE4
:10298000892B09F097C086E090E00E944D1C4AE038
:102990006BE473E090E00E94E41B6BE473E089E277
:1029A00093E00E94971B42E050E061E271E089E20F
:1029B00093E00E949E1B87E090E00E944D1C4AE03D
:1029C0006BE473E090E00E94E41B6BE473E089E247
:1029D00093E00E94831B42E050E061E271E089E2F3
:1029E00093E00E949E1B88E090E00E944D1C4AE00C
:1029F0006BE473E090E00E94E41B6BE473E089E217
:102A000093E00E94831B42E050E061E271E089E2C2
:102A100093E00E949E1B89E293E00E94310E85E0C4
:102A200090E00E944D1C4AE06BE473E090E00E944D
:102A3000E41B6BE473E089E293E00E94971B42E0A1
:102A400050E061E271E089E293E00E949E1B8AE01F
:102A500090E00E944D1C4AE06BE473E090E00E941D
:102A6000E41B6BE473E089E293E00E94831B42E085
:102A700050E061E271E089E293E00E949E1B89E0F0
:102A800090E00E944D1C4AE06BE473E090E00E94ED
:102A9000E41B6BE473E089E293E00E94831B42E055
:102AA00050E061E271E089E293E00E949E1B84E0C5
:102AB00090E0B8C062EC72E084E394E00E948E1B68
:102AC000892B09F08CC080915C014AE06BE473E0D3
:102AD00090E00E94E41B6BE473E089E293E00E94C3
:102AE000971B42E050E061E271E089E293E00E94CE
:102AF0009E1B80917A034AE06BE473E090E00E94B1
:102B0000E41B6BE473E089E293E00E94831B42E0E4
:102B100050E061E271E089E293E00E949E1B8091A7
:102B200079034AE06BE473E090E00E94E41B6BE4FD
:102B300073E089E293E00E94831B42E050E061E28F
:102B400071E089E293E00E949E1B89E293E00E947B
:102B5000310E4AE06BE473E0809104039091050329
:102B60000E94E41B6BE473E089E293E00E94971BF0
:102B700042E050E061E271E089E293E00E949E1B36
:102B8000809101034AE06BE473E090E00E94E41B53
:102B90006BE473E089E293E00E94831B42E050E023
:102BA00061E271E089E293E00E949E1B8091000344
:102BB0004AE06BE473E090E00E94E41B6BE473E096
:102BC00089E293E00E94831B42E050E061E271E001
:102BD00089E293E00E949E1B8091200125C066EC53
:102BE00072E084E394E00E948E1B892B09F0D7CB1E
:102BF0008CE090E00E944D1C4AE06BE473E090E0B2
:102C00000E94E41B6BE473E089E293E00E94971B4F
:102C100042E050E061E271E089E293E00E949E1B95
:102C20008BE090E00E944D1C4AE06BE473E090E082
:102C30000E94E41B6BE473E089E293E00E94831B33
:102C400042E050E063E271E089E293E00E949E1B63
:102C500089E293E00E94310E17CC6BE772E086E6C2
:102C600093E00E948E1B892B31F481E080935F03F7
:102C700089E395E033C06AEC72E086E693E00E9457
:102C80008E1B892BD9F480E592E00E94310E87E6F5
:102C900091E00E94310E8CEE92E00E94310E83E9A9
:102CA00097E00E943D0E8EE791E00E94310E8CEE7F
:102CB00092E00E94310E85E29AE010C065E872E071
:102CC00086E693E00E948E1B892B71F480910103AC
:102CD000811107C010935F0383E195E00E943D0ED0
:102CE00024C980ED94E0FACF60E872E086E693E0D4
:102CF0000E948E1B892B49F4809101038111F1CF31
:102D0000C0925F0383EF94E0E9CF6AE872E086E661
:102D100093E00E948E1B892B81F400935F0389E46A
:102D200094E00E943D0E80910103882319F080E316
:102D300094E0D4CF86E194E0D1CF69E972E086E6F1
:102D400093E00E948E1B892B81F4F0925F0382EC4A
:102D500094E00E943D0E80915C01882319F087EA7F
:102D600094E0BCCF84E894E0B9CF6FE872E086E6E7
:102D700093E00E948E1B892B81F4E0925F038FEB1E
:102D800093E00E943D0E80910003882319F084E9AE
:102D900093E0A4CF89E693E0A1CF6EEC72E086E6E3
:102DA00093E00E948E1B892B41F063ED72E086E672
:102DB00093E00E948E1B892B19F481EB97E08ECF54
:102DC00064E972E086E693E00E948E1B892B29F469
:102DD000D0925F0385EE91E081CF66EA72E086E6ED
:102DE00093E00E948E1B892B09F0B0C180E592E030
:102DF0000E94310E87E691E00E94310E8CEE92E047
:102E00000E94310E83E997E00E943D0E8EE791E02B
:102E10000E94310E8CEE92E00E94310E68E571E066
:102E200087E491E00E943E068AE697E00E943D0E0C
:102E300087E491E00E94310E8CE497E00E943D0E01
:102E400080917903882321F166E773E087E491E0BC
:102E50000E943E0683E592E00E943D0E87E491E0E9
:102E60000E94310E4AE06BE473E08091040390917C
:102E700005030E94E41B8DE692E00E94310E8BE474
:102E800093E00E94310E82E792E00E943D0E04C062
:102E900085ED92E00E94310E84ED95E00E943D0E9A
:102EA00080910003882319F08EE593E002C083E54A
:102EB00093E00E943D0E8CEB96E00E943D0E8091C7
:102EC0000103882309F47CC081E896E00E943D0E4E
:102ED00080911201882349F080E191E00E94460729
:102EE00085E291E00E94310E04C082E694E00E94E7
:102EF0003D0E84E596E00E943D0E6BE473E0809108
:102F000019010E947D058BE493E00E94310E80E35D
:102F100096E00E943D0E0E942F078BE493E00E94F2
:102F2000310E80911A01813021F58091B003882300
:102F300001F180E992E00E943D0E8091B00390E0A3
:102F40004AE06BE473E001970E94E41B8BE493E09A
:102F50000E94310EE091B003F0E0E055FC4F80811B
:102F6000813019F48CED92E002C08FED92E00E9466
:102F7000310E80911B0190911C01A0911D01B09117
:102F80001E018F3F9F4FAF4FBF4FF1F080E096E0A3
:102F90000E943D0E60911B0170911C0180911D01EA
:102FA00090911E012AE04BE453E00E94EF1B8BE45A
:102FB00093E00E94310E86E791E00E943D0E04C02E
:102FC00088ED91E00E94310E8CEE92E00E94310E6D
:102FD00089E090E00E944D1C8F3F09F457C08FE1BB
:102FE00097E00E943D0E88E090E00E944D1C8F3FCC
:102FF00089F189E090E00E944D1C809306018AE0EF
:1030000090E00E944D1C8093050188E090E00E94B2
:103010004D1C8093030187E090E00E944D1C80933B
:10302000020186E090E00E944D1C8093010184E043
:1030300090E00E944D1C8093080185E090E00E9482
:103040004D1C8093040181E091E00E94460785E2D7
:1030500091E016C089E090E00E944D1C80938103AE
:103060008AE090E00E944D1C8093800310928203BE
:1030700060E873E08BE493E00E943E068BE493E00B
:103080000E94310E8CEE92E00E94310E8BE090E0B7
:103090000E944D1C8F3F01F189ED96E00E943D0E8C
:1030A0008BE090E00E944D1C80937C038CE090E0CC
:1030B0000E944D1C80937B0310927D036BE773E0AD
:1030C0008BE493E00E943E068BE493E00E94310E75
:1030D0008CEE92E00E94310E8FEA95E00E943D0E48
:1030E00080910001882319F082E392E002C08EE211
:1030F00092E00E943D0E8CEE92E00E94310E86E836
:1031000095E00E943D0E809120014AE06BE473E05F
:1031100090E00E94E41B8BE493E00E94310E82EE6B
:1031200092E00E94310E8BE595E00E943D0E809169
:103130001F014AE06BE473E090E00E94E41B8BE423
:1031400093E00E94310E89EE92E00AC08FEE92E089
:103150000E94310E89EF92E00E943D0E8BE492E0D6
:103160000E94310E0C94950F8130F9F468E571E0FE
:1031700086E693E00E94C305892B39F087EF92E041
:103180000E94310E88EB92E006C08FEE92E00E9422
:10319000310E80EE92E00E943D0E8BE492E00E94A0
:1031A000310E10925F030C94950F8230D1F466E7D4
:1031B00073E086E693E00E94C305892B31F387EF25
:1031C00092E00E94310E88EB92E00E943D0E8BE46B
:1031D00092E00E94310E10927A0381E0809379038D
:1031E000E0CF8330D1F466E773E086E693E00E9497
:1031F000C305892B51F287EF92E00E94310E88EBD4
:1032000092E00E943D0E8BE492E00E94310E81E03C
:103210008093790380937A03C4CF843009F047C048
:103220006FE571E086E693E00E948E1B892B89F59D
:1032300080910103811117C087EF92E00E94310E47
:103240008BEE93E00E943D0E8BE492E00E94310EE3
:1032500081E08093010361E083E090E00E94551CCF
:103260000E945B059ECF87EF92E00E94310E8EECAC
:1032700093E00E943D0E8BE492E00E94310E10928A
:10328000010360E083E090E00E94551C0E946B0502
:1032900088CF6DE571E086E693E00E948E1B892B56
:1032A00009F47FCF80E492E00E943D0E7ACF853012
:1032B00081F56FE571E086E693E00E948E1B892B15
:1032C00009F05BC080915C01811111C080E592E042
:1032D0000E94310E8FEC92E00E943D0E8BE492E052
:1032E0000E94310E81E080935C0160E00FC080E5B8
:1032F00092E00E94310E8DEB92E00E943D0E8BE435
:1033000092E00E94310E10925C0161E081E090E059
:1033100031C0863009F041C06FE571E086E693E088
:103320000E948E1B892B49F580910003811111C0E9
:1033300087EF92E00E94310E84E393E00E943D0EFD
:103340008BE492E00E94310E81E08093000361E003
:103350000FC087EF92E00E94310E85E193E00E945A
:103360003D0E8BE492E00E94310E1092000360E06B
:1033700082E090E00E94551C14CF6DE571E086E676
:1033800093E00E948E1B892B09F40BCF8FEE92E005
:103390000E94310E80E492E0FECE873009F001CF2A
:1033A00086E693E00E941B08882381F320910603A0
:1033B00020932001822F90E00196BE010E941F1AE7
:1033C0006F5F60931F01622F80E090E00E94551CA8
:1033D00087EF92E00E94310E81EC91E00E943D0E59
:1033E000809120014AE06BE473E090E00E94E41BCE
:1033F0008BE493E00E94310E81EB91E00E943D0E40
:103400008DE891E00E943D0E80911F014AE06BE43F
:1034100073E090E00E94E41B8BE493E00E94310E85
:1034200080E891E0B8CE991B79E004C0991F961707
:1034300008F0961B881F7A95C9F78095089597FB29
:10344000072E16F4009407D077FD09D00E94391A90
:1034500007FC05D03EF4909581959F4F0895709597
:1034600061957F4F0895EE0FFF1F0590F491E02DB9
:103470000994AA1BBB1B51E107C0AA1FBB1FA617BB
:10348000B70710F0A61BB70B881F991F5A95A9F70D
:1034900080959095BC01CD010895A0E0B0E0E3E5F2
:1034A000FAE10C94A11C5C016B017A0161157105B4
:1034B00019F0FB0191838083E114F10429F0C70125
:1034C0000297839708F0E5C0E5012196F501108188
:1034D000812F90E00E94631B892B11F05E01F4CFD5
:1034E0001D3229F42196F501118101E007C01B323C
:1034F00021F4E5012296F501118100E0E114F104C7
:1035000009F1F0E1EF16F10429F43FC010E3E114F2
:10351000F10421F128E0E216F10401F154F4E2E0B3
:10352000EE16F10421F5812C912CA12CB0E4BB2ED8
:103530003EC0FAE0EF16F10439F020E1E216F104A2
:10354000B1F430C0103319F1FAE0EF2EF12CACECED
:103550008A2E982CA82CACE0BA2E29C078E0E72E51
:10356000F12C812C912CA12CE0E1BE2E20C060E03A
:1035700070E080E090E897010F2C000C440B550B95
:103580000E94731C49015A0112C0103359F48881FA
:103590008F7D883509F0BACF19812296026080E1CB
:1035A000E82EF12C812C912CA12C68E0B62E40E065
:1035B00060E070E0CB0127010F2C000C6608770853
:1035C000FE0150ED352E310E29E0231570F42FEB5E
:1035D000210F2A3118F439EC332E06C02FE9210FC0
:1035E0002A3118F529EA322E310E232D30E02E151E
:1035F0003F05DCF447FD16C086169706A806B906F7
:1036000070F0A30192010E94631C630D711D811D66
:10361000911D61307105810520E8920710F04FEF90
:1036200001C041E021961081CBCF202F2170C11421
:10363000D10471F0442329F02197F601D183C0838E
:1036400007C001FF19C02297F601D183C08314C0BF
:1036500047FF12C0222329F060E070E080E090E88C
:1036600004C06FEF7FEF8FEF9FE722E230E03093EF
:103670003F0420933E0409C0222381F09095809559
:10368000709561957F4F8F4F9F4F462F372F282F73
:1036900012C040E030E020E090E00DC097FFF5CF91
:1036A00082E290E090933F0480933E046FEF7FEFBF
:1036B0008FEF9FE7EACF642F732F822FCDB7DEB74E
:1036C000E1E10C94BD1C91110C943A1C803219F06C
:1036D00089508550C8F70895FB01DC010D9000204A
:1036E000E9F7119705900D920020E1F70895FB018D
:1036F000DC0105900D920020E1F7089542E354E0CB
:103700000E94BD1B0895FB01DC010D900020E9F72C
:10371000119701900D920020E1F70895FB01DC0163
:103720008D91019080190110D9F3990B0895FB0137
:10373000DC0101900D920020E1F70895FB01DC010E
:103740000D900020E9F711974150504028F001906A
:1037500000200D92C9F708951C920895FB01DC0129
:103760004150504048F001900D920020C9F701C02F
:103770001D9241505040E0F70895FA01A191B081A7
:10378000009719F41097E1F0CD01DC01CD010D9007
:10379000002011F4C00113C0FB012191222319F074
:1037A0002015D9F7F3CFFB012191201519F41E92B2
:1037B000119606C02223C1F70D900020A1F7D00179
:1037C000FA01A193B0830895BB274A3031F49923BD
:1037D00022F4BDE2909581959F4F0C94211CBB274C
:1037E0002A3051F4992342F4BDE29095809570956A
:1037F00061957F4F8F4F9F4F0C94FF1BBB27FA01A2
:10380000A62F6217710581059105330B30FB66F019
:10381000AA27660F771F881F991FAA1FA21710F0EB
:10382000A21B63953850A9F7A05DAA3308F0A95DE3
:10383000A19336F7B111B1931082CA010C943D1CCB
:10384000BB27FB015527AA27880F991FAA1FA4177A
:1038500010F0A41B83955051B9F7A05DAA3308F06E
:10386000A95DA193009779F7B111B1931192CB01A2
:103870000C943D1C992788270895DC01FC01672FD3
:1038800071917723E1F7329704C07C916D93708337
:103890006291AE17BF07C8F30895F999FECF92BDA4
:1038A00081BDF89A992780B50895262FF999FECF02
:1038B0001FBA92BD81BD20BD0FB6F894FA9AF99A4D
:1038C0000FBE01960895DB018F939F930E94951C74
:1038D000BF91AF91A29F800D911DA39F900DB29FAC
:1038E000900D11240895A1E21A2EAA1BBB1BFD0105
:1038F0000DC0AA1FBB1FEE1FFF1FA217B307E407CF
:10390000F50720F0A21BB30BE40BF50B661F771F26
:10391000881F991F1A9469F7609570958095909506
:103920009B01AC01BD01CF0108950E94D71CA59F4A
:10393000900DB49F900DA49F800D911D11240895AA
:103940002F923F924F925F926F927F928F929F92AF
:10395000AF92BF92CF92DF92EF92FF920F931F939D
:10396000CF93DF93CDB7DEB7CA1BDB0B0FB6F8944E
:10397000DEBF0FBECDBF09942A88398848885F848E
:103980006E847D848C849B84AA84B984C884DF80FF
:10399000EE80FD800C811B81AA81B981CE0FD11DE3
:1039A0000FB6F894DEBF0FBECDBFED010895A29F04
:1039B000B001B39FC001A39F700D811D1124911D03
:1039C000B29F700D811D1124911D0895F894FFCFB1
:1039D000010000000000000001000600FFFFFFFFE3
:1039E0000000000000000001000600FFFFFFFF01D3
:1039F000042C003B002D2D2D2D2D2D2D2D2D2D207A
:103A00002D2D2E2D2D2E2D2D2D2D202D2D3A2D2DE4
:103A1000202D2D2D2D00002D2D3A2D2D3A2D2D0050
:103A2000000000000000000000000000016E006ABD
:103A3000006D753A3E20005241204D7574746572D8
:103A40007568720000000000000000000600563299
:103A50002E303062322D6462670000000000006189
:103A60007573676566616C6C656E21005374726F67
:103A70006D766572736F7267756E670053796E63EA
:103A8000204D6F6475733A00444346373720456DC7
:103A90007066616E67653A004443462041757377EE
:103AA000657274756E673A006465616B74697669F6
:103AB00065727400204D696E7574656E2E00416BE1
:103AC00074697600444346373720537461747573C4
:103AD0003A200044434637372053796E636D6F6454
:103AE00075733A0053796E6368726F6E69736965B6
:103AF00072652E2E004E6562656E7568727A656914
:103B0000743A002D2D2D002E00323030003230005E
:103B10004D455A004D45535A0003001B5B306D0064
:103B20001B5B33373B316D001B5B324A004249540B
:103B30003A003D0044434637373A00202D200053D9
:103B40005452472D430A0D003B005F736D74005FB4
:103B5000617374005F6E7374005F646366005F730B
:103B6000736D005F737077005F707374005F6462E1
:103B700067646366005F73746174006776006773DF
:103B80007400676E74006764370067646100676C77
:103B9000700067677300676C730041545A00686572
:103BA0006C70003F006E6F726D616C003D31003DC6
:103BB000300030306D730D0A007365630D0A001B11
:103BC0005B33313B316D001B5B33323B316D0000A9
:00000001FF
