:100000000C94EF040C94B5060C94D9080C940C05D0
:100010000C940C050C940C050C940C050C940C051C
:100020000C940C050C940C050C940C050C940C050C
:100030000C940C050C9493060C940C050C940C0574
:100040000C9430050C940C050C9448180C947418FE
:100050000C940C050C940C050C940C050C940C05DC
:100060000C940C050C940C050D0A48696C6665200F
:100070006D6974201B5B33373B316D3F1B5B303B3D
:1000800033376D206F646572201B5B33373B316DF6
:1000900068656C701B5B303B33376D20756E642078
:1000A0006D69742072657475726E20616E73636819
:1000B0006C69657373656E2E0D0A00201B5B333708
:1000C0003B316D5665726675656762617265204B7E
:1000D0006F6D6D616E646F733A0D0A201B5B333771
:1000E0003B316D646366201B5B303B33376D2D3EC7
:1000F0002053796E6368726F6E69736174696F6E95
:10010000206D6974204443463737206A617C6E65F0
:10011000696E2E0D0A201B5B33373B316D736D7496
:10012000201B5B303B33376D2D3E204D757474655D
:100130007275687220617566205A65697420766FE1
:100140006E204E6562656E756872656E20737465AB
:100150006C6C656E2E0D0A201B5B33373B316D6E68
:100160007374201B5B303B33376D2D3E204E656230
:10017000656E756872656E20617566206578616B65
:1001800074206469657365205A65697420737465A9
:100190006C6C656E284E6963687420696D204443F9
:1001A000463737204D6F647573292E0D0A201B5B6F
:1001B00033373B316D617374201B5B303B33376DDC
:1001C0002D3E204E6562656E756872656E206175A4
:1001D00066206469657365205A6569742073746567
:1001E0006C6C656E2E205A656974206469652064A4
:1001F00061667565722062656EF674696774207752
:100200006972642C20776972642068696E7A7561FE
:1002100064646965727420284E6963687420696D2E
:10022000204443463737204D6F647573292E0D0ADD
:10023000201B5B33373B316D707374201B5B303B8D
:1002400033376D2D3E204D75747465722D20756E9B
:1002500064204E6562656E756872656E20616E68B9
:10026000616C74656E2E2853796E6368726F6E6967
:10027000736174696F6E2066756E6B74696F6E69F9
:1002800065727420776569746572292E0D0A201BCA
:100290005B33373B316D73736D201B5B303B333702
:1002A0006D2D3E2053796E636D6F6475732031320E
:1002B000682F323468207365747A656E2E0D0A20BB
:1002C0001B5B33373B316D737077201B5B303B33E7
:1002D000376D2D3E2041757367616E6773696D7070
:1002E000756C7377656974652061656E6465726E9F
:1002F000283230302D3830306D73292E0D0A201BF6
:100300005B33373B316D73746174201B5B303B335F
:10031000376D2D3E20476573616D7473746174751C
:100320007320616E7A656967656E2E0D0A001B5B2E
:1003300033373B316D4669726D776172651B5B3295
:1003400031433A201B5B303B33376D001B5B333747
:100350003B316D5A65697420617566204E65626532
:100360006E756872656E1B5B3130433A201B5B30E3
:100370003B33376D000D0A1B5B33373B316D5374D4
:10038000617475731B5B3233433A201B5B303B3324
:10039000376D001B5B33373B316D4C65747A746588
:1003A00072205370616E6E756E67736175736661EE
:1003B0006C6C1B5B35433A201B5B303B33376D0065
:1003C0001B5B33373B316D5A65697420617566205C
:1003D0004E6562656E756872656E206265690D0AAC
:1003E0006C65747A74656D205370616E6E756E679E
:1003F0007361757366616C6C1B5B35433A201B5BE4
:10040000303B33376D000D0A1B5B33373B316D4496
:10041000434637371B5B3234433A201B5B303B3358
:10042000376D00616B746976696572740D0A1B5BC8
:1004300033373B316D4C65747A74657320444346A1
:10044000373720456D7066616E6773646174756DD2
:100450001B5B32433A201B5B303B33376D000D0A88
:100460001B5B33373B316D4443463737204C657453
:100470007A7465732045726765626E69731B5B37BA
:10048000433A201B5B303B33376D000D0A1B5B3357
:10049000373B316D4443463737205374617475736D
:1004A0001B5B3137433A201B5B303B33376D000D0C
:1004B0000A1B5B33373B316D4443463737206C654D
:1004C000747A746572204B6F6D706C657474656DB1
:1004D0007066616E673A201B5B303B33376D000DF1
:1004E0000A1B5B33373B316D53796E6368726F6EF5
:1004F00069736174696F6E736D6F6475731B5B38BC
:10050000433A201B5B303B33376D001B5B33373B7B
:10051000316D4C434420446973706C617920697378
:10052000741B5B3134433A201B5B303B33376D0027
:100530001B5B33373B316D41757367616E67736960
:100540006D70756C7377656974651B5B3130433A08
:10055000201B5B303B33376D005A65697420617531
:10056000662064656E204E6562656E756872656EA4
:10057000202878783A7878293A20005374656C6C92
:1005800065204E6562656E756872656E206578617E
:100590006B7420617566202878783A7878293A203B
:1005A000005374656C6C65204E6562656E7568728B
:1005B000656E20617566202878783A7878293A2027
:1005C000004269747465204443463737207A756564
:1005D000727374206465616B746976696572656EA7
:1005E000210D0A004E6562656E75687228656E2978
:1005F00020006C617566656E2E20416E68616C74BA
:10060000656E203F20286A7C6E293A200073696E4F
:100610006420616E676568616C74656E2E2053742A
:10062000617274656E203F20286A7C6E293A200032
:100630004E6F6368206B65696E65204443463737AB
:1006400020446174656E20656D7066616E67656ECD
:100650002E0044434620537963686E726F6E69734F
:100660007461696F6E206973742000616E2E204181
:100670007573736368616C74656E3F20286A7C6E65
:10068000293A20006175732E2045696E7363686195
:100690006C74656E3F20286A7C6E293A20004443C2
:1006A0004637372053796E6368726F6E6973617471
:1006B000696F6E2065696E2E0D0A00444346373718
:1006C0002053796E6368726F6E69736174696F6EBF
:1006D000206175732E0D0A0053796E636D6F64751A
:1006E000732069737420003234205374756E64650E
:1006F0006E2E20417566203132205374756E64650C
:100700006E207365747A656E3F20286A7C6E293A84
:1007100020003132205374756E64656E2E20417551
:1007200066203234205374756E64656E2073657470
:100730007A656E3F20286A7C6E293A200032342088
:100740005374756E64656E003132205374756E6437
:10075000656E00323468205374756E64656E204D8A
:100760006F64757320616B746976696572742E0DA0
:100770000A00313268205374756E64656E204D6FC7
:1007800064757320616B746976696572742E0D0AE5
:10079000004B6F6D6D616E646F206578697374696D
:1007A000657274206E696368742E0D0A00556E6759
:1007B00075656C7469676573205A656974666F72D4
:1007C0006D61740D0A0055687220676573746172FB
:1007D0007465742E0D0A0055687220616E67656835
:1007E000616C74656E2E0D0A006F6B0D0A004F4B25
:1007F0000D0A004552524F520D0A002C20676572B7
:1008000061646520656D7066616E67656E657320F5
:100810004269743A2000204D696E757465286E290E
:10082000207A752073796E6368726F6E697369657B
:1008300072656E0073796E6368726F6E6973696555
:100840007265204E6562656E756872656E206175B1
:1008500066200046616C736368652045696E676158
:1008600062652E0D0A002D3E706175736500416B47
:10087000746976004175730041757367616E6773C3
:10088000696D70756C7377656974652061656E64F8
:1008900065726E2028696E203130306D732C206DAA
:1008A0006F65676C696368652057657274653A2087
:1008B000327C337C347C357C367C377C38293A205A
:1008C0000041757367616E6773696D70756C7377DE
:1008D00065697465207775726465206175662000AE
:1008E00030306D732067657365747A742E0D0A005D
:1008F0002053656B756E64656E00536F6E6E746128
:1009000067004D6F6E746167004469656E73746152
:1009100067004D697474776F636800446F6E6E652D
:100920007273746167004672656974616700536130
:100930006D7374616700536F004D6F004469004D23
:100940006900446F004672005361006F6B004552AE
:10095000522D5061722E205374756E64650045529D
:10096000522D5061722E204D696E7574650045528E
:10097000522D5061722E20446174756D00455252A3
:100980002D4461756572506572696F6465004552EA
:10099000522D50756C736461756572004B65696E9C
:1009A0002053746174757300496E697469616C7366
:1009B0006965726500456D7066616E6765204461AA
:1009C00074656E00576172746520617566204461BC
:1009D00074656E00556E62656B616E6E74001124F5
:1009E0001FBECFEFD4E0DEBFCDBF13E0A0E0B1E08B
:1009F000E2E5F7E302C005900D92A434B107D9F700
:100A000013E0A4E4B3E001C01D92A73FB107E1F7F2
:100A10000E945C0B0C94A71B0C940000FC01662345
:100A200031F482818B3318F48F5F828308951282B0
:100A300081819091240380FF03C090935B0302C0E7
:100A400090935A038B3318F48F5F8183089511823A
:100A50008081873118F48F5F808308951082089514
:100A60001F920F920FB60F9211242F933F934F9323
:100A70005F936F937F938F939F93AF93BF93EF9306
:100A8000FF9380916503909166032CE08433920775
:100A900034F40196909366038093650324C1109209
:100AA00066031092650380915A03882341F05F9892
:100AB000289A80915A03815080935A0301C0289844
:100AC00080915B03882341F028985F9A80915B03B3
:100AD000815080935B0301C05F98809167038930E8
:100AE00020F48F5F80936703F1C0109267038091B9
:100AF00052038823F1F0809150038B3320F48F5FF1
:100B00008093500316C01092500380914F038B3393
:100B100020F48F5F80934F030CC010924F0380919D
:100B20004E03873120F48F5F80934E0302C01092F2
:100B30004E0380915D03882319F19091B102809159
:100B4000B0022CE3829FA0011124490F511D909106
:100B50004F0380914E03829F90011124290F311D74
:100B60002417350714F420563A4FC901841B950BFE
:100B700025E0833692070CF443C0805A954040C06C
:100B80009091B1028091B0022CE3829FA0011124C8
:100B9000490F511D90914F0380914E03829F900108
:100BA0001124290F311D82E0413D580714F0405DAA
:100BB000524082E0213D380714F0205D3240421758
:100BC000530774F440535D4FBA01621B730B405DD1
:100BD00052406E33710554F0C901841B950B10C04F
:100BE000BA01621B730B6E3371052CF488279927A9
:100BF000861B970B05C0C901841B950B80539D4F25
:100C000090935903809358034B9B2BC080915103C1
:100C10008823F1F08091580390915903009739F09F
:100C200018161906F4F480EB92E061E018C0809188
:100C30004E038093B00280914F038093B102809164
:100C400050038093B202109251031092520309C0D4
:100C50008091B402882329F080EB92E060E00E944A
:100C60000E0580915603882321F08150809356030E
:100C700008C085E080935603809154038F5F809372
:100C8000540380912D03882319F0815080932D0304
:100C90008091300390913103A0913203B0913303DE
:100CA0008F3F2FEF92072FEFA2072FEFB20759F0D8
:100CB0000196A11DB11D8093300390933103A09341
:100CC0003203B093330381E080935503809167032F
:100CD00065E00E940619992331F45D9B02C05D987E
:100CE00001C05D9A8BB1FF91EF91BF91AF919F9140
:100CF0008F917F916F915F914F913F912F910F90C5
:100D00000FBE0F901F90189552985A9AE9E6F0E09E
:100D1000808181608083E89A82E080932F0386E05F
:100D200080932E0308951F920F920FB60F921124F5
:100D30008F939F93EF93FF93E1E8F0E08081887FAA
:100D40008083EFE6F0E080818E7F80838FEF9FEFDE
:100D50009093850080938400FF91EF919F918F91F4
:100D60000F900FBE0F901F9018951F920F920FB605
:100D70000F9211242F933F934F935F938F939F93E1
:100D8000EF93FF934A9B58C080918100887F8093A6
:100D9000810080916F008E7F80936F00209184008E
:100DA0003091850030936203209361031092850097
:100DB00010928400809181008560809381008091F1
:100DC0006F00816080936F0080912F038130A9F4C0
:100DD0008091630390916403820F931F909360034B
:100DE00080935F03855F9C418F51934030F084E096
:100DF00080932E0382E080932F032D5136432F5A88
:100E0000344008F0A5C180912D03883378F080919B
:100E1000290380934E0380912A0380934F031092FD
:100E2000500381E0809351038093520310925E033C
:100E300081E080932F038CC180918100887F809313
:100E4000810080916F008E7F80936F0020918400DD
:100E500030918500309364032093630310928500E2
:100E60001092840080918100856080938100809140
:100E70006F00816080936F0040912F03413009F033
:100E800067C1C90181529540835F914038F4E09178
:100E90005E03F0E0E859FC4F408312C0285732400F
:100EA0002B52314038F4E0915E03F0E0E859FC4FFA
:100EB000108206C085E080932E0382E080932F038A
:100EC00080912F03813009F03EC180915E038A3307
:100ED00008F439C180917A0380932C0320917D031B
:100EE000EEE7F3E0922F8191982743E0E438F4078E
:100EF000D1F78081981781F590918003990F990F10
:100F0000990F80917F03880F880F892B822B409146
:100F10007E03440F482B2091830330E0220F331FC0
:100F2000220F331F8091820390E0880F991F282B96
:100F3000392B8091810390E0282B392BC90153E094
:100F4000880F991F5A95E1F7220F331F820F931FC5
:100F5000480F40932A0305C082E080932E038093BC
:100F60002F0320918503E6E8F3E0922F81919827E3
:100F700053E0EB38F507D1F78081981759F5809148
:100F80002F03813039F590918803990F990F990FAC
:100F900080918703880F880F892B822B40918603CD
:100FA000440F482B80918A0390E0880F991F20916D
:100FB000890330E0822B932B9C0153E0220F331FD7
:100FC0005A95E1F7880F991F280F391F420F409358
:100FD000290306C081E080932E0382E080932F03D3
:100FE00020918C03EDE8F3E0922F8191982783E024
:100FF000E23AF807D1F78081981709F09EC08091F6
:101000002F03813009F099C090918F03990F990FA8
:10101000990F80918E03880F880F892B822B409126
:101020008D03440F482B8091910390E0880F991F06
:101030002091900330E0822B932B9C0153E0220FF0
:10104000331F5A95E1F7880F991F280F391F420F58
:101050004093270390919403990F990F80919303E4
:10106000880F892B90919203892B8093280390916C
:101070009803990F990F990F80919703880F880F04
:10108000892B90919503892B20919603220F282B71
:10109000809199033AE0839FC0011124280F209387
:1010A00026032091A10330E0E3E0220F331FEA95ED
:1010B000E1F78091A00390E0880F991F880F991F96
:1010C000282B392B80919E0390E0282B392B80917F
:1010D0009F0390E0880F991F282B392BA90193E0DB
:1010E000440F551F9A95E1F7220F331F420F531FEC
:1010F00080919D03880F880F880F90919C03990F12
:10110000990F982B80919A03982B80919B03880FBD
:10111000892B840F809325038BE380932D031092FA
:101120002E0382E080932F0310923003109231033C
:10113000109232031092330306C083E080932E0393
:1011400082E080932F0380915E038F5F80935E0324
:10115000FF91EF919F918F915F914F913F912F91CF
:101160000F900FBE0F901F9018950F931F93182F7D
:10117000092F262FE82FF92FDF010D900020E9F726
:101180001197A81B80E190E08A1B910962E070E052
:101190000E941219683050F4223040F4862F622FDA
:1011A0000E94CB17812F902F0E94F4171F910F914F
:1011B00008951F920F920FB60F9211242F933F9311
:1011C0004F935F936F937F938F939F93AF93BF934F
:1011D000EF93FF934B995BC080E090E06091B00289
:1011E0000E94451B81E090E06091B1020E94451B86
:1011F00080912D03882349F182E090E060912903DA
:101200000E94451B83E090E060912A030E94451BE9
:1012100084E090E0609127030E94451B85E090E008
:10122000609126030E94451B86E090E060912503B3
:101230000E94451B87E090E0609128030E94451BB7
:1012400088E090E060912C030FC082E090E0609114
:10125000B0020E94451B83E090E06091B1020E94C1
:10126000451B84E090E06FEF0E94451B8091430393
:101270008823C1F00E94D7178FE892E060E00E94B7
:10128000B5088FE992E061E00E94B5080BC083E3E6
:1012900090E00E949E1880914303882319F08CE00F
:1012A0000E940E18FF91EF91BF91AF919F918F9186
:1012B0007F916F915F914F913F912F910F900FBE52
:1012C0000F901F901895CF92DF92EF92FF921F938D
:1012D000DF93CF9300D000D0CDB7DEB7182F7B01BE
:1012E0008091020190910301A0910401B091050148
:1012F00089839A83AB83BC83812F90E06E0108942D
:10130000C11CD11CB6014AE050E00E94E81A1A3014
:1013100050F4C70160E071E00E949B1AC701B6015A
:101320000E94871A04C0C701B6010E949B1A0F9041
:101330000F900F900F90CF91DF911F91FF90EF9042
:10134000DF90CF9008958330D1F0843028F481303D
:1013500071F0823080F407C08530C9F0853098F094
:10136000863001F51AC0CB016BE479E013C0CB01E4
:101370006EE479E00FC0CB016EE579E00BC0CB01E4
:101380006EE679E007C0CB016DE779E003C0CB01E1
:101390006EE879E00E947B1A0895CB016CE979E050
:1013A0000E947B1A089580912F03882321F4CB019A
:1013B00068EA79E00FC0813021F4CB0165EB79E078
:1013C00009C0823021F4CB0164EC79E003C0CB0189
:1013D00064ED79E00E947B1A0895CF92DF92EF923C
:1013E000FF920F931F93DF93CF93CDB7DEB72A976A
:1013F0000FB6F894DEBF0FBECDBF7C016B01198222
:101400001A821B821C82FE01359686E0DF011D9246
:101410008A95E9F7FB0183818430F1F0853038F457
:10142000823081F08330A0F4813031F507C08630FE
:10143000D9F08630A8F08730F9F41AC0C70162E00D
:1014400079E003C0C70169E079E00E947B1A19C006
:10145000C70162E179E0F9CFC7016BE179E0F5CF2F
:10146000C70166E279E0F1CFC7016EE279E0EDCF26
:10147000C7016AEF78E0E9CFC70166E071E00E943A
:101480009B1AC7016AE071E00E94871AD601129682
:101490008C918E010F5F1F4FB8010E946309C70135
:1014A000B8010E94871AC7016CE071E00E94871A98
:1014B000F6018181B8010E946309C701B8010E9449
:1014C000871AC7016CE071E00E94871AD6018C91DF
:1014D00090E0B8014AE050E00E94E81AF6018081ED
:1014E0008A3020F4C7016EE071E003C0C70162E1F9
:1014F00071E00E94871AC701B8010E94871AC701CC
:101500006AE071E00E94871AD60114968C918E01D0
:101510000F5F1F4FB8010E946309C701B8010E9405
:10152000871AC70165E171E00E94871AF60185817B
:10153000B8010E946309C701B8010E94871AC70158
:101540006AE071E00E94871AD60117968C91882371
:1015500021F0C70167E171E003C0C7016BE171E0F1
:101560000E94871A2A960FB6F894DEBF0FBECDBF31
:10157000CF91DF911F910F91FF90EF90DF90CF906F
:101580000895CF92DF92EF92FF920F931F93DF9314
:10159000CF9300D00F92CDB7DEB76C017B01809165
:1015A000200189831B821A82FB0180818E010F5FDB
:1015B0001F4FB8010E946309C601B8010E949B1A1F
:1015C000C60165E171E00E94871AF7018181B801C7
:1015D0000E946309C601B8010E94871AC60165E12D
:1015E00071E00E94871AF7018281B8010E946309A5
:1015F000C601B8010E94871A8091B402882329F499
:10160000C60166E678E00E94701A0F900F900F9066
:10161000CF91DF911F910F91FF90EF90DF90CF90CE
:101620000895DF92EF92FF920F931F93DF93CF9372
:1016300000D0CDB7DEB78B0165E171E00E94821A60
:10164000009769F17E010894E11CF11CB7014AE0A2
:1016500050E00E943919D62EE981FA8180818823D1
:10166000F1F487E18D15D8F080E090E065E171E05C
:101670000E94821A009799F0B7014AE050E00E9458
:101680003919E981FA818081882349F46C3338F46F
:10169000F801D0826183128221E030E002C020E0B4
:1016A00030E0C9010F900F90CF91DF911F910F9102
:1016B000FF90EF90DF900895EF92FF920F931F93AA
:1016C000DF93CF9300D000D0CDB7DEB781E090E0BC
:1016D0000E943D1B8093B1028C3340F480E090E087
:1016E0000E943D1B8093B002883120F01092B0021E
:1016F0001092B1028BE090E00E943D1B882319F00C
:101700001092B40203C081E08093B40289E090E0BB
:101710000E943D1B80935C038AE090E00E943D1B89
:1017200080935D038CE090E00E943D1B8093240336
:101730008250873018F084E080932403789483E308
:1017400090E00E949E1883E291E00E94EB1888E2EC
:1017500091E00E94EB1880E391E00E94EB1881EF8A
:1017600091E00E94EB188AE091E00E94EB1887EE6E
:1017700091E00E94EB1885E391E00E94EB1883E270
:1017800091E00E94EB1882E092E00E94EB18209A10
:101790008AB1806A8AB98AB1877E8AB95C9A809157
:1017A0006900846080936900E99A16BC85B5816000
:1017B00085BD80916E00816080936E0080915C0396
:1017C000882311F00E9484064C9B17C08CE00E9475
:1017D0000E1880E060E00E94CB170E94D71781E0CE
:1017E0008093430381EF91E060E00E94B50887EEAB
:1017F00091E061E00E94B50808C0109243038BB1EC
:10180000817C8BB987B18E6387B9A8EEEA2EA2E0FE
:10181000FA2E8E010D5F1F4F4B9BFECF809155031B
:10182000882309F4E9C180914303882309F4E4C1C2
:1018300080915403882391F40E94D71785EB92E09E
:1018400060EB72E00E94C10A88E092E060E00E94D2
:10185000B50885EB92E061E00E94B50880915403E1
:10186000813021F5809151038823E9F00E94D71738
:1018700086E192E060E00E94B50880915803909163
:1018800059036FE073E04AE050E00E94E81A8FE0ED
:1018900093E06DE472E00E94871A8FE093E061E0CC
:1018A0000E94B50803C082E08093540380915403E2
:1018B0008230C9F40E94D71787E292E060E00E946C
:1018C000B50880915C03882349F08FE093E067E4DA
:1018D00072E00E949B1A8FE093E002C087E592E0DD
:1018E00061E00E94B50880915403833011F50E9495
:1018F000D71788E392E060E00E94B50880915C030E
:10190000882391F080912F036EEF72E00E94D3093B
:101910008FE093E06EEF72E00E949B1A8FE093E0FD
:1019200061E00E94B50805C0809154038F5F8093E9
:101930005403809154038430D1F480915C03882354
:1019400099F00E94D71783E692E060E00E94B50804
:1019500080912E036FE073E00E94A3098FE093E073
:1019600061E00E94B50803C085E080935403809134
:101970005403853009F04CC080915C03882309F43E
:1019800044C080912F03813009F03FC080915E03F5
:101990008823D9F18C33C8F50E94D71783E792E0EA
:1019A00060E00E94B5088FE093E068E371E00E9478
:1019B0009B1A80915E0381506EEF72E00E94630972
:1019C0008FE093E06EEF72E00E94871A8FE093E061
:1019D0006DE371E00E94871AE0915E03F0E0E9593F
:1019E000FC4F8081813029F48FE093E06FE371E058
:1019F00004C08FE093E060E071E00E94871A8FE0FE
:101A000093E061E00E94B50803C086E08093540330
:101A100080915403863009F0C8C080915C0388230C
:101A200009F4C0C080912D03882309F4BBC00E9433
:101A3000D7178FE093E061E471E00E949B1A8091D8
:101A400029036EEF72E00E9463098FE093E06EEF6E
:101A500072E00E94871A8FE093E065E171E00E94D6
:101A6000871A80912A036EEF72E00E9463098FE06B
:101A700093E06EEF72E00E94871A8FE093E06AE0D5
:101A800071E00E94871A80912C03882329F08FE04F
:101A900093E067E171E004C08FE093E06BE171E0F7
:101AA0000E94871A8FE093E060E00E94B508809161
:101AB0002803843009F1853038F4823089F083308E
:101AC000B0F4813069F507C0863001F18630C8F086
:101AD000873031F520C08FE093E069E379E004C0FE
:101AE0008FE093E06CE379E00E947B1A1FC08FE0E7
:101AF00093E06FE379E0F8CF8FE093E062E479E080
:101B0000F3CF8FE093E065E479E0EECF8FE093E0F0
:101B100068E479E0E9CF8FE093E066E379E0E4CF31
:101B20008FE093E066E071E00E949B1A8FE093E003
:101B300068E471E00E94871A809127036EEF72E0DB
:101B40000E9463098FE093E06EEF72E00E94871AB3
:101B50008FE093E06CE071E00E94871A8091260389
:101B60006EEF72E00E9463098FE093E06EEF72E027
:101B70000E94871A8FE093E06CE071E00E94871A60
:101B8000809125036EEF72E00E9463098FE093E07D
:101B90006EEF72E00E94871A8FE093E061E00E948E
:101BA000B50803C087E080935403809154038730C5
:101BB000D9F40E94D71783E892E060E00E94B5084C
:101BC00080915D03882329F08FE093E06DE377E057
:101BD00004C08FE093E068E477E00E947B1A8FE016
:101BE00093E061E00E94B50880915403883008F4C6
:101BF00068C01092540365C080915503882309F48E
:101C000062C080915C03882309F450C080912F0347
:101C1000882369F0813011F4419A0AC0823039F486
:101C2000419B02C0419801C0419A88B101C04198CE
:101C300090912E03892F8150823030F0943021F022
:101C4000953011F0913019F4429A43980BC09923C2
:101C500039F480912D03882319F04298439A02C0E9
:101C6000439842988091300390913103A0913203C0
:101C7000B0913303813821E5920721E0A20720E0EB
:101C8000B20710F0449816C081519E40A040B04069
:101C900080579344A140B04038F4449B02C044981C
:101CA00001C0449A88B106C0449A04C0419844983F
:101CB0004398429880915103813011F4459A01C0B4
:101CC0004598109255030E94B8189C019A83898305
:101CD00080709F70892B09F09FCD822F0E94D518AC
:101CE00089819A818D3029F48AE00E94D5180C945C
:101CF0003E178330910541F488EE92E06CE471E088
:101D00000E949B1A0C943E17F70101900020E9F7FE
:101D10003197E85EF2403F9708F07ECD982F8052D1
:101D20008F3518F09D3009F077CD88EE92E0BE0136
:101D30006F5F7F4F41E050E00E94A21A6DCD8BEEA5
:101D400093E04AE050E00E94B21A88EF92E06DE41E
:101D500071E00E94921A009749F012C01092EB03B2
:101D600080915303882309F007C782C48BEE93E068
:101D700060EB72E00E94110B892B09F476C42BC032
:101D800088EF92E062E571E00E94921A009779F480
:101D90008BEE93E06EE473E00E94110B892B09F443
:101DA00064C481E0809351038093520314C088EF90
:101DB00092E067E571E00E94921A009779F48BEE49
:101DC00093E06EE473E00E94110B892B09F44DC47B
:101DD00081E0809351038EEE97E057C488EF92E044
:101DE0006CE571E00E94921A0097A9F58BEE93E0E2
:101DF0006FE371E00E94921A009759F481E080939A
:101E00005C0389E090E061E00E94451B0E9484062B
:101E1000E2CF8BEE93E060E071E00E94921A0097AF
:101E200009F023C410925C0389E090E060E00E9416
:101E3000451B809169008E7F80936900E8988091AE
:101E40008100887F8093810080916F008E7F8093D6
:101E50006F005A9AC0CF88EF92E061E671E00E946D
:101E6000921A0097E1F48BEE93E06FE371E00E9429
:101E7000921A009731F481E080935D038AE090E04C
:101E80004BC08BEE93E060E071E00E94921A0097E5
:101E900009F0EBC310925D038AE090E04DC088EF3B
:101EA00092E066E671E00E94921A009709F58BEEC7
:101EB00093E0B8014AE050E00E9439199B01AC015F
:101EC000EB81FC818081882309F0CFC3DA01C9014D
:101ED0000297A109B1090797A105B10508F0C5C38B
:101EE00020935703209324038CE090E0622F25C0B9
:101EF00088EF92E06BE671E00E94921A009701F57C
:101F00008BEE93E06FE371E00E94921A009731F438
:101F10001092B4028BE090E061E00FC08BEE93E092
:101F200060E071E00E94921A009709F09EC381E080
:101F30008093B4028BE090E060E00E94451B4BCFA1
:101F400088EF92E060E771E00E94921A009709F032
:101F50007FC78BEE93E066E771E00E94921A0097CC
:101F6000A9F48FE093E061EF71E00E949B1A8FE08B
:101F700093E00E94EB188FE093E062E273E00E942E
:101F80009B1A8FE093E067EE71E060C38BEE93E005
:101F900069E771E00E94921A009789F58091B0027A
:101FA00090E06EEF72E04AE050E00E94E81A8FE0A5
:101FB00093E06EEF72E00E949B1A8FE093E062E282
:101FC00073E042E050E00E94A21A8091B10290E0DA
:101FD0006EEF72E04AE050E00E94E81A8FE093E072
:101FE0006EEF72E00E94871A8FE093E062E273E086
:101FF00042E050E00E94A21A8091B2021CC38BEE14
:1020000093E06DE771E00E94921A009789F5809144
:102010004E0390E06EEF72E04AE050E00E94E81A52
:102020008FE093E06EEF72E00E949B1A8FE093E0E6
:1020300062E273E042E050E00E94A21A80914F03F6
:1020400090E06EEF72E04AE050E00E94E81A8FE004
:1020500093E06EEF72E00E94871A8FE093E062E2F5
:1020600073E042E050E00E94A21A80915003E3C264
:102070008BEE93E061E871E00E94921A009709F0FC
:102080001EC18091250390E06EEF72E04AE050E0BF
:102090000E94E81A8FE093E06EEF72E00E949B1AB4
:1020A0008FE093E062E273E042E050E00E94A21A07
:1020B0008091260390E06EEF72E04AE050E00E94CB
:1020C000E81A8FE093E06EEF72E00E94871A8FE0CB
:1020D00093E062E273E042E050E00E94A21A8FE0D7
:1020E00093E00E94EB188091270390E06EEF72E07E
:1020F0004AE050E00E94E81A8FE093E06EEF72E051
:102100000E949B1A8FE093E062E273E042E050E0AD
:102110000E94A21A8091280390E06EEF72E04AE0DC
:1021200050E00E94E81A8FE093E06EEF72E00E94A8
:10213000871A8FE093E062E273E042E050E00E9491
:10214000A21A8091290390E06EEF72E04AE050E01D
:102150000E94E81A8FE093E06EEF72E00E94871A07
:102160008FE093E062E273E042E050E00E94A21A46
:102170008FE093E00E94EB1880912A0390E06EEFCD
:1021800072E04AE050E00E94E81A8FE093E06EEFC0
:1021900072E00E949B1A8FE093E062E273E042E0FB
:1021A00050E00E94A21A80912B0390E06EEF72E043
:1021B0004AE050E00E94E81A8FE093E06EEF72E090
:1021C0000E94871A8FE093E062E273E042E050E001
:1021D0000E94A21A80912C0390E06EEF72E04AE018
:1021E00050E00E94E81A8FE093E06EEF72E00E94E8
:1021F000871A8FE093E062E273E042E050E00E94D1
:10220000A21A8FE093E00E94EB1880912D0390E0DA
:102210006EEF72E04AE050E00E94E81A8FE093E02F
:102220006EEF72E00E949B1A8FE093E062E273E02F
:1022300042E050E00E94A21A80912E0390E06EEFDF
:1022400072E04AE050E00E94E81A8FE093E06EEFFF
:1022500072E00E94871A8FE093E062E273E042E04E
:1022600050E00E94A21A80912F0390E06EEF72E07E
:102270004AE050E00E94E81A8FE093E06EEF72E0CF
:102280000E94871A8FE093E062E273E042E050E040
:102290000E94A21A60913003709131038091320341
:1022A000909133034EEF52E02AE030E00E94091B88
:1022B0008FE093E06EEF72E00E949B1AC9C18BEE33
:1022C00093E065E871E00E94921A009709F04BC014
:1022D00080915E0390E06EEF72E04AE050E00E9471
:1022E000E81A8FE093E06EEF72E00E949B1A8FE095
:1022F00093E062E273E042E050E00E94A21A8FE0B5
:1023000093E00E94EB181092570326C0F0E0E859C2
:10231000FC4F808190E06EEF72E04AE050E00E9456
:10232000E81A8FE093E06EEF72E00E949B1A8091B2
:1023300057038B3341F08FE093E062E273E042E0B9
:1023400050E00E94A21A8FE093E00E94EB18809167
:1023500057038F5F80935703E0915703EC33B0F23C
:1023600080E293E07FC18BEE93E069E871E00E9428
:10237000921A009709F09FC086E090E00E943D1BF2
:1023800090E06EEF72E04AE050E00E94E81A8FE0C1
:1023900093E06EEF72E00E949B1A8FE093E062E29E
:1023A00073E042E050E00E94A21A85E090E00E94B3
:1023B0003D1B90E06EEF72E04AE050E00E94E81AA8
:1023C0008FE093E06EEF72E00E94871A8FE093E057
:1023D00062E273E042E050E00E94A21A84E090E0E2
:1023E0000E943D1B90E06EEF72E04AE050E00E94D8
:1023F000E81A8FE093E06EEF72E00E94871A8FE098
:1024000093E062E273E042E050E00E94A21A8FE0A3
:1024100093E00E94EB1887E090E00E943D1B90E063
:102420006EEF72E04AE050E00E94E81A8FE093E01D
:102430006EEF72E00E949B1A8FE093E062E273E01D
:1024400042E050E00E94A21A82E090E00E943D1B10
:1024500090E06EEF72E04AE050E00E94E81A8FE0F0
:1024600093E06EEF72E00E94871A8FE093E062E2E1
:1024700073E042E050E00E94A21A83E090E00E94E4
:102480003D1B90E06EEF72E04AE050E00E94E81AD7
:102490008FE093E06EEF72E00E94871A8FE093E086
:1024A00062E273E042E050E00E94A21A88E090E00D
:1024B0000E943D1BC0C08BEE93E06DE871E00E946E
:1024C000921A009709F092C08091B40290E06EEFEA
:1024D00072E04AE050E00E94E81A8FE093E06EEF6D
:1024E00072E00E949B1A8FE093E062E273E042E0A8
:1024F00050E00E94A21A8091520390E06EEF72E0C9
:102500004AE050E00E94E81A8FE093E06EEF72E03C
:102510000E94871A8FE093E062E273E042E050E0AD
:102520000E94A21A8091510390E06EEF72E04AE09F
:1025300050E00E94E81A8FE093E06EEF72E00E9494
:10254000871A8FE093E062E273E042E050E00E947D
:10255000A21A8FE093E00E94EB18809158039091AB
:1025600059036EEF72E04AE050E00E94E81A8FE0F3
:1025700093E06EEF72E00E949B1A8FE093E062E2BC
:1025800073E042E050E00E94A21A80915C0390E068
:102590006EEF72E04AE050E00E94E81A8FE093E0AC
:1025A0006EEF72E00E94871A8FE093E062E273E0C0
:1025B00042E050E00E94A21A80915D0390E06EEF2D
:1025C00072E04AE050E00E94E81A8FE093E06EEF7C
:1025D00072E00E94871A8FE093E062E273E042E0CB
:1025E00050E00E94A21A8091240325C08BEE93E054
:1025F00061E971E00E94921A0097B9F580E090E0DD
:102600000E943D1B90E06EEF72E04AE050E00E94B5
:10261000E81A8FE093E06EEF72E00E949B1A8FE061
:1026200093E062E273E042E050E00E94A21A81E08F
:1026300090E00E943D1B90E06EEF72E04AE050E0B7
:102640000E94E81A8FE093E06EEF72E00E94871A12
:102650008FE093E060E273E042E050E00E94A21A53
:102660008FE093E00E94EB18B6CB83EF97E00DC0AC
:1026700088EE92E065E971E00E94921A009741F4B9
:1026800081E08093530389E595E00E94F818E0C348
:1026900088EE92E069E971E00E94921A0097D9F4FD
:1026A00088E291E00E94EB1881EF91E00E94EB1824
:1026B00085E391E00E94EB188EE293E00E94F81807
:1026C00087EE91E00E94EB1885E391E00E94EB1801
:1026D00088E690E0DACF88EE92E06DE971E00E9442
:1026E000921A009751F480915C038823C1F482E030
:1026F000809353038BE795E0C8CF88EE92E061EAC0
:1027000071E00E94921A009769F480915C0388231B
:1027100031F483E08093530381EA95E0B6CF81ECF6
:1027200095E0B3CF88EE92E065EA71E00E94921ADC
:10273000009789F484E08093530382E596E00E9439
:10274000F81880915C03882319F08BE696E09DCF02
:1027500084E896E09ACF88EE92E069EA71E00E9400
:10276000921A009789F485E08093530384EE95E0F4
:102770000E94F8188091B402882319F082EF95E046
:1027800084CF8DE096E081CF88EE92E06DEA71E033
:102790000E94921A009789F486E08093530388ED93
:1027A00096E00E94F81880915D03882319F087EE67
:1027B00096E06BCF82E197E068CF88EE92E061EB24
:1027C00071E00E94921A009741F088EE92E066EB69
:1027D00071E00E94921A009719F48BEB90E055CFAC
:1027E00088EE92E068EB71E00E94921A009731F453
:1027F00087E08093530388E798E047CF88EE92E024
:102800006CEB71E00E94921A009709F0A8C188E26F
:1028100091E00E94EB1881EF91E00E94EB1885E3B4
:1028200091E00E94EB188EE293E00E94F81887EE88
:1028300091E00E94EB1885E391E00E94EB1885EB94
:1028400092E060EB72E00E94C10A8CE493E00E9487
:10285000F81885EB92E00E94EB1885E793E00E9460
:10286000F81880915103882329F185EB92E06EE4FA
:1028700073E00E94C10A84E398E00E94F81885EB97
:1028800092E00E94EB1880915803909159036EEFEB
:1028900072E04AE050E00E94E81A8AE091E00E946B
:1028A000EB188EEF92E00E94EB1886E198E00E9410
:1028B000F81804C081EC91E00E94EB188FED94E0D1
:1028C0000E94F81880915D03882319F08DE397E04A
:1028D00002C088E497E00E94F81886E094E00E9425
:1028E000F81880915C03882309F484C083E294E0A3
:1028F0000E94F81880912703882359F086EC92E013
:1029000065E273E00E94ED0986EC92E00E94EB180C
:1029100004C080E396E00E94F8188EE594E00E94DF
:10292000F81880912E036EEF72E00E94A3098EEFDB
:1029300092E00E94EB188BE894E00E94F8188091D6
:102940002F036EEF72E00E94D3098EEF92E00E9497
:10295000EB1880912F03813029F580915E03882345
:1029600009F18BEF97E00E94F81880915E0390E0E8
:1029700001976EEF72E04AE050E00E94E81A8EEF95
:1029800092E00E94EB18E0915E03F0E0E959FC4F01
:102990008081813019F488EC91E002C08BEC91E0E9
:1029A0000E94EB188091300390913103A091320383
:1029B000B09133038F5F9F4FAF4FBF4FF9F08FEA56
:1029C00094E00E94F8186091300370913103809177
:1029D0003203909133034EEF52E02AE030E00E9440
:1029E000091B8EEF92E00E94EB1880EF98E00E94A6
:1029F000F81804C087E592E00E94EB1885E391E0A7
:102A00000E94EB1883E090E00E943D1B8F3F09F489
:102A100059C083E993E00E94F81884E090E00E9496
:102A20003D1B8F3F99F183E090E00E943D1B809316
:102A3000390382E090E00E943D1B8093380384E0DC
:102A400090E00E943D1B8093360385E090E00E9459
:102A50003D1B8093350386E090E00E943D1B8093F0
:102A6000340388E090E00E943D1B80933B0387E0A5
:102A700090E00E943D1B8093370386EC92E064E374
:102A800073E00E94ED0986EC92E016C083E090E0CE
:102A90000E943D1B8093450382E090E00E943D1B15
:102AA00080934403109246038EEF92E064E473E057
:102AB0000E94C10A8EEF92E00E94EB1885E391E03C
:102AC0000E94EB1881E090E00E943D1B8F3F01F1D6
:102AD00080EC93E00E94F81881E090E00E943D1B9A
:102AE00080934A0380E090E00E943D1B809349035D
:102AF00010924B038EEF92E069E473E00E94C10AEA
:102B00008EEF92E00E94EB1885E391E00E94EB18B3
:102B10008BE095E00E94F81880914303882319F018
:102B20008EE698E002C084E798E00E94F81885E3FA
:102B300091E00E94EB1880E395E00E94F8188091E4
:102B4000240390E06EEF72E04AE050E00E94E81A41
:102B50008EEF92E00E94EB188EEC91E00AC085EDBA
:102B600091E00E94EB1881E997E00E94F81883E257
:102B700091E00E94EB186CC1813079F488EE92E00C
:102B800060EB72E00E94110B892BE9F18DED91E071
:102B90000E94EB1889EE97E053C18230C1F488EEB1
:102BA00092E06EE473E00E94110B892B61F18DEDD0
:102BB00091E00E94EB1889EE97E00E94F81883E2FA
:102BC00091E00E94EB1881E0809351033FC1833074
:102BD00009F588EE92E06EE473E00E94110B892BF8
:102BE00091F08DED91E00E94EB1889EE97E00E9444
:102BF000F81883E291E00E94EB1881E08093510382
:102C00008093520323C185ED91E00E94EB188DEA79
:102C100097E016C1843009F057C088EE92E06CEA64
:102C200072E00E94921A009709F040C080915C0304
:102C30008823B9F48DED91E00E94EB188EE996E0BF
:102C40000E94F81883E291E00E94EB1881E08093E3
:102C50005C0389E090E061E00E94451B0E948406CD
:102C6000F5C08DED91E00E94EB188BEB96E00E9491
:102C7000F81883E291E00E94EB1810925C0389E05F
:102C800090E060E00E94451B809169008E7F8093F8
:102C90006900E89880918100887F8093810080910D
:102CA0006F008E7F80936F005A9AD0C088EE92E0BA
:102CB0006EEA72E00E94921A009709F4C7C083E599
:102CC00098E00E94F818C2C08530D1F588EE92E0F5
:102CD0006CEA72E00E94921A009759F58091B40252
:102CE000882391F488E291E00E94EB1886EC97E04B
:102CF0000E94F81883E291E00E94EB1881E0809333
:102D0000B4028BE090E04DC088E291E00E94EB18A5
:102D100087ED97E00E94F81885E391E00E94EB1898
:102D200083E291E00E94EB181092B4028BE090E0F5
:102D300026C088EE92E06EEA72E00E94921A3BC0D2
:102D40008630E9F588EE92E06CEA72E00E94921A11
:102D5000009759F580915D03882399F48DED91E0FA
:102D60000E94EB1883E597E00E94F81883E291E057
:102D70000E94EB1881E080935D038AE090E061E0BF
:102D800011C08DED91E00E94EB1882E797E00E9460
:102D9000F81883E291E00E94EB1810925D038AE03C
:102DA00090E060E00E94451B51C088EE92E06EEA20
:102DB00072E00E94921A009709F448C03BC0873025
:102DC00009F044C088EE92E0B8014AE050E00E9469
:102DD00039199B01AC01EB81FC818081882351F57D
:102DE000DA01C9010297A109B1090797A105B10547
:102DF00008F520935703209324038CE090E0622F82
:102E00000E94451B8DED91E00E94EB1881EC98E04B
:102E10000E94F8188091240390E06EEF72E04AE07F
:102E200050E00E94E81A8EEF92E00E94EB1880EECC
:102E300098E006C085ED91E00E94EB1883E598E0EC
:102E40000E94F81883E291E00E94EB18109253035D
:102E500088EE92E06CE471E00E949B1A1092F802F6
:102E60001092EB0380915303882311F00C940C0C07
:102E700082E092E00E94EB180C940C0C88EE92E039
:102E800065EE71E00E94821ABC0188EF92E046E094
:102E900050E00E94B21A80E090E065EE71E00E947E
:102EA000821ABC01009711F00C949F0E0C94AE0E88
:102EB000662311F0459A01C0459844983A9A399A88
:102EC000389A229A2A9840984198429887FD2A9ADF
:102ED00086FD409A85FD419A84FD429A439A00C03E
:102EE00043982A9840984198429883FD2A9A82FDF7
:102EF000409A81FD419A80FD429A439A00C04398CE
:102F0000429A419A409A2A9A0895882311F0459A44
:102F100001C04598449A3A98399838982298439A2B
:102F200000C0329B02C080E101C080E03199806224
:102F3000309980641A998068439800C0439A00C011
:102F40003299816031998260309984601A998860E1
:102F50004398089580E00E94851787FDFBCF84E0A9
:102F600090E00197F1F780E00E94851708951F9384
:102F7000182F0E94AA17812F60E00E9458171F91F6
:102F800008951F93182F0E94AA17812F61E00E94B5
:102F900058171F910895662311F4805801C080547A
:102FA0000E94B71708950E94AA1790E0089581E043
:102FB0000E94B717089582E00E94B71708951F93E3
:102FC000182F0E94AA171A3049F4803410F080E0BC
:102FD00001C080E480580E94B71704C0812F61E0CF
:102FE0000E9458171F910895CF93DF93EC0102C000
:102FF0000E94DF1789918823D9F7DF91CF91089537
:10300000CF93DF93EC0102C00E94DF17FE012196EF
:1030100084918823C9F7DF91CF9108951F93182FCA
:103020003A9A399A389A229A3D9A3C9A3B9A80E089
:103030009DE70197F1F7419A429A439A00C043985D
:1030400080E097E20197F1F7439A00C0439880E847
:1030500090E0FC013197F1F7439A00C04398FC01DE
:103060003197F1F74298439A00C043980197F1F7DE
:1030700088E20E94B71788E00E94B7170E94D7170E
:1030800086E00E94B717812F0E94B7171F910895FD
:103090001F920F920FB60F9211242F938F939F932D
:1030A000EF93FF939091C0002091C600E091E6035A
:1030B000EF5FEF718091E703E81711F482E008C039
:1030C000892F8871E093E603F0E0EC53FC4F2083F6
:1030D0008093E803FF91EF919F918F912F910F9033
:1030E0000FBE0F901F9018951F920F920FB60F9260
:1030F00011248F939F93EF93FF939091E40380911A
:10310000E503981769F0E091E503EF5FEF71E09355
:10311000E503F0E0EC55FC4F80818093C60005C0CC
:103120008091C1008F7D8093C100FF91EF919F91AD
:103130008F910F900FBE0F901F9018959C011092C9
:10314000E4031092E5031092E6031092E70397FF61
:1031500004C082E08093C0003F773093C500209385
:10316000C40088E98093C10086E08093C20008957E
:103170009091E6038091E703981719F420E031E07D
:1031800012C0E091E703EF5FEF71E093E703F0E037
:10319000EC53FC4F30812091E803922F80E0AC018A
:1031A000430F511D9A01C9010895282F9091E403FE
:1031B0009F5F9F718091E5039817E1F3E92FF0E09D
:1031C000EC55FC4F20839093E4038091C100806212
:1031D0008093C1000895CF93DF93EC0103C0219643
:1031E0000E94D51888818823D1F7DF91CF91089567
:1031F000CF93DF93EC0102C00E94D518FE01219607
:1032000084918823C9F7DF91CF910895991B79E0C4
:1032100004C0991F961708F0961B881F7A95C9F766
:103220008095089597FB092E07260AD077FD04D0D4
:103230000CD006D000201AF4709561957F4F089548
:10324000F6F7909581959F4F0895AA1BBB1B51E1FE
:1032500007C0AA1FBB1FA617B70710F0A61BB70B06
:10326000881F991F5A95A9F780959095BC01CD01AB
:1032700008952F923F925F926F927F928F929F92CA
:10328000AF92BF92CF92DF92EF92FF920F931F9374
:10329000CF93DF938C011B01EA016115710519F0D1
:1032A000FB0191838083209749F0CE010297839799
:1032B00028F020E030E040E050E0F6C0F801A190B6
:1032C0008F018A2D90E00E94681A892BB9F7FDE2E0
:1032D000AF1631F4F801A1908F015524539407C023
:1032E000FBE2AF1619F4F801A1908F015524209745
:1032F00019F0C031D105C1F4F0E3AF1679F4F8014B
:103300008081883711F0883549F4F801A1800E5F7B
:103310001F4FF2E05F2AC0E1D0E006C0209721F401
:1033200080E3A816E9F427C0C830D10531F1C930CF
:10333000D10524F4C230D10531F50CC0CA30D10515
:1033400089F0C031D105F9F4C12CD12CE12CB8E0C1
:10335000FB2E28C0C12CD12CE12CA0E4FA2E22C0D7
:10336000CAE0D0E0FCECCF2EFCECDF2EFCECEF2E24
:10337000FCE0FF2E17C0C8E0D0E0C12CD12CE12C1E
:10338000E0E1FE2E0FC09E01442737FD4095542FEB
:1033900060E070E080E090E80E94851BC901DA01DE
:1033A0006C017D0120E030E040E050E060E03E0153
:1033B000882477FC8094982C70EDB72EBA0CE9E045
:1033C000EB1570F48A2D81548A3118F499ECB92EDA
:1033D00006C08A2D81568A3150F589EAB82EBA0C7A
:1033E0008B2D90E08C179D0714F56F3FE1F0C2160E
:1033F000D306E406F506B0F0CA01B901A4019301B1
:103400000E94661B9B01AC012B0D311D411D511DFE
:103410002130F0E03F07F0E04F07F0E85F0710F4DD
:1034200061E001C06FEFF801A1908F01C5CF2114B9
:10343000310481F0662331F001501040F101118315
:10344000008308C051FE1AC002501040F1011183E0
:10345000008314C067FF12C050FC05C02FEF3FEF80
:103460004FEF5FE704C020E030E040E050E882E248
:1034700090E09093F6038093F50316C050FE08C0C9
:1034800050954095309521953F4F4F4F5F4F0CC061
:1034900057FF0AC082E290E09093F6038093F50311
:1034A0002FEF3FEF4FEF5FE7B901CA01DF91CF91F7
:1034B0001F910F91FF90EF90DF90CF90BF90AF9052
:1034C0009F908F907F906F905F903F902F90089586
:1034D0009111E9C0803219F089508550D0F70895D4
:1034E000FB01DC010D900020E9F7119705900D928A
:1034F0000020E1F70895FB01DC0105900D9200200A
:10350000E1F7089549EE53E00E94C11A0895FB01C6
:10351000DC010D900020E9F7119701900D92002039
:10352000E1F70895FB01DC018D91019080190110F4
:10353000D9F3990B0895FB01DC0101900D92002055
:10354000E1F70895FB01DC010D900020E9F71197E8
:103550004150504028F0019000200D92C9F7089585
:103560001C920895FB01DC014150504048F001904D
:103570000D920020C9F701C01D9241505040E0F764
:103580000895FA01A191B081009719F41097E1F024
:10359000CD01DC01CD010D90002011F4C00113C05C
:1035A000FB012191222319F02015D9F7F3CFFB015C
:1035B0002191201519F41E92119606C02223C1F7FD
:1035C0000D900020A1F7D001FA01A193B0830895D6
:1035D000FB019F01E8944230C4F04532B4F44A3014
:1035E00029F497FB1EF4909581959F4F642F7727C0
:1035F0000E942519805D8A330CF0895D8193CB018F
:103600000097A1F716F45DE251931082C9010C9462
:10361000561BFA01CF93FF93EF93223044F12532EA
:1036200034F5C22FE894CA3049F497FB3EF49095E4
:103630008095709561957F4F8F4F9F4F2C2F33272B
:1036400044275527FF93EF930E94851BEF91FF912D
:10365000605D6A330CF0695D6193B901CA01605025
:1036600070408040904051F716F4CDE2C193108233
:103670008F919F91CF910C94561BF999FECF92BDDB
:1036800081BDF89A992780B50895262FF999FECF24
:103690001FBA92BD81BD20BD0FB6F894FA9AF99A6F
:1036A0000FBE01960895992788270895DC01FC0133
:1036B000672F71917723E1F7329704C07C916D9366
:1036C00070836291AE17BF07C8F30895629FD0015F
:1036D000739FF001829FE00DF11D649FE00DF11DCD
:1036E000929FF00D839FF00D749FF00D659FF00D7C
:1036F0009927729FB00DE11DF91F639FB00DE11D69
:10370000F91FBD01CF0111240895A1E21A2EAA1BB1
:10371000BB1BFD010DC0AA1FBB1FEE1FFF1FA21781
:10372000B307E407F50720F0A21BB30BE40BF50B7E
:10373000661F771F881F991F1A9469F76095709507
:10374000809590959B01AC01BD01CF010895F8943F
:02375000FFCFA9
:103752003000000000002D2D2D0020002E00323000
:1037620030003230003A004D455A004D45535A0060
:103772000000001B5B306D001B5B33373B316D007B
:103782001B5B324A000D0A004249543A003D0031A7
:103792000044434637373A00202D2000005F736D06
:1037A20074005F617374005F6E7374005F646366BC
:1037B200005F73736D005F737077005F70737400E6
:1037C2005F737461740067760067737400676E7468
:1037D200006764370067646100676C700067677335
:1037E20000676C7300736D740041545A006E7374F9
:1037F2000061737400646366007073740073736DA8
:103802000068656C70003F007370770073746174B8
:10381200006E6F726D616C003D31003D30003030E2
:103822006D730D0A001B5B33313B316D001B5B3343
:10383200323B316D003B0056312E30320000000029
:10384200005241204D7574746572756872000000F3
:1038520000006D753A3E20004E6562656E756872B5
:103862007A6569743A0053796E6368726F6E697330
:10387200696572652E2E0044434637372053796EB0
:10388200636D6F6475733A0044434637372053744F
:10389200617475733A2000416B74697600204D693A
:1038A2006E7574656E2E006465616B746976696508
:1038B2007274004443462041757377657274756E65
:1038C200673A00444346373720456D7066616E673C
:1038D200653A0053796E63204D6F6475733A0053F5
:1038E20074726F6D766572736F7267756E67006161
:1038F2007573676566616C6C656E21006A006E00A7
:1039020000000000012D2D3A2D2D3A2D2D00000032
:103912000000000000002D2D2D2D2D2D2D2D2D2DE3
:10392200202D2D2E2D2D2E2D2D2D2D202D2D3A2DD0
:103932002D202D2D2D2D0000000000000000000084
:103942000000000000000000000000000000000075
:103952000000000000000000000000000000000065
:103962000000000000000000000000000000000055
:103972003B002C00040000000000000001000600D3
:10398200FFFFFFFF0000000000000001000600FF33
:04399200FFFFFF0133
:00000001FF
