:100000000C94D2040C9434060C944D080C94EF0418
:100010000C94EF040C94EF040C94EF040C94EF0494
:100020000C94EF040C94EF040C94EF040C94EF0484
:100030000C94EF040C94EF040C94EF040C94EF0474
:100040000C94F1040C94EF040C9458180C9484183C
:100050000C94EF040C94EF040C94EF040C94EF0454
:100060000C94EF040C94EF040D0A48696C6665204B
:100070006D6974201B5B33373B316D3F1B5B303B3D
:1000800033376D206F646572201B5B33373B316DF6
:1000900068656C701B5B303B33376D20756E642078
:1000A0006D69742072657475726E20616E73636819
:1000B0006C69657373656E2E0D0A00201B5B333708
:1000C0003B316D5665726675656762617265204B7E
:1000D0006F6D6D616E646F733A0D0A201B5B333771
:1000E0003B316D646366201B5B303B33376D2D3EC7
:1000F0002053796E6368726F6E69736174696F6E95
:10010000206D6974204443463737206A617C6E65F0
:10011000696E2E0D0A201B5B33373B316D736D7496
:10012000201B5B303B33376D2D3E204D757474655D
:100130007275687220617566205A65697420766FE1
:100140006E204E6562656E756872656E20737465AB
:100150006C6C656E2E0D0A201B5B33373B316D6E68
:100160007374201B5B303B33376D2D3E204E656230
:10017000656E756872656E20617566206578616B65
:1001800074206469657365205A65697420737465A9
:100190006C6C656E284E6963687420696D204443F9
:1001A000463737204D6F647573292E0D0A201B5B6F
:1001B00033373B316D617374201B5B303B33376DDC
:1001C0002D3E204E6562656E756872656E206175A4
:1001D00066206469657365205A6569742073746567
:1001E0006C6C656E2E205A656974206469652064A4
:1001F00061667565722062656EF674696774207752
:100200006972642C20776972642068696E7A7561FE
:1002100064646965727420284E6963687420696D2E
:10022000204443463737204D6F647573292E0D0ADD
:10023000201B5B33373B316D707374201B5B303B8D
:1002400033376D2D3E204D75747465722D20756E9B
:1002500064204E6562656E756872656E20616E68B9
:10026000616C74656E2E2853796E6368726F6E6967
:10027000736174696F6E2066756E6B74696F6E69F9
:1002800065727420776569746572292E0D0A201BCA
:100290005B33373B316D73736D201B5B303B333702
:1002A0006D2D3E2053796E636D6F6475732031320E
:1002B000682F323468207365747A656E2E0D0A20BB
:1002C0001B5B33373B316D737077201B5B303B33E7
:1002D000376D2D3E2041757367616E6773696D7070
:1002E000756C7377656974652061656E6465726E9F
:1002F000283230302D3830306D73292E0D0A201BF6
:100300005B33373B316D73746174201B5B303B335F
:10031000376D2D3E20476573616D7473746174751C
:100320007320616E7A656967656E2E0D0A001B5B2E
:1003300033373B316D4669726D776172651B5B3295
:1003400031433A201B5B303B33376D001B5B333747
:100350003B316D5A65697420617566204E65626532
:100360006E756872656E1B5B3130433A201B5B30E3
:100370003B33376D000D0A1B5B33373B316D5374D4
:10038000617475731B5B3233433A201B5B303B3324
:10039000376D001B5B33373B316D4C65747A746588
:1003A00072205370616E6E756E67736175736661EE
:1003B0006C6C1B5B35433A201B5B303B33376D0065
:1003C0001B5B33373B316D5A65697420617566205C
:1003D0004E6562656E756872656E206265690D0AAC
:1003E0006C65747A74656D205370616E6E756E679E
:1003F0007361757366616C6C1B5B35433A201B5BE4
:10040000303B33376D000D0A1B5B33373B316D4496
:10041000434637371B5B3234433A201B5B303B3358
:10042000376D00616B746976696572740D0A1B5BC8
:1004300033373B316D4C65747A74657320444346A1
:10044000373720456D7066616E6773646174756DD2
:100450001B5B32433A201B5B303B33376D000D0A88
:100460001B5B33373B316D4443463737204C657453
:100470007A7465732045726765626E69731B5B37BA
:10048000433A201B5B303B33376D000D0A1B5B3357
:10049000373B316D4443463737205374617475736D
:1004A0001B5B3137433A201B5B303B33376D000D0C
:1004B0000A1B5B33373B316D53796E6368726F6E25
:1004C00069736174696F6E736D6F6475731B5B38EC
:1004D000433A201B5B303B33376D001B5B33373BAC
:1004E000316D4C434420446973706C6179206973A9
:1004F000741B5B3134433A201B5B303B33376D0058
:100500001B5B33373B316D41757367616E67736990
:100510006D70756C7377656974651B5B3130433A38
:10052000201B5B303B33376D005A65697420617561
:10053000662064656E204E6562656E756872656ED4
:10054000202878783A7878293A20005374656C6CC2
:1005500065204E6562656E756872656E20657861AE
:100560006B7420617566202878783A7878293A206B
:10057000005374656C6C65204E6562656E756872BB
:10058000656E20617566202878783A7878293A2057
:10059000004269747465204443463737207A756594
:1005A000727374206465616B746976696572656ED7
:1005B000210D0A004E6562656E75687228656E29A8
:1005C00020006C617566656E2E20416E68616C74EA
:1005D000656E203F20286A7C6E293A200073696E80
:1005E0006420616E676568616C74656E2E2053745B
:1005F000617274656E203F20286A7C6E293A200063
:100600004E6F6368206B65696E65204443463737DB
:1006100020446174656E20656D7066616E67656EFD
:100620002E0044434620537963686E726F6E69737F
:100630007461696F6E206973742000616E2E2041B1
:100640007573736368616C74656E3F20286A7C6E95
:10065000293A20006175732E2045696E73636861C5
:100660006C74656E3F20286A7C6E293A20004443F2
:100670004637372053796E6368726F6E69736174A1
:10068000696F6E2065696E2E0D0A00444346373748
:100690002053796E6368726F6E69736174696F6EEF
:1006A000206175732E0D0A0053796E636D6F64754A
:1006B000732069737420003234205374756E64653E
:1006C0006E2E20417566203132205374756E64653C
:1006D0006E207365747A656E3F20286A7C6E293AB5
:1006E00020003132205374756E64656E2E20417582
:1006F00066203234205374756E64656E20736574A1
:100700007A656E3F20286A7C6E293A2000323420B8
:100710005374756E64656E003132205374756E6467
:10072000656E00323468205374756E64656E204DBA
:100730006F64757320616B746976696572742E0DD0
:100740000A00313268205374756E64656E204D6FF7
:1007500064757320616B746976696572742E0D0A15
:10076000004B6F6D6D616E646F206578697374699D
:10077000657274206E696368742E0D0A00556E6789
:1007800075656C7469676573205A656974666F7204
:100790006D61740D0A00556872206765737461722B
:1007A0007465742E0D0A0055687220616E67656865
:1007B000616C74656E2E0D0A006F6B0D0A004F4B55
:1007C0000D0A004552524F520D0A002C20676572E7
:1007D00061646520656D7066616E67656E65732026
:1007E0004269743A2000204D696E757465286E293F
:1007F000207A752073796E6368726F6E69736965AC
:1008000072656E0073796E6368726F6E6973696585
:100810007265204E6562656E756872656E206175E1
:1008200066200046616C736368652045696E676188
:1008300062652E0D0A002D3E706175736500416B77
:10084000746976004175730041757367616E6773F3
:10085000696D70756C7377656974652061656E6428
:1008600065726E2028696E203130306D732C206DDA
:100870006F65676C696368652057657274653A20B7
:10088000327C337C347C357C367C377C38293A208A
:100890000041757367616E6773696D70756C73770E
:1008A00065697465207775726465206175662000DE
:1008B00030306D732067657365747A742E0D0A008D
:1008C000536F6E6E746167004D6F6E7461670044A4
:1008D00069656E73746167004D697474776F6368DE
:1008E00000446F6E6E65727374616700467265696D
:1008F0007461670053616D7374616700536F004DDD
:100900006F004469004D6900446F004672005361F6
:10091000006F6B004552522D5061722E205374753A
:100920006E6465004552522D5061722E204D696EE5
:10093000757465004552522D5061722E20446174C9
:10094000756D004552522D4461756572506572692E
:100950006F6465004552522D50756C736461756506
:1009600072004B65696E2053746174757300496E33
:10097000697469616C736965726500456D70666163
:100980006E676520446174656E00576172746520FE
:1009900061756620446174656E00556E62656B61B9
:1009A0006E6E740011241FBECFEFD4E0DEBFCDBF4A
:1009B00013E0A0E0B1E0EEE2F7E302C005900D9293
:1009C000AC33B107D9F713E0ACE3B3E001C01D923B
:1009D000AF3EB107E1F70E94360B0C94951B0C94C7
:1009E00000001F920F920FB60F9211242F933F9386
:1009F0004F935F936F937F938F939F9380915D034A
:100A000090915E032CE08433920734F40196909326
:100A10005E0380935D031BC110925E0310925D0321
:100A200080915303882319F0815080935303809160
:100A30005203882319F081508093520320915F0361
:100A4000822F65E00E94161B992331F45D9B02C042
:100A50005D9801C05D9A8BB1293020F42F5F2093FF
:100A60005F03F5C010925F0380914A038823F1F081
:100A7000809148038B3320F48F5F8093480316C026
:100A800010924803809147038B3320F48F5F80934B
:100A900047030CC01092470380914603873120F42E
:100AA0008F5F8093460302C01092460380915503E6
:100AB000882319F19091B1028091B0022CE3829FBA
:100AC000A0011124490F511D9091470380914603C5
:100AD000829F90011124290F311D2417350714F42A
:100AE00020563A4FC901841B950B25E083369207A7
:100AF0000CF443C0805A954040C09091B10280915F
:100B0000B0022CE3829FA0011124490F511D909146
:100B1000470380914603829F90011124290F311DC4
:100B200082E0413D580714F0405D524082E0213D93
:100B3000380714F0205D32404217530774F44053D5
:100B40005D4FBA01621B730B405D52406E337105FD
:100B500054F0C901841B950B10C0BA01621B730BC2
:100B60006E3371052CF488279927861B970B05C0D7
:100B7000C901841B950B80539D4F90935103809323
:100B800050034B9B4AC0809149038823D9F0809140
:100B9000500390915103009721F018161906F4F0B4
:100BA0003CC0809146038093B002809147038093BC
:100BB000B102809148038093B202109249031092CF
:100BC0004A032BC08091B402882339F18091B2028C
:100BD0008B3320F48F5F8093B2021FC01092B20259
:100BE0009091B1028091240390FF03C0809353033E
:100BF00002C0809352039B3320F49F5F9093B10215
:100C00000CC01092B1028091B002873120F48F5F46
:100C10008093B00202C01092B00280914E038823EC
:100C200021F0815080934E0308C085E080934E03ED
:100C300080914C038F5F80934C0380912D03882318
:100C400019F0815080932D0381E080934D039F9193
:100C50008F917F916F915F914F913F912F910F9065
:100C60000FBE0F901F9018951F920F920FB60F9204
:100C700011242F933F934F935F938F939F93EF9301
:100C8000FF934A9B58C080918100887F80938100A8
:100C900080916F008E7F80936F002091840030914F
:100CA000850030935A0320935903109285001092C7
:100CB00084008091810085608093810080916F0025
:100CC000816080936F0080912F038130A9F480911F
:100CD0005B0390915C03820F931F90935803809362
:100CE0005703855F9C418F51934030F084E080939F
:100CF0002E0382E080932F032D5136432F5A344028
:100D000008F09AC180912D03883378F080912903EF
:100D10008093460380912A038093470310924803EF
:100D200081E08093490380934A031092560381E047
:100D300080932F0381C180918100887F80938100FF
:100D400080916F008E7F80936F002091840030919E
:100D5000850030935C0320935B0310928500109212
:100D600084008091810085608093810080916F0074
:100D7000816080936F0040912F03413009F05CC186
:100D8000C90181529540835F914038F4E091560348
:100D9000F0E0E05AFC4F408312C0285732402B52FB
:100DA000314038F4E0915603F0E0E05AFC4F1082F5
:100DB00006C085E080932E0382E080932F0380910C
:100DC0002F03813009F033C1809156038A3308F430
:100DD0002EC18091720380932C0320917503E6E766
:100DE000F3E0922F8191982743E0EC37F407D1F795
:100DF0008081981781F590917803990F990F990F39
:100E000080917703880F880F892B822B409176037E
:100E1000440F482B20917B0330E0220F331F220F19
:100E2000331F80917A0390E0880F991F282B392B6C
:100E30008091790390E0282B392BC90153E0880F6A
:100E4000991F5A95E1F7220F331F820F931F480F06
:100E500040932A0305C082E080932E0380932F03E2
:100E600020917D03EEE7F3E0922F8191982753E0E4
:100E7000E338F507D1F78081981759F580912F0352
:100E8000813039F590918003990F990F990F8091D6
:100E90007F03880F880F892B822B40917E03440F9C
:100EA000482B8091820390E0880F991F2091810345
:100EB00030E0822B932B9C0153E0220F331F5A9575
:100EC000E1F7880F991F280F391F420F409329031C
:100ED00006C081E080932E0382E080932F0320914F
:100EE0008403E5E8F3E0922F8191982783E0EA39C3
:100EF000F807D1F78081981709F093C080912F03EC
:100F0000813009F08EC090918703990F990F990F46
:100F100080918603880F880F892B822B409185034F
:100F2000440F482B8091890390E0880F991F2091EE
:100F3000880330E0822B932B9C0153E0220F331F58
:100F40005A95E1F7880F991F280F391F420F4093D8
:100F5000270390918C03990F990F80918B03880F31
:100F6000892B90918A03892B809328039091900379
:100F7000990F990F990F80918F03880F880F892BF4
:100F800090918D03892B20918E03220F282B809125
:100F900091033AE0839FC0011124280F2093260378
:100FA0002091990330E0E3E0220F331FEA95E1F747
:100FB0008091980390E0880F991F880F991F282B24
:100FC000392B8091960390E0282B392B8091970341
:100FD00090E0880F991F282B392BA90193E0440F2B
:100FE000551F9A95E1F7220F331F420F531F80912F
:100FF0009503880F880F880F90919403990F990F8C
:10100000982B80919203982B80919303880F892BC2
:10101000840F809325038BE380932D0310922E037E
:1010200003C083E080932E0382E080932F0380919E
:1010300056038F5F80935603FF91EF919F918F919D
:101040005F914F913F912F910F900FBE0F901F9086
:1010500018950F931F93182F092F262FE82FF92F7C
:10106000DF010D900020E9F71197A81B80E190E0C7
:101070008A1B910962E070E00E94221B683050F4E4
:10108000223040F4862F622F0E94DB17812F902F91
:101090000E9404181F910F9108951F920F920FB68E
:1010A0000F9211242F933F934F935F936F937F93EE
:1010B0008F939F93AF93BF93EF93FF934B99C1C0CF
:1010C0003091B002F999FECF1FBA80E090E092BD56
:1010D00081BD30BD0FB6F894FA9AF99A0FBE2091EF
:1010E000B102F999FECF1FBA81E090E092BD81BDB7
:1010F00020BD0FB6F894FA9AF99A0FBE80912D038D
:10110000882309F465C020912903F999FECF1FBAFD
:1011100082E090E092BD81BD20BD0FB6F894FA9AAE
:10112000F99A0FBE20912A03F999FECF1FBA83E0E6
:1011300090E092BD81BD20BD0FB6F894FA9AF99A5D
:101140000FBE20912703F999FECF1FBA84E090E0EB
:1011500092BD81BD20BD0FB6F894FA9AF99A0FBEE0
:1011600020912603F999FECF1FBA85E090E092BD49
:1011700081BD20BD0FB6F894FA9AF99A0FBE20915E
:101180002503F999FECF1FBA86E090E092BD81BD9C
:1011900020BD0FB6F894FA9AF99A0FBE2091280351
:1011A000F999FECF1FBA87E090E092BD81BD20BDC6
:1011B0000FB6F894FA9AF99A0FBE20912C03F99978
:1011C000FECF1FBA88E090E092BD81BD20BD23C054
:1011D000F999FECF1FBA82E090E092BD81BD30BD8B
:1011E0000FB6F894FA9AF99A0FBEF999FECF1FBA82
:1011F00083E090E092BD81BD20BD0FB6F894FA9ACD
:10120000F99A0FBEF999FECF1FBA84E090E092BD23
:1012100081BD8FEF80BD0FB6F894FA9AF99A0FBE90
:1012200080913B038823C1F00E94E7178FE892E08A
:1012300060E00E9429088FE992E061E00E9429089D
:101240000BC083E390E00E94AE1880913B0388239B
:1012500019F08CE00E941E18FF91EF91BF91AF91A1
:101260009F918F917F916F915F914F913F912F91BE
:101270000F900FBE0F901F901895CF92DF92EF92B4
:10128000FF921F93DF93CF9300D000D0CDB7DEB78E
:10129000182F7B018091020190910301A09104011C
:1012A000B091050189839A83AB83BC83812F90E041
:1012B0006E010894C11CD11CB6014AE050E00E94A6
:1012C000E51A1A3050F4C70160E071E00E948D1AEF
:1012D000C701B6010E94791A04C0C701B6010E9475
:1012E0008D1A0F900F900F900F90CF91DF911F915B
:1012F000FF90EF90DF90CF9008958330D1F084304D
:1013000028F4813071F0823080F407C08530C9F054
:10131000853098F0863001F51AC0CB0161E179E0A3
:1013200013C0CB0164E179E00FC0CB0164E279E046
:101330000BC0CB0164E379E007C0CB0163E479E043
:1013400003C0CB0164E579E00E946D1A0895CB01DA
:1013500062E679E00E946D1A089580912F03882338
:1013600021F4CB016EE679E00FC0813021F4CB018E
:101370006BE779E009C0823021F4CB016AE879E0BB
:1013800003C0CB016AE979E00E946D1A0895CF92FB
:10139000DF92EF92FF920F931F93DF93CF93CDB71E
:1013A000DEB72A970FB6F894DEBF0FBECDBF7C0123
:1013B0006B0119821A821B821C82FE01359686E01F
:1013C000DF011D928A95E9F7FB0183818430F1F0FA
:1013D000853038F4823081F08330A0F4813031F5EB
:1013E00007C08630D9F08630A8F08730F9F41AC0EB
:1013F000C70168EC78E003C0C7016FEC78E00E9499
:101400006D1A19C0C70168ED78E0F9CFC70161EE28
:1014100078E0F5CFC7016CEE78E0F1CFC70164EF5B
:1014200078E0EDCFC70160EC78E0E9CFC70166E076
:1014300071E00E948D1AC7016AE071E00E94791A7A
:10144000D60112968C918E010F5F1F4FB8010E943A
:101450003D09C701B8010E94791AC7016CE071E02B
:101460000E94791AF6018181B8010E943D09C701E5
:10147000B8010E94791AC7016CE071E00E94791AE4
:10148000D6018C9190E0B8014AE050E00E94E51A44
:10149000F60180818A3020F4C7016EE071E003C05C
:1014A000C70162E171E00E94791AC701B8010E9488
:1014B000791AC7016AE071E00E94791AD601149680
:1014C0008C918E010F5F1F4FB8010E943D09C7012B
:1014D000B8010E94791AC70165E171E00E94791A8A
:1014E000F6018581B8010E943D09C701B8010E943B
:1014F000791AC7016AE071E00E94791AD60117963D
:101500008C91882321F0C70167E171E003C0C70116
:101510006BE171E00E94791A2A960FB6F894DEBF4B
:101520000FBECDBFCF91DF911F910F91FF90EF9034
:10153000DF90CF900895CF92DF92EF92FF920F93BA
:101540001F93DF93CF9300D00F92CDB7DEB76C011E
:101550007B018091200189831B821A82FB0180819B
:101560008E010F5F1F4FB8010E943D09C601B801EF
:101570000E948D1AC60165E171E00E94791AF70197
:101580008181B8010E943D09C601B8010E94791A03
:10159000C60165E171E00E94791AF7018281B80104
:1015A0000E943D09C601B8010E94791A8091B402D7
:1015B000882329F4C60166E378E00E94621A0F903E
:1015C0000F900F90CF91DF911F910F91FF90EF90AF
:1015D000DF90CF900895DF92EF92FF920F931F93C9
:1015E000DF93CF9300D0CDB7DEB78B0165E171E01B
:1015F0000E94741A009769F17E010894E11CF11CA5
:10160000B7014AE050E00E943319D62EE981FA81F1
:1016100080818823F1F487E18D15D8F080E090E097
:1016200065E171E00E94741A009799F0B7014AE0F1
:1016300050E00E943319E981FA818081882349F4BE
:101640006C3338F4F801D0826183128221E030E0FB
:1016500002C020E030E0C9010F900F90CF91DF91E0
:101660001F910F91FF90EF90DF9008952F923F927E
:101670004F925F926F927F928F929F92AF92BF92A2
:10168000CF92DF92EF92FF920F931F93DF93CF934E
:1016900000D000D0CDB7DEB7F999FECF41E0842E5F
:1016A00040E0942E92BC81BCF89A80B58093B10240
:1016B0008C3360F4F999FECF80E090E092BD81BD5B
:1016C000F89A80B58093B002883120F01092B00271
:1016D0001092B102F999FECF3BE0C32E30E0D32E39
:1016E000D2BCC1BCF89A80B5882319F01092B4021C
:1016F00003C081E08093B402F999FECF29E0E22E85
:1017000020E0F22EF2BCE1BCF89A80B5809354033D
:10171000F999FECF0AE010E012BD01BDF89A80B53C
:1017200080935503F999FECF9CE0292E90E0392E45
:1017300032BC21BCF89A80B5809324038250873054
:1017400018F084E080932403789483E390E00E946F
:10175000AE1883E291E00E94FB1888E291E00E94BB
:10176000FB1880E391E00E94FB1881EF91E00E945A
:10177000FB188AE091E00E94FB1887EE91E00E943E
:10178000FB1885E391E00E94FB1883E291E00E9440
:10179000FB1882E092E00E94FB18209A8AB1806ACE
:1017A0008AB98AB1877E8AB95C9A8091690084601F
:1017B00080936900E99A16BC85B5816085BD8091EA
:1017C0006E00816080936E0080915403882371F0D5
:1017D00052985A9880916900816080936900E89AD4
:1017E00082E080932F0386E080932E034C9B17C0EA
:1017F0008CE00E941E1880E060E00E94DB170E94CF
:10180000E71781E080933B0381EF91E060E00E9465
:10181000290887EE91E061E00E94290802C0109239
:101820003B0383E0A82E80E0B82EB4E06B2EB0E03E
:101830007B2EA2E04A2EA0E05A2E90915203809176
:101840005303992319F05F98289A01C02898882398
:1018500019F028985F9A01C05F984B9BF2CF809156
:101860004D03882309F4E9C180913B03882309F4DF
:10187000E4C180914C03882391F40E94E71785EB23
:1018800092E060EB72E00E949B0A88E092E060E0E8
:101890000E94290885EB92E061E00E94290880916E
:1018A0004C03813021F5809149038823E9F00E949F
:1018B000E71786E192E060E00E94290880915003DA
:1018C000909151036FE073E04AE050E00E94E51A06
:1018D0008FE093E06DE472E00E94791A8FE093E06C
:1018E00061E00E94290803C082E080934C0380914C
:1018F0004C038230C9F40E94E71787E292E060E06F
:101900000E94290880915403882349F08FE093E0D6
:1019100067E472E00E948D1A8FE093E002C087E5D1
:1019200092E061E00E94290880914C03833011F518
:101930000E94E71788E392E060E00E942908809106
:101940005403882391F080912F036EEF72E00E9480
:10195000AD098FE093E06EEF72E00E948D1A8FE088
:1019600093E061E00E94290805C080914C038F5FDD
:1019700080934C0380914C038430D1F480915403C4
:10198000882399F00E94E71783E692E060E00E94C6
:10199000290880912E036FE073E00E947D098FE09B
:1019A00093E061E00E94290803C085E080934C0326
:1019B00080914C03853009F04CC0809154038823FA
:1019C00009F444C080912F03813009F03FC0809119
:1019D00056038823D9F18C33C8F50E94E71783E7B3
:1019E00092E060E00E9429088FE093E068E371E0F4
:1019F0000E948D1A8091560381506EEF72E00E9412
:101A00003D098FE093E06EEF72E00E94791A8FE05B
:101A100093E06DE371E00E94791AE0915603F0E0E3
:101A2000E15AFC4F8081813029F48FE093E06FE32D
:101A300071E004C08FE093E060E071E00E94791AE9
:101A40008FE093E061E00E94290803C086E0809364
:101A50004C0380914C03863009F0C8C08091540338
:101A6000882309F4C0C080912D03882309F4BBC0EA
:101A70000E94E7178FE093E061E471E00E948D1A05
:101A8000809129036EEF72E00E943D098FE093E0A0
:101A90006EEF72E00E94791A8FE093E065E171E0E9
:101AA0000E94791A80912A036EEF72E00E943D092C
:101AB0008FE093E06EEF72E00E94791A8FE093E07E
:101AC0006AE071E00E94791A80912C03882329F042
:101AD0008FE093E067E171E004C08FE093E06BE199
:101AE00071E00E94791A8FE093E060E00E9429087B
:101AF00080912803843009F1853038F4823089F0F0
:101B00008330B0F4813069F507C0863001F186304A
:101B1000C8F0873031F520C08FE093E06FEF78E0B8
:101B200004C08FE093E062E079E00E946D1A1FC06C
:101B30008FE093E065E079E0F8CF8FE093E068E034
:101B400079E0F3CF8FE093E06BE079E0EECF8FE0C8
:101B500093E06EE079E0E9CF8FE093E06CEF78E01E
:101B6000E4CF8FE093E066E071E00E948D1A8FE091
:101B700093E068E471E00E94791A809127036EEF88
:101B800072E00E943D098FE093E06EEF72E00E94E8
:101B9000791A8FE093E06CE071E00E94791A8091ED
:101BA00026036EEF72E00E943D098FE093E06EEF36
:101BB00072E00E94791A8FE093E06CE071E00E947D
:101BC000791A809125036EEF72E00E943D098FE043
:101BD00093E06EEF72E00E94791A8FE093E061E08B
:101BE0000E94290803C087E080934C0380914C0336
:101BF0008730D9F40E94E71783E892E060E00E9402
:101C0000290880915503882329F08FE093E06DE047
:101C100077E004C08FE093E068E177E00E946D1AFE
:101C20008FE093E061E00E94290880914C038830A6
:101C300010F010924C0310924D030E94C8189C01A2
:101C40009C838B8380709F70892B09F0F6CD822F47
:101C50000E94E5188B819C818D3029F48AE00E94D6
:101C6000E5180C944E17E8EEF2E08330910539F454
:101C7000CF016CE471E00E948D1A0C944E17019014
:101C80000020E9F73197E85EF2403F9708F0D5CDA4
:101C9000982F80528F3518F09D3009F0CECD88EE08
:101CA00092E0BE016D5F7F4F41E050E00E94941AC8
:101CB000C4CD83EE93E04AE050E00E94A41A88EF7E
:101CC00092E06DE471E00E94841A009749F012C01E
:101CD0001092E30380914B03882309F028C7A5C421
:101CE00083EE93E060EB72E00E94EB0A892B09F42B
:101CF00099C42BC088EF92E062E571E00E94841ADB
:101D0000009779F483EE93E066E473E00E94EB0AB7
:101D1000892B09F487C481E08093490380934A03A7
:101D200014C088EF92E067E571E00E94841A009782
:101D300079F483EE93E066E473E00E94EB0A892B6A
:101D400009F470C481E0809349038EEB97E07AC474
:101D500088EF92E06CE571E00E94841A009709F028
:101D60004EC083EE93E06FE371E00E94841A009707
:101D7000F1F481E080935403F999FECF1FBAF2BCCD
:101D8000E1BC81E080BD0FB6F894FA9AF99A0FBED3
:101D900052985A9880916900816080936900E89A0E
:101DA00082E080932F0386E080932E03CECF83EED4
:101DB00093E060E071E00E94841A009709F032C459
:101DC00010925403F999FECF1FBAF2BCE1BC10BCCB
:101DD0000FB6F894FA9AF99A0FBE809169008E7F37
:101DE00080936900E89880918100887F80938100CA
:101DF00080916F008E7F80936F005A9AA6CF88EFF4
:101E000092E061E671E00E94841A009711F583EE7A
:101E100093E06FE371E00E94841A009749F481E037
:101E200080935503F999FECF1FBA12BD01BD57C06B
:101E300083EE93E060E071E00E94841A009709F05D
:101E4000F1C310925503F999FECF1FBA12BD01BD1F
:101E50005AC088EF92E066E671E00E94841A00970B
:101E600039F583EE93E0BE016F5F7F4F4AE050E0AB
:101E70000E9433199B01AC01E981FA81808188239A
:101E800009F0D0C3DA01C9010297A109B109079786
:101E9000A105B10508F0C6C320934F032093240386
:101EA000622FF999FECF1FBA32BC21BC60BD2CC095
:101EB00088EF92E06BE671E00E94841A009751F57A
:101EC00083EE93E06FE371E00E94841A009751F46F
:101ED0001092B402F999FECF1FBAD2BCC1BC81E006
:101EE00080BD12C083EE93E060E071E00E94841A2E
:101EF000009709F097C381E08093B402F999FECF6F
:101F00001FBAD2BCC1BC10BC0FB6F894FA9AF99AA9
:101F10000FBE1BCF88EF92E060E771E00E94841A49
:101F2000009711F00C94381783EE93E066E771E0A8
:101F30000E94841A0097A9F48FE093E061EF71E0AA
:101F40000E948D1A8FE093E00E94FB188FE093E0CF
:101F500062E273E00E948D1A8FE093E067EE71E019
:101F600052C383EE93E069E771E00E94841A009700
:101F700089F58091B00290E06EEF72E04AE050E0A7
:101F80000E94E51A8FE093E06EEF72E00E948D1AD6
:101F90008FE093E062E273E042E050E00E94941A26
:101FA0008091B10290E06EEF72E04AE050E00E9452
:101FB000E51A8FE093E06EEF72E00E94791A8FE0ED
:101FC00093E062E273E042E050E00E94941A809154
:101FD000B2020EC383EE93E06DE771E00E94841AB3
:101FE000009789F58091460390E06EEF72E04AE039
:101FF00050E00E94E51A8FE093E06EEF72E00E94DD
:102000008D1A8FE093E062E273E042E050E00E94BC
:10201000941A8091470390E06EEF72E04AE050E03E
:102020000E94E51A8FE093E06EEF72E00E94791A49
:102030008FE093E062E273E042E050E00E94941A85
:1020400080914803D5C283EE93E061E871E00E947D
:10205000841A009709F0F5C08091250390E06EEF97
:1020600072E04AE050E00E94E51A8FE093E06EEFE4
:1020700072E00E948D1A8FE093E062E273E042E02A
:1020800050E00E94941A8091260390E06EEF72E077
:102090004AE050E00E94E51A8FE093E06EEF72E0B4
:1020A0000E94791A8FE093E062E273E042E050E030
:1020B0000E94941A8FE093E00E94FB1880912703FE
:1020C00090E06EEF72E04AE050E00E94E51A8FE087
:1020D00093E06EEF72E00E948D1A8FE093E062E26F
:1020E00073E042E050E00E94941A8091280390E04F
:1020F0006EEF72E04AE050E00E94E51A8FE093E054
:102100006EEF72E00E94791A8FE093E062E273E072
:1021100042E050E00E94941A8091290390E06EEF13
:1021200072E04AE050E00E94E51A8FE093E06EEF23
:1021300072E00E94791A8FE093E062E273E042E07D
:1021400050E00E94941A8FE093E00E94FB18809167
:102150002A0390E06EEF72E04AE050E00E94E51A38
:102160008FE093E06EEF72E00E948D1A8FE093E0B3
:1021700062E273E042E050E00E94941A80912B03E7
:1021800090E06EEF72E04AE050E00E94E51A8FE0C6
:1021900093E06EEF72E00E94791A8FE093E062E2C2
:1021A00073E042E050E00E94941A80912C0390E08A
:1021B0006EEF72E04AE050E00E94E51A8FE093E093
:1021C0006EEF72E00E94791A8FE093E062E273E0B2
:1021D00042E050E00E94941A8FE093E00E94FB18C6
:1021E00080912D0390E06EEF72E04AE050E00E9493
:1021F000E51A8FE093E06EEF72E00E948D1A8FE097
:1022000093E062E273E042E050E00E94941A809111
:102210002E0390E06EEF72E04AE050E00E94E51A73
:102220008FE093E06EEF72E00E94791A8FE093E006
:1022300062E273E042E050E00E94941A80912F0322
:10224000D7C183EE93E065E871E00E94841A00979D
:1022500009F04BC08091560390E06EEF72E04AE0C7
:1022600050E00E94E51A8FE093E06EEF72E00E946A
:102270008D1A8FE093E062E273E042E050E00E944A
:10228000941A8FE093E00E94FB1810924F0326C02F
:10229000F0E0E05AFC4F808190E06EEF72E04AE09F
:1022A00050E00E94E51A8FE093E06EEF72E00E942A
:1022B0008D1A80914F038B3341F08FE093E062E2FF
:1022C00073E042E050E00E94941A8FE093E00E9495
:1022D000FB1880914F038F5F80934F03E0914F0372
:1022E000EC33B0F280E293E09AC183EE93E069E8C8
:1022F00071E00E94841A009709F0B3C0F999FECFEB
:1023000086E090E092BD81BDF89A80B590E06EEFD6
:1023100072E04AE050E00E94E51A8FE093E06EEF31
:1023200072E00E948D1A8FE093E062E273E042E077
:1023300050E00E94941AF999FECF85E090E092BD9A
:1023400081BDF89A80B590E06EEF72E04AE050E00F
:102350000E94E51A8FE093E06EEF72E00E94791A16
:102360008FE093E062E273E042E050E00E94941A52
:10237000F999FECF72BC61BCF89A80B590E06EEF1F
:1023800072E04AE050E00E94E51A8FE093E06EEFC1
:1023900072E00E94791A8FE093E062E273E042E01B
:1023A00050E00E94941A8FE093E00E94FB18F99984
:1023B000FECF87E090E092BD81BDF89A80B590E0B5
:1023C0006EEF72E04AE050E00E94E51A8FE093E081
:1023D0006EEF72E00E948D1A8FE093E062E273E08C
:1023E00042E050E00E94941AF999FECF52BC41BCE1
:1023F000F89A80B590E06EEF72E04AE050E00E94FB
:10240000E51A8FE093E06EEF72E00E94791A8FE098
:1024100093E062E273E042E050E00E94941AF9997E
:10242000FECFB2BCA1BCF89A80B590E06EEF72E02E
:102430004AE050E00E94E51A8FE093E06EEF72E010
:102440000E94791A8FE093E062E273E042E050E08C
:102450000E94941AF999FECF88E090E092BD81BD68
:10246000C5C083EE93E06DE871E00E94841A009786
:1024700009F092C08091B40290E06EEF72E04AE001
:1024800050E00E94E51A8FE093E06EEF72E00E9448
:102490008D1A8FE093E062E273E042E050E00E9428
:1024A000941A80914A0390E06EEF72E04AE050E0A7
:1024B0000E94E51A8FE093E06EEF72E00E94791AB5
:1024C0008FE093E062E273E042E050E00E94941AF1
:1024D0008091490390E06EEF72E04AE050E00E9484
:1024E000E51A8FE093E06EEF72E00E94791A8FE0B8
:1024F00093E062E273E042E050E00E94941A8FE0C1
:1025000093E00E94FB1880915003909151036EEF6D
:1025100072E04AE050E00E94E51A8FE093E06EEF2F
:1025200072E00E948D1A8FE093E062E273E042E075
:1025300050E00E94941A8091540390E06EEF72E094
:102540004AE050E00E94E51A8FE093E06EEF72E0FF
:102550000E94791A8FE093E062E273E042E050E07B
:102560000E94941A8091550390E06EEF72E04AE069
:1025700050E00E94E51A8FE093E06EEF72E00E9457
:10258000791A8FE093E062E273E042E050E00E944B
:10259000941A809124032CC083EE93E061E971E0EA
:1025A0000E94841A009709F03DC0F999FECF80E09F
:1025B00090E092BD81BDF89A80B590E06EEF72E038
:1025C0004AE050E00E94E51A8FE093E06EEF72E07F
:1025D0000E948D1A8FE093E062E273E042E050E0E7
:1025E0000E94941AF999FECF92BC81BCF89A80B5EA
:1025F00090E06EEF72E04AE050E00E94E51A8FE052
:1026000093E06EEF72E00E94791A8FE093E060E24F
:1026100073E042E050E00E94941A8FE093E00E9441
:10262000FB1893CB83EC97E00DC088EE92E065E950
:1026300071E00E94841A009741F481E080934B037B
:1026400089E295E00E94161913C488EE92E069E9C8
:1026500071E00E94841A0097D9F488E291E00E9408
:10266000FB1881EF91E00E94FB1885E391E00E9446
:10267000FB188EE293E00E94161987EE91E00E940B
:10268000FB1885E391E00E94FB1888E690E0DACF22
:1026900088EE92E06DE971E00E94841A009751F48F
:1026A000809154038823C1F482E080934B038BE430
:1026B00095E0C8CF88EE92E061EA71E00E94841A4A
:1026C000009769F480915403882331F483E0809368
:1026D0004B0381E795E0B6CF81E995E0B3CF88EE73
:1026E00092E065EA71E00E94841A009789F484E020
:1026F00080934B0382E296E00E9416198091540366
:10270000882319F08BE396E09DCF84E596E09ACF7D
:1027100088EE92E069EA71E00E94841A009789F4D9
:1027200085E080934B0384EB95E00E94161980911D
:10273000B402882319F082EC95E084CF8DED95E00A
:1027400081CF88EE92E06DEA71E00E94841A0097D2
:1027500089F486E080934B0388EA96E00E9416197C
:1027600080915503882319F087EB96E06BCF82EEBA
:1027700096E068CF88EE92E061EB71E00E94841AE7
:10278000009741F088EE92E066EB71E00E94841AB7
:10279000009719F48BEB90E055CF88EE92E068EB50
:1027A00071E00E94841A009731F487E080934B0314
:1027B00088E498E047CF88EE92E06CEB71E00E94ED
:1027C000841A009709F0A6C188E291E00E94FB18E4
:1027D00081EF91E00E94FB1885E391E00E94FB18D5
:1027E0008EE293E00E94161987EE91E00E94FB189A
:1027F00085E391E00E94FB1885EB92E060EB72E0CC
:102800000E949B0A8CE493E00E94161985EB92E0EB
:102810000E94FB1885E793E00E94161980914903F6
:10282000882329F185EB92E066E473E00E949B0A1D
:1028300084E098E00E94161985EB92E00E94FB1854
:1028400080915003909151036EEF72E04AE050E0A6
:102850000E94E51A8AE091E00E94FB188EEF92E058
:102860000E94FB1886EE97E00E94161904C081ECC6
:1028700091E00E94FB188FEA94E00E941619809163
:102880005503882319F08DE097E002C088E197E0B6
:102890000E94161986E094E00E9416198091540354
:1028A000882309F45BC083E294E00E9416198091AA
:1028B0002703882359F086EC92E065E273E00E94DA
:1028C000C70986EC92E00E94FB1804C080E096E005
:1028D0000E9416198EE594E00E94161980912E032D
:1028E0006EEF72E00E947D098EEF92E00E94FB186D
:1028F0008BE894E00E94161980912F036EEF72E02E
:102900000E94AD098EEF92E00E94FB1880912F0388
:10291000813041F580915603882321F18BEC97E0BB
:102920000E9416198091560390E001976EEF72E0B5
:102930004AE050E00E94E51A8EEF92E00E94FB18F8
:10294000E0915603F0E0E15AFC4F8081813019F4A8
:1029500088EC91E005C08BEC91E002C087E592E045
:102960000E94FB1885E391E00E94FB18F999FECFC5
:10297000B2BCA1BCF89A80B58F3F09F476C083E958
:1029800093E00E941619F999FECF72BC61BCF89AC7
:1029900080B58F3F09F449C0F999FECFB2BCA1BC04
:1029A000F89A80B580933503F999FECF52BC41BCAB
:1029B000F89A80B580933403F999FECF72BC61BC5C
:1029C000F89A80B580933203F999FECF85E090E0C4
:1029D00092BD81BDF89A80B580933103F999FECFFD
:1029E00086E090E092BD81BDF89A80B58093300377
:1029F000F999FECF88E090E092BD81BDF89A80B54C
:102A000080933703F999FECF87E090E092BD81BDB6
:102A1000F89A80B58093330386EC92E060E373E02C
:102A20000E94C70986EC92E01AC0F999FECFB2BCA9
:102A3000A1BCF89A80B580933D03F999FECF52BCB2
:102A400041BCF89A80B580933C0310923E038EEF10
:102A500092E06CE373E00E949B0A8EEF92E00E948A
:102A6000FB1885E391E00E94FB18F999FECF92BC18
:102A700081BCF89A80B58F3F31F180EC93E00E94E1
:102A80001619F999FECF92BC81BCF89A80B5809353
:102A90004203F999FECF80E090E092BD81BDF89AA3
:102AA00080B580934103109243038EEF92E061E47E
:102AB00073E00E949B0A8EEF92E00E94FB1885E370
:102AC00091E00E94FB188BED94E00E941619809112
:102AD0003B03882319F08EE398E002C084E498E079
:102AE0000E94161985E391E00E94FB1880E095E0B2
:102AF0000E9416198091240390E06EEF72E04AE084
:102B000050E00E94E51A8EEF92E00E94FB188EECD6
:102B100091E00AC085ED91E00E94FB1881E697E004
:102B20000E94161983E291E00E94FB18A1C1813036
:102B300079F488EE92E060EB72E00E94EB0A892B58
:102B4000E9F18DED91E00E94FB1889EB97E088C1D7
:102B50008230C1F488EE92E066E473E00E94EB0AF2
:102B6000892B61F18DED91E00E94FB1889EB97E0D4
:102B70000E94161983E291E00E94FB1881E0809385
:102B8000490374C1833009F588EE92E066E473E08E
:102B90000E94EB0A892B91F08DED91E00E94FB18C9
:102BA00089EB97E00E94161983E291E00E94FB18DE
:102BB00081E08093490380934A0358C185ED91E0F9
:102BC0000E94FB188DE797E04BC1843009F070C07C
:102BD00088EE92E06CEA72E00E94841A009709F095
:102BE00059C080915403882351F58DED91E00E94E6
:102BF000FB188EE696E00E94161983E291E00E948F
:102C0000FB1881E080935403F999FECF1FBAF2BC00
:102C1000E1BC81E080BD0FB6F894FA9AF99A0FBE34
:102C200052985A9880916900816080936900E89A6F
:102C300082E080932F0386E080932E0317C18DEDF1
:102C400091E00E94FB188BE896E00E94161983E23F
:102C500091E00E94FB1810925403F999FECF1FBA1D
:102C6000F2BCE1BC10BC0FB6F894FA9AF99A0FBE08
:102C7000809169008E7F80936900E898809181003F
:102C8000887F8093810080916F008E7F80936F009A
:102C90005A9AECC088EE92E06EEA72E00E94841AC2
:102CA000009709F4E3C083E298E00E941619DEC0A1
:102CB000853009F040C088EE92E06CEA72E00E9434
:102CC000841A009789F58091B4028823A9F488E2D8
:102CD00091E00E94FB1886E997E00E94161983E2B2
:102CE00091E00E94FB1881E08093B402F999FECF35
:102CF0001FBAD2BCC1BC58C088E291E00E94FB1848
:102D000087EA97E00E94161985E391E00E94FB187C
:102D100083E291E00E94FB181092B402F999FECF71
:102D20001FBAD2BCC1BC2AC088EE92E06EEA72E043
:102D30000E94841A46C0863009F047C088EE92E0AF
:102D40006CEA72E00E94841A0097A9F580915503FD
:102D50008823B9F48DED91E00E94FB1883E297E09F
:102D60000E94161983E291E00E94FB1881E0809393
:102D70005503F999FECF1FBA12BD01BD81E080BD98
:102D800014C08DED91E00E94FB1882E497E00E9450
:102D9000161983E291E00E94FB1810925503F999ED
:102DA000FECF1FBA12BD01BD10BC0FB6F894FA9A3F
:102DB000F99A0FBE5BC088EE92E06EEA72E00E9464
:102DC000841A009709F452C022C0873009F04EC01F
:102DD00088EE92E0BE016F5F7F4F4AE050E00E94B4
:102DE00033199B01AC01E981FA818081882379F450
:102DF000DA01C9010297A109B1090797A105B10537
:102E000030F420934F0320932403622F07C085EDF5
:102E100091E00E94FB1883E298E022C0F999FECF6E
:102E20001FBA32BC21BC60BD0FB6F894FA9AF99A69
:102E30000FBE8DED91E00E94FB1881E998E00E94A1
:102E400016198091240390E06EEF72E04AE050E0A2
:102E50000E94E51A8EEF92E00E94FB1880EB98E04A
:102E60000E94161983E291E00E94FB1810924B0316
:102E700088EE92E06CE471E00E948D1A1092F802E4
:102E80001092E30380914B03882311F00C941D0CE6
:102E900082E092E00E94FB180C941D0C88EE92E0F8
:102EA00065EE71E00E94741ABC0188EF92E046E082
:102EB00050E00E94A41A80E090E065EE71E00E946C
:102EC000741ABC01009711F00C94590E0C94680E02
:102ED000662311F0459A01C0459844983A9A399A68
:102EE000389A229A2A9840984198429887FD2A9ABF
:102EF00086FD409A85FD419A84FD429A439A00C01E
:102F000043982A9840984198429883FD2A9A82FDD6
:102F1000409A81FD419A80FD429A439A00C04398AD
:102F2000429A419A409A2A9A0895882311F0459A24
:102F300001C04598449A3A98399838982298439A0B
:102F400000C0329B02C080E101C080E03199806204
:102F5000309980641A998068439800C0439A00C0F1
:102F60003299816031998260309984601A998860C1
:102F70004398089580E00E94951787FDFBCF84E079
:102F800090E00197F1F780E00E94951708951F9354
:102F9000182F0E94BA17812F60E00E9468171F91B6
:102FA00008951F93182F0E94BA17812F61E00E9485
:102FB00068171F910895662311F4805801C080544A
:102FC0000E94C71708950E94BA1790E0089581E003
:102FD0000E94C717089582E00E94C71708951F93A3
:102FE000182F0E94BA171A3049F4803410F080E08C
:102FF00001C080E480580E94C71704C0812F61E09F
:103000000E9468171F910895CF93DF93EC0102C0CF
:103010000E94EF1789918823D9F7DF91CF91089506
:10302000CF93DF93EC0102C00E94EF17FE012196BF
:1030300084918823C9F7DF91CF9108951F93182FAA
:103040003A9A399A389A229A3D9A3C9A3B9A80E069
:103050009DE70197F1F7419A429A439A00C043983D
:1030600080E097E20197F1F7439A00C0439880E827
:1030700090E0FC013197F1F7439A00C04398FC01BE
:103080003197F1F74298439A00C043980197F1F7BE
:1030900088E20E94C71788E00E94C7170E94E717BE
:1030A00086E00E94C717812F0E94C7171F910895BD
:1030B0001F920F920FB60F9211242F938F939F930D
:1030C000EF93FF939091C0002091C600E091DE0342
:1030D000EF5FEF718091DF03E81711F482E008C021
:1030E000892F8871E093DE03F0E0E454FC4F2083E5
:1030F0008093E003FF91EF919F918F912F910F901B
:103100000FBE0F901F9018951F920F920FB60F923F
:1031100011248F939F93EF93FF939091DC03809101
:10312000DD03981769F0E091DD03EF5FEF71E09345
:10313000DD03F0E0E456FC4F80818093C60005C0BB
:103140008091C1008F7D8093C100FF91EF919F918D
:103150008F910F900FBE0F901F9018959C011092A9
:10316000DC031092DD031092DE031092DF0397FF61
:1031700004C082E08093C0003F773093C500209365
:10318000C40088E98093C10086E08093C20008955E
:103190009091DE038091DF03981719F420E031E06D
:1031A00012C0E091DF03EF5FEF71E093DF03F0E027
:1031B000E454FC4F30812091E003922F80E0AC0179
:1031C000430F511D9A01C9010895282F9091DC03E6
:1031D0009F5F9F718091DD039817E1F3E92FF0E085
:1031E000E456FC4F20839093DC038091C100806201
:1031F0008093C1000895DC0115C09091DC039F5FAE
:103200009F718091DD039817E1F31196E92FF0E0AB
:10321000E456FC4F20839093DC038091C1008062D0
:103220008093C1002C91222341F70895AC0114C072
:103230002091DC032F5F2F718091DD032817E1F3CC
:10324000E22FF0E0E456FC4F90832093DC03809162
:10325000C10080628093C100FA014F5F5F4F94917B
:10326000992331F708952F923F925F926F927F9248
:103270008F929F92AF92BF92CF92DF92EF92FF9286
:103280000F931F93CF93DF938C011B01EA0161150C
:10329000710519F0FB0191838083209749F0CE01DD
:1032A0000297839728F020E030E040E050E0F6C03D
:1032B000F801A1908F018A2D90E00E94491B892B73
:1032C000B9F7FDE2AF1631F4F801A1908F01552452
:1032D000539407C0FBE2AF1619F4F801A1908F01D7
:1032E0005524209719F0C031D105C1F4F0E3AF1691
:1032F00079F4F8018081883711F0883549F4F801B4
:10330000A1800E5F1F4FF2E05F2AC0E1D0E006C04F
:10331000209721F480E3A816E9F427C0C830D1052E
:1033200031F1C930D10524F4C230D10531F50CC0DA
:10333000CA30D10589F0C031D105F9F4C12CD12CA6
:10334000E12CB8E0FB2E28C0C12CD12CE12CA0E44C
:10335000FA2E22C0CAE0D0E0FCECCF2EFCECDF2E2F
:10336000FCECEF2EFCE0FF2E17C0C8E0D0E0C12C33
:10337000D12CE12CE0E1FE2E0FC09E01442737FD49
:103380004095542F60E070E080E090E80E94731B4D
:10339000C901DA016C017D0120E030E040E050E03D
:1033A00060E03E01882477FC8094982C70EDB72E65
:1033B000BA0CE9E0EB1570F48A2D81548A3118F4C7
:1033C00099ECB92E06C08A2D81568A3150F589EACA
:1033D000B82EBA0C8B2D90E08C179D0714F56F3F1B
:1033E000E1F0C216D306E406F506B0F0CA01B90151
:1033F000A40193010E94541B9B01AC012B0D311DB4
:10340000411D511D2130F0E03F07F0E04F07F0E88B
:103410005F0710F461E001C06FEFF801A1908F0128
:10342000C5CF2114310481F0662331F001501040E2
:10343000F1011183008308C051FE1AC002501040F0
:10344000F1011183008314C067FF12C050FC05C056
:103450002FEF3FEF4FEF5FE704C020E030E040E0A8
:1034600050E882E290E09093EE038093ED0316C063
:1034700050FE08C050954095309521953F4F4F4FD5
:103480005F4F0CC057FF0AC082E290E09093EE03BA
:103490008093ED032FEF3FEF4FEF5FE7B901CA01D4
:1034A000DF91CF911F910F91FF90EF90DF90CF9020
:1034B000BF90AF909F908F907F906F905F903F9064
:1034C0002F900895FB01DC010D900020E9F7119782
:1034D00005900D920020E1F70895FB01DC010590B5
:1034E0000D920020E1F7089541EE53E00E94B31AD7
:1034F0000895FB01DC010D900020E9F71197019080
:103500000D920020E1F70895FB01DC018D910190FF
:1035100080190110D9F3990B0895FB01DC0101908A
:103520000D920020E1F70895FB01DC010D900020D1
:10353000E9F711974150504028F0019000200D927A
:10354000C9F708951C920895FB01DC0141505040D9
:1035500048F001900D920020C9F701C01D92415022
:103560005040E0F70895009731F4DA018D919C9175
:10357000009709F40EC0DC01FB013D91219122234B
:1035800019F03217C9F3FACF332331F4DA011D925F
:103590001C928827992708951197AF93BF93FB0139
:1035A0003D912191321771F4332321F48827992713
:1035B000119702C01E921196FA01A193B0839F91B8
:1035C0008F910895222369F7EACFFB019F01E894C8
:1035D0004230C4F04532B4F44A3029F497FB1EF46B
:1035E000909581959F4F642F77270E94351B805DB2
:1035F0008A330CF0895D8193CB010097A1F716F413
:103600005DE251931082C9010C94061BDC01FC01A0
:10361000672F71917723E1F7329704C07C916D9306
:1036200070836291AE17BF07C8F30895991B79E0C4
:1036300004C0991F961708F0961B881F7A95C9F742
:103640008095089597FB092E07260AD077FD04D0B0
:103650000CD006D000201AF4709561957F4F089524
:10366000F6F7909581959F4F0895AA1BBB1B51E1DA
:1036700007C0AA1FBB1FA617B70710F0A61BB70BE2
:10368000881F991F5A95A9F780959095BC01CD0187
:103690000895911106C0803219F089508550D0F7F5
:1036A0000895992788270895629FD001739FF0019C
:1036B000829FE00DF11D649FE00DF11D929FF00DC2
:1036C000839FF00D749FF00D659FF00D9927729FF9
:1036D000B00DE11DF91F639FB00DE11DF91FBD0184
:1036E000CF0111240895A1E21A2EAA1BBB1BFD01D4
:1036F0000DC0AA1FBB1FEE1FFF1FA217B307E407D1
:10370000F50720F0A21BB30BE40BF50B661F771F28
:10371000881F991F1A9469F7609570958095909508
:0E3720009B01AC01BD01CF010895F894FFCFCD
:10372E003000000000002D2D2D0020002E00323024
:10373E0030003230003A004D455A004D45535A0084
:10374E000000001B5B306D001B5B33373B316D009F
:10375E001B5B324A000D0A004249543A003D0031CB
:10376E000044434637373A00202D2000005F736D2A
:10377E0074005F617374005F6E7374005F646366E0
:10378E00005F73736D005F737077005F707374000A
:10379E005F737461740067760067737400676E748C
:1037AE00006764370067646100676C700067677359
:1037BE0000676C7300736D740041545A006E73741D
:1037CE000061737400646366007073740073736DCC
:1037DE000068656C70003F007370770073746174DD
:1037EE00006E6F726D616C003D31003D3000303007
:1037FE006D730D0A001B5B33313B316D001B5B3368
:10380E00323B316D003B0056312E3000000000007F
:10381E00005241204D757474657275687200000017
:10382E0000006D753A3E20004E6562656E756872D9
:10383E007A6569743A0053796E6368726F6E697354
:10384E00696572652E2E0044434637372053796ED4
:10385E00636D6F6475733A00444346373720537473
:10386E00617475733A2000416B74697600204D695E
:10387E006E7574656E2E006465616B74697669652C
:10388E007274004443462041757377657274756E89
:10389E00673A00444346373720456D7066616E6760
:1038AE00653A0053796E63204D6F6475733A005319
:1038BE0074726F6D766572736F7267756E67006185
:1038CE007573676566616C6C656E21006A006E00CB
:1038DE0000000000012D2D3A2D2D3A2D2D00000057
:1038EE000000000000002D2D2D2D2D2D2D2D2D2D08
:1038FE00202D2D2E2D2D2E2D2D2D2D202D2D3A2DF5
:10390E002D202D2D2D2D00000000000000000000A8
:10391E000000000000000000000000000000000099
:10392E000000000000000000000000000000000089
:10393E000000000000000000000000000000000079
:10394E003B002C00040000000000000001000600F7
:0C395E0000000000000000010006000155
:00000001FF
