:100000000C94EF040C94CE060C948E090C940C0501
:100010000C940C050C940C050C940C050C940C051C
:100020000C940C050C940C050C940C050C940C050C
:100030000C940C050C94AC060C940C050C940C055B
:100040000C9430050C940C050C94EC180C941819B5
:100050000C940C050C940C050C940C050C940C05DC
:100060000C940C050C940C050D0A48696C6665200F
:100070006D6974201B5B33373B316D3F1B5B303B3D
:1000800033376D206F646572201B5B33373B316DF6
:1000900068656C701B5B303B33376D20756E642078
:1000A0006D69742072657475726E20616E73636819
:1000B0006C69657373656E2E0D0A00201B5B333708
:1000C0003B316D5665726675656762617265204B7E
:1000D0006F6D6D616E646F733A0D0A201B5B333771
:1000E0003B316D646366201B5B303B33376D2D3EC7
:1000F0002053796E6368726F6E69736174696F6E95
:10010000206D6974204443463737206A617C6E65F0
:10011000696E2E0D0A201B5B33373B316D736D7496
:10012000201B5B303B33376D2D3E204D757474655D
:100130007275687220617566205A65697420766FE1
:100140006E204E6562656E756872656E20737465AB
:100150006C6C656E2E0D0A201B5B33373B316D6E68
:100160007374201B5B303B33376D2D3E204E656230
:10017000656E756872656E20617566206578616B65
:1001800074206469657365205A65697420737465A9
:100190006C6C656E284E6963687420696D204443F9
:1001A000463737204D6F647573292E0D0A201B5B6F
:1001B00033373B316D617374201B5B303B33376DDC
:1001C0002D3E204E6562656E756872656E206175A4
:1001D00066206469657365205A6569742073746567
:1001E0006C6C656E2E205A656974206469652064A4
:1001F00061667565722062656EF674696774207752
:100200006972642C20776972642068696E7A7561FE
:1002100064646965727420284E6963687420696D2E
:10022000204443463737204D6F647573292E0D0ADD
:10023000201B5B33373B316D707374201B5B303B8D
:1002400033376D2D3E204D75747465722D20756E9B
:1002500064204E6562656E756872656E20616E68B9
:10026000616C74656E2E2853796E6368726F6E6967
:10027000736174696F6E2066756E6B74696F6E69F9
:1002800065727420776569746572292E0D0A201BCA
:100290005B33373B316D73736D201B5B303B333702
:1002A0006D2D3E2053796E636D6F6475732031320E
:1002B000682F323468207365747A656E2E0D0A20BB
:1002C0001B5B33373B316D737077201B5B303B33E7
:1002D000376D2D3E2041757367616E6773696D7070
:1002E000756C7377656974652061656E6465726E9F
:1002F000283230302D3830306D73292E0D0A201BF6
:100300005B33373B316D73746174201B5B303B335F
:10031000376D2D3E20476573616D7473746174751C
:100320007320616E7A656967656E2E0D0A001B5B2E
:1003300033373B316D4669726D776172651B5B3295
:1003400031433A201B5B303B33376D001B5B333747
:100350003B316D5A65697420617566204E65626532
:100360006E756872656E1B5B3130433A201B5B30E3
:100370003B33376D000D0A1B5B33373B316D5374D4
:10038000617475731B5B3233433A201B5B303B3324
:10039000376D001B5B33373B316D4C65747A746588
:1003A00072205370616E6E756E67736175736661EE
:1003B0006C6C1B5B35433A201B5B303B33376D0065
:1003C0001B5B33373B316D5A65697420617566205C
:1003D0004E6562656E756872656E206265690D0AAC
:1003E0006C65747A74656D205370616E6E756E679E
:1003F0007361757366616C6C1B5B35433A201B5BE4
:10040000303B33376D000D0A1B5B33373B316D4496
:10041000434637371B5B3234433A201B5B303B3358
:10042000376D00616B746976696572740D0A1B5BC8
:1004300033373B316D4C65747A74657320444346A1
:10044000373720456D7066616E6773646174756DD2
:100450001B5B32433A201B5B303B33376D000D0A88
:100460001B5B33373B316D4443463737204C657453
:100470007A7465732045726765626E69731B5B37BA
:10048000433A201B5B303B33376D000D0A1B5B3357
:10049000373B316D4443463737205374617475736D
:1004A0001B5B3137433A201B5B303B33376D000D0C
:1004B0000A1B5B33373B316D4443463737206C654D
:1004C000747A746572204B6F6D706C657474656DB1
:1004D0007066616E673A201B5B303B33376D000DF1
:1004E0000A1B5B33373B316D53796E6368726F6EF5
:1004F00069736174696F6E736D6F6475731B5B38BC
:10050000433A201B5B303B33376D001B5B33373B7B
:10051000316D4C434420446973706C617920697378
:10052000741B5B3134433A201B5B303B33376D0027
:100530001B5B33373B316D41757367616E67736960
:100540006D70756C7377656974651B5B3130433A08
:10055000201B5B303B33376D005A65697420617531
:10056000662064656E204E6562656E756872656EA4
:10057000202878783A7878293A20005374656C6C92
:1005800065204E6562656E756872656E206578617E
:100590006B7420617566202878783A7878293A203B
:1005A000005374656C6C65204E6562656E7568728B
:1005B000656E20617566202878783A7878293A2027
:1005C000004269747465204443463737207A756564
:1005D000727374206465616B746976696572656EA7
:1005E000210D0A004E6562656E75687228656E2978
:1005F00020006C617566656E2E20416E68616C74BA
:10060000656E203F20286A7C6E293A200073696E4F
:100610006420616E676568616C74656E2E2053742A
:10062000617274656E203F20286A7C6E293A200032
:100630004E6F6368206B65696E65204443463737AB
:1006400020446174656E20656D7066616E67656ECD
:100650002E0044434620537963686E726F6E69734F
:100660007461696F6E206973742000616E2E204181
:100670007573736368616C74656E3F20286A7C6E65
:10068000293A20006175732E2045696E7363686195
:100690006C74656E3F20286A7C6E293A20004443C2
:1006A0004637372053796E6368726F6E6973617471
:1006B000696F6E2065696E2E0D0A00444346373718
:1006C0002053796E6368726F6E69736174696F6EBF
:1006D000206175732E0D0A0053796E636D6F64751A
:1006E000732069737420003234205374756E64650E
:1006F0006E2E20417566203132205374756E64650C
:100700006E207365747A656E3F20286A7C6E293A84
:1007100020003132205374756E64656E2E20417551
:1007200066203234205374756E64656E2073657470
:100730007A656E3F20286A7C6E293A200032342088
:100740005374756E64656E003132205374756E6437
:10075000656E00323468205374756E64656E204D8A
:100760006F64757320616B746976696572742E0DA0
:100770000A00313268205374756E64656E204D6FC7
:1007800064757320616B746976696572742E0D0AE5
:10079000004B6F6D6D616E646F206578697374696D
:1007A000657274206E696368742E0D0A00556E6759
:1007B00075656C7469676573205A656974666F72D4
:1007C0006D61740D0A0055687220676573746172FB
:1007D0007465742E0D0A0055687220616E67656835
:1007E000616C74656E2E0D0A006F6B0D0A004F4B25
:1007F0000D0A004552524F520D0A002C20676572B7
:1008000061646520656D7066616E67656E657320F5
:100810004269743A2000204D696E757465286E290E
:10082000207A752073796E6368726F6E697369657B
:1008300072656E0073796E6368726F6E6973696555
:100840007265204E6562656E756872656E206175B1
:1008500066200046616C736368652045696E676158
:1008600062652E0D0A002D3E706175736500416B47
:10087000746976004175730041757367616E6773C3
:10088000696D70756C7377656974652061656E64F8
:1008900065726E2028696E203130306D732C206DAA
:1008A0006F65676C696368652057657274653A2087
:1008B000327C337C347C357C367C377C38293A205A
:1008C0000041757367616E6773696D70756C7377DE
:1008D00065697465207775726465206175662000AE
:1008E00030306D732067657365747A742E0D0A005D
:1008F0002053656B756E64656E00536F6E6E746128
:1009000067004D6F6E746167004469656E73746152
:1009100067004D697474776F636800446F6E6E652D
:100920007273746167004672656974616700536130
:100930006D7374616700536F004D6F004469004D23
:100940006900446F004672005361006F6B004552AE
:10095000522D5061722E205374756E64650045529D
:10096000522D5061722E204D696E7574650045528E
:10097000522D5061722E20446174756D00455252A3
:100980002D4461756572506572696F6465004552EA
:10099000522D50756C736461756572004B65696E9C
:1009A0002053746174757300496E697469616C7366
:1009B0006965726500456D7066616E6765204461AA
:1009C00074656E00576172746520617566204461BC
:1009D00074656E00556E62656B616E6E74001124F5
:1009E0001FBECFEFD4E0DEBFCDBF13E0A0E0B1E08B
:1009F000EAE9F8E302C005900D92A237B107D9F7F2
:100A000014E0A2E7B3E001C01D92A834B107E1F7FA
:100A10000E94110C0C944B1C0C940000FC016623EA
:100A200031F482818B3318F48F5F828308951282B0
:100A300081819091510380FF03C09093890302C08C
:100A4000909388038B3318F48F5F8183089511820C
:100A50008081873118F48F5F808308951082089514
:100A60001F920F920FB60F9211242F933F934F9323
:100A70005F936F937F938F939F93AF93BF93EF9306
:100A8000FF938091B4039091B5032CE084339207D7
:100A900034F401969093B5038093B4033DC1109252
:100AA000B5031092B40380918803882341F05F98C6
:100AB0005E9A8091880381508093880301C05E987C
:100AC00080918903882341F05E985F9A8091890321
:100AD00081508093890301C05F988091B60389306B
:100AE00020F48F5F8093B6030AC11092B603809101
:100AF00080038823F1F080917E038B3320F48F5F95
:100B000080937E0316C010927E0380917D038B3309
:100B100020F48F5F80937D030CC010927D03809141
:100B20007C03873120F48F5F80937C0302C0109296
:100B30007C0380918B03882319F19091BC028091F2
:100B4000BB022CE3829FA0011124490F511D9091FB
:100B50007D0380917C03829F90011124290F311D18
:100B60002417350714F420563A4FC901841B950BFE
:100B700025E0833692070CF443C0805A954040C06C
:100B80009091BC028091BB022CE3829FA0011124B2
:100B9000490F511D90917D0380917C03829F9001AC
:100BA0001124290F311D82E0413D580714F0405DAA
:100BB000524082E0213D380714F0205D3240421758
:100BC000530774F440535D4FBA01621B730B405DD1
:100BD00052406E33710554F0C901841B950B10C04F
:100BE000BA01621B730B6E3371052CF488279927A9
:100BF000861B970B05C0C901841B950B80539D4F25
:100C000090938703809386034B9B44C080917F031E
:100C1000882389F180918603909187030097D1F012
:100C200018161906BCF58091B7039091B8031816F1
:100C3000190654F08BEB92E061E00E940E051092D1
:100C4000B8031092B70326C001979093B80380931E
:100C5000B70320C080917C038093BB0280917D0309
:100C60008093BC0280917E038093BD0210927F032B
:100C7000109280030FC08091BF02882359F081E059
:100C800090E09093B8038093B7038BEB92E060E021
:100C90000E940E0580918403882321F08150809367
:100CA000840308C085E080938403809182038F5F72
:100CB0008093820380915A03882319F08150809396
:100CC0005A0380915D0390915E03A0915F03B09100
:100CD00060038F3F2FEF92072FEFA2072FEFB2078E
:100CE00059F00196A11DB11D80935D0390935E03A1
:100CF000A0935F03B093600381E0809383038091AE
:100D0000B60365E00E94AA19992331F45D9B02C0E5
:100D10005D9801C05D9A8BB1FF91EF91BF91AF914A
:100D20009F918F917F916F915F914F913F912F9103
:100D30000F900FBE0F901F90189552985A9AE9E69F
:100D4000F0E0808181608083E89A82E080935C0398
:100D500086E080935B0308951F920F920FB60F9267
:100D600011248F939F93EF93FF93E1E8F0E080814C
:100D7000887F8083EFE6F0E080818E7F80838FEF35
:100D80009FEF9093850080938400FF91EF919F9156
:100D90008F910F900FBE0F901F9018951F920F927A
:100DA0000FB60F9211242F933F934F935F938F931E
:100DB0009F93EF93FF934A9B5CC080918100887F53
:100DC0008093810080916F008E7F80936F002091CF
:100DD0008400309185003093900320938F0310920C
:100DE000850010928400809181008560809381004D
:100DF00080916F00816080936F0080915C038130EF
:100E0000A9F48091910390919203820F931F909384
:100E10008E0380938D03855F9C418F51934030F00A
:100E200084E080935B0382E080935C032D51364322
:100E30002F5A344008F0A9C180915A03883398F0A2
:100E400080918A03882379F08091560380937C03F4
:100E50008091570380937D0310927E0381E08093FD
:100E60007F038093800310928C0381E080935C0366
:100E70008CC180918100887F8093810080916F0078
:100E80008E7F80936F002091840030918500309395
:100E90009203209391031092850010928400809118
:100EA000810085608093810080916F0081608093D4
:100EB0006F0040915C03413009F067C1C901815264
:100EC0009540835F914038F4E0918C03F0E0E75463
:100ED000FC4F408312C0285732402B52314038F427
:100EE000E0918C03F0E0E754FC4F108206C085E0EF
:100EF00080935B0382E080935C0380915C0381308C
:100F000009F03EC180918C038A3308F439C1809185
:100F1000CB03809359032091CE03EFECF3E0922FA3
:100F20008191982743E0E53DF407D1F78081981738
:100F300081F59091D103990F990F990F8091D0036A
:100F4000880F880F892B822B4091CF03440F482BA9
:100F50002091D40330E0220F331F220F331F8091E2
:100F6000D30390E0880F991F282B392B8091D2034F
:100F700090E0282B392BC90153E0880F991F5A950F
:100F8000E1F7220F331F820F931F480F409357033F
:100F900005C082E080935B0380935C032091D603BD
:100FA000E7EDF3E0922F8191982753E0EC3DF507B0
:100FB000D1F78081981759F580915C03813039F51C
:100FC0009091D903990F990F990F8091D803880FA9
:100FD000880F892B822B4091D703440F482B809197
:100FE000DB0390E0880F991F2091DA0330E0822B19
:100FF000932B9C0153E0220F331F5A95E1F7880F82
:10100000991F280F391F420F4093560306C081E0F5
:1010100080935B0382E080935C032091DD03EEED1F
:10102000F3E0922F8191982783E0E33FF807D1F70F
:101030008081981709F09EC080915C03813009F08F
:1010400099C09091E003990F990F990F8091DF0358
:10105000880F880F892B822B4091DE03440F482B89
:101060008091E20390E0880F991F2091E10330E026
:10107000822B932B9C0153E0220F331F5A95E1F7EB
:10108000880F991F280F391F420F409354039091E6
:10109000E503990F990F8091E403880F892B9091B4
:1010A000E303892B809355039091E903990F990FDE
:1010B000990F8091E803880F880F892B9091E603A0
:1010C000892B2091E703220F282B8091EA033AE035
:1010D000839FC0011124280F209353032091F20312
:1010E00030E0E3E0220F331FEA95E1F78091F1034E
:1010F00090E0880F991F880F991F282B392B80911A
:10110000EF0390E0282B392B8091F00390E0880FBB
:10111000991F282B392BA90193E0440F551F9A954D
:10112000E1F7220F331F420F531F8091EE03880F08
:10113000880F880F9091ED03990F990F982B80914C
:10114000EB03982B8091EC03880F892B840F8093FD
:1011500052038BE380935A0310925B0382E08093E7
:101160005C0310925D0310925E0310925F03109275
:10117000600306C083E080935B0382E080935C039E
:1011800080918C038F5F80938C03FF91EF919F91EF
:101190008F915F914F913F912F910F900FBE0F90C4
:1011A0001F9018950F931F93DF93CF9300D0CDB767
:1011B000DEB78C010E945C199C0180709F70892BA6
:1011C00099F53A8329832D3041F480E091E00E9423
:1011D0008F19C80163E973E005C0233051F4C801D9
:1011E00063E071E00E943F1B1092930321E030E026
:1011F0001DC0822F0E947919E3E9F3E001900020DD
:10120000E9F73197E359F340B09770F49981892F4A
:1012100080528F3510F09D3039F483E993E0BE01A0
:101220006F5F7F4F0E942B1B20E030E0C9010F90C1
:101230000F90CF91DF911F910F910895BF92CF92A0
:10124000DF92EF92FF920F931F93CF93DF936C0186
:101250007B01B42EFC0101900020E9F73197E81BD7
:10126000F90B842F90E08E1B9F0B96958795082F86
:10127000FB01108210E006C0C70165E071E00E942A
:101280002B1B1F5F1B15C1F707FD1AC0C02FDD27E1
:10129000C7FDD095CE0DDF1D20E030E007C0F60180
:1012A000E20FF31F808189932F5F3F4FF60101907A
:1012B0000020E9F73197EC19FD092E173F0778F365
:1012C000DF91CF911F910F91FF90EF90DF90CF9022
:1012D000BF9008950F931F93182F092F262FE82FE3
:1012E000F92FDF010D900020E9F71197A81B80E18D
:1012F00090E08A1B910962E070E00E94B6196830A4
:1013000050F4223040F4862F622F0E946F18812FF4
:10131000902F0E9498181F910F9108951F920F927D
:101320000FB60F9211242F933F934F935F936F93B8
:101330007F938F939F93AF93BF93EF93FF934B99BB
:101340005BC080E090E06091BB020E94E91B81E0FD
:1013500090E06091BC020E94E91B80915A038823AF
:1013600049F182E090E0609156030E94E91B83E01E
:1013700090E0609157030E94E91B84E090E0609147
:1013800054030E94E91B85E090E0609153030E94A2
:10139000E91B86E090E0609152030E94E91B87E020
:1013A00090E0609155030E94E91B88E090E0609115
:1013B00059030FC082E090E06091BB020E94E91BDC
:1013C00083E090E06091BC020E94E91B84E090E021
:1013D0006FEF0E94E91B809170038823C1F00E9487
:1013E0007B188AE992E060E00E946A098AEA92E04A
:1013F00061E00E946A090BC083E390E00E944219F9
:1014000080917003882319F08CE00E94B218FF913C
:10141000EF91BF91AF919F918F917F916F915F916C
:101420004F913F912F910F900FBE0F901F901895E5
:10143000CF92DF92EF92FF921F93DF93CF9300D072
:1014400000D0CDB7DEB7182F7B01809109019091B4
:101450000A01A0910B01B0910C0189839A83AB839F
:10146000BC83812F90E06E010894C11CD11CB60191
:101470004AE050E00E948C1B1A3050F4C70167E02C
:1014800071E00E943F1BC701B6010E942B1B04C0E4
:10149000C701B6010E943F1B0F900F900F900F9055
:1014A000CF91DF911F91FF90EF90DF90CF90089543
:1014B0008330D1F0843028F4813071F0823080F4B0
:1014C00007C08530C9F0853098F0863001F51AC024
:1014D000CB016BE479E013C0CB016EE479E00FC07F
:1014E000CB016EE579E00BC0CB016EE679E007C079
:1014F000CB016DE779E003C0CB016EE879E00E9493
:101500001F1B0895CB016CE979E00E941F1B089511
:1015100080915C03882321F4CB0168EA79E00FC055
:10152000813021F4CB0165EB79E009C0823021F4F0
:10153000CB0164EC79E003C0CB0164ED79E00E945B
:101540001F1B0895CF92DF92EF92FF920F931F938C
:10155000DF93CF93CDB7DEB72A970FB6F894DEBFEF
:101560000FBECDBF7C016B0119821A821B821C82C7
:10157000FE01359686E0DF011D928A95E9F7FB01B1
:1015800083818430F1F0853038F4823081F083300B
:10159000A0F4813031F507C08630D9F08630A8F04C
:1015A0008730F9F41AC0C70162E079E003C0C701CF
:1015B00069E079E00E941F1B19C0C70162E179E070
:1015C000F9CFC7016BE179E0F5CFC70166E279E0B9
:1015D000F1CFC7016EE279E0EDCFC7016AEF78E0A5
:1015E000E9CFC7016DE071E00E943F1BC70165E0D4
:1015F00071E00E942B1BD60112968C918E010F5F19
:101600001F4FB8010E94180AC701B8010E942B1B86
:10161000C70161E171E00E942B1BF6018181B801D5
:101620000E94180AC701B8010E942B1BC70161E183
:1016300071E00E942B1BD6018C9190E0B8014AE02A
:1016400050E00E948C1BF60180818A3020F4C70193
:1016500063E171E003C0C70167E171E00E942B1BE9
:10166000C701B8010E942B1BC70165E071E00E9411
:101670002B1BD60114968C918E010F5F1F4FB80162
:101680000E94180AC701B8010E942B1BC7016AE11A
:1016900071E00E942B1BF6018581B8010E94180A97
:1016A000C701B8010E942B1BC70165E071E00E94D1
:1016B0002B1BD60117968C91882321F0C7016CE172
:1016C00071E003C0C70160E271E00E942B1B2A9603
:1016D0000FB6F894DEBF0FBECDBFCF91DF911F9143
:1016E0000F91FF90EF90DF90CF900895CF92DF920F
:1016F000EF92FF920F931F93DF93CF9300D00F923F
:10170000CDB7DEB76C017B018091250189831B82F7
:101710001A82FB0180818E010F5F1F4FB8010E946A
:10172000180AC601B8010E943F1BC6016AE171E0B8
:101730000E942B1BF7018181B8010E94180AC60183
:10174000B8010E942B1BC6016AE171E00E942B1BAD
:10175000F7018281B8010E94180AC601B8010E94EF
:101760002B1B8091BF02882329F4C60166E678E02E
:101770000E94141B0F900F900F90CF91DF911F913B
:101780000F91FF90EF90DF90CF900895DF92EF924E
:10179000FF920F931F93DF93CF9300D0CDB7DEB7A7
:1017A0008B016AE171E00E94261B009769F17E01BE
:1017B0000894E11CF11CB7014AE050E00E94DD19D9
:1017C000D62EE981FA8180818823F1F487E18D1595
:1017D000D8F080E090E06AE171E00E94261B00975B
:1017E00099F0B7014AE050E00E94DD19E981FA81E1
:1017F0008081882349F46C3338F4F801D082618306
:10180000128221E030E002C020E030E0C9010F90F8
:101810000F90CF91DF911F910F91FF90EF90DF908C
:1018200008950F931F93DF93CF9300D0CDB7DEB70A
:10183000F999FECF81E090E00E94E11B8093BC0209
:101840008C3340F480E090E00E94E11B8093BB0267
:10185000883120F01092BB021092BC028BE090E025
:101860000E94E11B882319F01092BF0203C081E09F
:101870008093BF0289E090E00E94E11B80938A037D
:101880008AE090E00E94E11B80938B038CE090E063
:101890000E94E11B809351038250873018F084E04E
:1018A00080935103789483E390E00E94421988E288
:1018B00091E00E948F198DE291E00E948F1985E3DB
:1018C00091E00E948F198CEF91E00E948F1985E0C2
:1018D00091E00E948F1982EF91E00E948F1980E0C1
:1018E00091E00E948F1988E291E00E948F198DE0AB
:1018F00092E00E948F198AB1806E8AB98AB1877E80
:101900008AB95C9A80916900846080936900E99A41
:1019100016BC85B5816085BD80916E008160809325
:101920006E0080918A03882311F00E949D064C9BD3
:1019300017C08CE00E94B21880E060E00E946F182F
:101940000E947B1881E0809370038CEF91E060E04F
:101950000E946A0982EF91E061E00E946A0908C072
:10196000109270038BB1817C8BB987B18E6387B97C
:101970008E010F5F1F4F4B9BFECF80918203882308
:10198000A1F480EC92E06BEB72E00E94760B83E1B5
:1019900092E06BE273E040E10E941E0980EC92E06D
:1019A0006CE373E040E10E941E0980918203813064
:1019B00031F580917F038823F9F081E292E06BE2B8
:1019C00073E040E10E941E09809186039091870395
:1019D0006AE173E04AE050E00E948C1B8AE193E0E8
:1019E00068E572E00E942B1B8AE193E06CE373E0F0
:1019F00040E10E941E0903C082E08093820380912F
:101A000082038230A9F482E392E06BE273E040E16A
:101A10000E941E0980918A03882319F082E592E0D2
:101A200002C082E692E06CE373E040E10E941E098E
:101A3000809182038330F1F483E492E06BE273E0FF
:101A400040E10E941E0980918A03882371F08091F1
:101A50005C0369E073E00E94880A89E093E06CE32C
:101A600073E040E10E941E0905C0809182038F5FF0
:101A700080938203809182038430E1F480918A0311
:101A80008823A9F08EE692E06BE273E040E10E94C9
:101A90001E0980915B036AE173E00E94580A8AE1A3
:101AA00093E06CE373E040E10E941E0903C085E00F
:101AB0008093820380918203853009F04EC080912B
:101AC0008A03882309F446C080915C03813009F0C1
:101AD00041C080918C038823E9F18C33D8F58EE7DF
:101AE00092E06BE273E040E10E941E098AE193E01C
:101AF0006AE371E00E943F1B80918C03815069E092
:101B000073E00E94180A8AE193E069E073E00E94A2
:101B10002B1B8AE193E06FE371E00E942B1BE091A5
:101B20008C03F0E0E854FC4F8081813029F48AE195
:101B300093E061E471E004C08AE193E067E071E062
:101B40000E942B1B8AE193E06CE373E040E10E946A
:101B50001E0903C086E08093820380918203863051
:101B600009F0CAC080918A03882309F4C2C0809119
:101B70005A03882309F4BDC08AE193E063E471E06D
:101B80000E943F1B8091560369E073E00E94180A8F
:101B90008AE193E069E073E00E942B1B8AE193E005
:101BA0006AE171E00E942B1B8091570369E073E0AA
:101BB0000E94180A8AE193E069E073E00E942B1BFF
:101BC0008AE193E065E071E00E942B1B809159034C
:101BD000882329F08AE193E06CE171E004C08AE196
:101BE00093E060E271E00E942B1B8AE193E06BE2DC
:101BF00073E040E10E941E0980915503843009F191
:101C0000853038F4823089F08330B0F4813069F562
:101C100007C0863001F18630C8F0873031F520C02A
:101C20008AE193E069E379E004C08AE193E06CE340
:101C300079E00E941F1B1FC08AE193E06FE379E007
:101C4000F8CF8AE193E062E479E0F3CF8AE193E0B0
:101C500065E479E0EECF8AE193E068E479E0E9CFEA
:101C60008AE193E066E379E0E4CF8AE193E06DE016
:101C700071E00E943F1B8AE193E06AE471E00E94F8
:101C80002B1B8091540369E073E00E94180A8AE1DB
:101C900093E069E073E00E942B1B8AE193E061E12D
:101CA00071E00E942B1B8091530369E073E00E9456
:101CB000180A8AE193E069E073E00E942B1B8AE135
:101CC00093E061E171E00E942B1B8091520369E077
:101CD00073E00E94180A8AE193E069E073E00E94D1
:101CE0002B1B8AE193E06CE373E040E10E941E0944
:101CF00003C087E080938203809182038730E9F4F8
:101D00008EE892E06BE273E040E10E941E09809150
:101D10008B03882329F08AE193E06DE377E004C028
:101D20008AE193E068E477E00E941F1B8AE193E078
:101D30006CE373E040E10E941E09809182038830C9
:101D400010F010928203809183038823A9F0809180
:101D50007003882389F080E060E00E946F188BE2B6
:101D600093E00E94981880E061E00E946F188CE375
:101D700093E00E9498186AC080918303882309F435
:101D800067C080917003882309F062C080918A0344
:101D9000882309F450C080915C03882369F0813066
:101DA00011F4419A0AC0823039F4419B02C0419833
:101DB00001C0419A88B101C0419890915B03892F7D
:101DC0008150823030F0943021F0953011F0913014
:101DD00019F4429A43980BC0992339F480915A031D
:101DE000882319F04298439A02C043984298809100
:101DF0005D0390915E03A0915F03B0916003813811
:101E000021E5920721E0A20720E0B20710F04498F4
:101E100016C081519E40A040B04080579344A140DD
:101E2000B04038F4449B02C0449801C0449A88B141
:101E300006C0449A04C041984498439842988091BF
:101E40007F03813011F4459A01C0459810928303B5
:101E500083EF92E060E10E94D208892B09F48BCDD8
:101E600083EF92E063E071E00E94361B009751F42B
:101E7000109281038EE491E00E948F191092F30278
:101E80000C94E61783EF92E067E571E00E94261B51
:101E9000BC0183E093E046E050E00E94561B80E0E6
:101EA00090E067E571E00E94261BBC01009779F085
:101EB0008CE394E04AE050E00E94561B83E093E0FC
:101EC00069E571E00E94361B009749F012C010923C
:101ED0003C0480918103882309F00DC788C48CE3FA
:101EE00094E06BEB72E00E94C60B892B09F47CC472
:101EF00016C083E093E06EE571E00E94361B009708
:101F000089F48CE394E06CE773E00E94C60B892BA4
:101F100009F46AC481E080937F03809380038EEE8E
:101F200097E0EEC483E093E063E671E00E94361B25
:101F3000009779F48CE394E06CE773E00E94C60BA1
:101F4000892B09F451C41092800381E080937F03B0
:101F5000E6CF83E093E068E671E00E94361B0097CD
:101F6000A9F58CE394E061E471E00E94361B0097D0
:101F700059F481E080938A0389E090E061E00E9457
:101F8000E91B0E949D06CBCF8CE394E067E071E0F3
:101F90000E94361B009709F027C410928A0389E03B
:101FA00090E060E00E94E91B809169008E7F809341
:101FB0006900E89880918100887F809381008091FA
:101FC0006F008E7F80936F005A9AA9CF83E093E0D1
:101FD0006DE671E00E94361B0097E1F48CE394E01B
:101FE00061E471E00E94361B009731F481E0809338
:101FF0008B038AE090E04BC08CE394E067E071E0F3
:102000000E94361B009709F0EFC310928B038AE001
:1020100090E04DC083E093E062E771E00E94361BE0
:10202000009709F58CE394E0B8014AE050E00E9483
:10203000DD199B01AC01E981FA818081882309F0D7
:10204000D3C3DA01C9010297A109B1090797A10514
:10205000B10508F0C9C320938503209351038CE098
:1020600090E0622F25C083E093E067E771E00E9473
:10207000361B009701F58CE394E061E471E00E9467
:10208000361B009731F41092BF028BE090E061E0C4
:102090000FC08CE394E067E071E00E94361B00976C
:1020A00009F0A2C381E08093BF028BE090E060E082
:1020B0000E94E91B34CF83E093E06CE771E00E945B
:1020C000361B009709F082C78CE394E062E871E068
:1020D0000E94361B0097A9F48AE193E06CEF71E04F
:1020E0000E943F1B8AE193E00E948F198AE193E0EE
:1020F0006FE473E00E943F1B8AE193E062EF71E0BE
:1021000064C38CE394E065E871E00E94361B00979D
:1021100089F58091BB0290E069E073E04AE050E00D
:102120000E948C1B8AE193E069E073E00E943F1BF0
:102130008AE193E06FE473E042E050E00E94461BC6
:102140008091BC0290E069E073E04AE050E00E94B8
:102150008C1B8AE193E069E073E00E942B1B8AE10B
:1021600093E06FE473E042E050E00E94461B8091F0
:10217000BD0220C38CE394E069E871E00E94361B45
:10218000009789F580917C0390E069E073E04AE074
:1021900050E00E948C1B8AE193E069E073E00E94AA
:1021A0003F1B8AE193E06FE473E042E050E00E945D
:1021B000461B80917D0390E069E073E04AE050E0C7
:1021C0000E948C1B8AE193E069E073E00E942B1B64
:1021D0008AE193E06FE473E042E050E00E94461B26
:1021E00080917E03E7C28CE394E06DE871E00E9489
:1021F000361B009709F022C18091520390E069E0FC
:1022000073E04AE050E00E948C1B8AE193E069E0B1
:1022100073E00E943F1B8AE193E06FE473E042E0C9
:1022200050E00E94461B8091530390E069E073E008
:102230004AE050E00E948C1B8AE193E069E073E081
:102240000E942B1B8AE193E06FE473E042E050E0D0
:102250000E94461B8AE193E00E948F1980915403EB
:1022600090E069E073E04AE050E00E948C1B8AE154
:1022700093E069E073E00E943F1B8AE193E06FE422
:1022800073E042E050E00E94461B8091550390E0CD
:1022900069E073E04AE050E00E948C1B8AE193E021
:1022A00069E073E00E942B1B8AE193E06FE473E026
:1022B00042E050E00E94461B8091560390E069E0A6
:1022C00073E04AE050E00E948C1B8AE193E069E0F1
:1022D00073E00E942B1B8AE193E06FE473E042E01D
:1022E00050E00E94461B8AE193E00E948F19809182
:1022F000570390E069E073E04AE050E00E948C1BD5
:102300008AE193E069E073E00E943F1B8AE193E079
:102310006FE473E042E050E00E94461B8091580356
:1023200090E069E073E04AE050E00E948C1B8AE193
:1023300093E069E073E00E942B1B8AE193E06FE475
:1023400073E042E050E00E94461B8091590390E008
:1023500069E073E04AE050E00E948C1B8AE193E060
:1023600069E073E00E942B1B8AE193E06FE473E065
:1023700042E050E00E94461B8AE193E00E948F19E0
:1023800080915A0390E069E073E04AE050E00E94D7
:102390008C1B8AE193E069E073E00E943F1B8AE1B5
:1023A00093E06FE473E042E050E00E94461B8091AE
:1023B0005B0390E069E073E04AE050E00E948C1B10
:1023C0008AE193E069E073E00E942B1B8AE193E0CD
:1023D0006FE473E042E050E00E94461B80915C0392
:1023E00090E069E073E04AE050E00E948C1B8AE1D3
:1023F00093E069E073E00E942B1B8AE193E06FE4B5
:1024000073E042E050E00E94461B8AE193E00E94A4
:102410008F1960915D0370915E0380915F039091CD
:10242000600349E053E02AE030E00E94AD1B8AE1FE
:1024300093E069E073E00E943F1BC9C18CE394E024
:1024400061E971E00E94361B009709F04BC0809152
:102450008C0390E069E073E04AE050E00E948C1B3E
:102460008AE193E069E073E00E943F1B8AE193E018
:102470006FE473E042E050E00E94461B8AE193E083
:102480000E948F191092850326C0F0E0E754FC4F9C
:10249000808190E069E073E04AE050E00E948C1B8C
:1024A0008AE193E069E073E00E943F1B809185031D
:1024B0008B3341F08AE193E06FE473E042E050E057
:1024C0000E94461B8AE193E00E948F198091850348
:1024D0008F5F80938503E0918503EC33B0F28DE448
:1024E00093E07FC18CE394E065E971E00E94361BC4
:1024F000009709F09FC086E090E00E94E11B90E009
:1025000069E073E04AE050E00E948C1B8AE193E0AE
:1025100069E073E00E943F1B8AE193E06FE473E09F
:1025200042E050E00E94461B85E090E00E94E11BE3
:1025300090E069E073E04AE050E00E948C1B8AE181
:1025400093E069E073E00E942B1B8AE193E06FE463
:1025500073E042E050E00E94461B84E090E00E945D
:10256000E11B90E069E073E04AE050E00E948C1BC0
:102570008AE193E069E073E00E942B1B8AE193E01B
:102580006FE473E042E050E00E94461B8AE193E072
:102590000E948F1987E090E00E94E11B90E069E0C3
:1025A00073E04AE050E00E948C1B8AE193E069E00E
:1025B00073E00E943F1B8AE193E06FE473E042E026
:1025C00050E00E94461B82E090E00E94E11B90E0F8
:1025D00069E073E04AE050E00E948C1B8AE193E0DE
:1025E00069E073E00E942B1B8AE193E06FE473E0E3
:1025F00042E050E00E94461B83E090E00E94E11B15
:1026000090E069E073E04AE050E00E948C1B8AE1B0
:1026100093E069E073E00E942B1B8AE193E06FE492
:1026200073E042E050E00E94461B88E090E00E9488
:10263000E11BC0C08CE394E069E971E00E94361BA5
:10264000009709F092C08091BF0290E069E073E0CA
:102650004AE050E00E948C1B8AE193E069E073E05D
:102660000E943F1B8AE193E06FE473E042E050E098
:102670000E94461B8091800390E069E073E04AE08D
:1026800050E00E948C1B8AE193E069E073E00E94B5
:102690002B1B8AE193E06FE473E042E050E00E947C
:1026A000461B80917F0390E069E073E04AE050E0D0
:1026B0000E948C1B8AE193E069E073E00E942B1B6F
:1026C0008AE193E06FE473E042E050E00E94461B31
:1026D0008AE193E00E948F1980918603909187038D
:1026E00069E073E04AE050E00E948C1B8AE193E0CD
:1026F00069E073E00E943F1B8AE193E06FE473E0BE
:1027000042E050E00E94461B80918A0390E069E01D
:1027100073E04AE050E00E948C1B8AE193E069E09C
:1027200073E00E942B1B8AE193E06FE473E042E0C8
:1027300050E00E94461B80918B0390E069E073E0BB
:102740004AE050E00E948C1B8AE193E069E073E06C
:102750000E942B1B8AE193E06FE473E042E050E0BB
:102760000E94461B8091510325C08CE394E06DE9E3
:1027700071E00E94361B0097B9F580E090E00E945E
:10278000E11B90E069E073E04AE050E00E948C1B9E
:102790008AE193E069E073E00E943F1B8AE193E0E5
:1027A0006FE473E042E050E00E94461B81E090E05D
:1027B0000E94E11B90E069E073E04AE050E00E9473
:1027C0008C1B8AE193E069E073E00E942B1B8AE195
:1027D00093E06DE473E042E050E00E94461B8AE122
:1027E00093E00E948F199BCB83EF97E089C083EF22
:1027F00092E061EA71E00E94361B009731F481E0BB
:102800008093810389E595E07BC083EF92E065EAE0
:1028100071E00E94361B0097D9F48DE291E00E948E
:102820008F198CEF91E00E948F1980E091E00E9457
:102830008F198EE293E00E949C1982EF91E00E9432
:102840008F1980E091E00E948F1988E690E058C0CF
:1028500083EF92E069EA71E00E94361B009751F421
:1028600080918A038823C1F482E0809381038BE7FF
:1028700095E046C083EF92E06DEA71E00E94361B5E
:10288000009769F480918A03882331F483E0809370
:10289000810381EA95E034C081EC95E031C083EF9B
:1028A00092E061EB71E00E94361B009789F484E0AE
:1028B0008093810382E596E00E949C1980918A03AF
:1028C000882319F08BE696E01BC084E896E018C0D8
:1028D00083EF92E065EB71E00E94361B009799F45C
:1028E00085E08093810384EE95E00E949C1980919D
:1028F000BF02882319F082EF95E002C08DE096E0D8
:102900000E949C1963C383EF92E069EB71E00E941F
:10291000361B009789F486E08093810388ED96E06A
:102920000E949C1980918B03882319F087EE96E012
:10293000E7CF82E197E0E4CF83EF92E06DEB71E0C7
:102940000E94361B009741F083EF92E062EC71E049
:102950000E94361B009719F48BEB90E0D1CF83EFE8
:1029600092E064EC71E00E94361B009731F487E03E
:102970008093810388E798E0C3CF83EF92E068EC0F
:1029800071E00E94361B009709F0A8C18DE291E02A
:102990000E948F198CEF91E00E948F1980E091E0E6
:1029A0000E948F198EE293E00E949C1982EF91E0C1
:1029B0000E948F1980E091E00E948F1980EC92E0D4
:1029C0006BEB72E00E94760B8CE493E00E949C1902
:1029D00080EC92E00E948F1985E793E00E949C1999
:1029E00080917F03882329F180EC92E06CE773E00B
:1029F0000E94760B84E398E00E949C1980EC92E0A0
:102A00000E948F19809186039091870369E073E09B
:102A10004AE050E00E948C1B85E091E00E948F19F3
:102A200089E093E00E948F1986E198E00E949C194A
:102A300004C08DEC91E00E948F198FED94E00E940C
:102A40009C1980918B03882319F08DE397E002C0D5
:102A500088E497E00E949C1986E094E00E949C190B
:102A600080918A03882309F484C083E294E00E9461
:102A70009C1980915403882359F081ED92E062E51E
:102A800073E00E94A20A81ED92E00E948F1904C0B7
:102A900080E396E00E949C198EE594E00E949C19C8
:102AA00080915B0369E073E00E94580A89E093E03B
:102AB0000E948F198BE894E00E949C1980915C031E
:102AC00069E073E00E94880A89E093E00E948F1910
:102AD00080915C03813029F580918C03882309F172
:102AE0008BEF97E00E949C1980918C0390E00197F6
:102AF00069E073E04AE050E00E948C1B89E093E0BB
:102B00000E948F19E0918C03F0E0E854FC4F808123
:102B1000813019F484ED91E002C087ED91E00E94CC
:102B20008F1980915D0390915E03A0915F03B09136
:102B300060038F5F9F4FAF4FBF4FF9F08FEA94E074
:102B40000E949C1960915D0370915E0380915F0308
:102B50009091600349E053E02AE030E00E94AD1B11
:102B600089E093E00E948F1980EF98E00E949C1901
:102B700004C082E692E00E948F1980E091E00E94FA
:102B80008F1983E090E00E94E11B8F3F09F459C048
:102B900083E993E00E949C1984E090E00E94E11B8D
:102BA0008F3F99F183E090E00E94E11B80936603E0
:102BB00082E090E00E94E11B8093650384E090E056
:102BC0000E94E11B8093630385E090E00E94E11B7B
:102BD0008093620386E090E00E94E11B8093610392
:102BE00088E090E00E94E11B8093680387E090E01A
:102BF0000E94E11B8093640381ED92E061E673E043
:102C00000E94A20A81ED92E016C083E090E00E944B
:102C1000E11B8093730382E090E00E94E11B8093AC
:102C200072031092740389E093E062E773E00E94FC
:102C3000760B89E093E00E948F1980E091E00E947A
:102C40008F1981E090E00E94E11B8F3F01F180EC41
:102C500093E00E949C1981E090E00E94E11B809328
:102C6000780380E090E00E94E11B8093770310924C
:102C7000790389E093E067E773E00E94760B89E0CF
:102C800093E00E948F1980E091E00E948F198BE001
:102C900095E00E949C1980917003882319F08EE6BC
:102CA00098E002C084E798E00E949C1980E091E0DF
:102CB0000E948F1980E395E00E949C198091510336
:102CC00090E069E073E04AE050E00E948C1B89E0EC
:102CD00093E00E948F198AED91E00AC081EE91E0A5
:102CE0000E948F1981E997E00E949C1988E291E087
:102CF0000E948F196BC1813081F483EF92E06BEBFE
:102D000072E00E94C60B892B09F43FC089EE91E066
:102D10000E948F1989EE97E051C18230D1F483EF80
:102D200092E06CE773E00E94C60B892B71F189EE8B
:102D300091E00E948F1989EE97E00E949C1988E229
:102D400091E00E948F191092800381E080937F03AD
:102D50003BC1833009F583EF92E06CE773E00E949A
:102D6000C60B892B91F089EE91E00E948F1989EEB4
:102D700097E00E949C1988E291E00E948F1981E0FF
:102D800080937F03809380031FC181EE91E00E94B6
:102D90008F198DEA97E012C1843009F057C083EF94
:102DA00092E067EB72E00E94361B009709F040C08A
:102DB00080918A038823B9F489EE91E00E948F19EB
:102DC0008EE996E00E949C1988E291E00E948F199A
:102DD00081E080938A0389E090E061E00E94E91B32
:102DE0000E949D06F1C089EE91E00E948F198BEB45
:102DF00096E00E949C1988E291E00E948F1910923F
:102E00008A0389E090E060E00E94E91B80916900FC
:102E10008E7F80936900E89880918100887F8093FD
:102E2000810080916F008E7F80936F005A9ACCC092
:102E300083EF92E069EB72E00E94361B009709F481
:102E4000C3C083E598E00E949C19BEC08530B1F5EF
:102E500083EF92E067EB72E00E94361B009739F532
:102E60008091BF02882391F48DE291E00E948F1936
:102E700086EC97E00E949C1988E291E00E948F19ED
:102E800081E08093BF028BE090E049C08DE291E049
:102E90000E948F1987ED97E00E949C1988E291E0CB
:102EA0000E948F191092BF028BE090E026C083EF42
:102EB00092E069EB72E00E94361B3BC08630E9F578
:102EC00083EF92E067EB72E00E94361B009759F5A2
:102ED00080918B03882399F489EE91E00E948F19E9
:102EE00083E597E00E949C1988E291E00E948F1987
:102EF00081E080938B038AE090E061E011C089EE6D
:102F000091E00E948F1982E797E00E949C1988E265
:102F100091E00E948F1910928B038AE090E060E0AC
:102F20000E94E91B51C083EF92E069EB72E00E94BE
:102F3000361B009709F448C03BC0873009F044C0F5
:102F400083EF92E0B8014AE050E00E94DD199B0156
:102F5000AC01E981FA818081882351F5DA01C90148
:102F60000297A109B1090797A105B10508F52093BA
:102F70008503209351038CE090E0622F0E94E91BAF
:102F800089EE91E00E948F1981EC98E00E949C19D3
:102F90008091510390E069E073E04AE050E00E94C4
:102FA0008C1B89E093E00E948F1980EE98E006C0A8
:102FB00081EE91E00E948F1983E598E00E949C19B0
:102FC00088E291E00E948F191092810383EF92E0D2
:102FD00061EF71E00E943F1B1092030310923C04CA
:102FE00080918103882311F00C94BB0C8DE092E05A
:102FF0000E948F190C94BB0C662311F0459A01C0F6
:10300000459844983A9A399A389A229A2A98409838
:103010004198429887FD2A9A86FD409A85FD419AFB
:1030200084FD429A439A00C043982A984098419858
:10303000429883FD2A9A82FD409A81FD419A80FD43
:10304000429A439A00C04398429A419A409A2A9AD7
:103050000895882311F0459A01C04598449A3A98FA
:10306000399838982298439A00C0329B02C080E178
:1030700001C080E031998062309980641A9980683B
:10308000439800C0439A00C03299816031998260B0
:10309000309984601A9988604398089580E00E946E
:1030A000291887FDFBCF84E090E00197F1F780E0DD
:1030B0000E94291808951F93182F0E944E18812FDF
:1030C00060E00E94FC171F9108951F93182F0E9423
:1030D0004E18812F61E00E94FC171F91089566230E
:1030E00011F4805801C080540E945B1808950E941A
:1030F0004E1890E0089581E00E945B18089582E0E8
:103100000E945B1808951F93182F0E944E181A30C2
:1031100049F4803410F080E001C080E480580E94BF
:103120005B1804C0812F61E00E94FC171F91089575
:10313000CF93DF93EC0102C00E948318899188230A
:10314000D9F7DF91CF910895CF93DF93EC0102C0BF
:103150000E948318FE01219684918823C9F7DF918C
:10316000CF9108951F93182F3A9A399A389A229A34
:103170003D9A3C9A3B9A80E09DE70197F1F7419A8E
:10318000429A439A00C0439880E097E20197F1F792
:10319000439A00C0439880E890E0FC013197F1F732
:1031A000439A00C04398FC013197F1F74298439A43
:1031B00000C043980197F1F788E20E945B1888E00D
:1031C0000E945B180E947B1886E00E945B18812F8A
:1031D0000E945B181F9108951F920F920FB60F92D5
:1031E00011242F938F939F93EF93FF939091C0009F
:1031F0002091C600E0913704EF5FEF7180913804B1
:10320000E81711F482E008C0892F8871E093370431
:10321000F0E0EB5EFB4F208380933904FF91EF9148
:103220009F918F912F910F900FBE0F901F90189527
:103230001F920F920FB60F9211248F939F93EF93CB
:10324000FF939091350480913604981769F0E091CE
:103250003604EF5FEF71E0933604F0E0EB50FC4F83
:1032600080818093C60005C08091C1008F7D8093CE
:10327000C100FF91EF919F918F910F900FBE0F9022
:103280001F9018959C0110923504109236041092EC
:1032900037041092380497FF04C082E08093C00086
:1032A0003F773093C5002093C40088E98093C10024
:1032B00086E08093C200089590913704809138048D
:1032C000981719F420E031E012C0E0913804EF5F64
:1032D000EF71E0933804F0E0EB5EFB4F308120911A
:1032E0003904922F80E0AC01430F511D9A01C901AE
:1032F0000895282F909135049F5F9F718091360427
:103300009817E1F3E92FF0E0EB50FC4F2083909306
:1033100035048091C10080628093C1000895CF93ED
:10332000DF93EC0103C021960E94791988818823DC
:10333000D1F7DF91CF910895CF93DF93EC0102C0D5
:103340000E947919FE01219684918823C9F7DF91A3
:10335000CF910895991B79E004C0991F961708F042
:10336000961B881F7A95C9F78095089597FB092EBB
:1033700007260AD077FD04D00CD006D000201AF41E
:10338000709561957F4F0895F6F7909581959F4FC1
:103390000895AA1BBB1B51E107C0AA1FBB1FA6179C
:1033A000B70710F0A61BB70B881F991F5A95A9F7EE
:1033B00080959095BC01CD0108952F923F925F9228
:1033C0006F927F928F929F92AF92BF92CF92DF9235
:1033D000EF92FF920F931F93CF93DF938C011B010A
:1033E000EA016115710519F0FB0191838083209733
:1033F00049F0CE010297839728F020E030E040E0CA
:1034000050E0F6C0F801A1908F018A2D90E00E9453
:103410000C1B892BB9F7FDE2AF1631F4F801A1902E
:103420008F015524539407C0FBE2AF1619F4F8013D
:10343000A1908F015524209719F0C031D105C1F416
:10344000F0E3AF1679F4F8018081883711F0883500
:1034500049F4F801A1800E5F1F4FF2E05F2AC0E13E
:10346000D0E006C0209721F480E3A816E9F427C035
:10347000C830D10531F1C930D10524F4C230D105AD
:1034800031F50CC0CA30D10589F0C031D105F9F44D
:10349000C12CD12CE12CB8E0FB2E28C0C12CD12CA2
:1034A000E12CA0E4FA2E22C0CAE0D0E0FCECCF2E42
:1034B000FCECDF2EFCECEF2EFCE0FF2E17C0C8E08A
:1034C000D0E0C12CD12CE12CE0E1FE2E0FC09E01FA
:1034D000442737FD4095542F60E070E080E090E88D
:1034E0000E94291CC901DA016C017D0120E030E055
:1034F00040E050E060E03E01882477FC8094982C06
:1035000070EDB72EBA0CE9E0EB1570F48A2D8154FA
:103510008A3118F499ECB92E06C08A2D81568A3169
:1035200050F589EAB82EBA0C8B2D90E08C179D07C8
:1035300014F56F3FE1F0C216D306E406F506B0F0CD
:10354000CA01B901A40193010E940A1C9B01AC01AC
:103550002B0D311D411D511D2130F0E03F07F0E0E2
:103560004F07F0E85F0710F461E001C06FEFF8016A
:10357000A1908F01C5CF2114310481F0662331F071
:1035800001501040F1011183008308C051FE1AC0A0
:1035900002501040F1011183008314C067FF12C074
:1035A00050FC05C02FEF3FEF4FEF5FE704C020E076
:1035B00030E040E050E882E290E09093470480934E
:1035C000460416C050FE08C0509540953095219590
:1035D0003F4F4F4F5F4F0CC057FF0AC082E290E051
:1035E00090934704809346042FEF3FEF4FEF5FE740
:1035F000B901CA01DF91CF911F910F91FF90EF9018
:10360000DF90CF90BF90AF909F908F907F906F9002
:103610005F903F902F9008959111E9C0803219F08A
:1036200089508550D0F70895FB01DC010D900020F2
:10363000E9F7119705900D920020E1F70895FB013D
:10364000DC0105900D920020E1F708954AE354E073
:103650000E94651B0895FB01DC010D900020E9F735
:10366000119701900D920020E1F70895FB01DC0114
:103670008D91019080190110D9F3990B0895FB01E8
:10368000DC0101900D920020E1F70895FB01DC01BF
:103690000D900020E9F711974150504028F001901B
:1036A00000200D92C9F708951C920895FB01DC01DA
:1036B0004150504048F001900D920020C9F701C0E0
:1036C0001D9241505040E0F70895FA01A191B08158
:1036D000009719F41097E1F0CD01DC01CD010D90B8
:1036E000002011F4C00113C0FB012191222319F025
:1036F0002015D9F7F3CFFB012191201519F41E9263
:10370000119606C02223C1F70D900020A1F7D00129
:10371000FA01A193B0830895FB019F01E894423020
:10372000C4F04532B4F44A3029F497FB1EF4909566
:1037300081959F4F642F77270E94C919805D8A3336
:103740000CF0895D8193CB010097A1F716F45DE23F
:1037500051931082C9010C94FA1BFA01CF93FF9385
:10376000EF93223044F1253234F5C22FE894CA3069
:1037700049F497FB3EF490958095709561957F4F45
:103780008F4F9F4F2C2F332744275527FF93EF93BD
:103790000E94291CEF91FF91605D6A330CF0695D16
:1037A0006193B901CA01605070408040904051F768
:1037B00016F4CDE2C19310828F919F91CF910C941A
:1037C000FA1BF999FECF92BD81BDF89A992780B571
:1037D0000895262FF999FECF1FBA92BD81BD20BD55
:1037E0000FB6F894FA9AF99A0FBE019608959927A0
:1037F00088270895DC01FC01672F71917723E1F799
:10380000329704C07C916D9370836291AE17BF07AD
:10381000C8F30895629FD001739FF001829FE00D6D
:10382000F11D649FE00DF11D929FF00D839FF00D3F
:10383000749FF00D659FF00D9927729FB00DE11DEB
:10384000F91F639FB00DE11DF91FBD01CF011124C8
:103850000895A1E21A2EAA1BBB1BFD010DC0AA1FD1
:10386000BB1FEE1FFF1FA217B307E407F50720F0E9
:10387000A21BB30BE40BF50B661F771F881F991F64
:103880001A9469F760957095809590959B01AC01AD
:0A389000BD01CF010895F894FFCFA9
:10389A000D0A00030020003000000000002D2D2D2D
:1038AA00002E00323030003230003A004D455A00C6
:1038BA004D45535A000000001B5B306D001B5B3303
:1038CA00373B316D001B5B324A004249543A003D96
:1038DA0000310044434637373A00202D2000535424
:1038EA0052472D430A0D003B005F736D74005F6100
:1038FA007374005F6E7374005F646366005F737352
:10390A006D005F737077005F707374005F7374612A
:10391A00740067760067737400676E7400676437B3
:10392A000067646100676C700067677300676C7397
:10393A0000736D740041545A006E7374006173749D
:10394A0000646366007073740073736D0068656C5D
:10395A0070003F007370770073746174006E6F7249
:10396A006D616C003D31003D300030306D730D0AE1
:10397A00001B5B33313B316D001B5B33323B316DD6
:10398A00000056312E303700000000005241204D11
:10399A00757474657275687200000000006D753A7E
:1039AA003E20004E6562656E7568727A6569743A82
:1039BA000053796E6368726F6E6973696572652EFA
:1039CA002E0044434637372053796E636D6F647512
:1039DA00733A004443463737205374617475733A17
:1039EA002000416B74697600204D696E7574656EAE
:1039FA002E006465616B746976696572740044436C
:103A0A00462041757377657274756E673A00444350
:103A1A0046373720456D7066616E67653A0053799F
:103A2A006E63204D6F6475733A005374726F6D76CE
:103A3A006572736F7267756E670061757367656625
:103A4A00616C6C656E21006A006E00000000000166
:103A5A002D2D3A2D2D3A2D2D0000000000000000DA
:103A6A00002D2D2D2D2D2D2D2D2D2D202D2D2E2DB5
:103A7A002D2E2D2D2D2D202D2D3A2D2D202D2D2D78
:103A8A002D000000000000000000000000000000FF
:103A9A00000000000000000000000000000000001C
:103AAA00000000000000000000000000000000000C
:103ABA0000000000000000000000000000000000FC
:103ACA0000000000000000000000000000000000EC
:103ADA00000000000000000000000000003B002C75
:103AEA0000040000000000000001000600FFFFFFC4
:103AFA00FF0000000000000001000600FFFFFFFFBA
:023B0A000100B8
:00000001FF
