:100000000C9420050C94FD060C94BD090C943D0540
:100010000C943D050C943D050C943D050C943D0558
:100020000C943D050C943D050C943D050C943D0548
:100030000C943D050C94DB060C943D050C943D0599
:100040000C9461050C943D050C946B190C94991952
:100050000C943D050C943D050C943D050C943D0518
:100060000C943D050C943D050D0A48696C666520AD
:100070006D6974201B5B33373B316D3F1B5B303B3D
:1000800033376D206F646572201B5B33373B316DF6
:1000900068656C701B5B303B33376D20756E642078
:1000A0006D69742072657475726E20616E73636819
:1000B0006C69657373656E2E0D0A00201B5B333708
:1000C0003B316D5665726675656762617265204B7E
:1000D0006F6D6D616E646F733A0D0A201B5B333771
:1000E0003B316D646366201B5B303B33376D2D3EC7
:1000F0002053796E6368726F6E69736174696F6E95
:10010000206D6974204443463737206A617C6E65F0
:10011000696E2E0D0A201B5B33373B316D736D7496
:10012000201B5B303B33376D2D3E204D757474655D
:100130007275687220617566205A65697420766FE1
:100140006E204E6562656E756872656E20737465AB
:100150006C6C656E2E0D0A201B5B33373B316D6E68
:100160007374201B5B303B33376D2D3E204E656230
:10017000656E756872656E20617566206578616B65
:1001800074206469657365205A65697420737465A9
:100190006C6C656E284E6963687420696D204443F9
:1001A000463737204D6F647573292E0D0A201B5B6F
:1001B00033373B316D617374201B5B303B33376DDC
:1001C0002D3E204E6562656E756872656E206175A4
:1001D00066206469657365205A6569742073746567
:1001E0006C6C656E2E205A656974206469652064A4
:1001F00061667565722062656EF674696774207752
:100200006972642C20776972642068696E7A7561FE
:1002100064646965727420284E6963687420696D2E
:10022000204443463737204D6F647573292E0D0ADD
:10023000201B5B33373B316D707374201B5B303B8D
:1002400033376D2D3E204D75747465722D20756E9B
:1002500064204E6562656E756872656E20616E68B9
:10026000616C74656E2E2853796E6368726F6E6967
:10027000736174696F6E2066756E6B74696F6E69F9
:1002800065727420776569746572292E0D0A201BCA
:100290005B33373B316D73736D201B5B303B333702
:1002A0006D2D3E2053796E636D6F6475732031320E
:1002B000682F323468207365747A656E2E0D0A20BB
:1002C0001B5B33373B316D737077201B5B303B33E7
:1002D000376D2D3E2041757367616E6773696D7070
:1002E000756C7377656974652061656E6465726E9F
:1002F000283230302D383030306D73292E0D0A20E1
:100300001B5B33373B316D73746174201B5B303B77
:1003100033376D2D3E20476573616D74737461745E
:10032000757320616E7A656967656E2E0D0A001B14
:100330005B33373B316D4669726D776172651B5B6C
:100340003231433A201B5B303B33376D001B5B334C
:10035000373B316D5A65697420617566204E656260
:10036000656E756872656E1B5B3130433A201B5BAE
:10037000303B33376D000D0A1B5B33373B316D5318
:1003800074617475731B5B3233433A201B5B303BE3
:1003900033376D001B5B33373B316D4C65747A74BA
:1003A0006572205370616E6E756E677361757366EA
:1003B000616C6C1B5B35433A201B5B303B33376D04
:1003C000001B5B33373B316D5A656974206175667C
:1003D000204E6562656E756872656E206265690D96
:1003E0000A6C65747A74656D205370616E6E756EFB
:1003F000677361757366616C6C1B5B35433A201BD8
:100400005B303B33376D000D0A1B5B33373B316D7F
:1004100044434637371B5B3234433A201B5B303B47
:1004200033376D00616B746976696572740D0A1BF0
:100430005B33373B316D4C65747A7465732044438C
:1004400046373720456D7066616E677364617475F9
:100450006D1B5B32433A201B5B303B33376D000D25
:100460000A1B5B33373B316D4443463737204C65BD
:10047000747A7465732045726765626E69731B5B7D
:1004800037433A201B5B303B33376D000D0A1B5B53
:1004900033373B316D4443463737205374617475AD
:1004A000731B5B3137433A201B5B303B33376D00A6
:1004B0000D0A1B5B33373B316D4443463737206CA5
:1004C00065747A746572204B6F6D706C65747465B9
:1004D0006D7066616E673A201B5B303B33376D0091
:1004E0000D0A1B5B33373B316D53796E6368726F56
:1004F0006E69736174696F6E736D6F6475731B5B86
:1005000038433A201B5B303B33376D001B5B33377E
:100510003B316D4C434420446973706C61792069B0
:1005200073741B5B3134433A201B5B303B33376DB4
:10053000001B5B33373B316D41757367616E6773C9
:10054000696D70756C7377656974651B5B313043D9
:100550003A201B5B303B33376D001B5B33373B313D
:100560006D41757367616E6773696D70756C7369E2
:100570006E74657276616C1B5B37433A201B5B308F
:100580003B33376D005A6569742061756620646578
:100590006E204E6562656E756872656E202878788B
:1005A0003A7878293A20005374656C6C65204E6562
:1005B00062656E756872656E206578616B74206126
:1005C0007566202878783A7878293A20005374653F
:1005D0006C6C65204E6562656E756872656E206133
:1005E0007566202878783A7878293A20004269742C
:1005F0007465204443463737207A756572737420DA
:100600006465616B746976696572656E210D0A00B7
:100610004E6562656E75687228656E2920006C6192
:100620007566656E2E20416E68616C74656E203F44
:1006300020286A7C6E293A200073696E6420616EFE
:10064000676568616C74656E2E20537461727465A1
:100650006E203F20286A7C6E293A20004E6F636826
:10066000206B65696E6520444346373720446174CA
:10067000656E20656D7066616E67656E2E00444321
:100680004620537963686E726F6E69737461696F27
:100690006E206973742000616E2E20417573736340
:1006A00068616C74656E3F20286A7C6E293A200070
:1006B0006175732E2045696E736368616C74656E35
:1006C0003F20286A7C6E293A200044434637372071
:1006D00053796E6368726F6E69736174696F6E20AF
:1006E00065696E2E0D0A0044434637372053796EF4
:1006F0006368726F6E69736174696F6E2061757380
:100700002E0D0A0053796E636D6F647573206973E3
:100710007420003234205374756E64656E2E20414F
:100720007566203132205374756E64656E20736572
:10073000747A656E3F20286A7C6E293A2000313237
:10074000205374756E64656E2E20417566203234B8
:10075000205374756E64656E207365747A656E3FA0
:1007600020286A7C6E293A20003234205374756E3A
:1007700064656E003132205374756E64656E0032AC
:100780003468205374756E64656E204D6F647573A4
:1007900020616B746976696572742E0D0A003132BE
:1007A00068205374756E64656E204D6F6475732098
:1007B000616B746976696572742E0D0A004B6F6DFA
:1007C0006D616E646F2065786973746965727420F9
:1007D0006E696368742E0D0A00556E6775656C74DA
:1007E00069676573205A656974666F726D61740D0F
:1007F0000A00556872206765737461727465742E9F
:100800000D0A0055687220616E676568616C7465D9
:100810006E2E0D0A006F6B0D0A004F4B0D0A00453E
:1008200052524F520D0A002C206765726164652098
:10083000656D7066616E67656E6573204269743AB6
:100840002000204D696E757465286E29207A752008
:1008500073796E6368726F6E6973696572656E0035
:1008600073796E6368726F6E697369657265204E25
:100870006562656E756872656E20617566200046FA
:10088000616C736368652045696E676162652E0DF2
:100890000A002D3E706175736500416B74697600C6
:1008A0004175730041757367616E6773696D70752B
:1008B0006C7377656974652061656E6465726E201E
:1008C00028696E203130306D732C206D6F65676C38
:1008D000696368652057657274653A20327C337CA1
:1008E000347C2E2E2E2E7C3830293A200041757310
:1008F00067616E6773696D70756C73776569746530
:100900002077757264652061756620202020203A6A
:100910000030306D732067657365747A742E0D0A2C
:100920000041757367616E6773696D70756C73658F
:10093000696E74657276616C20777572646520618A
:1009400075663A2000732067657365747A742E0D9E
:100950000A002053656B756E64656E00536F6E6E92
:10096000746167004D6F6E746167004469656E73F2
:10097000746167004D697474776F636800446F6ECB
:100980006E657273746167004672656974616700B1
:1009900053616D7374616700536F004D6F0044695C
:1009A000004D6900446F004672005361006F6B0098
:1009B0004552522D5061722E205374756E6465003D
:1009C0004552522D5061722E204D696E757465002E
:1009D0004552522D5061722E20446174756D004550
:1009E00052522D4461756572506572696F6465007D
:1009F0004552522D50756C736461756572004B657C
:100A0000696E2053746174757300496E697469610D
:100A10006C736965726500456D7066616E6765200F
:100A2000446174656E00576172746520617566205B
:100A3000446174656E00556E62656B616E6E740024
:100A400011241FBECFEFD4E0DEBFCDBF13E0A0E086
:100A5000B1E0E8E9F9E302C005900D92A038B107D2
:100A6000D9F714E0A0E8B3E001C01D92A635B107A4
:100A7000E1F70E94400C0C94CA1C0C940000FC018D
:100A8000662331F482818B3318F48F5F828308955B
:100A90001282818190915E0380FF03C0909397033F
:100AA00002C0909396038B3318F48F5F818308956F
:100AB00011828081873118F48F5F808308951082BE
:100AC00008951F920F920FB60F9211242F933F9308
:100AD0004F935F936F937F938F939F93AF93BF9346
:100AE000EF93FF938091C2039091C3032CE0843372
:100AF000920734F401969093C3038093C2033BC1E1
:100B00001092C3031092C20380919603882341F090
:100B10005F985E9A8091960381508093960301C0FE
:100B20005E9880919703882341F05E985F9A809148
:100B3000970381508093970301C05F988091C4030D
:100B4000893020F48F5F8093C40308C11092C403DE
:100B500080918E038823F1F080918C038B3320F4F5
:100B60008F5F80938C0316C010928C0380918B034F
:100B70008B3320F48F5F80938B030CC010928B0318
:100B800080918A03873120F48F5F80938A0302C0AB
:100B900010928A0380919903882319F19091C902D8
:100BA0008091C8022CE3829FA0011124490F511D9E
:100BB00090918B0380918A03829F90011124290FC9
:100BC000311D2417350714F420563A4FC901841BF0
:100BD000950B25E0833692070CF443C0805A95406C
:100BE00040C09091C9028091C8022CE3829FA0016D
:100BF0001124490F511D90918B0380918A03829F8C
:100C000090011124290F311D82E0413D580714F055
:100C1000405D524082E0213D380714F0205D3240B3
:100C20004217530774F440535D4FBA01621B730BB4
:100C3000405D52406E33710554F0C901841B950B21
:100C400010C0BA01621B730B6E3371052CF4882738
:100C50009927861B970B05C0C901841B950B8053F0
:100C60009D4F90939503809394034B9B42C080913A
:100C70008D03882379F180919403909195030097D7
:100C8000C1F018161906ACF58091C5039091C60302
:100C90001816190644F088EC92E061E00E943F05C6
:100CA00080915F0390E001979093C6038093C50302
:100CB00020C080918A038093C80280918B03809327
:100CC000C90280918C038093CA0210928D03109206
:100CD0008E030FC08091CC02882359F080915F036E
:100CE0008093C5031092C60388EC92E060E00E94F6
:100CF0003F0580919203882321F0815080939203D5
:100D000008C085E080939203809190038F5F809369
:100D1000900380916803882319F0815080936803C1
:100D200080916B0390916C03A0916D03B0916E0361
:100D30008F3F2FEF92072FEFA2072FEFB20759F047
:100D40000196A11DB11D80936B0390936C03A0933A
:100D50006D03B0936E0381E0809391038091C4038F
:100D600065E00E94291A992331F45D9B02C05D98C9
:100D700001C05D9A8BB1FF91EF91BF91AF919F91AF
:100D80008F917F916F915F914F913F912F910F9034
:100D90000FBE0F901F90189552985A9AE9E6F0E00E
:100DA000808181608083E89A82E080936A0386E094
:100DB0008093690308951F920F920FB60F9211242A
:100DC0008F939F93EF93FF93E1E8F0E08081887F1A
:100DD0008083EFE6F0E080818E7F80838FEF9FEF4E
:100DE0009093850080938400FF91EF919F918F9164
:100DF0000F900FBE0F901F9018951F920F920FB675
:100E00000F9211242F933F934F935F938F939F9350
:100E1000EF93FF934A9B5CC080918100887F809311
:100E2000810080916F008E7F80936F0020918400FD
:100E30003091850030939E0320939D03109285008E
:100E40001092840080918100856080938100809160
:100E50006F00816080936F0080916A038130A9F4F4
:100E600080919F039091A003820F931F90939C0306
:100E700080939B03855F9C418F51934030F084E0C9
:100E80008093690382E080936A032D5136432F5A81
:100E9000344008F0A9C180916803883398F08091AC
:100EA0009803882379F08091640380938A0380916A
:100EB000650380938B0310928C0381E080938D03F4
:100EC00080938E0310929A0381E080936A038CC111
:100ED00080918100887F8093810080916F008E7F58
:100EE00080936F0020918400309185003093A0039F
:100EF00020939F03109285001092840080918100BE
:100F000085608093810080916F00816080936F0085
:100F100040916A03413009F067C1C901815295408F
:100F2000835F914038F4E0919A03F0E0E953FC4F7D
:100F3000408312C0285732402B52314038F4E091A0
:100F40009A03F0E0E953FC4F108206C085E08093DD
:100F5000690382E080936A0380916A03813009F01B
:100F60003EC180919A038A3308F439C18091D90334
:100F7000809367032091DC03EDEDF3E0922F8191E4
:100F8000982743E0E33EF407D1F78081981781F575
:100F90009091DF03990F990F990F8091DE03880FCD
:100FA000880F892B822B4091DD03440F482B209121
:100FB000E20330E0220F331F220F331F8091E10341
:100FC00090E0880F991F282B392B8091E00390E047
:100FD000282B392BC90153E0880F991F5A95E1F747
:100FE000220F331F820F931F480F4093650305C0E4
:100FF00082E08093690380936A032091E403E5EE25
:10100000F3E0922F8191982753E0EA3EF507D1F75C
:101010008081981759F580916A03813039F5909154
:10102000E703990F990F990F8091E603880F880FB6
:10103000892B822B4091E503440F482B8091E903D3
:1010400090E0880F991F2091E80330E0822B932BCA
:101050009C0153E0220F331F5A95E1F7880F991F27
:10106000280F391F420F4093640306C081E080932C
:10107000690382E080936A032091EB03ECEEF3E0D6
:10108000922F8191982784E0E130F807D1F7808191
:10109000981709F09EC080916A03813009F099C0C9
:1010A0009091EE03990F990F990F8091ED03880F9E
:1010B000880F892B822B4091EC03440F482B8091A1
:1010C000F00390E0880F991F2091EF0330E0822B0E
:1010D000932B9C0153E0220F331F5A95E1F7880FA1
:1010E000991F280F391F420F409362039091F30319
:1010F000990F990F8091F203880F892B9091F1033A
:10110000892B809363039091F703990F990F990F9F
:101110008091F603880F880F892B9091F403892B17
:101120002091F503220F282B8091F8033AE0839F4A
:10113000C0011124280F209361032091000430E0A6
:10114000E3E0220F331FEA95E1F78091FF0390E07F
:10115000880F991F880F991F282B392B8091FD0329
:1011600090E0282B392B8091FE0390E0880F991F87
:10117000282B392BA90193E0440F551F9A95E1F7CD
:10118000220F331F420F531F8091FC03880F880FDB
:10119000880F9091FB03990F990F982B8091F90379
:1011A000982B8091FA03880F892B840F809360031A
:1011B0008BE3809368031092690382E080936A0353
:1011C00010926B0310926C0310926D0310926E03D9
:1011D00006C083E08093690382E080936A03809174
:1011E0009A038F5F80939A03FF91EF919F918F9164
:1011F0005F914F913F912F910F900FBE0F901F90D5
:1012000018950F931F93DF93CF9300D0CDB7DEB720
:101210008C010E94DD199C0180709B71892B99F5CE
:101220003A8329832D3041F480E091E00E940E1A28
:10123000C80161EA73E005C0233051F4C80163E0DE
:1012400071E00E94BE1B1092A10321E030E01DC09E
:10125000822F0E94F819E1EAF3E001900020E9F7FB
:101260003197E15AF340B09770F49981892F8052F9
:101270008F3510F09D3039F481EA93E0BE016F5F45
:101280007F4F0E94AA1B20E030E0C9010F900F9011
:10129000CF91DF911F910F910895BF92CF92DF926E
:1012A000EF92FF920F931F93CF93DF936C017B011B
:1012B000B42EFC0101900020E9F73197E81BF90BEF
:1012C000842F90E08E1B9F0B96958795082FFB012E
:1012D000108210E006C0C70165E071E00E94AA1B01
:1012E0001F5F1B15C1F707FD1AC0C02FDD27C7FD03
:1012F000D095CE0DDF1D20E030E007C0F601E20FF3
:10130000F31F808189932F5F3F4FF60101900020EA
:10131000E9F73197EC19FD092E173F0778F3DF91B4
:10132000CF911F910F91FF90EF90DF90CF90BF90E2
:1013300008950F931F93182F092F262FE82FF92FA9
:10134000DF010D900020E9F71197A81B80E190E0E4
:101350008A1B910962E070E00E94351A683050F4EF
:10136000223040F4862F622F0E94EE18812F902F9A
:101370000E9417191F910F9108951F920F920FB697
:101380000F9211242F933F934F935F936F937F930B
:101390008F939F93AF93BF93EF93FF934B995BC052
:1013A00080E090E06091C8020E94681C81E090E0BB
:1013B0006091C9020E94681C80916803882349F1EA
:1013C00082E090E0609164030E94681C83E090E0FA
:1013D000609165030E94681C84E090E06091620364
:1013E0000E94681C85E090E0609161030E94681C87
:1013F00086E090E0609160030E94681C87E090E0C6
:10140000609163030E94681C88E090E0609167032C
:101410000FC082E090E06091C8020E94681C83E0E7
:1014200090E06091C9020E94681C84E090E06FEF38
:101430000E94681C80917E038823C1F00E94FA18E4
:1014400087EA92E060E00E94990987EB92E061E010
:101450000E9499090BC083E390E00E94C319809118
:101460007E03882319F08CE00E943119FF91EF91DF
:10147000BF91AF919F918F917F916F915F914F91AC
:101480003F912F910F900FBE0F901F901895CF9204
:10149000DF92EF92FF921F93DF93CF9300D000D0A3
:1014A000CDB7DEB7182F7B018091090190910A0119
:1014B000A0910B01B0910C0189839A83AB83BC830B
:1014C000812F90E06E010894C11CD11CB6014AE046
:1014D00050E00E940B1C1A3050F4C70167E071E025
:1014E0000E94BE1BC701B6010E94AA1B04C0C7010F
:1014F000B6010E94BE1B0F900F900F900F90CF91DE
:10150000DF911F91FF90EF90DF90CF90089583308F
:10151000D1F0843028F4813071F0823080F407C03B
:101520008530C9F0853098F0863001F51AC0CB01BE
:101530006DEA79E013C0CB0160EB79E00FC0CB011D
:1015400060EC79E00BC0CB0160ED79E007C0CB0126
:101550006FED79E003C0CB0160EF79E00E949E1B44
:101560000895CB016EEF79E00E949E1B0895809153
:101570006A03882321F4CB016AE07AE00FC081304E
:1015800021F4CB0167E17AE009C0823021F4CB017C
:1015900066E27AE003C0CB0166E37AE00E949E1B1C
:1015A0000895CF92DF92EF92FF920F931F93DF93F4
:1015B000CF93CDB7DEB72A970FB6F894DEBF0FBE34
:1015C000CDBF7C016B0119821A821B821C82FE0135
:1015D000359686E0DF011D928A95E9F7FB0183814C
:1015E0008430F1F0853038F4823081F08330A0F41B
:1015F000813031F507C08630D9F08630A8F08730C9
:10160000F9F41AC0C70164E679E003C0C7016BE6CC
:1016100079E00E949E1B19C0C70164E779E0F9CF09
:10162000C7016DE779E0F5CFC70168E879E0F1CF50
:10163000C70160E979E0EDCFC7016CE579E0E9CF5A
:10164000C7016DE071E00E94BE1BC70165E071E05B
:101650000E94AA1BD60112968C918E010F5F1F4F1C
:10166000B8010E94470AC701B8010E94AA1BC7011E
:1016700061E171E00E94AA1BF6018181B8010E941C
:10168000470AC701B8010E94AA1BC70161E171E0C6
:101690000E94AA1BD6018C9190E0B8014AE050E06C
:1016A0000E940B1CF60180818A3020F4C70163E19F
:1016B00071E003C0C70167E171E00E94AA1BC70186
:1016C000B8010E94AA1BC70165E071E00E94AA1B35
:1016D000D60114968C918E010F5F1F4FB8010E94A6
:1016E000470AC701B8010E94AA1BC7016AE171E05D
:1016F0000E94AA1BF6018581B8010E94470AC70112
:10170000B8010E94AA1BC70165E071E00E94AA1BF4
:10171000D60117968C91882321F0C7016CE171E006
:1017200003C0C70160E271E00E94AA1B2A960FB6AF
:10173000F894DEBF0FBECDBFCF91DF911F910F9107
:10174000FF90EF90DF90CF900895CF92DF92EF92CD
:10175000FF920F931F93DF93CF9300D00F92CDB7DB
:10176000DEB76C017B018091250189831B821A827F
:10177000FB0180818E010F5F1F4FB8010E94470A55
:10178000C601B8010E94BE1BC6016AE171E00E9459
:10179000AA1BF7018181B8010E94470AC601B8015E
:1017A0000E94AA1BC6016AE171E00E94AA1BF70110
:1017B0008281B8010E94470AC601B8010E94AA1B93
:1017C0008091CC02882329F4C60162E978E00E9466
:1017D000931B0F900F900F90CF91DF911F910F915E
:1017E000FF90EF90DF90CF900895DF92EF92FF92FD
:1017F0000F931F93DF93CF9300D0CDB7DEB78B014C
:101800006AE171E00E94A51B009769F17E010894CE
:10181000E11CF11CB7014AE050E00E945C1AD62E90
:10182000E981FA8180818823F1F487E18D15D8F070
:1018300080E090E06AE171E00E94A51B009799F0BA
:10184000B7014AE050E00E945C1AE981FA81808188
:10185000882349F46C3338F4F801D0826183128212
:1018600021E030E002C020E030E0C9010F900F908D
:10187000CF91DF911F910F91FF90EF90DF9008952E
:10188000EF92FF920F931F93DF93CF9300D0CDB7CA
:10189000DEB7F999FECF81E090E00E94601C809352
:1018A000C9028C3340F480E090E00E94601C809379
:1018B000C802883120F01092C8021092C9028BE051
:1018C00090E00E94601C882319F01092CC0203C0A3
:1018D00081E08093CC0289E090E00E94601C8093BC
:1018E00098038AE090E00E94601C809399038CE04A
:1018F00090E00E94601C80935E0382508F3418F049
:1019000084E080935E0380915E0390E001966AE03C
:1019100070E00E94351A6F5F60935F03789483E3F1
:1019200090E00E94C31988E291E00E940E1A8DE2B5
:1019300091E00E940E1A85E391E00E940E1A89E060
:1019400092E00E940E1A85E091E00E940E1A88EF44
:1019500091E00E940E1A80E091E00E940E1A88E247
:1019600091E00E940E1A8AE192E00E940E1A8AB15A
:10197000806E8AB98AB1877E8AB95C9A8091690043
:10198000846080936900E99A16BC85B5816085BD45
:1019900080916E00816080936E008091980388230F
:1019A00011F00E94CC064C9B17C08CE00E943119AC
:1019B00080E060E00E94EE180E94FA1881E08093B7
:1019C0007E0389E092E060E00E94990988EF91E04F
:1019D00061E00E94990908C010927E0388B1817C61
:1019E00088B987B18E6387B97E010894E11CF11C28
:1019F0004B9BFECF809190038823A1F48DEC92E065
:101A000068EC72E00E94A50B80E292E068E373E06C
:101A100040E10E944D098DEC92E069E473E040E101
:101A20000E944D0980919003813031F580918D03A2
:101A30008823F9F08EE292E068E373E040E10E94CF
:101A40004D09809194039091950367E273E04AE019
:101A500050E00E940B1C87E293E065E672E00E9472
:101A6000AA1B87E293E069E473E040E10E944D091C
:101A700003C082E080939003809190038230A9F4A8
:101A80008FE392E068E373E040E10E944D098091AA
:101A90009803882319F08FE592E002C08FE692E068
:101AA00069E473E040E10E944D0980919003833026
:101AB000F1F480E592E068E373E040E10E944D09B3
:101AC00080919803882371F080916A0366E173E046
:101AD0000E94B70A86E193E069E473E040E10E9466
:101AE0004D0905C0809190038F5F80939003809192
:101AF00090038430E1F4809198038823A9F08BE768
:101B000092E068E373E040E10E944D09809169032F
:101B100067E273E00E94870A87E293E069E473E07A
:101B200040E10E944D0903C085E0809390038091BD
:101B30009003853009F04EC080919803882309F402
:101B400046C080916A03813009F041C080919A03B8
:101B50008823E9F18C33D8F58BE892E068E373E0F1
:101B600040E10E944D0987E293E06AE371E00E9440
:101B7000BE1B80919A03815066E173E00E94470A80
:101B800087E293E066E173E00E94AA1B87E293E09C
:101B90006FE371E00E94AA1BE0919A03F0E0EA5320
:101BA000FC4F8081813029F487E293E061E471E0A9
:101BB00004C087E293E067E071E00E94AA1B87E21D
:101BC00093E069E473E040E10E944D0903C086E0C0
:101BD0008093900380919003863009F0CAC0809171
:101BE0009803882309F4C2C080916803882309F40C
:101BF000BDC087E293E063E471E00E94BE1B809168
:101C0000640366E173E00E94470A87E293E066E1BD
:101C100073E00E94AA1B87E293E06AE171E00E94F0
:101C2000AA1B8091650366E173E00E94470A87E280
:101C300093E066E173E00E94AA1B87E293E065E00F
:101C400071E00E94AA1B80916703882329F087E234
:101C500093E06CE171E004C087E293E060E271E040
:101C60000E94AA1B87E293E068E373E040E10E94D0
:101C70004D0980916303843009F1853038F4823056
:101C800089F08330B0F4813069F507C0863001F106
:101C90008630C8F0873031F520C087E293E06BE9E9
:101CA00079E004C087E293E06EE979E00E949E1B30
:101CB0001FC087E293E061EA79E0F8CF87E293E022
:101CC00064EA79E0F3CF87E293E067EA79E0EECF68
:101CD00087E293E06AEA79E0E9CF87E293E068E996
:101CE00079E0E4CF87E293E06DE071E00E94BE1BF3
:101CF00087E293E06AE471E00E94AA1B809162038C
:101D000066E173E00E94470A87E293E066E173E0D0
:101D10000E94AA1B87E293E061E171E00E94AA1B86
:101D20008091610366E173E00E94470A87E293E0D5
:101D300066E173E00E94AA1B87E293E061E171E033
:101D40000E94AA1B8091600366E173E00E94470A2B
:101D500087E293E066E173E00E94AA1B87E293E0CA
:101D600069E473E040E10E944D0903C087E080937D
:101D70009003809190038730E9F48BE992E068E367
:101D800073E040E10E944D0980919903882329F076
:101D900087E293E069E677E004C087E293E064E7D6
:101DA00077E00E949E1B87E293E069E473E040E1E4
:101DB0000E944D0980919003883010F0109290039A
:101DC000809191038823A9F080917E03882389F074
:101DD00080E060E00E94EE1888E393E00E9417190B
:101DE00080E061E00E94EE1889E493E00E941719F8
:101DF0006AC080919103882309F467C080917E03B3
:101E0000882309F062C080919803882309F450C0A8
:101E100080916A03882369F0813011F4419A0AC0E5
:101E2000823039F4419B02C0419801C0419A88B187
:101E300001C0419890916903892F8150823030F020
:101E4000943021F0953011F0913019F4429A439872
:101E50000BC0992339F480916803882319F04298C4
:101E6000439A02C04398429880916B0390916C030F
:101E7000A0916D03B0916E03813821E5920721E0B6
:101E8000A20720E0B20710F0449816C081519E408E
:101E9000A040B04080579344A140B04038F4449BE8
:101EA00002C0449801C0449A88B106C0449A04C054
:101EB000419844984398429880918D03813011F461
:101EC000459A01C045981092910380E093E060E14B
:101ED0000E940109892B09F48BCD80E093E063E037
:101EE00071E00E94B51B009751F410928F038EE4AD
:101EF00091E00E940E1A109200030C94651880E085
:101F000093E067E571E00E94A51BBC0180E193E0CE
:101F100046E050E00E94D51B80E090E067E571E06C
:101F20000E94A51BBC01009779F08AE494E04AE086
:101F300050E00E94D51B80E193E069E571E00E94CA
:101F4000B51B009749F012C010924A0480918F038C
:101F5000882309F02DC793C48AE494E068EC72E00A
:101F60000E94F50B892B09F487C416C080E193E029
:101F70006EE571E00E94B51B009789F48AE494E055
:101F80006AE873E00E94F50B892B09F475C481E0BF
:101F900080938D0380938E038AE198E0F9C480E1F9
:101FA00093E063E671E00E94B51B009779F48AE440
:101FB00094E06AE873E00E94F50B892B09F45CC495
:101FC00010928E0381E080938D03E6CF80E193E051
:101FD00068E671E00E94B51B0097A9F58AE494E0D9
:101FE00061E471E00E94B51B009759F481E0809391
:101FF000980389E090E061E00E94681C0E94CC0692
:10200000CBCF8AE494E067E071E00E94B51B0097B3
:1020100009F032C41092980389E090E060E00E94D9
:10202000681C809169008E7F80936900E898809198
:102030008100887F8093810080916F008E7F8093E4
:102040006F005A9AA9CF80E193E06DE671E00E949B
:10205000B51B0097E1F48AE494E061E471E00E942A
:10206000B51B009731F481E0809399038AE090E0FA
:1020700056C08AE494E067E071E00E94B51B0097C7
:1020800009F0FAC3109299038AE090E058C080E109
:1020900093E062E771E00E94B51B009761F58AE466
:1020A00094E0B7014AE050E00E945C1A8B019C0169
:1020B000E981FA818081882309F0DEC3D901C80152
:1020C0000297A109B1098F349105A105B10508F066
:1020D000D3C30093930300935E03802F90E0019697
:1020E0006AE070E00E94351A6F5F60935F038CE0D6
:1020F00090E0602F25C080E193E067E771E00E94E7
:10210000B51B009701F58AE494E061E471E00E9458
:10211000B51B009731F41092CC028BE090E061E0A7
:102120000FC08AE494E067E071E00E94B51B00975D
:1021300009F0A2C381E08093CC028BE090E060E0E4
:102140000E94681C29CF80E193E06CE771E00E9457
:10215000B51B009709F0B9C78AE494E062E871E022
:102160000E94B51B0097A9F487E293E069E072E052
:102170000E94BE1B87E293E00E940E1A87E293E062
:102180006CE573E00E94BE1B87E293E068EF71E0AC
:1021900064C38AE494E065E871E00E94B51B00978F
:1021A00089F58091C80290E066E173E04AE050E072
:1021B0000E940B1C87E293E066E173E00E94BE1B65
:1021C00087E293E06CE573E042E050E00E94C51BBB
:1021D0008091C90290E066E173E04AE050E00E941D
:1021E0000B1C87E293E066E173E00E94AA1B87E282
:1021F00093E06CE573E042E050E00E94C51B8091E3
:10220000CA0220C38AE494E069E871E00E94B51B29
:10221000009789F580918A0390E066E173E04AE0D7
:1022200050E00E940B1C87E293E066E173E00E949D
:10223000BE1B87E293E06CE573E042E050E00E9451
:10224000C51B80918B0390E066E173E04AE050E0AB
:102250000E940B1C87E293E066E173E00E94AA1BD8
:1022600087E293E06CE573E042E050E00E94C51B1A
:1022700080918C03E7C28AE494E06DE871E00E94EB
:10228000B51B009709F022C18091600390E066E1E0
:1022900073E04AE050E00E940B1C87E293E066E1A5
:1022A00073E00E94BE1B87E293E06CE573E042E0BE
:1022B00050E00E94C51B8091610390E066E173E0ED
:1022C0004AE050E00E940B1C87E293E066E173E075
:1022D0000E94AA1B87E293E06CE573E042E050E0C5
:1022E0000E94C51B87E293E00E940E1A8091620350
:1022F00090E066E173E04AE050E00E940B1C87E248
:1023000093E066E173E00E94BE1B87E293E06CE518
:1023100073E042E050E00E94C51B8091630390E0AF
:1023200066E173E04AE050E00E940B1C87E293E014
:1023300066E173E00E94AA1B87E293E06CE573E01C
:1023400042E050E00E94C51B8091640390E066E18A
:1023500073E04AE050E00E940B1C87E293E066E1E4
:1023600073E00E94AA1B87E293E06CE573E042E011
:1023700050E00E94C51B87E293E00E940E1A8091F4
:10238000650390E066E173E04AE050E00E940B1CB8
:1023900087E293E066E173E00E94BE1B87E293E070
:1023A0006CE573E042E050E00E94C51B809166033B
:1023B00090E066E173E04AE050E00E940B1C87E287
:1023C00093E066E173E00E94AA1B87E293E06CE56C
:1023D00073E042E050E00E94C51B8091670390E0EB
:1023E00066E173E04AE050E00E940B1C87E293E054
:1023F00066E173E00E94AA1B87E293E06CE573E05C
:1024000042E050E00E94C51B87E293E00E940E1A52
:102410008091680390E066E173E04AE050E00E943A
:102420000B1C87E293E066E173E00E94BE1B87E22B
:1024300093E06CE573E042E050E00E94C51B8091A0
:10244000690390E066E173E04AE050E00E940B1CF3
:1024500087E293E066E173E00E94AA1B87E293E0C3
:102460006CE573E042E050E00E94C51B80916A0376
:1024700090E066E173E04AE050E00E940B1C87E2C6
:1024800093E066E173E00E94AA1B87E293E06CE5AB
:1024900073E042E050E00E94C51B87E293E00E9497
:1024A0000E1A60916B0370916C0380916D03909193
:1024B0006E0346E153E02AE030E00E942C1C87E2E4
:1024C00093E066E173E00E94BE1BC9C18AE494E018
:1024D00061E971E00E94B51B009709F04BC0809143
:1024E0009A0390E066E173E04AE050E00E940B1C22
:1024F00087E293E066E173E00E94BE1B87E293E00F
:102500006CE573E042E050E00E94C51B87E293E077
:102510000E940E1A1092930326C0F0E0E953FC4F7C
:10252000808190E066E173E04AE050E00E940B1C7D
:1025300087E293E066E173E00E94BE1B8091930303
:102540008B3341F087E293E06CE573E042E050E0CA
:102550000E94C51B87E293E00E940E1A80919303AC
:102560008F5F80939303E0919303EC33B0F28AE59D
:1025700093E07FC18AE494E065E971E00E94B51BB5
:10258000009709F09FC086E090E00E94601C90E0F8
:1025900066E173E04AE050E00E940B1C87E293E0A2
:1025A00066E173E00E94BE1B87E293E06CE573E096
:1025B00042E050E00E94C51B85E090E00E94601C54
:1025C00090E066E173E04AE050E00E940B1C87E275
:1025D00093E066E173E00E94AA1B87E293E06CE55A
:1025E00073E042E050E00E94C51B84E090E00E944E
:1025F000601C90E066E173E04AE050E00E940B1C32
:1026000087E293E066E173E00E94AA1B87E293E011
:102610006CE573E042E050E00E94C51B87E293E066
:102620000E940E1A87E090E00E94601C90E066E134
:1026300073E04AE050E00E940B1C87E293E066E101
:1026400073E00E94BE1B87E293E06CE573E042E01A
:1026500050E00E94C51B82E090E00E94601C90E068
:1026600066E173E04AE050E00E940B1C87E293E0D1
:1026700066E173E00E94AA1B87E293E06CE573E0D9
:1026800042E050E00E94C51B83E090E00E94601C85
:1026900090E066E173E04AE050E00E940B1C87E2A4
:1026A00093E066E173E00E94AA1B87E293E06CE589
:1026B00073E042E050E00E94C51B88E090E00E9479
:1026C000601CC0C08AE494E069E971E00E94B51B17
:1026D000009709F092C08091CC0290E066E173E02F
:1026E0004AE050E00E940B1C87E293E066E173E051
:1026F0000E94BE1B87E293E06CE573E042E050E08D
:102700000E94C51B80918E0390E066E173E04AE071
:1027100050E00E940B1C87E293E066E173E00E94A8
:10272000AA1B87E293E06CE573E042E050E00E9470
:10273000C51B80918D0390E066E173E04AE050E0B4
:102740000E940B1C87E293E066E173E00E94AA1BE3
:1027500087E293E06CE573E042E050E00E94C51B25
:1027600087E293E00E940E1A809194039091950362
:1027700066E173E04AE050E00E940B1C87E293E0C0
:1027800066E173E00E94BE1B87E293E06CE573E0B4
:1027900042E050E00E94C51B8091980390E066E102
:1027A00073E04AE050E00E940B1C87E293E066E190
:1027B00073E00E94AA1B87E293E06CE573E042E0BD
:1027C00050E00E94C51B8091990390E066E173E0A0
:1027D0004AE050E00E940B1C87E293E066E173E060
:1027E0000E94AA1B87E293E06CE573E042E050E0B0
:1027F0000E94C51B80915E0325C08AE494E06DE9C8
:1028000071E00E94B51B0097B9F580E090E00E944E
:10281000601C90E066E173E04AE050E00E940B1C0F
:1028200087E293E066E173E00E94BE1B87E293E0DB
:102830006CE573E042E050E00E94C51B81E090E04F
:102840000E94601C90E066E173E04AE050E00E9464
:102850000B1C87E293E066E173E00E94AA1B87E20B
:1028600093E06AE573E042E050E00E94C51B87E216
:1028700093E00E940E1A90CB8FE198E089C080E02F
:1028800093E061EA71E00E94B51B009731F481E0AA
:1028900080938F0385E895E07BC080E093E065EA54
:1028A00071E00E94B51B0097D9F48DE291E00E947F
:1028B0000E1A89E092E00E940E1A80E091E00E94D8
:1028C0000E1A8FE293E00E941B1A88EF91E00E949B
:1028D0000E1A80E091E00E940E1A88E690E058C03F
:1028E00080E093E069EA71E00E94B51B009751F423
:1028F000809198038823C1F482E080938F0387EA54
:1029000095E046C080E093E06DEA71E00E94B51B5F
:10291000009769F480919803882331F483E08093D1
:102920008F038DEC95E034C08DEE95E031C080E0F2
:1029300093E061EB71E00E94B51B009789F484E09D
:1029400080938F038EE796E00E941B1A8091980374
:10295000882319F087E996E01BC080EB96E018C049
:1029600080E093E065EB71E00E94B51B009799F45D
:1029700085E080938F0380E196E00E941B1A80918E
:10298000CC02882319F08EE196E002C089E396E03C
:102990000E941B1A9AC380E093E069EB71E00E94E9
:1029A000B51B009789F486E080938F0384E097E05D
:1029B0000E941B1A80919903882319F083E197E004
:1029C000E7CF8EE397E0E4CF80E093E06DEB71E03A
:1029D0000E94B51B009741F080E093E062EC71E04B
:1029E0000E94B51B009719F48BEB90E0D1CF80E0EB
:1029F00093E064EC71E00E94B51B009731F487E02E
:102A000080938F0384EA98E0C3CF80E093E068EC82
:102A100071E00E94B51B009709F0BDC18DE291E005
:102A20000E940E1A89E092E00E940E1A80E091E066
:102A30000E940E1A8FE293E00E941B1A88EF91E029
:102A40000E940E1A80E091E00E940E1A8DEC92E036
:102A500068EC72E00E94A50B8DE493E00E941B1AC3
:102A60008DEC92E00E940E1A86E793E00E941B1AFA
:102A700080918D03882329F18DEC92E06AE873E060
:102A80000E94A50B80E698E00E941B1A8DEC92E054
:102A90000E940E1A809194039091950366E173E071
:102AA0004AE050E00E940B1C85E091E00E940E1A63
:102AB00086E193E00E940E1A82E498E00E941B1ABD
:102AC00004C08DEC91E00E940E1A80EE94E00E940A
:102AD0001B1A80919903882319F089E697E002C0B8
:102AE00084E797E00E941B1A87E094E00E941B1A7B
:102AF00080919803882309F484C084E294E00E94C2
:102B00001B1A80916203882359F08EED92E060E6F3
:102B100073E00E94D10A8EED92E00E940E1A04C06A
:102B20008CE596E00E941B1A8FE594E00E941B1A28
:102B30008091690366E173E00E94870A86E193E071
:102B40000E940E1A8CE894E00E941B1A80916A037E
:102B500066E173E00E94B70A86E193E00E940E1AD4
:102B600080916A03813029F580919A03882309F1C5
:102B700087E298E00E941B1A80919A0390E00197E7
:102B800066E173E04AE050E00E940B1C86E193E0AE
:102B90000E940E1AE0919A03F0E0EA53FC4F808104
:102BA000813019F484ED91E002C087ED91E00E943C
:102BB0000E1A80916B0390916C03A0916D03B091FC
:102BC0006E038F5F9F4FAF4FBF4FF9F080EB94E0E4
:102BD0000E941B1A60916B0370916C0380916D03CE
:102BE00090916E0346E153E02AE030E00E942C1CF5
:102BF00086E193E00E940E1A82E599E00E941B1A7A
:102C000004C08FE692E00E940E1A80E091E00E94DC
:102C10000E1A83E090E00E94601C8F3F09F459C0B7
:102C200084E993E00E941B1A84E090E00E94601CFB
:102C30008F3F99F183E090E00E94601C80937403C1
:102C400082E090E00E94601C8093730384E090E037
:102C50000E94601C8093710385E090E00E94601CDC
:102C60008093700386E090E00E94601C80936F0365
:102C700088E090E00E94601C8093760387E090E0FB
:102C80000E94601C809372038EED92E06FE673E009
:102C90000E94D10A8EED92E016C083E090E00E947F
:102CA000601C8093810382E090E00E94601C80930E
:102CB00080031092820386E193E060E873E00E9453
:102CC000A50B86E193E00E940E1A80E091E00E943D
:102CD0000E1A81E090E00E94601C8F3F01F181ECB0
:102CE00093E00E941B1A81E090E00E94601C809398
:102CF000860380E090E00E94601C80938503109220
:102D0000870386E193E065E873E00E94A50B86E106
:102D100093E00E940E1A80E091E00E940E1A8CE06F
:102D200095E00E941B1A80917E03882319F08AE99E
:102D300098E002C080EA98E00E941B1A80E091E0CF
:102D40000E940E1A81E395E00E941B1A80915E0397
:102D500090E066E173E04AE050E00E940B1C86E1DF
:102D600093E00E940E1A8AED91E00E940E1A8AE505
:102D700095E00E941B1A80915F0390E066E173E08A
:102D80004AE050E00E940B1C86E193E00E940E1A7C
:102D900081EE91E00AC087EE91E00E940E1A8DEB61
:102DA00097E00E941B1A88E291E00E940E1A8DC1E2
:102DB000813081F480E093E068EC72E00E94F50BD2
:102DC000892B09F43FC08FEE91E00E940E1A85E135
:102DD00098E073C18230D1F480E093E06AE873E058
:102DE0000E94F50B892B71F18FEE91E00E940E1A73
:102DF00085E198E00E941B1A88E291E00E940E1A79
:102E000010928E0381E080938D035DC1833009F5BC
:102E100080E093E06AE873E00E94F50B892B91F063
:102E20008FEE91E00E940E1A85E198E00E941B1A35
:102E300088E291E00E940E1A81E080938D038093D6
:102E40008E0341C187EE91E00E940E1A89ED97E052
:102E500034C1843009F057C080E093E064EC72E044
:102E60000E94B51B009709F040C080919803882309
:102E7000B9F48FEE91E00E940E1A8AEC96E00E945F
:102E80001B1A88E291E00E940E1A81E08093980359
:102E900089E090E061E00E94681C0E94CC0613C1AA
:102EA0008FEE91E00E940E1A87EE96E00E941B1AA8
:102EB00088E291E00E940E1A1092980389E090E057
:102EC00060E00E94681C809169008E7F8093690099
:102ED000E89880918100887F8093810080916F00C5
:102EE0008E7F80936F005A9AEEC080E093E066EC8C
:102EF00072E00E94B51B009709F4E5C08FE798E0E7
:102F00000E941B1AE0C08530B1F580E093E064ECCC
:102F100072E00E94B51B009739F58091CC0288239E
:102F200091F48DE291E00E940E1A82EF97E00E94E8
:102F30001B1A88E291E00E940E1A81E08093CC0275
:102F40008BE090E049C08DE291E00E940E1A83E090
:102F500098E00E941B1A88E291E00E940E1A1092DB
:102F6000CC028BE090E026C080E093E066EC72E05B
:102F70000E94B51B3BC08630E9F580E093E064EC2D
:102F800072E00E94B51B009759F580919903882340
:102F900099F48FEE91E00E940E1A8FE797E00E945D
:102FA0001B1A88E291E00E940E1A81E08093990337
:102FB0008AE090E061E011C08FEE91E00E940E1A6D
:102FC0008EE997E00E941B1A88E291E00E940E1A97
:102FD000109299038AE090E060E00E94681C73C040
:102FE00080E093E066EC72E00E94B51B009709F464
:102FF0006AC05DC0873009F066C080E093E0B70129
:103000004AE050E00E945C1A8B019C01E981FA8140
:103010008081882309F04BC0D901C8010297A1091A
:10302000B1098F349105A105B10508F040C00093A6
:10303000930300935E03802F90E001966AE070E0B6
:103040000E94351A6F5F60935F038CE090E0602F01
:103050000E94681C8FEE91E00E940E1A8DEE98E09F
:103060000E941B1A80915E0390E066E173E04AE0E3
:1030700050E00E940B1C86E193E00E940E1A81E151
:1030800099E00E941B1A81E299E00E941B1A80912C
:103090005F0390E066E173E04AE050E00E940B1CA1
:1030A00086E193E00E940E1A85E499E006C087EE5F
:1030B00091E00E940E1A8FE798E00E941B1A88E2A6
:1030C00091E00E940E1A10928F0380E093E067EF68
:1030D00071E00E94BE1B1092100310924A0480916E
:1030E0008F03882311F00C94F80C8AE192E00E947F
:1030F0000E1A0C94F80C662311F0459A01C04598FD
:1031000044983A9A399A389A229A2A98409841983B
:10311000429887FD2A9A86FD409A85FD419A84FD52
:10312000429A439A00C043982A98409841984298FE
:1031300083FD2A9A82FD409A81FD419A80FD429A40
:10314000439A00C04398429A419A409A2A9A089515
:10315000882311F0459A01C04598449A3A983998C5
:1031600038982298439A00C0329B02C080E101C087
:1031700080E031998062309980641A998068439820
:1031800000C0439A00C032998160319982603099C1
:1031900084601A9988604398089580E00E94A81876
:1031A00087FDFBCF84E090E00197F1F780E00E947B
:1031B000A81808951F93182F0E94CD18812F60E042
:1031C0000E947B181F9108951F93182F0E94CD18FD
:1031D000812F61E00E947B181F910895662311F4EE
:1031E000805801C080540E94DA1808950E94CD18BA
:1031F00090E0089581E00E94DA18089582E00E942C
:10320000DA1808951F93182F0E94CD181A3049F428
:10321000803410F080E001C080E480580E94DA1809
:1032200004C0812F61E00E947B181F910895CF9305
:10323000DF93EC0102C00E94021989918823D9F71B
:10324000DF91CF910895CF93DF93EC0102C00E94EC
:103250000219FE01219684918823C9F7DF91CF914D
:1032600008951F93182F3A9A399A389A229A3D9ABC
:103270003C9A3B9A80E09DE70197F1F7419A429A88
:10328000439A00C0439880E097E20197F1F7439A90
:1032900000C0439880E890E0FC013197F1F7439A31
:1032A00000C04398FC013197F1F74298439A00C05F
:1032B00043980197F1F788E20E94DA1888E00E94AB
:1032C000DA180E94FA1886E00E94DA18812F0E940C
:1032D000DA181F9108951F920F920FB60F921124C2
:1032E0002F938F939F93EF93FF939091C000209122
:1032F000C600E0914504EF5FEF7180914604E81746
:1033000011F492E007C09871E0934504F0E0ED5DA0
:10331000FB4F208380914704982B90934704FF91A3
:10332000EF919F918F912F910F900FBE0F901F9053
:1033300018951F920F920FB60F9211248F939F939F
:10334000EF93FF939091430480914404981769F0A0
:10335000E0914404EF5FEF71E0934404F0E0ED5F2F
:10336000FB4F80818093C60005C08091C1008F7D96
:103370008093C100FF91EF919F918F910F900FBEAD
:103380000F901F9018959C011092430410924404D2
:10339000109245041092460497FF04C082E0809387
:1033A000C0003F773093C5002093C40088E9809324
:1033B000C10086E08093C2000895909145048091F9
:1033C0004604981719F420E031E010C0E09146045B
:1033D000EF5FEF71E0934604F0E0ED5DFB4F80811D
:1033E0009091470410924704282F30E0C9010895B6
:1033F000282F909143049F5F9F71809144049817F8
:10340000E1F3E92FF0E0ED5FFB4F2083909343045D
:103410008091C10080628093C1000895CF93DF93B3
:10342000EC0103C021960E94F81988818823D1F706
:10343000DF91CF910895CF93DF93EC0102C00E94FA
:10344000F819FE01219684918823C9F7DF91CF9165
:103450000895991B79E004C0991F961708F0961BF0
:10346000881F7A95C9F78095089597FB092E07263E
:103470000AD077FD04D00CD006D000201AF4709545
:1034800061957F4F0895F6F7909581959F4F089528
:10349000AA1BBB1B51E107C0AA1FBB1FA617B7077A
:1034A00010F0A61BB70B881F991F5A95A9F7809596
:1034B0009095BC01CD0108952F923F925F926F923B
:1034C0007F928F929F92AF92BF92CF92DF92EF92B4
:1034D000FF920F931F93CF93DF938C011B01EA019F
:1034E0006115710519F0FB0191838083209749F0E4
:1034F000CE010297839728F020E030E040E050E0D2
:10350000F6C0F801A1908F018A2D90E00E948B1BDC
:10351000892BB9F7FDE2AF1631F4F801A1908F01C4
:103520005524539407C0FBE2AF1619F4F801A1909B
:103530008F015524209719F0C031D105C1F4F0E373
:10354000AF1679F4F8018081883711F0883549F495
:10355000F801A1800E5F1F4FF2E05F2AC0E1D0E0CA
:1035600006C0209721F480E3A816E9F427C0C830EC
:10357000D10531F1C930D10524F4C230D10531F57E
:103580000CC0CA30D10589F0C031D105F9F4C12C85
:10359000D12CE12CB8E0FB2E28C0C12CD12CE12C81
:1035A000A0E4FA2E22C0CAE0D0E0FCECCF2EFCEC66
:1035B000DF2EFCECEF2EFCE0FF2E17C0C8E0D0E0C1
:1035C000C12CD12CE12CE0E1FE2E0FC09E0144273E
:1035D00037FD4095542F60E070E080E090E80E9455
:1035E000A81CC901DA016C017D0120E030E040E057
:1035F00050E060E03E01882477FC8094982C70EDC8
:10360000B72EBA0CE9E0EB1570F48A2D81548A319B
:1036100018F499ECB92E06C08A2D81568A3150F5DE
:1036200089EAB82EBA0C8B2D90E08C179D0714F503
:103630006F3FE1F0C216D306E406F506B0F0CA010A
:10364000B901A40193010E94891C9B01AC012B0DBF
:10365000311D411D511D2130F0E03F07F0E04F07C3
:10366000F0E85F0710F461E001C06FEFF801A1908E
:103670008F01C5CF2114310481F0662331F0015050
:103680001040F1011183008308C051FE1AC002509E
:103690001040F1011183008314C067FF12C050FC79
:1036A00005C02FEF3FEF4FEF5FE704C020E030E0B1
:1036B00040E050E882E290E09093550480935404F7
:1036C00016C050FE08C050954095309521953F4F4B
:1036D0004F4F5F4F0CC057FF0AC082E290E09093BB
:1036E0005504809354042FEF3FEF4FEF5FE7B9018C
:1036F000CA01DF91CF911F910F91FF90EF90DF9062
:10370000CF90BF90AF909F908F907F906F905F9081
:103710003F902F9008959111E9C0803219F089509F
:103720008550D0F70895FB01DC010D900020E9F7EA
:10373000119705900D920020E1F70895FB01DC013F
:1037400005900D920020E1F7089548E454E00E94AE
:10375000E41B0895FB01DC010D900020E9F71197AF
:1037600001900D920020E1F70895FB01DC018D919D
:10377000019080190110D9F3990B0895FB01DC0128
:1037800001900D920020E1F70895FB01DC010D90FE
:103790000020E9F711974150504028F00190002097
:1037A0000D92C9F708951C920895FB01DC01415068
:1037B000504048F001900D920020C9F701C01D92C1
:1037C00041505040E0F70895FA01A191B08100976F
:1037D00019F41097E1F0CD01DC01CD010D9000202E
:1037E00011F4C00113C0FB012191222319F020150F
:1037F000D9F7F3CFFB012191201519F41E921196F0
:1038000006C02223C1F70D900020A1F7D001FA01D4
:10381000A193B0830895FB019F01E8944230C4F066
:103820004532B4F44A3029F497FB1EF49095819503
:103830009F4F642F77270E94481A805D8A330CF0CF
:10384000895D8193CB010097A1F716F45DE2519356
:103850001082C9010C94791CFA01CF93FF93EF9366
:10386000223044F1253234F5C22FE894CA3049F4AD
:1038700097FB3EF490958095709561957F4F8F4FA3
:103880009F4F2C2F332744275527FF93EF930E94F8
:10389000A81CEF91FF91605D6A330CF0695D619344
:1038A000B901CA01605070408040904051F716F451
:1038B000CDE2C19310828F919F91CF910C94791C8E
:1038C000F999FECF92BD81BDF89A992780B50895E8
:1038D000262FF999FECF1FBA92BD81BD20BD0FB62C
:1038E000F894FA9AF99A0FBE0196089599278827B5
:1038F0000895DC01FC01672F71917723E1F732977E
:1039000004C07C916D9370836291AE17BF07C8F3BA
:103910000895629FD001739FF001829FE00DF11D19
:10392000649FE00DF11D929FF00D839FF00D749F39
:10393000F00D659FF00D9927729FB00DE11DF91FE5
:10394000639FB00DE11DF91FBD01CF011124089542
:10395000A1E21A2EAA1BBB1BFD010DC0AA1FBB1F93
:10396000EE1FFF1FA217B307E407F50720F0A21B05
:10397000B30BE40BF50B661F771F881F991F1A9472
:1039800069F760957095809590959B01AC01BD019C
:08399000CF010895F894FFCF68
:103998000D0A00030020003000000000002D2D2D2E
:1039A800002E00323030003230003A004D455A00C7
:1039B8004D45535A000000001B5B306D001B5B3304
:1039C800373B316D001B5B324A004249543A003D97
:1039D80000310044434637373A00202D2000535425
:1039E80052472D430A0D003B005F736D74005F6101
:1039F8007374005F6E7374005F646366005F737353
:103A08006D005F737077005F707374005F7374612B
:103A1800740067760067737400676E7400676437B4
:103A28000067646100676C700067677300676C7398
:103A380000736D740041545A006E7374006173749E
:103A480000646366007073740073736D0068656C5E
:103A580070003F007370770073746174006E6F724A
:103A68006D616C003D31003D300030306D730D0AE2
:103A7800007365630D0A001B5B33313B316D001B1E
:103A88005B33323B316D000056312E3039575700C9
:103A98000000000000000000005241204D757474C1
:103AA800657275687200000000006D753A3E20006E
:103AB8004E6562656E7568727A6569743A00537905
:103AC8006E6368726F6E6973696572652E2E004445
:103AD800434637372053796E636D6F6475733A00C8
:103AE8004443463737205374617475733A20004154
:103AF8006B74697600204D696E7574656E2E00646E
:103B080065616B7469766965727400444346204147
:103B1800757377657274756E673A00444346373734
:103B280020456D7066616E67653A0053796E632053
:103B38004D6F6475733A005374726F6D7665727366
:103B48006F7267756E6700617573676566616C6C27
:103B5800656E21006A006E0000000000012D2D3AFC
:103B68002D2D3A2D2D0000000000000000002D2D05
:103B78002D2D2D2D2D2D2D2D202D2D2E2D2D2E2D78
:103B88002D2D2D202D2D3A2D2D202D2D2D2D0000C4
:103B9800000000000000000000000000000000001D
:103BA800000000000000000000000000000000000D
:103BB80000000000000000000000000000000000FD
:103BC80000000000000000000000000000000000ED
:103BD80000000000000000000000000000000000DD
:103BE800000000000000000000003B002C00040161
:103BF8000000000000000001000600FFFFFFFF00BA
:103C080000000000000001000600FFFFFFFF0100A8
:00000001FF
