:100000000C94D2040C945A060C9473080C94EF04CC
:100010000C94EF040C94EF040C94EF040C94EF0494
:100020000C94EF040C94EF040C94EF040C94EF0484
:100030000C94EF040C94EF040C94EF040C94EF0474
:100040000C9413050C94EF040C9423170C944F1785
:100050000C94EF040C94EF040C94EF040C94EF0454
:100060000C94EF040C94EF040D0A48696C6665204B
:100070006D6974201B5B33373B316D3F1B5B303B3D
:1000800033376D206F646572201B5B33373B316DF6
:1000900068656C701B5B303B33376D20756E642078
:1000A0006D69742072657475726E20616E73636819
:1000B0006C69657373656E2E0D0A00201B5B333708
:1000C0003B316D5665726675656762617265204B7E
:1000D0006F6D6D616E646F733A0D0A201B5B333771
:1000E0003B316D646366201B5B303B33376D2D3EC7
:1000F0002053796E6368726F6E69736174696F6E95
:10010000206D6974204443463737206A617C6E65F0
:10011000696E2E0D0A201B5B33373B316D736D7496
:10012000201B5B303B33376D2D3E204D757474655D
:100130007275687220617566205A65697420766FE1
:100140006E204E6562656E756872656E20737465AB
:100150006C6C656E2E0D0A201B5B33373B316D6E68
:100160007374201B5B303B33376D2D3E204E656230
:10017000656E756872656E20617566206578616B65
:1001800074206469657365205A65697420737465A9
:100190006C6C656E284E6963687420696D204443F9
:1001A000463737204D6F647573292E0D0A201B5B6F
:1001B00033373B316D617374201B5B303B33376DDC
:1001C0002D3E204E6562656E756872656E206175A4
:1001D00066206469657365205A6569742073746567
:1001E0006C6C656E2E205A656974206469652064A4
:1001F00061667565722062656EF674696774207752
:100200006972642C20776972642068696E7A7561FE
:1002100064646965727420284E6963687420696D2E
:10022000204443463737204D6F647573292E0D0ADD
:10023000201B5B33373B316D707374201B5B303B8D
:1002400033376D2D3E204D75747465722D20756E9B
:1002500064204E6562656E756872656E20616E68B9
:10026000616C74656E2E2853796E6368726F6E6967
:10027000736174696F6E2066756E6B74696F6E69F9
:1002800065727420776569746572292E0D0A201BCA
:100290005B33373B316D73736D201B5B303B333702
:1002A0006D2D3E2053796E636D6F6475732031320E
:1002B000682F323468207365747A656E2E0D0A20BB
:1002C0001B5B33373B316D737077201B5B303B33E7
:1002D000376D2D3E2041757367616E6773696D7070
:1002E000756C7377656974652061656E6465726E9F
:1002F000283230302D3830306D73292E0D0A201BF6
:100300005B33373B316D73746174201B5B303B335F
:10031000376D2D3E20476573616D7473746174751C
:100320007320616E7A656967656E2E0D0A001B5B2E
:1003300033373B316D4669726D776172651B5B3295
:1003400031433A201B5B303B33376D001B5B333747
:100350003B316D5A65697420617566204E65626532
:100360006E756872656E1B5B3130433A201B5B30E3
:100370003B33376D000D0A1B5B33373B316D5374D4
:10038000617475731B5B3233433A201B5B303B3324
:10039000376D001B5B33373B316D4C65747A746588
:1003A00072205370616E6E756E67736175736661EE
:1003B0006C6C1B5B35433A201B5B303B33376D0065
:1003C0001B5B33373B316D5A65697420617566205C
:1003D0004E6562656E756872656E206265690D0AAC
:1003E0006C65747A74656D205370616E6E756E679E
:1003F0007361757366616C6C1B5B35433A201B5BE4
:10040000303B33376D000D0A1B5B33373B316D4496
:10041000434637371B5B3234433A201B5B303B3358
:10042000376D00616B746976696572740D0A1B5BC8
:1004300033373B316D4C65747A74657320444346A1
:10044000373720456D7066616E6773646174756DD2
:100450001B5B32433A201B5B303B33376D000D0A88
:100460001B5B33373B316D4443463737204C657453
:100470007A7465732045726765626E69731B5B37BA
:10048000433A201B5B303B33376D000D0A1B5B3357
:10049000373B316D4443463737205374617475736D
:1004A0001B5B3137433A201B5B303B33376D000D0C
:1004B0000A1B5B33373B316D53796E6368726F6E25
:1004C00069736174696F6E736D6F6475731B5B38EC
:1004D000433A201B5B303B33376D001B5B33373BAC
:1004E000316D4C434420446973706C6179206973A9
:1004F000741B5B3134433A201B5B303B33376D0058
:100500001B5B33373B316D41757367616E67736990
:100510006D70756C7377656974651B5B3130433A38
:10052000201B5B303B33376D005A65697420617561
:10053000662064656E204E6562656E756872656ED4
:10054000202878783A7878293A20005374656C6CC2
:1005500065204E6562656E756872656E20657861AE
:100560006B7420617566202878783A7878293A206B
:10057000005374656C6C65204E6562656E756872BB
:10058000656E20617566202878783A7878293A2057
:10059000004269747465204443463737207A756594
:1005A000727374206465616B746976696572656ED7
:1005B000210D0A004E6562656E75687228656E29A8
:1005C00020006C617566656E2E20416E68616C74EA
:1005D000656E203F20286A7C6E293A200073696E80
:1005E0006420616E676568616C74656E2E2053745B
:1005F000617274656E203F20286A7C6E293A200063
:100600004E6F6368206B65696E65204443463737DB
:1006100020446174656E20656D7066616E67656EFD
:100620002E0044434620537963686E726F6E69737F
:100630007461696F6E206973742000616E2E2041B1
:100640007573736368616C74656E3F20286A7C6E95
:10065000293A20006175732E2045696E73636861C5
:100660006C74656E3F20286A7C6E293A20004443F2
:100670004637372053796E6368726F6E69736174A1
:10068000696F6E2065696E2E0D0A00444346373748
:100690002053796E6368726F6E69736174696F6EEF
:1006A000206175732E0D0A0053796E636D6F64754A
:1006B000732069737420003234205374756E64653E
:1006C0006E2E20417566203132205374756E64653C
:1006D0006E207365747A656E3F20286A7C6E293AB5
:1006E00020003132205374756E64656E2E20417582
:1006F00066203234205374756E64656E20736574A1
:100700007A656E3F20286A7C6E293A2000323420B8
:100710005374756E64656E003132205374756E6467
:10072000656E00323468205374756E64656E204DBA
:100730006F64757320616B746976696572742E0DD0
:100740000A00313268205374756E64656E204D6FF7
:1007500064757320616B746976696572742E0D0A15
:10076000004B6F6D6D616E646F206578697374699D
:10077000657274206E696368742E0D0A00556E6789
:1007800075656C7469676573205A656974666F7204
:100790006D61740D0A00556872206765737461722B
:1007A0007465742E0D0A0055687220616E67656865
:1007B000616C74656E2E0D0A006F6B0D0A004F4B55
:1007C0000D0A004552524F520D0A002C20676572E7
:1007D00061646520656D7066616E67656E65732026
:1007E0004269743A2000204D696E757465286E293F
:1007F000207A752073796E6368726F6E69736965AC
:1008000072656E0073796E6368726F6E6973696585
:100810007265204E6562656E756872656E206175E1
:1008200066200046616C736368652045696E676188
:1008300062652E0D0A002D3E706175736500416B77
:10084000746976004175730041757367616E6773F3
:10085000696D70756C7377656974652061656E6428
:1008600065726E2028696E203130306D732C206DDA
:100870006F65676C696368652057657274653A20B7
:10088000327C337C347C357C367C377C38293A208A
:100890000041757367616E6773696D70756C73770E
:1008A00065697465207775726465206175662000DE
:1008B00030306D732067657365747A742E0D0A008D
:1008C000536F6E6E746167004D6F6E7461670044A4
:1008D00069656E73746167004D697474776F6368DE
:1008E00000446F6E6E65727374616700467265696D
:1008F0007461670053616D7374616700536F004DDD
:100900006F004469004D6900446F004672005361F6
:10091000006F6B004552522D5061722E205374753A
:100920006E6465004552522D5061722E204D696EE5
:10093000757465004552522D5061722E20446174C9
:10094000756D004552522D4461756572506572692E
:100950006F6465004552522D50756C736461756506
:1009600072004B65696E2053746174757300496E33
:10097000697469616C736965726500456D70666163
:100980006E676520446174656E00576172746520FE
:1009900061756620446174656E00556E62656B61B9
:1009A0006E6E740011241FBECFEFD4E0DEBFCDBF4A
:1009B00013E0A0E0B1E0E0EAF4E302C005900D929C
:1009C000AC33B107D9F713E0ACE3B3E001C01D923B
:1009D000AF3EB107E1F70E94F60A0C944E1A0C9450
:1009E0000000FC01662331F482818B3318F48F5FA1
:1009F00082830895128281819091240380FF03C035
:100A00009093530302C0909352038B3318F48F5F7B
:100A10008183089511828081873118F48F5F8083EC
:100A20000895108208951F920F920FB60F9211240D
:100A30002F933F934F935F936F937F938F939F93E6
:100A4000AF93BF93EF93FF9380915D0390915E030B
:100A50002CE08433920734F4019690935E038093E4
:100A60005D0308C110925E0310925D0380915203F2
:100A7000882341F05F98289A809152038150809397
:100A8000520301C0289880915303882341F028988D
:100A90005F9A8091530381508093530301C05F9804
:100AA00020915F03822F65E00E94E117992331F4C2
:100AB0005D9B02C05D9801C05D9A8BB1293020F426
:100AC0002F5F20935F03D6C010925F0380914A038B
:100AD0008823F1F0809148038B3320F48F5F80935B
:100AE000480316C010924803809147038B3320F4CB
:100AF0008F5F809347030CC0109247038091460399
:100B0000873120F48F5F8093460302C01092460322
:100B100080915503882319F19091B1028091B00220
:100B20002CE3829FA0011124490F511D909147038E
:100B300080914603829F90011124290F311D2417B3
:100B4000350714F420563A4FC901841B950B25E054
:100B5000833692070CF443C0805A954040C0909170
:100B6000B1028091B0022CE3829FA0011124490FB1
:100B7000511D9091470380914603829F900111245B
:100B8000290F311D82E0413D580714F0405D52406D
:100B900082E0213D380714F0205D324042175307B0
:100BA00074F440535D4FBA01621B730B405D5240B9
:100BB0006E33710554F0C901841B950B10C0BA0146
:100BC000621B730B6E3371052CF488279927861BE3
:100BD000970B05C0C901841B950B80539D4F9093C3
:100BE0005103809350034B9B2BC080914903882372
:100BF000F1F08091500390915103009739F018164D
:100C00001906F4F480EB92E061E018C0809146038D
:100C10008093B002809147038093B1028091480392
:100C20008093B2021092490310924A0309C0809146
:100C3000B402882329F080EB92E060E00E94F10486
:100C400080914E03882321F0815080934E0308C089
:100C500085E080934E0380914C038F5F80934C031B
:100C600080912D03882319F0815080932D0381E01A
:100C700080934D03FF91EF91BF91AF919F918F9121
:100C80007F916F915F914F913F912F910F900FBE88
:100C90000F901F90189552985A98E9E6F0E08081DD
:100CA00081608083E89A82E080932F0386E08093BE
:100CB0002E0308951F920F920FB60F9211242F93B7
:100CC0003F934F935F938F939F93EF93FF934A9B31
:100CD00058C080918100887F8093810080916F004F
:100CE0008E7F80936F002091840030918500309337
:100CF0005A0320935903109285001092840080912A
:100D0000810085608093810080916F008160809375
:100D10006F0080912F038130A9F480915B03909143
:100D20005C03820F931F9093580380935703855F52
:100D30009C418F51934030F084E080932E0382E0F9
:100D400080932F032D5136432F5A344008F09AC117
:100D500080912D03883378F0809129038093460396
:100D600080912A03809347031092480381E0809387
:100D7000490380934A031092560381E080932F0326
:100D800081C180918100887F8093810080916F0074
:100D90008E7F80936F002091840030918500309386
:100DA0005C0320935B031092850010928400809175
:100DB000810085608093810080916F0081608093C5
:100DC0006F0040912F03413009F05CC1C90181528D
:100DD0009540835F914038F4E0915603F0E0E05A8B
:100DE000FC4F408312C0285732402B52314038F418
:100DF000E0915603F0E0E05AFC4F108206C085E017
:100E000080932E0382E080932F0380912F03813003
:100E100009F033C1809156038A3308F42EC18091C2
:100E2000720380932C0320917503E6E7F3E0922F81
:100E30008191982743E0EC37F407D1F78081981728
:100E400081F590917803990F990F990F809177030D
:100E5000880F880F892B822B40917603440F482BF3
:100E600020917B0330E0220F331F220F331F80912C
:100E70007A0390E0880F991F282B392B80917903F2
:100E800090E0282B392BC90153E0880F991F5A9500
:100E9000E1F7220F331F820F931F480F40932A035D
:100EA00005C082E080932E0380932F0320917D0361
:100EB000EEE7F3E0922F8191982753E0E338F507AE
:100EC000D1F78081981759F580912F03813039F53A
:100ED00090918003990F990F990F80917F03880F4C
:100EE000880F892B822B40917E03440F482B8091E1
:100EF000820390E0880F991F2091810330E0822BBC
:100F0000932B9C0153E0220F331F5A95E1F7880F72
:100F1000991F280F391F420F4093290306C081E013
:100F200080932E0382E080932F0320918403E5E8D1
:100F3000F3E0922F8191982783E0EA39F807D1F7FF
:100F40008081981709F093C080912F03813009F0B8
:100F50008EC090918703990F990F990F8091860306
:100F6000880F880F892B822B40918503440F482BD3
:100F70008091890390E0880F991F2091880330E0C9
:100F8000822B932B9C0153E0220F331F5A95E1F7DC
:100F9000880F991F280F391F420F40932703909104
:100FA0008C03990F990F80918B03880F892B909157
:100FB0008A03892B8093280390919003990F990FAE
:100FC000990F80918F03880F880F892B90918D0343
:100FD000892B20918E03220F282B809191033AE0D8
:100FE000839FC0011124280F209326032091990389
:100FF00030E0E3E0220F331FEA95E1F78091980398
:1010000090E0880F991F880F991F282B392B80910A
:10101000960390E0282B392B8091970390E0880F5E
:10102000991F282B392BA90193E0440F551F9A953E
:10103000E1F7220F331F420F531F80919503880F52
:10104000880F880F90919403990F990F982B809196
:101050009203982B80919303880F892B840F8093A0
:1010600025038BE380932D0310922E0303C083E0AE
:1010700080932E0382E080932F03809156038F5F2D
:1010800080935603FF91EF919F918F915F914F91C4
:101090003F912F910F900FBE0F901F9018950F93B7
:1010A0001F93182F092F262FE82FF92FDF010D90FE
:1010B0000020E9F71197A81B80E190E08A1B9109B5
:1010C00062E070E00E94ED17683050F4223040F486
:1010D000862F622F0E94A616812F902F0E94CF1676
:1010E0001F910F9108951F920F920FB60F92112426
:1010F0002F933F934F935F936F937F938F939F9320
:10110000AF93BF93EF93FF934B995BC080E090E068
:101110006091B0020E94EC1981E090E06091B10210
:101120000E94EC1980912D03882349F182E090E020
:10113000609129030E94EC1983E090E060912A03FA
:101140000E94EC1984E090E0609127030E94EC1962
:1011500085E090E0609126030E94EC1986E090E023
:10116000609125030E94EC1987E090E060912803CC
:101170000E94EC1988E090E060912C030FC082E09F
:1011800090E06091B0020E94EC1983E090E06091E1
:10119000B1020E94EC1984E090E06FEF0E94EC191C
:1011A00080913B038823C1F00E94B2168FE892E041
:1011B00060E00E944F088FE992E061E00E944F08D2
:1011C0000BC083E390E00E94791780913B03882352
:1011D00019F08CE00E94E916FF91EF91BF91AF9159
:1011E0009F918F917F916F915F914F913F912F913F
:1011F0000F900FBE0F901F901895CF92DF92EF9235
:10120000FF921F93DF93CF9300D000D0CDB7DEB70E
:10121000182F7B018091020190910301A09104019C
:10122000B091050189839A83AB83BC83812F90E0C1
:101230006E010894C11CD11CB6014AE050E00E9426
:10124000C3191A3050F4C70160E071E00E947619AA
:10125000C701B6010E94621904C0C701B6010E940D
:1012600076190F900F900F900F90CF91DF911F91F3
:10127000FF90EF90DF90CF9008958330D1F08430CD
:1012800028F4813071F0823080F407C08530C9F0D5
:10129000853098F0863001F51AC0CB0161E179E024
:1012A00013C0CB0164E179E00FC0CB0164E279E0C7
:1012B0000BC0CB0164E379E007C0CB0163E479E0C4
:1012C00003C0CB0164E579E00E9456190895CB0173
:1012D00062E679E00E945619089580912F038823D1
:1012E00021F4CB016EE679E00FC0813021F4CB010F
:1012F0006BE779E009C0823021F4CB016AE879E03C
:1013000003C0CB016AE979E00E9456190895CF9293
:10131000DF92EF92FF920F931F93DF93CF93CDB79E
:10132000DEB72A970FB6F894DEBF0FBECDBF7C01A3
:101330006B0119821A821B821C82FE01359686E09F
:10134000DF011D928A95E9F7FB0183818430F1F07A
:10135000853038F4823081F08330A0F4813031F56B
:1013600007C08630D9F08630A8F08730F9F41AC06B
:10137000C70168EC78E003C0C7016FEC78E00E9419
:10138000561919C0C70168ED78E0F9CFC70161EEC1
:1013900078E0F5CFC7016CEE78E0F1CFC70164EFDC
:1013A00078E0EDCFC70160EC78E0E9CFC70166E0F7
:1013B00071E00E947619C7016AE071E00E9462192B
:1013C000D60112968C918E010F5F1F4FB8010E94BB
:1013D000FD08C701B8010E946219C7016CE071E005
:1013E0000E946219F6018181B8010E94FD08C701BF
:1013F000B8010E946219C7016CE071E00E94621995
:10140000D6018C9190E0B8014AE050E00E94C319E7
:10141000F60180818A3020F4C7016EE071E003C0DC
:10142000C70162E171E00E946219C701B8010E9420
:101430006219C7016AE071E00E946219D601149630
:101440008C918E010F5F1F4FB8010E94FD08C701EC
:10145000B8010E946219C70165E171E00E9462193A
:10146000F6018581B8010E94FD08C701B8010E94FC
:101470006219C7016AE071E00E946219D6011796ED
:101480008C91882321F0C70167E171E003C0C70197
:101490006BE171E00E9462192A960FB6F894DEBFE4
:1014A0000FBECDBFCF91DF911F910F91FF90EF90B5
:1014B000DF90CF900895CF92DF92EF92FF920F933B
:1014C0001F93DF93CF9300D00F92CDB7DEB76C019F
:1014D0007B018091200189831B821A82FB0180811C
:1014E0008E010F5F1F4FB8010E94FD08C601B801B1
:1014F0000E947619C60165E171E00E946219F70148
:101500008181B8010E94FD08C601B8010E946219DC
:10151000C60165E171E00E946219F7018281B8019C
:101520000E94FD08C601B8010E9462198091B402B0
:10153000882329F4C60166E378E00E944B190F90D6
:101540000F900F90CF91DF911F910F91FF90EF902F
:10155000DF90CF900895DF92EF92FF920F931F9349
:10156000DF93CF9300D0CDB7DEB78B0165E171E09B
:101570000E945D19009769F17E010894E11CF11C3D
:10158000B7014AE050E00E941418D62EE981FA8192
:1015900080818823F1F487E18D15D8F080E090E018
:1015A00065E171E00E945D19009799F0B7014AE08A
:1015B00050E00E941418E981FA818081882349F45F
:1015C0006C3338F4F801D0826183128221E030E07C
:1015D00002C020E030E0C9010F900F90CF91DF9161
:1015E0001F910F91FF90EF90DF900895EF92FF927F
:1015F0000F931F93DF93CF9300D000D0CDB7DEB70A
:1016000081E090E00E94E4198093B1028C3340F4B1
:1016100080E090E00E94E4198093B002883120F0CD
:101620001092B0021092B1028BE090E00E94E41997
:10163000882319F01092B40203C081E08093B402B1
:1016400089E090E00E94E419809354038AE090E0DE
:101650000E94E419809355038CE090E00E94E41905
:10166000809324038250873018F084E08093240311
:10167000789483E390E00E94791783E291E00E94DE
:10168000C61788E291E00E94C61780E391E00E94AD
:10169000C61781EF91E00E94C6178AE091E00E9490
:1016A000C61787EE91E00E94C61785E391E00E947D
:1016B000C61783E291E00E94C61782E092E00E9482
:1016C000C617209A8AB1806A8AB98AB1877E8AB998
:1016D0005C9A80916900846080936900E99A16BCE5
:1016E00085B5816085BD80916E00816080936E00BC
:1016F00080915403882311F00E944B064C9B17C025
:101700008CE00E94E91680E060E00E94A6160E942C
:10171000B21681E080933B0381EF91E060E00E948C
:101720004F0887EE91E061E00E944F0802C01092DE
:101730003B03A8EEEA2EA2E0FA2E8E010D5F1F4FAA
:101740004B9BFECF80914D03882309F4E9C1809122
:101750003B03882309F4E4C180914C03882391F46E
:101760000E94B21685EB92E060EB72E00E945B0A89
:1017700088E092E060E00E944F0885EB92E061E033
:101780000E944F0880914C03813021F580914903DC
:101790008823E9F00E94B21686E192E060E00E94A0
:1017A0004F0880915003909151036FE073E04AE03D
:1017B00050E00E94C3198FE093E06DE472E00E9454
:1017C00062198FE093E061E00E944F0803C082E05D
:1017D00080934C0380914C038230C9F40E94B2166E
:1017E00087E292E060E00E944F08809154038823D2
:1017F00049F08FE093E067E472E00E9476198FE091
:1018000093E002C087E592E061E00E944F0880917A
:101810004C03833011F50E94B21688E392E060E039
:101820000E944F0880915403882391F080912F03E8
:101830006EEF72E00E946D098FE093E06EEF72E050
:101840000E9476198FE093E061E00E944F0805C086
:1018500080914C038F5F80934C0380914C038430C4
:10186000D1F480915403882399F00E94B21683E644
:1018700092E060E00E944F0880912E036FE073E0D9
:101880000E943D098FE093E061E00E944F0803C091
:1018900085E080934C0380914C03853009F04CC067
:1018A00080915403882309F444C080912F03813030
:1018B00009F03FC0809156038823D9F18C33C8F5D5
:1018C0000E94B21683E792E060E00E944F088FE02A
:1018D00093E068E371E00E9476198091560381508D
:1018E0006EEF72E00E94FD088FE093E06EEF72E011
:1018F0000E9462198FE093E06DE371E00E9462192B
:10190000E0915603F0E0E15AFC4F8081813029F4E8
:101910008FE093E06FE371E004C08FE093E060E05C
:1019200071E00E9462198FE093E061E00E944F082D
:1019300003C086E080934C0380914C03863009F00D
:10194000C8C080915403882309F4C0C080912D033E
:10195000882309F4BBC00E94B2168FE093E061E4D3
:1019600071E00E947619809129036EEF72E00E9467
:10197000FD088FE093E06EEF72E00E9462198FE045
:1019800093E065E171E00E94621980912A036EEF95
:1019900072E00E94FD088FE093E06EEF72E00E941B
:1019A00062198FE093E06AE071E00E946219809111
:1019B0002C03882329F08FE093E067E171E004C0F5
:1019C0008FE093E06BE171E00E9462198FE093E099
:1019D00060E00E944F0880912803843009F185302F
:1019E00038F4823089F08330B0F4813069F507C073
:1019F000863001F18630C8F0873031F520C08FE0A5
:101A000093E06FEF78E004C08FE093E062E079E06C
:101A10000E9456191FC08FE093E065E079E0F8CF8F
:101A20008FE093E068E079E0F3CF8FE093E06BE044
:101A300079E0EECF8FE093E06EE079E0E9CF8FE0E0
:101A400093E06CEF78E0E4CF8FE093E066E071E044
:101A50000E9476198FE093E068E471E00E946219B9
:101A6000809127036EEF72E00E94FD088FE093E003
:101A70006EEF72E00E9462198FE093E06CE071E01B
:101A80000E946219809126036EEF72E00E94FD08A9
:101A90008FE093E06EEF72E00E9462198FE093E0B6
:101AA0006CE071E00E946219809125036EEF72E094
:101AB0000E94FD088FE093E06EEF72E00E946219D1
:101AC0008FE093E061E00E944F0803C087E08093BD
:101AD0004C0380914C038730D9F40E94B21683E8FE
:101AE00092E060E00E944F0880915503882329F01E
:101AF0008FE093E06DE077E004C08FE093E068E171
:101B000077E00E9456198FE093E061E00E944F0851
:101B100080914C03883010F010924C0310924D03CA
:101B20000E9493179C019A83898380709F70892BF0
:101B300009F006CE822F0E94B01789819A818D30DC
:101B400029F48AE00E94B0170C941916833091058D
:101B500041F488EE92E06CE471E00E9476190C94F6
:101B60001916F70101900020E9F73197E85EF2407D
:101B70003F9708F0E5CD982F80528F3518F09D30B3
:101B800009F0DECD88EE92E0BE016F5F7F4F41E04D
:101B900050E00E947D19D4CD83EE93E04AE050E0FE
:101BA0000E948D1988EF92E06DE471E00E946D193A
:101BB000009749F012C01092E30380914B038823F1
:101BC00009F0B5C659C483EE93E060EB72E00E9461
:101BD000AB0A892B09F44DC42BC088EF92E062E573
:101BE00071E00E946D19009779F483EE93E066E44A
:101BF00073E00E94AB0A892B09F43BC481E0809317
:101C0000490380934A0314C088EF92E067E571E0CE
:101C10000E946D19009779F483EE93E066E473E017
:101C20000E94AB0A892B09F424C481E08093490304
:101C30008EEB97E02EC488EF92E06CE571E00E9495
:101C40006D190097A9F583EE93E06FE371E00E94B0
:101C50006D19009759F481E08093540389E090E076
:101C600061E00E94EC190E944B06E2CF83EE93E004
:101C700060E071E00E946D19009709F0FAC31092BC
:101C8000540389E090E060E00E94EC1980916900C3
:101C90008E7F80936900E89880918100887F80938F
:101CA000810080916F008E7F80936F005A9AC0CF21
:101CB00088EF92E061E671E00E946D190097E1F40F
:101CC00083EE93E06FE371E00E946D19009731F4A9
:101CD00081E0809355038AE090E04BC083EE93E06F
:101CE00060E071E00E946D19009709F0C2C3109284
:101CF00055038AE090E04DC088EF92E066E671E01F
:101D00000E946D19009709F583EE93E0B8014AE04F
:101D100050E00E9414189B01AC01EB81FC81808192
:101D2000882309F0A6C3DA01C9010297A109B10904
:101D30000797A105B10508F09CC320934F0320939A
:101D400024038CE090E0622F25C088EF92E06BE6E0
:101D500071E00E946D19009701F583EE93E06FE347
:101D600071E00E946D19009731F41092B4028BE07B
:101D700090E061E00FC083EE93E060E071E00E94CC
:101D80006D19009709F075C381E08093B4028BE070
:101D900090E060E00E94EC194BCF88EF92E060E7A2
:101DA00071E00E946D19009709F02DC783EE93E052
:101DB00066E771E00E946D190097A9F48FE093E047
:101DC00061EF71E00E9476198FE093E00E94C617E0
:101DD0008FE093E062E273E00E9476198FE093E077
:101DE00067EE71E037C383EE93E069E771E00E942C
:101DF0006D19009789F58091B00290E06EEF72E066
:101E00004AE050E00E94C3198FE093E06EEF72E069
:101E10000E9476198FE093E062E273E042E050E0C6
:101E20000E947D198091B10290E06EEF72E04AE06D
:101E300050E00E94C3198FE093E06EEF72E00E94C1
:101E400062198FE093E062E273E042E050E00E94AA
:101E50007D198091B202F3C283EE93E06DE771E0E9
:101E60000E946D19009789F58091460390E06EEF0E
:101E700072E04AE050E00E94C3198FE093E06EEFF9
:101E800072E00E9476198FE093E062E273E042E034
:101E900050E00E947D198091470390E06EEF72E060
:101EA0004AE050E00E94C3198FE093E06EEF72E0C9
:101EB0000E9462198FE093E062E273E042E050E03A
:101EC0000E947D1980914803BAC283EE93E061E8D5
:101ED00071E00E946D19009709F0F5C0809125030B
:101EE00090E06EEF72E04AE050E00E94C3198FE08C
:101EF00093E06EEF72E00E9476198FE093E062E269
:101F000073E042E050E00E947D198091260390E04A
:101F10006EEF72E04AE050E00E94C3198FE093E058
:101F20006EEF72E00E9462198FE093E062E273E06C
:101F300042E050E00E947D198FE093E00E94C617B6
:101F40008091270390E06EEF72E04AE050E00E943B
:101F5000C3198FE093E06EEF72E00E9476198FE074
:101F600093E062E273E042E050E00E947D198091CC
:101F7000280390E06EEF72E04AE050E00E94C3193F
:101F80008FE093E06EEF72E00E9462198FE093E0C1
:101F900062E273E042E050E00E947D1980912903E3
:101FA00090E06EEF72E04AE050E00E94C3198FE0CB
:101FB00093E06EEF72E00E9462198FE093E062E2BC
:101FC00073E042E050E00E947D198FE093E00E94B0
:101FD000C61780912A0390E06EEF72E04AE050E06D
:101FE0000E94C3198FE093E06EEF72E00E947619B1
:101FF0008FE093E062E273E042E050E00E947D19DE
:1020000080912B0390E06EEF72E04AE050E00E9476
:10201000C3198FE093E06EEF72E00E9462198FE0C7
:1020200093E062E273E042E050E00E947D1980910B
:102030002C0390E06EEF72E04AE050E00E94C3197A
:102040008FE093E06EEF72E00E9462198FE093E000
:1020500062E273E042E050E00E947D198FE093E07D
:102060000E94C61780912D0390E06EEF72E04AE067
:1020700050E00E94C3198FE093E06EEF72E00E947F
:1020800076198FE093E062E273E042E050E00E9454
:102090007D1980912E0390E06EEF72E04AE050E0EF
:1020A0000E94C3198FE093E06EEF72E00E94621904
:1020B0008FE093E062E273E042E050E00E947D191D
:1020C00080912F03BCC183EE93E065E871E00E942C
:1020D0006D19009709F04BC08091560390E06EEFA8
:1020E00072E04AE050E00E94C3198FE093E06EEF87
:1020F00072E00E9476198FE093E062E273E042E0C2
:1021000050E00E947D198FE093E00E94C617109264
:102110004F0326C0F0E0E05AFC4F808190E06EEF64
:1021200072E04AE050E00E94C3198FE093E06EEF46
:1021300072E00E94761980914F038B3341F08FE05B
:1021400093E062E273E042E050E00E947D198FE08C
:1021500093E00E94C61780914F038F5F80934F03D7
:10216000E0914F03EC33B0F280E293E07FC183EE65
:1021700093E069E871E00E946D19009709F09FC033
:1021800086E090E00E94E41990E06EEF72E04AE091
:1021900050E00E94C3198FE093E06EEF72E00E945E
:1021A00076198FE093E062E273E042E050E00E9433
:1021B0007D1985E090E00E94E41990E06EEF72E0F6
:1021C0004AE050E00E94C3198FE093E06EEF72E0A6
:1021D0000E9462198FE093E062E273E042E050E017
:1021E0000E947D1984E090E00E94E41990E06EEF77
:1021F00072E04AE050E00E94C3198FE093E06EEF76
:1022000072E00E9462198FE093E062E273E042E0C4
:1022100050E00E947D198FE093E00E94C61787E08E
:1022200090E00E94E41990E06EEF72E04AE050E026
:102230000E94C3198FE093E06EEF72E00E9476195E
:102240008FE093E062E273E042E050E00E947D198B
:1022500082E090E00E94E41990E06EEF72E04AE0C4
:1022600050E00E94C3198FE093E06EEF72E00E948D
:1022700062198FE093E062E273E042E050E00E9476
:102280007D1983E090E00E94E41990E06EEF72E027
:102290004AE050E00E94C3198FE093E06EEF72E0D5
:1022A0000E9462198FE093E062E273E042E050E046
:1022B0000E947D1988E090E00E94E419C0C083EE7E
:1022C00093E06DE871E00E946D19009709F092C0EB
:1022D0008091B40290E06EEF72E04AE050E00E941C
:1022E000C3198FE093E06EEF72E00E9476198FE0E1
:1022F00093E062E273E042E050E00E947D19809139
:102300004A0390E06EEF72E04AE050E00E94C31989
:102310008FE093E06EEF72E00E9462198FE093E02D
:1023200062E273E042E050E00E947D19809149032F
:1023300090E06EEF72E04AE050E00E94C3198FE037
:1023400093E06EEF72E00E9462198FE093E062E228
:1023500073E042E050E00E947D198FE093E00E941C
:10236000C61780915003909151036EEF72E04AE0DE
:1023700050E00E94C3198FE093E06EEF72E00E947C
:1023800076198FE093E062E273E042E050E00E9451
:102390007D198091540390E06EEF72E04AE050E0C6
:1023A0000E94C3198FE093E06EEF72E00E94621901
:1023B0008FE093E062E273E042E050E00E947D191A
:1023C0008091550390E06EEF72E04AE050E00E9489
:1023D000C3198FE093E06EEF72E00E9462198FE004
:1023E00093E062E273E042E050E00E947D19809148
:1023F000240325C083EE93E061E971E00E946D192A
:102400000097B9F580E090E00E94E41990E06EEF4B
:1024100072E04AE050E00E94C3198FE093E06EEF53
:1024200072E00E9476198FE093E062E273E042E08E
:1024300050E00E947D1981E090E00E94E41990E054
:102440006EEF72E04AE050E00E94C3198FE093E023
:102450006EEF72E00E9462198FE093E060E273E039
:1024600042E050E00E947D198FE093E00E94C61781
:10247000DFCB83EC97E00DC088EE92E065E971E078
:102480000E946D19009741F481E080934B0389E22B
:1024900095E00E94D317B7C388EE92E069E971E036
:1024A0000E946D190097D9F488E291E00E94C61746
:1024B00081EF91E00E94C61785E391E00E94C61764
:1024C0008EE293E00E94D31787EE91E00E94C61738
:1024D00085E391E00E94C61788E690E0DACF88EEA7
:1024E00092E06DE971E00E946D19009751F48091BE
:1024F00054038823C1F482E080934B038BE495E07E
:10250000C8CF88EE92E061EA71E00E946D190097F1
:1025100069F480915403882331F483E080934B0362
:1025200081E795E0B6CF81E995E0B3CF88EE92E000
:1025300065EA71E00E946D19009789F484E0809348
:102540004B0382E296E00E94D317809154038823C4
:1025500019F08BE396E09DCF84E596E09ACF88EE64
:1025600092E069EA71E00E946D19009789F485E0B4
:1025700080934B0384EB95E00E94D3178091B402C3
:10258000882319F082EC95E084CF8DED95E081CF22
:1025900088EE92E06DEA71E00E946D19009789F46F
:1025A00086E080934B0388EA96E00E94D3178091DF
:1025B0005503882319F087EB96E06BCF82EE96E007
:1025C00068CF88EE92E061EB71E00E946D19009790
:1025D00041F088EE92E066EB71E00E946D19009781
:1025E00019F48BEB90E055CF88EE92E068EB71E048
:1025F0000E946D19009731F487E080934B0388E4C3
:1026000098E047CF88EE92E06CEB71E00E946D1984
:10261000009709F07FC188E291E00E94C61781EF20
:1026200091E00E94C61785E391E00E94C6178EE2F2
:1026300093E00E94D31787EE91E00E94C61785E3CE
:1026400091E00E94C61785EB92E060EB72E00E9479
:102650005B0A8CE493E00E94D31785EB92E00E9422
:10266000C61785E793E00E94D3178091490388231A
:1026700029F185EB92E066E473E00E945B0A84E056
:1026800098E00E94D31785EB92E00E94C6178091D4
:102690005003909151036EEF72E04AE050E00E94C7
:1026A000C3198AE091E00E94C6178EEF92E00E9463
:1026B000C61786EE97E00E94D31704C081EC91E024
:1026C0000E94C6178FEA94E00E94D31780915503A9
:1026D000882319F08DE097E002C088E197E00E941E
:1026E000D31786E094E00E94D31780915403882387
:1026F00009F45BC083E294E00E94D3178091270322
:10270000882359F086EC92E065E273E00E94870925
:1027100086EC92E00E94C61704C080E096E00E941A
:10272000D3178EE594E00E94D31780912E036EEFAD
:1027300072E00E943D098EEF92E00E94C6178BE87E
:1027400094E00E94D31780912F036EEF72E00E94F5
:102750006D098EEF92E00E94C61780912F038130A1
:1027600041F580915603882321F18BEC97E00E947C
:10277000D3178091560390E001976EEF72E04AE024
:1027800050E00E94C3198EEF92E00E94C617E091BC
:102790005603F0E0E15AFC4F8081813019F488EC57
:1027A00091E005C08BEC91E002C087E592E00E94C9
:1027B000C61785E391E00E94C61783E090E00E946F
:1027C000E4198F3F09F459C083E993E00E94D317BD
:1027D00084E090E00E94E4198F3F99F183E090E05B
:1027E0000E94E4198093350382E090E00E94E4198E
:1027F0008093340384E090E00E94E41980933203D4
:1028000085E090E00E94E4198093310386E090E037
:102810000E94E4198093300388E090E00E94E4195C
:102820008093370387E090E00E94E419809333039C
:1028300086EC92E060E373E00E94870986EC92E008
:1028400016C083E090E00E94E41980933D0382E08B
:1028500090E00E94E41980933C0310923E038EEFB7
:1028600092E06CE373E00E945B0A8EEF92E00E94BC
:10287000C61785E391E00E94C61781E090E00E94B0
:10288000E4198F3F01F180EC93E00E94D31781E0BF
:1028900090E00E94E4198093420380E090E00E945F
:1028A000E41980934103109243038EEF92E061E4B8
:1028B00073E00E945B0A8EEF92E00E94C61785E3E8
:1028C00091E00E94C6178BED94E00E94D31780918F
:1028D0003B03882319F08EE398E002C084E498E07B
:1028E0000E94D31785E391E00E94C61780E095E02F
:1028F0000E94D3178091240390E06EEF72E04AE0CB
:1029000050E00E94C3198EEF92E00E94C6178EEC31
:1029100091E00AC085ED91E00E94C61781E697E03C
:102920000E94D31783E291E00E94C6176CC18130E8
:1029300079F488EE92E060EB72E00E94AB0A892B9A
:10294000E9F18DED91E00E94C61789EB97E053C144
:102950008230C1F488EE92E066E473E00E94AB0A34
:10296000892B61F18DED91E00E94C61789EB97E00C
:102970000E94D31783E291E00E94C61781E0809302
:1029800049033FC1833009F588EE92E066E473E0C5
:102990000E94AB0A892B91F08DED91E00E94C61741
:1029A00089EB97E00E94D31783E291E00E94C6175B
:1029B00081E08093490380934A0323C185ED91E030
:1029C0000E94C6178DE797E016C1843009F057C002
:1029D00088EE92E06CEA72E00E946D19009709F0AF
:1029E00040C0809154038823B9F48DED91E00E949A
:1029F000C6178EE696E00E94D31783E291E00E940C
:102A0000C61781E08093540389E090E061E00E9462
:102A1000EC190E944B06F5C08DED91E00E94C6179F
:102A20008BE896E00E94D31783E291E00E94C617DC
:102A30001092540389E090E060E00E94EC198091CC
:102A400069008E7F80936900E89880918100887F7B
:102A50008093810080916F008E7F80936F005A9ADF
:102A6000D0C088EE92E06EEA72E00E946D19009785
:102A700009F4C7C083E298E00E94D317C2C0853032
:102A8000D1F588EE92E06CEA72E00E946D19009731
:102A900059F58091B402882391F488E291E00E9474
:102AA000C61786E997E00E94D31783E291E00E945F
:102AB000C61781E08093B4028BE090E04DC088E2BD
:102AC00091E00E94C61787EA97E00E94D31785E33A
:102AD00091E00E94C61783E291E00E94C61710920F
:102AE000B4028BE090E026C088EE92E06EEA72E0DD
:102AF0000E946D193BC08630E9F588EE92E06CEAE1
:102B000072E00E946D19009759F580915503882352
:102B100099F48DED91E00E94C61783E297E00E9440
:102B2000D31783E291E00E94C61781E0809355039A
:102B30008AE090E061E011C08DED91E00E94C6173F
:102B400082E497E00E94D31783E291E00E94C617C7
:102B5000109255038AE090E060E00E94EC1951C0A9
:102B600088EE92E06EEA72E00E946D19009709F417
:102B700048C03BC0873009F044C088EE92E0B801FD
:102B80004AE050E00E9414189B01AC01EB81FC81EB
:102B90008081882351F5DA01C9010297A109B109A1
:102BA0000797A105B10508F520934F03209324034F
:102BB0008CE090E0622F0E94EC198DED91E00E9474
:102BC000C61781E998E00E94D3178091240390E012
:102BD0006EEF72E04AE050E00E94C3198EEF92E07F
:102BE0000E94C61780EB98E006C085ED91E00E9438
:102BF000C61783E298E00E94D31783E291E00E9417
:102C0000C61710924B0388EE92E06CE471E00E94CC
:102C100076191092F8021092E30380914B038823F7
:102C200011F00C94A00B82E092E00E94C6170C9465
:102C3000A00B88EE92E065EE71E00E945D19BC0188
:102C400088EF92E046E050E00E948D1980E090E02D
:102C500065EE71E00E945D19BC01009711F00C94C3
:102C6000CC0D0C94DB0D662311F0459A01C04598FC
:102C700044983A9A399A389A229A2A9840984198D0
:102C8000429887FD2A9A86FD409A85FD419A84FDE7
:102C9000429A439A00C043982A9840984198429893
:102CA00083FD2A9A82FD409A81FD419A80FD429AD5
:102CB000439A00C04398429A419A409A2A9A0895AA
:102CC000882311F0459A01C04598449A3A9839985A
:102CD00038982298439A00C0329B02C080E101C01C
:102CE00080E031998062309980641A9980684398B5
:102CF00000C0439A00C03299816031998260309956
:102D000084601A9988604398089580E00E94601654
:102D100087FDFBCF84E090E00197F1F780E00E940F
:102D2000601608951F93182F0E948516812F60E06A
:102D30000E9433161F9108951F93182F0E94851625
:102D4000812F61E00E9433161F910895662311F4CC
:102D5000805801C080540E94921608950E948516E2
:102D600090E0089581E00E949216089582E00E940A
:102D7000921608951F93182F0E9485161A3049F451
:102D8000803410F080E001C080E480580E949216E8
:102D900004C0812F61E00E9433161F910895CF93E4
:102DA000DF93EC0102C00E94BA1689918823D9F7FB
:102DB000DF91CF910895CF93DF93EC0102C00E9481
:102DC000BA16FE01219684918823C9F7DF91CF912D
:102DD00008951F93182F3A9A399A389A229A3D9A51
:102DE0003C9A3B9A80E09DE70197F1F7419A429A1D
:102DF000439A00C0439880E097E20197F1F7439A25
:102E000000C0439880E890E0FC013197F1F7439AC5
:102E100000C04398FC013197F1F74298439A00C0F3
:102E200043980197F1F788E20E94921688E00E9489
:102E300092160E94B21686E00E949216812F0E947E
:102E400092161F9108951F920F920FB60F921124A0
:102E50002F938F939F93EF93FF939091C0002091B6
:102E6000C600E091DE03EF5FEF718091DF03E817AA
:102E700011F482E008C0892F8871E093DE03F0E04E
:102E8000E454FC4F20838093E003FF91EF919F91E6
:102E90008F912F910F900FBE0F901F9018951F923A
:102EA0000F920FB60F9211248F939F93EF93FF937E
:102EB0009091DC038091DD03981769F0E091DD03C8
:102EC000EF5FEF71E093DD03F0E0E456FC4F8081AB
:102ED0008093C60005C08091C1008F7D8093C100A2
:102EE000FF91EF919F918F910F900FBE0F901F90C8
:102EF00018959C011092DC031092DD031092DE0302
:102F00001092DF0397FF04C082E08093C0003F77F8
:102F10003093C5002093C40088E98093C10086E007
:102F20008093C20008959091DE038091DF0398178B
:102F300019F420E031E012C0E091DF03EF5FEF71A0
:102F4000E093DF03F0E0E454FC4F30812091E00394
:102F5000922F80E0AC01430F511D9A01C9010895E1
:102F6000282F9091DC039F5F9F718091DD0398175C
:102F7000E1F3E92FF0E0E456FC4F20839093DC036B
:102F80008091C10080628093C1000895CF93DF9348
:102F9000EC0103C021960E94B01788818823D1F7E5
:102FA000DF91CF910895CF93DF93EC0102C00E948F
:102FB000B017FE01219684918823C9F7DF91CF9144
:102FC0000895991B79E004C0991F961708F0961B85
:102FD000881F7A95C9F78095089597FB092E0726D3
:102FE0000AD077FD04D00CD006D000201AF47095DA
:102FF00061957F4F0895F6F7909581959F4F0895BD
:10300000AA1BBB1B51E107C0AA1FBB1FA617B7070E
:1030100010F0A61BB70B881F991F5A95A9F780952A
:103020009095BC01CD0108952F923F925F926F92CF
:103030007F928F929F92AF92BF92CF92DF92EF9248
:10304000FF920F931F93CF93DF938C011B01EA0133
:103050006115710519F0FB0191838083209749F078
:10306000CE010297839728F020E030E040E050E066
:10307000F6C0F801A1908F018A2D90E00E944319BB
:10308000892BB9F7FDE2AF1631F4F801A1908F0159
:103090005524539407C0FBE2AF1619F4F801A19030
:1030A0008F015524209719F0C031D105C1F4F0E308
:1030B000AF1679F4F8018081883711F0883549F42A
:1030C000F801A1800E5F1F4FF2E05F2AC0E1D0E05F
:1030D00006C0209721F480E3A816E9F427C0C83081
:1030E000D10531F1C930D10524F4C230D10531F513
:1030F0000CC0CA30D10589F0C031D105F9F4C12C1A
:10310000D12CE12CB8E0FB2E28C0C12CD12CE12C15
:10311000A0E4FA2E22C0CAE0D0E0FCECCF2EFCECFA
:10312000DF2EFCECEF2EFCE0FF2E17C0C8E0D0E055
:10313000C12CD12CE12CE0E1FE2E0FC09E014427D2
:1031400037FD4095542F60E070E080E090E80E94E9
:103150002C1AC901DA016C017D0120E030E040E069
:1031600050E060E03E01882477FC8094982C70ED5C
:10317000B72EBA0CE9E0EB1570F48A2D81548A3130
:1031800018F499ECB92E06C08A2D81568A3150F573
:1031900089EAB82EBA0C8B2D90E08C179D0714F598
:1031A0006F3FE1F0C216D306E406F506B0F0CA019F
:1031B000B901A40193010E940D1A9B01AC012B0DD2
:1031C000311D411D511D2130F0E03F07F0E04F0758
:1031D000F0E85F0710F461E001C06FEFF801A19023
:1031E0008F01C5CF2114310481F0662331F00150E5
:1031F0001040F1011183008308C051FE1AC0025033
:103200001040F1011183008314C067FF12C050FC0D
:1032100005C02FEF3FEF4FEF5FE704C020E030E045
:1032200040E050E882E290E09093EE038093ED035B
:1032300016C050FE08C050954095309521953F4FDF
:103240004F4F5F4F0CC057FF0AC082E290E090934F
:10325000EE038093ED032FEF3FEF4FEF5FE7B901F0
:10326000CA01DF91CF911F910F91FF90EF90DF90F6
:10327000CF90BF90AF909F908F907F906F905F9016
:103280003F902F9008959111B5C0803219F0895068
:103290008550D0F70895FB01DC010D900020E9F77F
:1032A000119705900D920020E1F70895FB01DC01D4
:1032B00005900D920020E1F7089541EE53E00E9441
:1032C0009C190895FB01DC010D900020E9F711978E
:1032D00001900D920020E1F70895FB01DC018D9132
:1032E000019080190110D9F3990B0895FB01DC01BD
:1032F00001900D920020E1F70895FB01DC010D9093
:103300000020E9F711974150504028F0019000202B
:103310000D92C9F708951C920895FB01DC014150FC
:10332000504048F001900D920020C9F701C01D9255
:1033300041505040E0F70895FA01A191B081009703
:1033400019F41097E1F0CD01DC01CD010D900020C2
:1033500011F4C00113C0FB012191222319F02015A3
:10336000D9F7F3CFFB012191201519F41E92119684
:1033700006C02223C1F70D900020A1F7D001FA0169
:10338000A193B0830895FB019F01E8944230C4F0FB
:103390004532B4F44A3029F497FB1EF49095819598
:1033A0009F4F642F77270E940018805D8A330CF0AE
:1033B000895D8193CB010097A1F716F45DE25193EB
:1033C0001082C9010C94FD19F999FECF92BD81BDFF
:1033D000F89A992780B50895262FF999FECF1FBA3C
:1033E00092BD81BD20BD0FB6F894FA9AF99A0FBE2E
:1033F00001960895992788270895DC01FC01672F1D
:1034000071917723E1F7329704C07C916D937083BB
:103410006291AE17BF07C8F30895629FD001739FF2
:10342000F001829FE00DF11D649FE00DF11D929F60
:10343000F00D839FF00D749FF00D659FF00D99279F
:10344000729FB00DE11DF91F639FB00DE11DF91FC3
:10345000BD01CF0111240895A1E21A2EAA1BBB1BA6
:10346000FD010DC0AA1FBB1FEE1FFF1FA217B30750
:10347000E407F50720F0A21BB30BE40BF50B661F66
:10348000771F881F991F1A9469F76095709580952A
:1034900090959B01AC01BD01CF010895F894FFCF39
:1034A0003000000000002D2D2D0020002E003230B5
:1034B00030003230003A004D455A004D45535A0015
:1034C0000000001B5B306D001B5B33373B316D0030
:1034D0001B5B324A000D0A004249543A003D00315C
:1034E0000044434637373A00202D2000005F736DBB
:1034F00074005F617374005F6E7374005F64636671
:10350000005F73736D005F737077005F707374009A
:103510005F737461740067760067737400676E741C
:10352000006764370067646100676C7000676773E9
:1035300000676C7300736D740041545A006E7374AD
:103540000061737400646366007073740073736D5C
:103550000068656C70003F0073707700737461746D
:10356000006E6F726D616C003D31003D3000303097
:103570006D730D0A001B5B33313B316D001B5B33F8
:10358000323B316D003B0056312E303100000000DF
:10359000005241204D7574746572756872000000A8
:1035A00000006D753A3E20004E6562656E7568726A
:1035B0007A6569743A0053796E6368726F6E6973E5
:1035C000696572652E2E0044434637372053796E65
:1035D000636D6F6475733A00444346373720537404
:1035E000617475733A2000416B74697600204D69EF
:1035F0006E7574656E2E006465616B7469766965BD
:103600007274004443462041757377657274756E19
:10361000673A00444346373720456D7066616E67F0
:10362000653A0053796E63204D6F6475733A0053A9
:1036300074726F6D766572736F7267756E67006115
:103640007573676566616C6C656E21006A006E005B
:1036500000000000012D2D3A2D2D3A2D2D000000E7
:103660000000000000002D2D2D2D2D2D2D2D2D2D98
:10367000202D2D2E2D2D2E2D2D2D2D202D2D3A2D85
:103680002D202D2D2D2D0000000000000000000039
:10369000000000000000000000000000000000002A
:1036A000000000000000000000000000000000001A
:1036B000000000000000000000000000000000000A
:1036C0003B002C0004000000000000000100060088
:0C36D000000000000000000100060001E6
:00000001FF
