:100000000C94EF040C94B5060C9425090C940C0583
:100010000C940C050C940C050C940C050C940C051C
:100020000C940C050C940C050C940C050C940C050C
:100030000C940C050C9493060C940C050C940C0574
:100040000C9430050C940C050C9473180C949F18A8
:100050000C940C050C940C050C940C050C940C05DC
:100060000C940C050C940C050D0A48696C6665200F
:100070006D6974201B5B33373B316D3F1B5B303B3D
:1000800033376D206F646572201B5B33373B316DF6
:1000900068656C701B5B303B33376D20756E642078
:1000A0006D69742072657475726E20616E73636819
:1000B0006C69657373656E2E0D0A00201B5B333708
:1000C0003B316D5665726675656762617265204B7E
:1000D0006F6D6D616E646F733A0D0A201B5B333771
:1000E0003B316D646366201B5B303B33376D2D3EC7
:1000F0002053796E6368726F6E69736174696F6E95
:10010000206D6974204443463737206A617C6E65F0
:10011000696E2E0D0A201B5B33373B316D736D7496
:10012000201B5B303B33376D2D3E204D757474655D
:100130007275687220617566205A65697420766FE1
:100140006E204E6562656E756872656E20737465AB
:100150006C6C656E2E0D0A201B5B33373B316D6E68
:100160007374201B5B303B33376D2D3E204E656230
:10017000656E756872656E20617566206578616B65
:1001800074206469657365205A65697420737465A9
:100190006C6C656E284E6963687420696D204443F9
:1001A000463737204D6F647573292E0D0A201B5B6F
:1001B00033373B316D617374201B5B303B33376DDC
:1001C0002D3E204E6562656E756872656E206175A4
:1001D00066206469657365205A6569742073746567
:1001E0006C6C656E2E205A656974206469652064A4
:1001F00061667565722062656EF674696774207752
:100200006972642C20776972642068696E7A7561FE
:1002100064646965727420284E6963687420696D2E
:10022000204443463737204D6F647573292E0D0ADD
:10023000201B5B33373B316D707374201B5B303B8D
:1002400033376D2D3E204D75747465722D20756E9B
:1002500064204E6562656E756872656E20616E68B9
:10026000616C74656E2E2853796E6368726F6E6967
:10027000736174696F6E2066756E6B74696F6E69F9
:1002800065727420776569746572292E0D0A201BCA
:100290005B33373B316D73736D201B5B303B333702
:1002A0006D2D3E2053796E636D6F6475732031320E
:1002B000682F323468207365747A656E2E0D0A20BB
:1002C0001B5B33373B316D737077201B5B303B33E7
:1002D000376D2D3E2041757367616E6773696D7070
:1002E000756C7377656974652061656E6465726E9F
:1002F000283230302D3830306D73292E0D0A201BF6
:100300005B33373B316D73746174201B5B303B335F
:10031000376D2D3E20476573616D7473746174751C
:100320007320616E7A656967656E2E0D0A001B5B2E
:1003300033373B316D4669726D776172651B5B3295
:1003400031433A201B5B303B33376D001B5B333747
:100350003B316D5A65697420617566204E65626532
:100360006E756872656E1B5B3130433A201B5B30E3
:100370003B33376D000D0A1B5B33373B316D5374D4
:10038000617475731B5B3233433A201B5B303B3324
:10039000376D001B5B33373B316D4C65747A746588
:1003A00072205370616E6E756E67736175736661EE
:1003B0006C6C1B5B35433A201B5B303B33376D0065
:1003C0001B5B33373B316D5A65697420617566205C
:1003D0004E6562656E756872656E206265690D0AAC
:1003E0006C65747A74656D205370616E6E756E679E
:1003F0007361757366616C6C1B5B35433A201B5BE4
:10040000303B33376D000D0A1B5B33373B316D4496
:10041000434637371B5B3234433A201B5B303B3358
:10042000376D00616B746976696572740D0A1B5BC8
:1004300033373B316D4C65747A74657320444346A1
:10044000373720456D7066616E6773646174756DD2
:100450001B5B32433A201B5B303B33376D000D0A88
:100460001B5B33373B316D4443463737204C657453
:100470007A7465732045726765626E69731B5B37BA
:10048000433A201B5B303B33376D000D0A1B5B3357
:10049000373B316D4443463737205374617475736D
:1004A0001B5B3137433A201B5B303B33376D000D0C
:1004B0000A1B5B33373B316D4443463737206C654D
:1004C000747A746572204B6F6D706C657474656DB1
:1004D0007066616E673A201B5B303B33376D000DF1
:1004E0000A1B5B33373B316D53796E6368726F6EF5
:1004F00069736174696F6E736D6F6475731B5B38BC
:10050000433A201B5B303B33376D001B5B33373B7B
:10051000316D4C434420446973706C617920697378
:10052000741B5B3134433A201B5B303B33376D0027
:100530001B5B33373B316D41757367616E67736960
:100540006D70756C7377656974651B5B3130433A08
:10055000201B5B303B33376D005A65697420617531
:10056000662064656E204E6562656E756872656EA4
:10057000202878783A7878293A20005374656C6C92
:1005800065204E6562656E756872656E206578617E
:100590006B7420617566202878783A7878293A203B
:1005A000005374656C6C65204E6562656E7568728B
:1005B000656E20617566202878783A7878293A2027
:1005C000004269747465204443463737207A756564
:1005D000727374206465616B746976696572656EA7
:1005E000210D0A004E6562656E75687228656E2978
:1005F00020006C617566656E2E20416E68616C74BA
:10060000656E203F20286A7C6E293A200073696E4F
:100610006420616E676568616C74656E2E2053742A
:10062000617274656E203F20286A7C6E293A200032
:100630004E6F6368206B65696E65204443463737AB
:1006400020446174656E20656D7066616E67656ECD
:100650002E0044434620537963686E726F6E69734F
:100660007461696F6E206973742000616E2E204181
:100670007573736368616C74656E3F20286A7C6E65
:10068000293A20006175732E2045696E7363686195
:100690006C74656E3F20286A7C6E293A20004443C2
:1006A0004637372053796E6368726F6E6973617471
:1006B000696F6E2065696E2E0D0A00444346373718
:1006C0002053796E6368726F6E69736174696F6EBF
:1006D000206175732E0D0A0053796E636D6F64751A
:1006E000732069737420003234205374756E64650E
:1006F0006E2E20417566203132205374756E64650C
:100700006E207365747A656E3F20286A7C6E293A84
:1007100020003132205374756E64656E2E20417551
:1007200066203234205374756E64656E2073657470
:100730007A656E3F20286A7C6E293A200032342088
:100740005374756E64656E003132205374756E6437
:10075000656E00323468205374756E64656E204D8A
:100760006F64757320616B746976696572742E0DA0
:100770000A00313268205374756E64656E204D6FC7
:1007800064757320616B746976696572742E0D0AE5
:10079000004B6F6D6D616E646F206578697374696D
:1007A000657274206E696368742E0D0A00556E6759
:1007B00075656C7469676573205A656974666F72D4
:1007C0006D61740D0A0055687220676573746172FB
:1007D0007465742E0D0A0055687220616E67656835
:1007E000616C74656E2E0D0A006F6B0D0A004F4B25
:1007F0000D0A004552524F520D0A002C20676572B7
:1008000061646520656D7066616E67656E657320F5
:100810004269743A2000204D696E757465286E290E
:10082000207A752073796E6368726F6E697369657B
:1008300072656E0073796E6368726F6E6973696555
:100840007265204E6562656E756872656E206175B1
:1008500066200046616C736368652045696E676158
:1008600062652E0D0A002D3E706175736500416B47
:10087000746976004175730041757367616E6773C3
:10088000696D70756C7377656974652061656E64F8
:1008900065726E2028696E203130306D732C206DAA
:1008A0006F65676C696368652057657274653A2087
:1008B000327C337C347C357C367C377C38293A205A
:1008C0000041757367616E6773696D70756C7377DE
:1008D00065697465207775726465206175662000AE
:1008E00030306D732067657365747A742E0D0A005D
:1008F0002053656B756E64656E00536F6E6E746128
:1009000067004D6F6E746167004469656E73746152
:1009100067004D697474776F636800446F6E6E652D
:100920007273746167004672656974616700536130
:100930006D7374616700536F004D6F004469004D23
:100940006900446F004672005361006F6B004552AE
:10095000522D5061722E205374756E64650045529D
:10096000522D5061722E204D696E7574650045528E
:10097000522D5061722E20446174756D00455252A3
:100980002D4461756572506572696F6465004552EA
:10099000522D50756C736461756572004B65696E9C
:1009A0002053746174757300496E697469616C7366
:1009B0006965726500456D7066616E6765204461AA
:1009C00074656E00576172746520617566204461BC
:1009D00074656E00556E62656B616E6E74001124F5
:1009E0001FBECFEFD4E0DEBFCDBF13E0A0E0B1E08B
:1009F000E8EAF7E302C005900D92A035B107D9F7F8
:100A000014E0A0E5B3E001C01D92A432B107E1F704
:100A10000E94A80B0C94D21B0C940000FC016623CE
:100A200031F482818B3318F48F5F828308951282B0
:100A3000818190912F0380FF03C09093670302C0D0
:100A4000909366038B3318F48F5F8183089511822E
:100A50008081873118F48F5F808308951082089514
:100A60001F920F920FB60F9211242F933F934F9323
:100A70005F936F937F938F939F93AF93BF93EF9306
:100A8000FF9380919203909193032CE0843392071B
:100A900034F40196909393038093920324C11092AF
:100AA00093031092920380916603882341F05F982C
:100AB000289A8091660381508093660301C028982C
:100AC00080916703882341F028985F9A809167039B
:100AD00081508093670301C05F98809194038930AF
:100AE00020F48F5F80939403F1C01092940380915F
:100AF0005E038823F1F080915C038B3320F48F5FD9
:100B000080935C0316C010925C0380915B038B336F
:100B100020F48F5F80935B030CC010925B03809185
:100B20005A03873120F48F5F80935A0302C01092DA
:100B30005A0380916903882319F19091BC02809136
:100B4000BB022CE3829FA0011124490F511D9091FB
:100B50005B0380915A03829F90011124290F311D5C
:100B60002417350714F420563A4FC901841B950BFE
:100B700025E0833692070CF443C0805A954040C06C
:100B80009091BC028091BB022CE3829FA0011124B2
:100B9000490F511D90915B0380915A03829F9001F0
:100BA0001124290F311D82E0413D580714F0405DAA
:100BB000524082E0213D380714F0205D3240421758
:100BC000530774F440535D4FBA01621B730B405DD1
:100BD00052406E33710554F0C901841B950B10C04F
:100BE000BA01621B730B6E3371052CF488279927A9
:100BF000861B970B05C0C901841B950B80539D4F25
:100C000090936503809364034B9B2BC080915D039D
:100C10008823F1F08091640390916503009739F087
:100C200018161906F4F48BEB92E061E018C080917D
:100C30005A038093BB0280915B038093BC02809136
:100C40005C038093BD0210925D0310925E0309C0A5
:100C50008091BF02882329F08BEB92E060E00E9434
:100C60000E0580916203882321F0815080936203F6
:100C700008C085E080936203809160038F5F80935A
:100C8000600380913803882319F0815080933803E2
:100C900080913B0390913C03A0913D03B0913E03B2
:100CA0008F3F2FEF92072FEFA2072FEFB20759F0D8
:100CB0000196A11DB11D80933B0390933C03A0932B
:100CC0003D03B0933E0381E08093610380919403E0
:100CD00065E00E943119992331F45D9B02C05D9853
:100CE00001C05D9A8BB1FF91EF91BF91AF919F9140
:100CF0008F917F916F915F914F913F912F910F90C5
:100D00000FBE0F901F90189552985A9AE9E6F0E09E
:100D1000808181608083E89A82E080933A0386E054
:100D20008093390308951F920F920FB60F921124EA
:100D30008F939F93EF93FF93E1E8F0E08081887FAA
:100D40008083EFE6F0E080818E7F80838FEF9FEFDE
:100D50009093850080938400FF91EF919F918F91F4
:100D60000F900FBE0F901F9018951F920F920FB605
:100D70000F9211242F933F934F935F938F939F93E1
:100D8000EF93FF934A9B58C080918100887F8093A6
:100D9000810080916F008E7F80936F00209184008E
:100DA0003091850030936E0320936D03109285007F
:100DB00010928400809181008560809381008091F1
:100DC0006F00816080936F0080913A038130A9F4B5
:100DD00080916F0390917003820F931F90936C0327
:100DE00080936B03855F9C418F51934030F084E08A
:100DF0008093390382E080933A032D5136432F5A72
:100E0000344008F0A5C180913803883378F0809190
:100E1000340380935A038091350380935B031092CF
:100E20005C0381E080935D0380935E0310926A030C
:100E300081E080933A038CC180918100887F809308
:100E4000810080916F008E7F80936F0020918400DD
:100E5000309185003093700320936F0310928500CA
:100E60001092840080918100856080938100809140
:100E70006F00816080936F0040913A03413009F028
:100E800067C1C90181529540835F914038F4E09178
:100E90006A03F0E0EB56FC4F408312C02857324003
:100EA0002B52314038F4E0916A03F0E0EB56FC4FEE
:100EB000108206C085E08093390382E080933A0374
:100EC00080913A03813009F03EC180916A038A33F0
:100ED00008F439C18091A703809337032091AA03B6
:100EE000EBEAF3E0922F8191982743E0E13BF4078E
:100EF000D1F78081981781F59091AD03990F990FE3
:100F0000990F8091AC03880F880F892B822B409119
:100F1000AB03440F482B2091B00330E0220F331F66
:100F2000220F331F8091AF0390E0880F991F282B69
:100F3000392B8091AE0390E0282B392BC90153E067
:100F4000880F991F5A95E1F7220F331F820F931FC5
:100F5000480F4093350305C082E0809339038093A6
:100F60003A032091B203E3EBF3E0922F81919827AB
:100F700053E0E83BF507D1F78081981759F5809148
:100F80003A03813039F59091B503990F990F990F74
:100F90008091B403880F880F892B822B4091B30373
:100FA000440F482B8091B70390E0880F991F209140
:100FB000B60330E0822B932B9C0153E0220F331FAA
:100FC0005A95E1F7880F991F280F391F420F409358
:100FD000340306C081E08093390382E080933A03B2
:100FE0002091B903EAEBF3E0922F8191982783E0F7
:100FF000EF3CF807D1F78081981709F09EC08091E7
:101000003A03813009F099C09091BC03990F990F70
:10101000990F8091BB03880F880F892B822B4091F9
:10102000BA03440F482B8091BE0390E0880F991FAC
:101030002091BD0330E0822B932B9C0153E0220FC3
:10104000331F5A95E1F7880F991F280F391F420F58
:10105000409332039091C103990F990F8091C0037F
:10106000880F892B9091BF03892B80933303909134
:10107000C503990F990F990F8091C403880F880FAA
:10108000892B9091C203892B2091C303220F282B17
:101090008091C6033AE0839FC0011124280F20935A
:1010A00031032091CE0330E0E3E0220F331FEA95B5
:1010B000E1F78091CD0390E0880F991F880F991F69
:1010C000282B392B8091CB0390E0282B392B809152
:1010D000CC0390E0880F991F282B392BA90193E0AE
:1010E000440F551F9A95E1F7220F331F420F531FEC
:1010F0008091CA03880F880F880F9091C903990FB8
:10110000990F982B8091C703982B8091C803880F63
:10111000892B840F809330038BE3809338031092E4
:10112000390382E080933A0310923B0310923C0310
:1011300010923D0310923E0306C083E08093390372
:1011400082E080933A0380916A038F5F80936A0301
:10115000FF91EF919F918F915F914F913F912F91CF
:101160000F900FBE0F901F9018950F931F93DF9352
:10117000CF9300D0CDB7DEB78C010E94E3189C015D
:1011800080709F70892B99F53A8329832D3041F423
:1011900080E091E00E941619C80161E773E005C084
:1011A000233051F4C80163E071E00E94C61A109226
:1011B000710321E030E01DC0822F0E940019E1E799
:1011C000F3E001900020E9F73197E157F340B09741
:1011D00070F49981892F80528F3510F09D3039F449
:1011E00081E793E0BE016F5F7F4F0E94B21A20E05B
:1011F00030E0C9010F900F90CF91DF911F910F91B7
:1012000008950F931F93182F092F262FE82FF92FDA
:10121000DF010D900020E9F71197A81B80E190E015
:101220008A1B910962E070E00E943D19683050F419
:10123000223040F4862F622F0E94F617812F902FC4
:101240000E941F181F910F9108951F920F920FB6C1
:101250000F9211242F933F934F935F936F937F933C
:101260008F939F93AF93BF93EF93FF934B995BC083
:1012700080E090E06091BB020E94701B81E090E0F2
:101280006091BC020E94701B80913803882349F151
:1012900082E090E0609134030E94701B83E090E054
:1012A000609135030E94701B84E090E060913203EE
:1012B0000E94701B85E090E0609131030E94701BDA
:1012C00086E090E0609130030E94701B87E090E020
:1012D000609133030E94701B88E090E060913703B7
:1012E0000FC082E090E06091BB020E94701B83E01F
:1012F00090E06091BC020E94701B84E090E06FEF70
:101300000E94701B80914E038823C1F00E94021836
:101310008AE992E060E00E9401098AEA92E061E0D5
:101320000E9401090BC083E390E00E94C9188091DC
:101330004E03882319F08CE00E943918FF91EF9139
:10134000BF91AF919F918F917F916F915F914F91DD
:101350003F912F910F900FBE0F901F901895CF9235
:10136000DF92EF92FF921F93DF93CF9300D000D0D4
:10137000CDB7DEB7182F7B0180910701909108014E
:10138000A0910901B0910A0189839A83AB83BC8340
:10139000812F90E06E010894C11CD11CB6014AE077
:1013A00050E00E94131B1A3050F4C70165E071E051
:1013B0000E94C61AC701B6010E94B21A04C0C70132
:1013C000B6010E94C61A0F900F900F900F90CF9108
:1013D000DF911F91FF90EF90DF90CF9008958330C1
:1013E000D1F0843028F4813071F0823080F407C06D
:1013F0008530C9F0853098F0863001F51AC0CB01F0
:101400006BE479E013C0CB016EE479E00FC0CB014F
:101410006EE579E00BC0CB016EE679E007C0CB0149
:101420006DE779E003C0CB016EE879E00E94A61A6F
:101430000895CB016CE979E00E94A61A0895809185
:101440003A03882321F4CB0168EA79E00FC08130A8
:1014500021F4CB0165EB79E009C0823021F4CB01A6
:1014600064EC79E003C0CB0164ED79E00E94A61A38
:101470000895CF92DF92EF92FF920F931F93DF9325
:10148000CF93CDB7DEB72A970FB6F894DEBF0FBE65
:10149000CDBF7C016B0119821A821B821C82FE0166
:1014A000359686E0DF011D928A95E9F7FB0183817D
:1014B0008430F1F0853038F4823081F08330A0F44C
:1014C000813031F507C08630D9F08630A8F08730FA
:1014D000F9F41AC0C70162E079E003C0C70169E00E
:1014E00079E00E94A61A19C0C70162E179E0F9CF3C
:1014F000C7016BE179E0F5CFC70166E279E0F1CF92
:10150000C7016EE279E0EDCFC7016AEF78E0E9CF7D
:10151000C7016BE071E00E94C61AC7016FE071E07D
:101520000E94B21AD60112968C918E010F5F1F4F46
:10153000B8010E94AF09C701B8010E94B21AC701E1
:1015400061E171E00E94B21AF6018181B8010E9446
:10155000AF09C701B8010E94B21AC70161E171E089
:101560000E94B21AD6018C9190E0B8014AE050E096
:101570000E94131BF60180818A3020F4C70163E1C9
:1015800071E003C0C70167E171E00E94B21AC701B0
:10159000B8010E94B21AC7016FE071E00E94B21A4E
:1015A000D60114968C918E010F5F1F4FB8010E94D7
:1015B000AF09C701B8010E94B21AC7016AE171E020
:1015C0000E94B21AF6018581B8010E94AF09C701D5
:1015D000B8010E94B21AC7016FE071E00E94B21A0E
:1015E000D60117968C91882321F0C7016CE171E038
:1015F00003C0C70160E271E00E94B21A2A960FB6DA
:10160000F894DEBF0FBECDBFCF91DF911F910F9138
:10161000FF90EF90DF90CF900895CF92DF92EF92FE
:10162000FF920F931F93DF93CF9300D00F92CDB70C
:10163000DEB76C017B018091250189831B821A82B0
:10164000FB0180818E010F5F1F4FB8010E94AF091F
:10165000C601B8010E94C61AC6016AE171E00E9483
:10166000B21AF7018181B8010E94AF09C601B80121
:101670000E94B21AC6016AE171E00E94B21AF70133
:101680008281B8010E94AF09C601B8010E94B21A56
:101690008091BF02882329F4C60166E678E00E94A3
:1016A0009B1A0F900F900F90CF91DF911F910F9188
:1016B000FF90EF90DF90CF900895DF92EF92FF922E
:1016C0000F931F93DF93CF9300D0CDB7DEB78B017D
:1016D0006AE171E00E94AD1A009769F17E010894F9
:1016E000E11CF11CB7014AE050E00E946419D62EBB
:1016F000E981FA8180818823F1F487E18D15D8F0A2
:1017000080E090E06AE171E00E94AD1A009799F0E4
:10171000B7014AE050E00E946419E981FA818081B2
:10172000882349F46C3338F4F801D0826183128243
:1017300021E030E002C020E030E0C9010F900F90BE
:10174000CF91DF911F910F91FF90EF90DF9008955F
:101750000F931F93DF93CF9300D0CDB7DEB7F999E6
:10176000FECF81E090E00E94681B8093BC028C3326
:1017700040F480E090E00E94681B8093BB028831B7
:1017800020F01092BB021092BC028BE090E00E940D
:10179000681B882319F01092BF0203C081E0809378
:1017A000BF0289E090E00E94681B809368038AE092
:1017B00090E00E94681B809369038CE090E00E9497
:1017C000681B80932F038250873018F084E0809349
:1017D0002F03789483E390E00E94C91888E291E097
:1017E0000E9416198DE291E00E94161985E391E09E
:1017F0000E9416198CEF91E00E9416198FE091E07B
:101800000E94161982EF91E00E94161980E091E083
:101810000E94161988E291E00E9416198DE092E06C
:101820000E941619209A8AB1806A8AB98AB1877E85
:101830008AB95C9A80916900846080936900E99A12
:1018400016BC85B5816085BD80916E0081608093F6
:101850006E0080916803882311F00E9484064C9BDF
:1018600017C08CE00E94391880E060E00E94F617F3
:101870000E94021881E080934E038CEF91E060E0BB
:101880000E94010982EF91E061E00E94010908C015
:1018900010924E038BB1817C8BB987B18E6387B96F
:1018A0008E010F5F1F4F4B9BFECF809161038823FA
:1018B00009F4E9C180914E03882309F4E4C18091C1
:1018C0006003882391F40E94021880EC92E06BEB95
:1018D00072E00E940D0B83E192E060E00E9401093A
:1018E00080EC92E061E00E94010980916003813008
:1018F00021F580915D038823E9F00E94021881E2BE
:1019000092E060E00E940109809164039091650378
:101910006AE173E04AE050E00E94131B8AE193E021
:1019200068E572E00E94B21A8AE193E061E00E94E9
:10193000010903C082E080936003809160038230DC
:10194000C9F40E94021882E392E060E00E9401095B
:1019500080916803882349F08AE193E062E572E0B0
:101960000E94C61A8AE193E002C082E692E061E03A
:101970000E94010980916003833011F50E940218D2
:1019800083E492E060E00E9401098091680388236B
:1019900091F080913A0369E073E00E941F0A8AE1A6
:1019A00093E069E073E00E94C61A8AE193E061E087
:1019B0000E94010905C0809160038F5F80936003DE
:1019C000809160038430D1F480916803882399F07A
:1019D0000E9402188EE692E060E00E940109809168
:1019E00039036AE173E00E94EF098AE193E061E064
:1019F0000E94010903C085E0809360038091600329
:101A0000853009F04CC080916803882309F444C0F4
:101A100080913A03813009F03FC080916A038823A6
:101A2000D9F18C33C8F50E9402188EE792E060E08D
:101A30000E9401098AE193E06AE371E00E94C61AFC
:101A400080916A03815069E073E00E94AF098AE1E6
:101A500093E069E073E00E94B21A8AE193E06FE3D9
:101A600071E00E94B21AE0916A03F0E0EC56FC4F7C
:101A70008081813029F48AE193E061E471E004C05F
:101A80008AE193E065E071E00E94B21A8AE193E096
:101A900061E00E94010903C086E0809360038091A9
:101AA0006003863009F0C8C080916803882309F478
:101AB000C0C080913803882309F4BBC00E9402187B
:101AC0008AE193E063E471E00E94C61A80913403D6
:101AD00069E073E00E94AF098AE193E069E073E096
:101AE0000E94B21A8AE193E06AE171E00E94B21AA0
:101AF0008091350369E073E00E94AF098AE193E0C9
:101B000069E073E00E94B21A8AE193E06FE071E04D
:101B10000E94B21A80913703882329F08AE193E06A
:101B20006CE171E004C08AE193E060E271E00E9440
:101B3000B21A8AE193E060E00E94010980913303C8
:101B4000843009F1853038F4823089F08330B0F484
:101B5000813069F507C0863001F18630C8F08730E2
:101B600031F520C08AE193E069E379E004C08AE1BD
:101B700093E06CE379E00E94A61A1FC08AE193E02B
:101B80006FE379E0F8CF8AE193E062E479E0F3CFA4
:101B90008AE193E065E479E0EECF8AE193E068E4DE
:101BA00079E0E9CF8AE193E066E379E0E4CF8AE186
:101BB00093E06BE071E00E94C61A8AE193E06AE468
:101BC00071E00E94B21A8091320369E073E00E94D2
:101BD000AF098AE193E069E073E00E94B21A8AE1FA
:101BE00093E061E171E00E94B21A8091310369E0F3
:101BF00073E00E94AF098AE193E069E073E00E941C
:101C0000B21A8AE193E061E171E00E94B21A809118
:101C1000300369E073E00E94AF098AE193E069E074
:101C200073E00E94B21A8AE193E061E00E94010928
:101C300003C087E080936003809160038730D9F40C
:101C40000E9402188EE892E060E00E9401098091F3
:101C50006903882329F08AE193E06DE377E004C00B
:101C60008AE193E068E477E00E94A61A8AE193E0B3
:101C700061E00E94010980916003883008F46DC022
:101C8000109260036AC080916103882309F467C0E1
:101C900080914E03882309F062C0809168038823F5
:101CA00009F450C080913A03882369F0813011F41F
:101CB000419A0AC0823039F4419B02C0419801C068
:101CC000419A88B101C0419890913903892F815080
:101CD000823030F0943021F0953011F0913019F4C9
:101CE000429A43980BC0992339F480913803882392
:101CF00019F04298439A02C04398429880913B035E
:101D000090913C03A0913D03B0913E03813821E5C1
:101D1000920721E0A20720E0B20710F0449816C015
:101D200081519E40A040B04080579344A140B040B4
:101D300038F4449B02C0449801C0449A88B106C05C
:101D4000449A04C0419844984398429880915D0316
:101D5000813011F4459A01C045981092610383EFD8
:101D600092E060E10E94B508892B09F49CCD83EFD5
:101D700092E063E071E00E94BD1A009751F4109266
:101D80005F038EE491E00E9416191092F3020C9406
:101D90006D1783EF92E067E571E00E94AD1ABC0118
:101DA00083E093E046E050E00E94DD1A80E090E09E
:101DB00067E571E00E94AD1ABC01009779F088E1F7
:101DC00094E04AE050E00E94DD1A83E093E069E588
:101DD00071E00E94BD1A009749F012C010921804D9
:101DE00080915F03882309F00DC788C488E194E0DF
:101DF0006BEB72E00E945D0B892B09F47CC416C06A
:101E000083E093E06EE571E00E94BD1A009789F4CB
:101E100088E194E06AE573E00E945D0B892B09F488
:101E20006AC481E080935D0380935E038EEE97E049
:101E3000EEC483E093E063E671E00E94BD1A009770
:101E400079F488E194E06AE573E00E945D0B892BE8
:101E500009F451C410925E0381E080935D03E6CFE4
:101E600083E093E068E671E00E94BD1A0097A9F54F
:101E700088E194E061E471E00E94BD1A009759F492
:101E800081E08093680389E090E061E00E94701B2C
:101E90000E948406CBCF88E194E065E071E00E9467
:101EA000BD1A009709F027C41092680389E090E0FA
:101EB00060E00E94701B809169008E7F80936900B2
:101EC000E89880918100887F8093810080916F00E5
:101ED0008E7F80936F005A9AA9CF83E093E06DE6DE
:101EE00071E00E94BD1A0097E1F488E194E061E49A
:101EF00071E00E94BD1A009731F481E0809369037C
:101F00008AE090E04BC088E194E065E071E00E94D7
:101F1000BD1A009709F0EFC3109269038AE090E0C0
:101F20004DC083E093E062E771E00E94BD1A009724
:101F300009F588E194E0B8014AE050E00E94641994
:101F40009B01AC01E981FA818081882309F0D3C328
:101F5000DA01C9010297A109B1090797A105B105E5
:101F600008F0C9C32093630320932F038CE090E013
:101F7000622F25C083E093E067E771E00E94BD1AFD
:101F8000009701F588E194E061E471E00E94BD1AD8
:101F9000009731F41092BF028BE090E061E00FC037
:101FA00088E194E065E071E00E94BD1A009709F0B5
:101FB000A2C381E08093BF028BE090E060E00E94CA
:101FC000701B34CF83E093E06CE771E00E94BD1A90
:101FD000009709F082C788E194E062E871E00E940E
:101FE000BD1A0097A9F48AE193E06CEF71E00E94BA
:101FF000C61A8AE193E00E9416198AE193E06DE225
:1020000073E00E94C61A8AE193E062EF71E064C354
:1020100088E194E065E871E00E94BD1A009789F5B7
:102020008091BB0290E069E073E04AE050E00E94DA
:10203000131B8AE193E069E073E00E94C61A8AE10B
:1020400093E06DE273E042E050E00E94CD1A80918F
:10205000BC0290E069E073E04AE050E00E94131B8C
:102060008AE193E069E073E00E94B21A8AE193E0AA
:102070006DE273E042E050E00E94CD1A8091BD0213
:1020800020C388E194E069E871E00E94BD1A0097DE
:1020900089F580915A0390E069E073E04AE050E0EE
:1020A0000E94131B8AE193E069E073E00E94C61A64
:1020B0008AE193E06DE273E042E050E00E94CD1AC5
:1020C00080915B0390E069E073E04AE050E00E9499
:1020D000131B8AE193E069E073E00E94B21A8AE17F
:1020E00093E06DE273E042E050E00E94CD1A8091EF
:1020F0005C03E7C288E194E06DE871E00E94BD1ADC
:10210000009709F022C18091300390E069E073E00C
:102110004AE050E00E94131B8AE193E069E073E01B
:102120000E94C61A8AE193E06DE273E042E050E05B
:102130000E94CD1A8091310390E069E073E04AE09B
:1021400050E00E94131B8AE193E069E073E00E9473
:10215000B21A8AE193E06DE273E042E050E00E943F
:10216000CD1A8AE193E00E9416198091320390E023
:1021700069E073E04AE050E00E94131B8AE193E0BB
:1021800069E073E00E94C61A8AE193E06DE273E0B1
:1021900042E050E00E94CD1A8091330390E069E064
:1021A00073E04AE050E00E94131B8AE193E069E08B
:1021B00073E00E94B21A8AE193E06DE273E042E0BC
:1021C00050E00E94CD1A8091340390E069E073E002
:1021D0004AE050E00E94131B8AE193E069E073E05B
:1021E0000E94B21A8AE193E06DE273E042E050E0AF
:1021F0000E94CD1A8AE193E00E941619809135035E
:1022000090E069E073E04AE050E00E94131B8AE12D
:1022100093E069E073E00E94C61A8AE193E06DE200
:1022200073E042E050E00E94CD1A8091360390E0C6
:1022300069E073E04AE050E00E94131B8AE193E0FA
:1022400069E073E00E94B21A8AE193E06DE273E004
:1022500042E050E00E94CD1A8091370390E069E09F
:1022600073E04AE050E00E94131B8AE193E069E0CA
:1022700073E00E94B21A8AE193E06DE273E042E0FB
:1022800050E00E94CD1A8AE193E00E9416198091D5
:10229000380390E069E073E04AE050E00E94131BCD
:1022A0008AE193E069E073E00E94C61A8AE193E054
:1022B0006DE273E042E050E00E94CD1A8091390354
:1022C00090E069E073E04AE050E00E94131B8AE16D
:1022D00093E069E073E00E94B21A8AE193E06DE254
:1022E00073E042E050E00E94CD1A80913A0390E002
:1022F00069E073E04AE050E00E94131B8AE193E03A
:1023000069E073E00E94B21A8AE193E06DE273E043
:1023100042E050E00E94CD1A8AE193E00E94161933
:1023200060913B0370913C0380913D0390913E038B
:1023300049E053E02AE030E00E94341B8AE193E058
:1023400069E073E00E94C61AC9C188E194E061E9BE
:1023500071E00E94BD1A009709F04BC080916A039A
:1023600090E069E073E04AE050E00E94131B8AE1CC
:1023700093E069E073E00E94C61A8AE193E06DE29F
:1023800073E042E050E00E94CD1A8AE193E00E949F
:1023900016191092630326C0F0E0EB56FC4F8081C3
:1023A00090E069E073E04AE050E00E94131B8AE18C
:1023B00093E069E073E00E94C61A809163038B3357
:1023C00041F08AE193E06DE273E042E050E00E9468
:1023D000CD1A8AE193E00E941619809163038F5F02
:1023E00080936303E0916303EC33B0F28BE293E0FC
:1023F0007FC188E194E065E971E00E94BD1A009711
:1024000009F09FC086E090E00E94681B90E069E0C0
:1024100073E04AE050E00E94131B8AE193E069E018
:1024200073E00E94C61A8AE193E06DE273E042E035
:1024300050E00E94CD1A85E090E00E94681B90E079
:1024400069E073E04AE050E00E94131B8AE193E0E8
:1024500069E073E00E94B21A8AE193E06DE273E0F2
:1024600042E050E00E94CD1A84E090E00E94681B98
:1024700090E069E073E04AE050E00E94131B8AE1BB
:1024800093E069E073E00E94B21A8AE193E06DE2A2
:1024900073E042E050E00E94CD1A8AE193E00E948E
:1024A000161987E090E00E94681B90E069E073E0F5
:1024B0004AE050E00E94131B8AE193E069E073E078
:1024C0000E94C61A8AE193E06DE273E042E050E0B8
:1024D0000E94CD1A82E090E00E94681B90E069E0C3
:1024E00073E04AE050E00E94131B8AE193E069E048
:1024F00073E00E94B21A8AE193E06DE273E042E079
:1025000050E00E94CD1A83E090E00E94681B90E0AA
:1025100069E073E04AE050E00E94131B8AE193E017
:1025200069E073E00E94B21A8AE193E06DE273E021
:1025300042E050E00E94CD1A88E090E00E94681BC3
:10254000C0C088E194E069E971E00E94BD1A00977B
:1025500009F092C08091BF0290E069E073E04AE028
:1025600050E00E94131B8AE193E069E073E00E944F
:10257000C61A8AE193E06DE273E042E050E00E9407
:10258000CD1A80915E0390E069E073E04AE050E08C
:102590000E94131B8AE193E069E073E00E94B21A83
:1025A0008AE193E06DE273E042E050E00E94CD1AD0
:1025B00080915D0390E069E073E04AE050E00E94A2
:1025C000131B8AE193E069E073E00E94B21A8AE18A
:1025D00093E06DE273E042E050E00E94CD1A8AE1A0
:1025E00093E00E941619809164039091650369E05D
:1025F00073E04AE050E00E94131B8AE193E069E037
:1026000073E00E94C61A8AE193E06DE273E042E053
:1026100050E00E94CD1A8091680390E069E073E079
:102620004AE050E00E94131B8AE193E069E073E006
:102630000E94B21A8AE193E06DE273E042E050E05A
:102640000E94CD1A8091690390E069E073E04AE04E
:1026500050E00E94131B8AE193E069E073E00E945E
:10266000B21A8AE193E06DE273E042E050E00E942A
:10267000CD1A80912F0325C088E194E06DE971E0C7
:102680000E94BD1A0097B9F580E090E00E94681B97
:1026900090E069E073E04AE050E00E94131B8AE199
:1026A00093E069E073E00E94C61A8AE193E06DE26C
:1026B00073E042E050E00E94CD1A81E090E00E9479
:1026C000681B90E069E073E04AE050E00E94131B51
:1026D0008AE193E069E073E00E94B21A8AE193E034
:1026E0006BE273E042E050E00E94CD1A8AE193E091
:1026F0000E9416199BCB83EF97E089C083EF92E08D
:1027000061EA71E00E94BD1A009731F481E0809384
:102710005F0389E595E07BC083EF92E065EA71E0B5
:102720000E94BD1A0097D9F48DE291E00E9416191B
:102730008CEF91E00E94161980E091E00E9416193A
:102740008EE293E00E94231982EF91E00E94161915
:1027500080E091E00E94161988E690E058C083EF6F
:1027600092E069EA71E00E94BD1A009751F48091ED
:1027700068038823C1F482E080935F038BE795E0D0
:1027800046C083EF92E06DEA71E00E94BD1A0097A7
:1027900069F480916803882331F483E080935F03B8
:1027A00081EA95E034C081EC95E031C083EF92E09E
:1027B00061EB71E00E94BD1A009789F484E0809378
:1027C0005F0382E596E00E942319809168038823C5
:1027D00019F08BE696E01BC084E896E018C083EF02
:1027E00092E065EB71E00E94BD1A009799F485E0D4
:1027F00080935F0384EE95E00E9423198091BF02CD
:10280000882319F082EF95E002C08DE096E00E94E7
:10281000231963C383EF92E069EB71E00E94BD1A54
:10282000009789F486E080935F0388ED96E00E942C
:10283000231980916903882319F087EE96E0E7CF8A
:1028400082E197E0E4CF83EF92E06DEB71E00E94CC
:10285000BD1A009741F083EF92E062EC71E00E94B4
:10286000BD1A009719F48BEB90E0D1CF83EF92E083
:1028700064EC71E00E94BD1A009731F487E0809308
:102880005F0388E798E0C3CF83EF92E068EC71E0E4
:102890000E94BD1A009709F0A8C18DE291E00E9444
:1028A00016198CEF91E00E94161980E091E00E94C9
:1028B00016198EE293E00E94231982EF91E00E94A4
:1028C000161980E091E00E94161980EC92E06BEB03
:1028D00072E00E940D0B8CE493E00E94231980ECBF
:1028E00092E00E94161985E793E00E9423198091D7
:1028F0005D03882329F180EC92E06AE573E00E9491
:102900000D0B84E398E00E94231980EC92E00E9472
:102910001619809164039091650369E073E04AE0C1
:1029200050E00E94131B8FE091E00E94161989E08D
:1029300093E00E94161986E198E00E94231904C0D2
:102940008DEC91E00E9416198FED94E00E942319FE
:1029500080916903882319F08DE397E002C088E431
:1029600097E00E94231986E094E00E942319809149
:102970006803882309F484C083E294E00E94231949
:1029800080913203882359F081ED92E060E373E097
:102990000E94390A81ED92E00E94161904C080E37A
:1029A00096E00E9423198EE594E00E9423198091FD
:1029B000390369E073E00E94EF0989E093E00E9427
:1029C00016198BE894E00E94231980913A0369E07C
:1029D00073E00E941F0A89E093E00E94161980911B
:1029E0003A03813029F580916A03882309F18BEF3E
:1029F00097E00E94231980916A0390E0019769E0B3
:102A000073E04AE050E00E94131B89E093E00E94CB
:102A10001619E0916A03F0E0EC56FC4F808181309A
:102A200019F484ED91E002C087ED91E00E9416193F
:102A300080913B0390913C03A0913D03B0913E03F4
:102A40008F5F9F4FAF4FBF4FF9F08FEA94E00E9426
:102A5000231960913B0370913C0380913D03909159
:102A60003E0349E053E02AE030E00E94341B89E055
:102A700093E00E94161980EF98E00E94231904C089
:102A800082E692E00E94161980E091E00E941619F9
:102A900083E090E00E94681B8F3F09F459C083E9EE
:102AA00093E00E94231984E090E00E94681B8F3F0E
:102AB00099F183E090E00E94681B8093440382E0D8
:102AC00090E00E94681B8093430384E090E00E94A2
:102AD000681B8093410385E090E00E94681B80930F
:102AE000400386E090E00E94681B80933F0388E0EB
:102AF00090E00E94681B8093460387E090E00E946C
:102B0000681B8093420381ED92E06FE373E00E94C3
:102B1000390A81ED92E016C083E090E00E94681BC4
:102B20008093510382E090E00E94681B80935003E1
:102B30001092520389E093E060E573E00E940D0B70
:102B400089E093E00E94161980E091E00E94161936
:102B500081E090E00E94681B8F3F01F180EC93E0E0
:102B60000E94231981E090E00E94681B8093560325
:102B700080E090E00E94681B8093550310925703F9
:102B800089E093E065E573E00E940D0B89E093E036
:102B90000E94161980E091E00E9416198BE095E0E2
:102BA0000E94231980914E03882319F08EE698E045
:102BB00002C084E798E00E94231980E091E00E941F
:102BC000161980E395E00E94231980912F0390E06D
:102BD00069E073E04AE050E00E94131B89E093E053
:102BE0000E9416198AED91E00AC081EE91E00E94E0
:102BF000161981E997E00E94231988E291E00E946A
:102C000016196BC1813081F483EF92E06BEB72E0B7
:102C10000E945D0B892B09F43FC089EE91E00E9470
:102C2000161989EE97E051C18230D1F483EF92E01A
:102C30006AE573E00E945D0B892B71F189EE91E0EA
:102C40000E94161989EE97E00E94231988E291E00C
:102C50000E94161910925E0381E080935D033BC1D0
:102C6000833009F583EF92E06AE573E00E945D0B23
:102C7000892B91F089EE91E00E94161989EE97E078
:102C80000E94231988E291E00E94161981E0809346
:102C90005D0380935E031FC181EE91E00E941619CF
:102CA0008DEA97E012C1843009F057C083EF92E0BB
:102CB00067EB72E00E94BD1A009709F040C0809156
:102CC00068038823B9F489EE91E00E9416198EE911
:102CD00096E00E94231988E291E00E94161981E093
:102CE0008093680389E090E061E00E94701B0E947D
:102CF0008406F1C089EE91E00E9416198BEB96E0F4
:102D00000E94231988E291E00E941619109268032C
:102D100089E090E060E00E94701B809169008E7FE6
:102D200080936900E89880918100887F809381007A
:102D300080916F008E7F80936F005A9ACCC083EF92
:102D400092E069EB72E00E94BD1A009709F4C3C0DB
:102D500083E598E00E942319BEC08530B1F583EF6A
:102D600092E067EB72E00E94BD1A009739F58091FE
:102D7000BF02882391F48DE291E00E94161986EC3F
:102D800097E00E94231988E291E00E94161981E0E1
:102D90008093BF028BE090E049C08DE291E00E94F9
:102DA000161987ED97E00E94231988E291E00E94AE
:102DB00016191092BF028BE090E026C083EF92E0DC
:102DC00069EB72E00E94BD1A3BC08630E9F583EFE3
:102DD00092E067EB72E00E94BD1A009759F580916E
:102DE0006903882399F489EE91E00E94161983E51E
:102DF00097E00E94231988E291E00E94161981E071
:102E0000809369038AE090E061E011C089EE91E06F
:102E10000E94161982E797E00E94231988E291E048
:102E20000E941619109269038AE090E060E00E9407
:102E3000701B51C083EF92E069EB72E00E94BD1AF3
:102E4000009709F448C03BC0873009F044C083EFC5
:102E500092E0B8014AE050E00E9464199B01AC0185
:102E6000E981FA818081882351F5DA01C90102974D
:102E7000A109B1090797A105B10508F520936303DE
:102E800020932F038CE090E0622F0E94701B89EE4C
:102E900091E00E94161981EC98E00E94231980911C
:102EA0002F0390E069E073E04AE050E00E94131BBA
:102EB00089E093E00E94161980EE98E006C081EE4A
:102EC00091E00E94161983E598E00E94231988E298
:102ED00091E00E94161910925F0383EF92E061EF78
:102EE00071E00E94C61A1092030310921804809198
:102EF0005F03882311F00C94530C8DE092E00E9444
:102F000016190C94530C662311F0459A01C045988C
:102F100044983A9A399A389A229A2A98409841982D
:102F2000429887FD2A9A86FD409A85FD419A84FD44
:102F3000429A439A00C043982A98409841984298F0
:102F400083FD2A9A82FD409A81FD419A80FD429A32
:102F5000439A00C04398429A419A409A2A9A089507
:102F6000882311F0459A01C04598449A3A983998B7
:102F700038982298439A00C0329B02C080E101C079
:102F800080E031998062309980641A998068439812
:102F900000C0439A00C032998160319982603099B3
:102FA00084601A9988604398089580E00E94B01761
:102FB00087FDFBCF84E090E00197F1F780E00E946D
:102FC000B01708951F93182F0E94D517812F60E026
:102FD0000E9483171F9108951F93182F0E94D517E1
:102FE000812F61E00E9483171F910895662311F4D9
:102FF000805801C080540E94E21708950E94D5179E
:1030000090E0089581E00E94E217089582E00E9416
:10301000E21708951F93182F0E94D5171A3049F40C
:10302000803410F080E001C080E480580E94E217F4
:1030300004C0812F61E00E9483171F910895CF93F0
:10304000DF93EC0102C00E940A1889918823D9F706
:10305000DF91CF910895CF93DF93EC0102C00E94DE
:103060000A18FE01219684918823C9F7DF91CF9138
:1030700008951F93182F3A9A399A389A229A3D9AAE
:103080003C9A3B9A80E09DE70197F1F7419A429A7A
:10309000439A00C0439880E097E20197F1F7439A82
:1030A00000C0439880E890E0FC013197F1F7439A23
:1030B00000C04398FC013197F1F74298439A00C051
:1030C00043980197F1F788E20E94E21788E00E9496
:1030D000E2170E94021886E00E94E217812F0E94E8
:1030E000E2171F9108951F920F920FB60F921124AD
:1030F0002F938F939F93EF93FF939091C000209114
:10310000C600E0911304EF5FEF7180911404E8179B
:1031100011F482E008C0892F8871E0931304F0E075
:10312000EF50FC4F208380931504FF91EF919F9106
:103130008F912F910F900FBE0F901F9018951F9297
:103140000F920FB60F9211248F939F93EF93FF93DB
:103150009091110480911204981769F0E091120483
:10316000EF5FEF71E0931204F0E0EF52FC4F8081CB
:103170008093C60005C08091C1008F7D8093C100FF
:10318000FF91EF919F918F910F900FBE0F901F9025
:1031900018959C01109211041092120410921304BD
:1031A0001092140497FF04C082E08093C0003F7720
:1031B0003093C5002093C40088E98093C10086E065
:1031C0008093C2000895909113048091140498177D
:1031D00019F420E031E012C0E0911404EF5FEF71C8
:1031E000E0931404F0E0EF50FC4F3081209115047F
:1031F000922F80E0AC01430F511D9A01C90108953F
:10320000282F909111049F5F9F718091120498174D
:10321000E1F3E92FF0E0EF52FC4F2083909311048B
:103220008091C10080628093C1000895CF93DF93A5
:10323000EC0103C021960E94001988818823D1F7F0
:10324000DF91CF910895CF93DF93EC0102C00E94EC
:103250000019FE01219684918823C9F7DF91CF914F
:103260000895991B79E004C0991F961708F0961BE2
:10327000881F7A95C9F78095089597FB092E072630
:103280000AD077FD04D00CD006D000201AF4709537
:1032900061957F4F0895F6F7909581959F4F08951A
:1032A000AA1BBB1B51E107C0AA1FBB1FA617B7076C
:1032B00010F0A61BB70B881F991F5A95A9F7809588
:1032C0009095BC01CD0108952F923F925F926F922D
:1032D0007F928F929F92AF92BF92CF92DF92EF92A6
:1032E000FF920F931F93CF93DF938C011B01EA0191
:1032F0006115710519F0FB0191838083209749F0D6
:10330000CE010297839728F020E030E040E050E0C3
:10331000F6C0F801A1908F018A2D90E00E94931AC7
:10332000892BB9F7FDE2AF1631F4F801A1908F01B6
:103330005524539407C0FBE2AF1619F4F801A1908D
:103340008F015524209719F0C031D105C1F4F0E365
:10335000AF1679F4F8018081883711F0883549F487
:10336000F801A1800E5F1F4FF2E05F2AC0E1D0E0BC
:1033700006C0209721F480E3A816E9F427C0C830DE
:10338000D10531F1C930D10524F4C230D10531F570
:103390000CC0CA30D10589F0C031D105F9F4C12C77
:1033A000D12CE12CB8E0FB2E28C0C12CD12CE12C73
:1033B000A0E4FA2E22C0CAE0D0E0FCECCF2EFCEC58
:1033C000DF2EFCECEF2EFCE0FF2E17C0C8E0D0E0B3
:1033D000C12CD12CE12CE0E1FE2E0FC09E01442730
:1033E00037FD4095542F60E070E080E090E80E9447
:1033F000B01BC901DA016C017D0120E030E040E042
:1034000050E060E03E01882477FC8094982C70EDB9
:10341000B72EBA0CE9E0EB1570F48A2D81548A318D
:1034200018F499ECB92E06C08A2D81568A3150F5D0
:1034300089EAB82EBA0C8B2D90E08C179D0714F5F5
:103440006F3FE1F0C216D306E406F506B0F0CA01FC
:10345000B901A40193010E94911B9B01AC012B0DAA
:10346000311D411D511D2130F0E03F07F0E04F07B5
:10347000F0E85F0710F461E001C06FEFF801A19080
:103480008F01C5CF2114310481F0662331F0015042
:103490001040F1011183008308C051FE1AC0025090
:1034A0001040F1011183008314C067FF12C050FC6B
:1034B00005C02FEF3FEF4FEF5FE704C020E030E0A3
:1034C00040E050E882E290E090932304809322044D
:1034D00016C050FE08C050954095309521953F4F3D
:1034E0004F4F5F4F0CC057FF0AC082E290E09093AD
:1034F0002304809322042FEF3FEF4FEF5FE7B901E2
:10350000CA01DF91CF911F910F91FF90EF90DF9053
:10351000CF90BF90AF909F908F907F906F905F9073
:103520003F902F9008959111E9C0803219F0895091
:103530008550D0F70895FB01DC010D900020E9F7DC
:10354000119705900D920020E1F70895FB01DC0131
:1035500005900D920020E1F7089546E154E00E94A5
:10356000EC1A0895FB01DC010D900020E9F711979A
:1035700001900D920020E1F70895FB01DC018D918F
:10358000019080190110D9F3990B0895FB01DC011A
:1035900001900D920020E1F70895FB01DC010D90F0
:1035A0000020E9F711974150504028F00190002089
:1035B0000D92C9F708951C920895FB01DC0141505A
:1035C000504048F001900D920020C9F701C01D92B3
:1035D00041505040E0F70895FA01A191B081009761
:1035E00019F41097E1F0CD01DC01CD010D90002020
:1035F00011F4C00113C0FB012191222319F0201501
:10360000D9F7F3CFFB012191201519F41E921196E1
:1036100006C02223C1F70D900020A1F7D001FA01C6
:10362000A193B0830895FB019F01E8944230C4F058
:103630004532B4F44A3029F497FB1EF490958195F5
:103640009F4F642F77270E945019805D8A330CF0BA
:10365000895D8193CB010097A1F716F45DE2519348
:103660001082C9010C94811BFA01CF93FF93EF9351
:10367000223044F1253234F5C22FE894CA3049F49F
:1036800097FB3EF490958095709561957F4F8F4F95
:103690009F4F2C2F332744275527FF93EF930E94EA
:1036A000B01BEF91FF91605D6A330CF0695D61932F
:1036B000B901CA01605070408040904051F716F443
:1036C000CDE2C19310828F919F91CF910C94811B79
:1036D000F999FECF92BD81BDF89A992780B50895DA
:1036E000262FF999FECF1FBA92BD81BD20BD0FB61E
:1036F000F894FA9AF99A0FBE0196089599278827A7
:103700000895DC01FC01672F71917723E1F732976F
:1037100004C07C916D9370836291AE17BF07C8F3AC
:103720000895629FD001739FF001829FE00DF11D0B
:10373000649FE00DF11D929FF00D839FF00D749F2B
:10374000F00D659FF00D9927729FB00DE11DF91FD7
:10375000639FB00DE11DF91FBD01CF011124089534
:10376000A1E21A2EAA1BBB1BFD010DC0AA1FBB1F85
:10377000EE1FFF1FA217B307E407F50720F0A21BF7
:10378000B30BE40BF50B661F771F881F991F1A9464
:1037900069F760957095809590959B01AC01BD018E
:0837A000CF010895F894FFCF5A
:1037A8000D0A0003003000000000002D2D2D002020
:1037B800002E00323030003230003A004D455A00B9
:1037C8004D45535A000000001B5B306D001B5B33F6
:1037D800373B316D001B5B324A004249543A003D89
:1037E80000310044434637373A00202D2000535417
:1037F80052472D430A0D003B005F736D74005F61F3
:103808007374005F6E7374005F646366005F737344
:103818006D005F737077005F707374005F7374611D
:10382800740067760067737400676E7400676437A6
:103838000067646100676C700067677300676C738A
:1038480000736D740041545A006E73740061737490
:1038580000646366007073740073736D0068656C50
:1038680070003F007370770073746174006E6F723C
:103878006D616C003D31003D300030306D730D0AD4
:10388800001B5B33313B316D001B5B33323B316DC9
:10389800000056312E303500000000005241204D06
:1038A800757474657275687200000000006D753A71
:1038B8003E20004E6562656E7568727A6569743A75
:1038C8000053796E6368726F6E6973696572652EED
:1038D8002E0044434637372053796E636D6F647505
:1038E800733A004443463737205374617475733A0A
:1038F8002000416B74697600204D696E7574656EA1
:103908002E006465616B746976696572740044435E
:10391800462041757377657274756E673A00444343
:1039280046373720456D7066616E67653A00537992
:103938006E63204D6F6475733A005374726F6D76C1
:103948006572736F7267756E670061757367656618
:10395800616C6C656E21006A006E00000000000159
:103968002D2D3A2D2D3A2D2D0000000000000000CD
:10397800002D2D2D2D2D2D2D2D2D2D202D2D2E2DA8
:103988002D2E2D2D2D2D202D2D3A2D2D202D2D2D6B
:103998002D000000000000000000000000000000F2
:1039A800000000000000000000000000000000000F
:1039B80000000000000000000000000000000000FF
:1039C80000000000000000000000003B002C000484
:1039D8000000000000000001000600FFFFFFFF00DC
:1039E80000000000000001000600FFFFFFFF0100CB
:00000001FF
